{
  "_format": "hh-sol-artifact-1",
  "contractName": "Blocklist",
  "sourceName": "contracts/abby/blocklist/Blocklist.sol",
  "abi": [
    {
      "inputs": [],
      "stateMutability": "nonpayable",
      "type": "constructor"
    },
    {
      "anonymous": false,
      "inputs": [
        {
          "indexed": false,
          "internalType": "address[]",
          "name": "accounts",
          "type": "address[]"
        }
      ],
      "name": "BlockedAddressesAdded",
      "type": "event"
    },
    {
      "anonymous": false,
      "inputs": [
        {
          "indexed": false,
          "internalType": "address[]",
          "name": "accounts",
          "type": "address[]"
        }
      ],
      "name": "BlockedAddressesRemoved",
      "type": "event"
    },
    {
      "anonymous": false,
      "inputs": [
        {
          "indexed": true,
          "internalType": "address",
          "name": "previousOwner",
          "type": "address"
        },
        {
          "indexed": true,
          "internalType": "address",
          "name": "newOwner",
          "type": "address"
        }
      ],
      "name": "OwnershipTransferStarted",
      "type": "event"
    },
    {
      "anonymous": false,
      "inputs": [
        {
          "indexed": true,
          "internalType": "address",
          "name": "previousOwner",
          "type": "address"
        },
        {
          "indexed": true,
          "internalType": "address",
          "name": "newOwner",
          "type": "address"
        }
      ],
      "name": "OwnershipTransferred",
      "type": "event"
    },
    {
      "inputs": [],
      "name": "acceptOwnership",
      "outputs": [],
      "stateMutability": "nonpayable",
      "type": "function"
    },
    {
      "inputs": [
        {
          "internalType": "address[]",
          "name": "accounts",
          "type": "address[]"
        }
      ],
      "name": "addToBlocklist",
      "outputs": [],
      "stateMutability": "nonpayable",
      "type": "function"
    },
    {
      "inputs": [
        {
          "internalType": "address",
          "name": "addr",
          "type": "address"
        }
      ],
      "name": "isBlocked",
      "outputs": [
        {
          "internalType": "bool",
          "name": "",
          "type": "bool"
        }
      ],
      "stateMutability": "view",
      "type": "function"
    },
    {
      "inputs": [],
      "name": "name",
      "outputs": [
        {
          "internalType": "string",
          "name": "",
          "type": "string"
        }
      ],
      "stateMutability": "pure",
      "type": "function"
    },
    {
      "inputs": [],
      "name": "owner",
      "outputs": [
        {
          "internalType": "address",
          "name": "",
          "type": "address"
        }
      ],
      "stateMutability": "view",
      "type": "function"
    },
    {
      "inputs": [],
      "name": "pendingOwner",
      "outputs": [
        {
          "internalType": "address",
          "name": "",
          "type": "address"
        }
      ],
      "stateMutability": "view",
      "type": "function"
    },
    {
      "inputs": [
        {
          "internalType": "address[]",
          "name": "accounts",
          "type": "address[]"
        }
      ],
      "name": "removeFromBlocklist",
      "outputs": [],
      "stateMutability": "nonpayable",
      "type": "function"
    },
    {
      "inputs": [],
      "name": "renounceOwnership",
      "outputs": [],
      "stateMutability": "nonpayable",
      "type": "function"
    },
    {
      "inputs": [
        {
          "internalType": "address",
          "name": "newOwner",
          "type": "address"
        }
      ],
      "name": "transferOwnership",
      "outputs": [],
      "stateMutability": "nonpayable",
      "type": "function"
    }
  ],
  "bytecode": "0x608060405234801561001057600080fd5b5061001a3361001f565b610096565b600180546001600160a01b031916905561004381610046602090811b61048917901c565b50565b600080546001600160a01b038381166001600160a01b0319831681178455604051919092169283917f8be0079c531659141344cd1fd0a4f28419497f9722a3daafe3b4186f6b6457e09190a35050565b6106e7806100a56000396000f3fe608060405234801561001057600080fd5b50600436106100835760003560e01c806306fdde0314610088578063715018a6146100c957806379ba5097146100d35780638da5cb5b146100db578063ab63e69c146100fb578063e30c39781461010e578063f2fde38b1461011f578063f71a55f814610132578063fbac395114610145575b600080fd5b60408051808201825260168152751058989e48119a5b985b98d948109b1bd8dadb1a5cdd60521b602082015290516100c091906104f2565b60405180910390f35b6100d1610181565b005b6100d16101c5565b6100e361023f565b6040516001600160a01b0390911681526020016100c0565b6100d1610109366004610540565b61024e565b6001546001600160a01b03166100e3565b6100d161012d3660046105d1565b61032b565b6100d1610140366004610540565b6103b8565b6101716101533660046105d1565b6001600160a01b031660009081526002602052604090205460ff1690565b60405190151581526020016100c0565b3361018a61023f565b6001600160a01b0316146101b95760405162461bcd60e51b81526004016101b0906105f3565b60405180910390fd5b6101c360006104d9565b565b60015433906001600160a01b031681146102335760405162461bcd60e51b815260206004820152602960248201527f4f776e61626c6532537465703a2063616c6c6572206973206e6f7420746865206044820152683732bb9037bbb732b960b91b60648201526084016101b0565b61023c816104d9565b50565b6000546001600160a01b031690565b3361025761023f565b6001600160a01b03161461027d5760405162461bcd60e51b81526004016101b0906105f3565b60005b818110156102ed576000600260008585858181106102a0576102a0610628565b90506020020160208101906102b591906105d1565b6001600160a01b031681526020810191909152604001600020805460ff19169115159190911790556102e68161063e565b9050610280565b507f825ac0fb57c227a7d56aba274d9e0e69c9c6b837841a26298e3e0148c201ba28828260405161031f929190610665565b60405180910390a15050565b3361033461023f565b6001600160a01b03161461035a5760405162461bcd60e51b81526004016101b0906105f3565b600180546001600160a01b0319166001600160a01b03831690811790915561038061023f565b6001600160a01b03167f38d16b8cac22d99fc7c124b9cd0de2d3fa1faef420bfe791d8c362d765e2270060405160405180910390a350565b336103c161023f565b6001600160a01b0316146103e75760405162461bcd60e51b81526004016101b0906105f3565b60005b818110156104575760016002600085858581811061040a5761040a610628565b905060200201602081019061041f91906105d1565b6001600160a01b031681526020810191909152604001600020805460ff19169115159190911790556104508161063e565b90506103ea565b507f3a615a701ac9b684212c0070be113e8c7847390b2cb8a03c9998684e2a86ae29828260405161031f929190610665565b600080546001600160a01b038381166001600160a01b0319831681178455604051919092169283917f8be0079c531659141344cd1fd0a4f28419497f9722a3daafe3b4186f6b6457e09190a35050565b600180546001600160a01b031916905561023c81610489565b600060208083528351808285015260005b8181101561051f57858101830151858201604001528201610503565b506000604082860101526040601f19601f8301168501019250505092915050565b6000806020838503121561055357600080fd5b823567ffffffffffffffff8082111561056b57600080fd5b818501915085601f83011261057f57600080fd5b81358181111561058e57600080fd5b8660208260051b85010111156105a357600080fd5b60209290920196919550909350505050565b80356001600160a01b03811681146105cc57600080fd5b919050565b6000602082840312156105e357600080fd5b6105ec826105b5565b9392505050565b6020808252818101527f4f776e61626c653a2063616c6c6572206973206e6f7420746865206f776e6572604082015260600190565b634e487b7160e01b600052603260045260246000fd5b60006001820161065e57634e487b7160e01b600052601160045260246000fd5b5060010190565b60208082528181018390526000908460408401835b868110156106a6576001600160a01b03610693846105b5565b168252918301919083019060010161067a565b50969550505050505056fea264697066735822122082aefd04635564ea85fd7dc0e26ce53718a3243e907d690dd26215ca4aba606164736f6c63430008100033",
  "linkReferences": {},
  "deployedLinkReferences": {}
}