{
  "_format": "hh-sol-artifact-1",
  "contractName": "PricerWithOracle",
  "sourceName": "contracts/PricerWithOracle.sol",
  "abi": [
    {
      "inputs": [
        {
          "internalType": "address",
          "name": "admin",
          "type": "address"
        },
        {
          "internalType": "address",
          "name": "pricer",
          "type": "address"
        },
        {
          "internalType": "address",
          "name": "_rwaOracle",
          "type": "address"
        }
      ],
      "stateMutability": "nonpayable",
      "type": "constructor"
    },
    {
      "inputs": [],
      "name": "InvalidPrice",
      "type": "error"
    },
    {
      "inputs": [],
      "name": "LatestPriceMismatch",
      "type": "error"
    },
    {
      "inputs": [],
      "name": "PriceIdDoesNotExist",
      "type": "error"
    },
    {
      "inputs": [],
      "name": "PricesAlreadyMatch",
      "type": "error"
    },
    {
      "anonymous": false,
      "inputs": [
        {
          "indexed": true,
          "internalType": "uint256",
          "name": "priceId",
          "type": "uint256"
        },
        {
          "indexed": false,
          "internalType": "uint256",
          "name": "price",
          "type": "uint256"
        },
        {
          "indexed": false,
          "internalType": "uint256",
          "name": "timestamp",
          "type": "uint256"
        }
      ],
      "name": "PriceAdded",
      "type": "event"
    },
    {
      "anonymous": false,
      "inputs": [
        {
          "indexed": true,
          "internalType": "uint256",
          "name": "priceId",
          "type": "uint256"
        },
        {
          "indexed": false,
          "internalType": "uint256",
          "name": "oldPrice",
          "type": "uint256"
        },
        {
          "indexed": false,
          "internalType": "uint256",
          "name": "newPrice",
          "type": "uint256"
        }
      ],
      "name": "PriceUpdated",
      "type": "event"
    },
    {
      "anonymous": false,
      "inputs": [
        {
          "indexed": true,
          "internalType": "bytes32",
          "name": "role",
          "type": "bytes32"
        },
        {
          "indexed": true,
          "internalType": "bytes32",
          "name": "previousAdminRole",
          "type": "bytes32"
        },
        {
          "indexed": true,
          "internalType": "bytes32",
          "name": "newAdminRole",
          "type": "bytes32"
        }
      ],
      "name": "RoleAdminChanged",
      "type": "event"
    },
    {
      "anonymous": false,
      "inputs": [
        {
          "indexed": true,
          "internalType": "bytes32",
          "name": "role",
          "type": "bytes32"
        },
        {
          "indexed": true,
          "internalType": "address",
          "name": "account",
          "type": "address"
        },
        {
          "indexed": true,
          "internalType": "address",
          "name": "sender",
          "type": "address"
        }
      ],
      "name": "RoleGranted",
      "type": "event"
    },
    {
      "anonymous": false,
      "inputs": [
        {
          "indexed": true,
          "internalType": "bytes32",
          "name": "role",
          "type": "bytes32"
        },
        {
          "indexed": true,
          "internalType": "address",
          "name": "account",
          "type": "address"
        },
        {
          "indexed": true,
          "internalType": "address",
          "name": "sender",
          "type": "address"
        }
      ],
      "name": "RoleRevoked",
      "type": "event"
    },
    {
      "inputs": [],
      "name": "DEFAULT_ADMIN_ROLE",
      "outputs": [
        {
          "internalType": "bytes32",
          "name": "",
          "type": "bytes32"
        }
      ],
      "stateMutability": "view",
      "type": "function"
    },
    {
      "inputs": [],
      "name": "PRICE_UPDATE_ROLE",
      "outputs": [
        {
          "internalType": "bytes32",
          "name": "",
          "type": "bytes32"
        }
      ],
      "stateMutability": "view",
      "type": "function"
    },
    {
      "inputs": [],
      "name": "addLatestOraclePrice",
      "outputs": [],
      "stateMutability": "nonpayable",
      "type": "function"
    },
    {
      "inputs": [
        {
          "internalType": "uint256",
          "name": "price",
          "type": "uint256"
        },
        {
          "internalType": "uint256",
          "name": "timestamp",
          "type": "uint256"
        }
      ],
      "name": "addPrice",
      "outputs": [],
      "stateMutability": "nonpayable",
      "type": "function"
    },
    {
      "inputs": [],
      "name": "currentPriceId",
      "outputs": [
        {
          "internalType": "uint256",
          "name": "",
          "type": "uint256"
        }
      ],
      "stateMutability": "view",
      "type": "function"
    },
    {
      "inputs": [],
      "name": "getLatestPrice",
      "outputs": [
        {
          "internalType": "uint256",
          "name": "",
          "type": "uint256"
        }
      ],
      "stateMutability": "view",
      "type": "function"
    },
    {
      "inputs": [
        {
          "internalType": "uint256",
          "name": "priceId",
          "type": "uint256"
        }
      ],
      "name": "getPrice",
      "outputs": [
        {
          "internalType": "uint256",
          "name": "",
          "type": "uint256"
        }
      ],
      "stateMutability": "view",
      "type": "function"
    },
    {
      "inputs": [
        {
          "internalType": "bytes32",
          "name": "role",
          "type": "bytes32"
        }
      ],
      "name": "getRoleAdmin",
      "outputs": [
        {
          "internalType": "bytes32",
          "name": "",
          "type": "bytes32"
        }
      ],
      "stateMutability": "view",
      "type": "function"
    },
    {
      "inputs": [
        {
          "internalType": "bytes32",
          "name": "role",
          "type": "bytes32"
        },
        {
          "internalType": "uint256",
          "name": "index",
          "type": "uint256"
        }
      ],
      "name": "getRoleMember",
      "outputs": [
        {
          "internalType": "address",
          "name": "",
          "type": "address"
        }
      ],
      "stateMutability": "view",
      "type": "function"
    },
    {
      "inputs": [
        {
          "internalType": "bytes32",
          "name": "role",
          "type": "bytes32"
        }
      ],
      "name": "getRoleMemberCount",
      "outputs": [
        {
          "internalType": "uint256",
          "name": "",
          "type": "uint256"
        }
      ],
      "stateMutability": "view",
      "type": "function"
    },
    {
      "inputs": [
        {
          "internalType": "bytes32",
          "name": "role",
          "type": "bytes32"
        },
        {
          "internalType": "address",
          "name": "account",
          "type": "address"
        }
      ],
      "name": "grantRole",
      "outputs": [],
      "stateMutability": "nonpayable",
      "type": "function"
    },
    {
      "inputs": [
        {
          "internalType": "bytes32",
          "name": "role",
          "type": "bytes32"
        },
        {
          "internalType": "address",
          "name": "account",
          "type": "address"
        }
      ],
      "name": "hasRole",
      "outputs": [
        {
          "internalType": "bool",
          "name": "",
          "type": "bool"
        }
      ],
      "stateMutability": "view",
      "type": "function"
    },
    {
      "inputs": [],
      "name": "latestPriceId",
      "outputs": [
        {
          "internalType": "uint256",
          "name": "",
          "type": "uint256"
        }
      ],
      "stateMutability": "view",
      "type": "function"
    },
    {
      "inputs": [
        {
          "internalType": "uint256",
          "name": "",
          "type": "uint256"
        }
      ],
      "name": "priceIds",
      "outputs": [
        {
          "internalType": "uint256",
          "name": "",
          "type": "uint256"
        }
      ],
      "stateMutability": "view",
      "type": "function"
    },
    {
      "inputs": [
        {
          "internalType": "uint256",
          "name": "",
          "type": "uint256"
        }
      ],
      "name": "prices",
      "outputs": [
        {
          "internalType": "uint256",
          "name": "price",
          "type": "uint256"
        },
        {
          "internalType": "uint256",
          "name": "timestamp",
          "type": "uint256"
        }
      ],
      "stateMutability": "view",
      "type": "function"
    },
    {
      "inputs": [
        {
          "internalType": "bytes32",
          "name": "role",
          "type": "bytes32"
        },
        {
          "internalType": "address",
          "name": "account",
          "type": "address"
        }
      ],
      "name": "renounceRole",
      "outputs": [],
      "stateMutability": "nonpayable",
      "type": "function"
    },
    {
      "inputs": [
        {
          "internalType": "bytes32",
          "name": "role",
          "type": "bytes32"
        },
        {
          "internalType": "address",
          "name": "account",
          "type": "address"
        }
      ],
      "name": "revokeRole",
      "outputs": [],
      "stateMutability": "nonpayable",
      "type": "function"
    },
    {
      "inputs": [],
      "name": "rwaOracle",
      "outputs": [
        {
          "internalType": "contract IRWAOracleSetter",
          "name": "",
          "type": "address"
        }
      ],
      "stateMutability": "view",
      "type": "function"
    },
    {
      "inputs": [
        {
          "internalType": "bytes4",
          "name": "interfaceId",
          "type": "bytes4"
        }
      ],
      "name": "supportsInterface",
      "outputs": [
        {
          "internalType": "bool",
          "name": "",
          "type": "bool"
        }
      ],
      "stateMutability": "view",
      "type": "function"
    },
    {
      "inputs": [
        {
          "internalType": "uint256",
          "name": "priceId",
          "type": "uint256"
        },
        {
          "internalType": "uint256",
          "name": "price",
          "type": "uint256"
        }
      ],
      "name": "updatePrice",
      "outputs": [],
      "stateMutability": "nonpayable",
      "type": "function"
    }
  ],
  "bytecode": "0x60a06040523480156200001157600080fd5b506040516200153438038062001534833981016040819052620000349162000324565b828262000043600083620001b1565b6200006f7ff7650eb8b2f3fb3c9b995a8ee2fc3c04ed07f1c4efe01998177b109698c6751782620001b1565b50506001600160a01b0381166080526004805460009190829062000093906200036e565b91905081905590506000806080516001600160a01b031663a4a281686040518163ffffffff1660e01b81526004016040805180830381865afa158015620000de573d6000803e3d6000fd5b505050506040513d601f19601f8201168201806040525081019062000104919062000396565b604080518082018252838152602080820184815260008981526002835284812093518455905160019384015560038054938401815590527fc2575a0e9e593c00f959f8c92f12db2869c3395a3b0502d05e2516446f71f85b9091018790556005879055815184815290810183905292945090925084917fe1bc32bb3797b6327bbbe2391d39c062a5b4f0c68970d144a74d7f17d2e38aaa910160405180910390a2505050505050620003bb565b620001c88282620001f460201b620008581760201c565b6000828152600160209081526040909120620001ef918390620008dc62000295821b17901c565b505050565b6000828152602081815260408083206001600160a01b038516845290915290205460ff1662000291576000828152602081815260408083206001600160a01b03851684529091529020805460ff19166001179055620002503390565b6001600160a01b0316816001600160a01b0316837f2f8788117e7eff1d82e926ec794901d17c78024a50270940304540a733656f0d60405160405180910390a45b5050565b6000620002ac836001600160a01b038416620002b5565b90505b92915050565b6000818152600183016020526040812054620002fe57508154600181810184556000848152602080822090930184905584548482528286019093526040902091909155620002af565b506000620002af565b80516001600160a01b03811681146200031f57600080fd5b919050565b6000806000606084860312156200033a57600080fd5b620003458462000307565b9250620003556020850162000307565b9150620003656040850162000307565b90509250925092565b6000600182016200038f57634e487b7160e01b600052601160045260246000fd5b5060010190565b60008060408385031215620003aa57600080fd5b505080516020909101519092909150565b608051611148620003ec600039600081816101ee0152818161052a015281816109d20152610a9901526111486000f3fe608060405234801561001057600080fd5b506004361061012c5760003560e01c80639010d07c116100ad578063ca15c87311610071578063ca15c873146102be578063d547741f146102d1578063e2d9e3f2146102e4578063e7572230146102f7578063fb5620511461031757600080fd5b80639010d07c1461023f57806391d1485414610252578063a217fddf14610265578063b8b6f0751461026d578063bc31c1c11461028257600080fd5b806357279353116100f457806357279353146101bb5780636000b8aa146101ce57806382367b2d146101d65780638aec6463146101e95780638e15f4731461022857600080fd5b806301ffc9a714610131578063145de16814610159578063248a9ca3146101705780632f2ff15d1461019357806336568abe146101a8575b600080fd5b61014461013f366004610e9a565b610320565b60405190151581526020015b60405180910390f35b61016260045481565b604051908152602001610150565b61016261017e366004610ec4565b60009081526020819052604090206001015490565b6101a66101a1366004610edd565b61034b565b005b6101a66101b6366004610edd565b610376565b6101a66101c9366004610f19565b6103f9565b6101a661050c565b6101a66101e4366004610f19565b6106c9565b6102107f000000000000000000000000000000000000000000000000000000000000000081565b6040516001600160a01b039091168152602001610150565b600554600090815260026020526040902054610162565b61021061024d366004610f19565b6107b2565b610144610260366004610edd565b6107d1565b610162600081565b6101626000805160206110f383398151915281565b6102a9610290366004610ec4565b6002602052600090815260409020805460019091015482565b60408051928352602083019190915201610150565b6101626102cc366004610ec4565b6107fa565b6101a66102df366004610edd565b610811565b6101626102f2366004610ec4565b610837565b610162610305366004610ec4565b60009081526002602052604090205490565b61016260055481565b60006001600160e01b03198216635a05180f60e01b14806103455750610345826108f1565b92915050565b6000828152602081905260409020600101546103678133610926565b610371838361098a565b505050565b6001600160a01b03811633146103eb5760405162461bcd60e51b815260206004820152602f60248201527f416363657373436f6e74726f6c3a2063616e206f6e6c792072656e6f756e636560448201526e103937b632b9903337b91039b2b63360891b60648201526084015b60405180910390fd5b6103f582826109ac565b5050565b6000805160206110f38339815191526104128133610926565b826000036104325760405162bfc92160e01b815260040160405180910390fd5b600060046000815461044390610f51565b91829055506040805180820182528681526020808201878152600085815260029092528382209251835551600192830155600380548084019091557fc2575a0e9e593c00f959f8c92f12db2869c3395a3b0502d05e2516446f71f85b0184905560055481529190912001549091508311156104ca576104c4846005546109ce565b60058190555b604080518581526020810185905282917fe1bc32bb3797b6327bbbe2391d39c062a5b4f0c68970d144a74d7f17d2e38aaa91015b60405180910390a250505050565b6000805160206110f38339815191526105258133610926565b6000807f00000000000000000000000000000000000000000000000000000000000000006001600160a01b031663a4a281686040518163ffffffff1660e01b81526004016040805180830381865afa158015610585573d6000803e3d6000fd5b505050506040513d601f19601f820116820180604052508101906105a99190610f6a565b600554600090815260026020908152604091829020825180840190935280548084526001909101549183019190915292945090925090831480156105f05750818160200151145b1561060e576040516343ea2c0d60e11b815260040160405180910390fd5b600060046000815461061f90610f51565b9182905550604080518082018252868152602080820187815260008581526002835284812093518455905160019384015560038054938401815590527fc2575a0e9e593c00f959f8c92f12db2869c3395a3b0502d05e2516446f71f85b9091018390556005839055815187815290810186905291925082917fe1bc32bb3797b6327bbbe2391d39c062a5b4f0c68970d144a74d7f17d2e38aaa910160405180910390a25050505050565b6000805160206110f38339815191526106e28133610926565b816000036107025760405162bfc92160e01b815260040160405180910390fd5b60008381526002602052604081205490036107305760405163b75e419960e01b815260040160405180910390fd5b60008381526002602081815260408084208151808301835281548152600182018054828601908152845180860186528a81529051818701908152978b9052958552945190915593519092558251825190815290810185905285917f15819dd2fd9f6418b142e798d08a18d0bf06ea368f4480b7b0d3f75bd966bc4891016104fe565b60008281526001602052604081206107ca9083610b02565b9392505050565b6000918252602082815260408084206001600160a01b0393909316845291905290205460ff1690565b600081815260016020526040812061034590610b0e565b60008281526020819052604090206001015461082d8133610926565b61037183836109ac565b6003818154811061084757600080fd5b600091825260209091200154905081565b61086282826107d1565b6103f5576000828152602081815260408083206001600160a01b03851684529091529020805460ff191660011790556108983390565b6001600160a01b0316816001600160a01b0316837f2f8788117e7eff1d82e926ec794901d17c78024a50270940304540a733656f0d60405160405180910390a45050565b60006107ca836001600160a01b038416610b18565b60006001600160e01b03198216637965db0b60e01b148061034557506301ffc9a760e01b6001600160e01b0319831614610345565b61093082826107d1565b6103f557610948816001600160a01b03166014610b67565b610953836020610b67565b604051602001610964929190610fb2565b60408051601f198184030181529082905262461bcd60e51b82526103e291600401611021565b6109948282610858565b600082815260016020526040902061037190826108dc565b6109b68282610d03565b60008281526001602052604090206103719082610d68565b60007f00000000000000000000000000000000000000000000000000000000000000006001600160a01b031663a4a281686040518163ffffffff1660e01b81526004016040805180830381865afa158015610a2d573d6000803e3d6000fd5b505050506040513d601f19601f82011682018060405250810190610a519190610f6a565b506000838152600260205260409020549091508114610a8357604051633a8cdb6960e11b815260040160405180910390fd5b604051637bd1840360e11b8152600481018490527f00000000000000000000000000000000000000000000000000000000000000006001600160a01b03169063f7a3080690602401600060405180830381600087803b158015610ae557600080fd5b505af1158015610af9573d6000803e3d6000fd5b50505050505050565b60006107ca8383610d7d565b6000610345825490565b6000818152600183016020526040812054610b5f57508154600181810184556000848152602080822090930184905584548482528286019093526040902091909155610345565b506000610345565b60606000610b76836002611054565b610b81906002611073565b67ffffffffffffffff811115610b9957610b99611086565b6040519080825280601f01601f191660200182016040528015610bc3576020820181803683370190505b509050600360fc1b81600081518110610bde57610bde61109c565b60200101906001600160f81b031916908160001a905350600f60fb1b81600181518110610c0d57610c0d61109c565b60200101906001600160f81b031916908160001a9053506000610c31846002611054565b610c3c906001611073565b90505b6001811115610cb4576f181899199a1a9b1b9c1cb0b131b232b360811b85600f1660108110610c7057610c7061109c565b1a60f81b828281518110610c8657610c8661109c565b60200101906001600160f81b031916908160001a90535060049490941c93610cad816110b2565b9050610c3f565b5083156107ca5760405162461bcd60e51b815260206004820181905260248201527f537472696e67733a20686578206c656e67746820696e73756666696369656e7460448201526064016103e2565b610d0d82826107d1565b156103f5576000828152602081815260408083206001600160a01b0385168085529252808320805460ff1916905551339285917ff6391f5c32d9c69d2a47ea670b442974b53935d1edc7fd64eb21e047a839171b9190a45050565b60006107ca836001600160a01b038416610da7565b6000826000018281548110610d9457610d9461109c565b9060005260206000200154905092915050565b60008181526001830160205260408120548015610e90576000610dcb6001836110c9565b8554909150600090610ddf906001906110c9565b9050818114610e44576000866000018281548110610dff57610dff61109c565b9060005260206000200154905080876000018481548110610e2257610e2261109c565b6000918252602080832090910192909255918252600188019052604090208390555b8554869080610e5557610e556110dc565b600190038181906000526020600020016000905590558560010160008681526020019081526020016000206000905560019350505050610345565b6000915050610345565b600060208284031215610eac57600080fd5b81356001600160e01b0319811681146107ca57600080fd5b600060208284031215610ed657600080fd5b5035919050565b60008060408385031215610ef057600080fd5b8235915060208301356001600160a01b0381168114610f0e57600080fd5b809150509250929050565b60008060408385031215610f2c57600080fd5b50508035926020909101359150565b634e487b7160e01b600052601160045260246000fd5b600060018201610f6357610f63610f3b565b5060010190565b60008060408385031215610f7d57600080fd5b505080516020909101519092909150565b60005b83811015610fa9578181015183820152602001610f91565b50506000910152565b76020b1b1b2b9b9a1b7b73a3937b61d1030b1b1b7bab73a1604d1b815260008351610fe4816017850160208801610f8e565b7001034b99036b4b9b9b4b733903937b6329607d1b6017918401918201528351611015816028840160208801610f8e565b01602801949350505050565b6020815260008251806020840152611040816040850160208701610f8e565b601f01601f19169190910160400192915050565b600081600019048311821515161561106e5761106e610f3b565b500290565b8082018082111561034557610345610f3b565b634e487b7160e01b600052604160045260246000fd5b634e487b7160e01b600052603260045260246000fd5b6000816110c1576110c1610f3b565b506000190190565b8181038181111561034557610345610f3b565b634e487b7160e01b600052603160045260246000fdfef7650eb8b2f3fb3c9b995a8ee2fc3c04ed07f1c4efe01998177b109698c67517a264697066735822122074ff6e4e1671f99a169c4295978d7f9667e4fc381e0c96c079f506575bcef69664736f6c63430008100033",
  "linkReferences": {},
  "deployedLinkReferences": {}
}