{
  "_format": "hh-sol-artifact-1",
  "contractName": "AYFManager",
  "sourceName": "contracts/abby/AYFManager.sol",
  "abi": [
    {
      "inputs": [
        {
          "internalType": "address",
          "name": "_collateral",
          "type": "address"
        },
        {
          "internalType": "address",
          "name": "_rwa",
          "type": "address"
        },
        {
          "internalType": "address",
          "name": "managerAdmin",
          "type": "address"
        },
        {
          "internalType": "address",
          "name": "pauser",
          "type": "address"
        },
        {
          "internalType": "address",
          "name": "_assetSender",
          "type": "address"
        },
        {
          "internalType": "address",
          "name": "_feeRecipient",
          "type": "address"
        },
        {
          "internalType": "uint256",
          "name": "_minimumDepositAmount",
          "type": "uint256"
        },
        {
          "internalType": "uint256",
          "name": "_minimumRedemptionAmount",
          "type": "uint256"
        },
        {
          "internalType": "address",
          "name": "blocklist",
          "type": "address"
        }
      ],
      "stateMutability": "nonpayable",
      "type": "constructor"
    },
    {
      "inputs": [],
      "name": "AmountTooSmall",
      "type": "error"
    },
    {
      "inputs": [],
      "name": "ArraySizeMismatch",
      "type": "error"
    },
    {
      "inputs": [],
      "name": "AssetSenderCannotBeZero",
      "type": "error"
    },
    {
      "inputs": [],
      "name": "ClaimableTimestampInPast",
      "type": "error"
    },
    {
      "inputs": [],
      "name": "ClaimableTimestampNotSet",
      "type": "error"
    },
    {
      "inputs": [],
      "name": "CollateralCannotBeZero",
      "type": "error"
    },
    {
      "inputs": [],
      "name": "DepositProofAlreadyExists",
      "type": "error"
    },
    {
      "inputs": [],
      "name": "DepositTooSmall",
      "type": "error"
    },
    {
      "inputs": [],
      "name": "DepositorNull",
      "type": "error"
    },
    {
      "inputs": [],
      "name": "FeaturePaused",
      "type": "error"
    },
    {
      "inputs": [],
      "name": "FeeRecipientCannotBeZero",
      "type": "error"
    },
    {
      "inputs": [],
      "name": "FeeTooLarge",
      "type": "error"
    },
    {
      "inputs": [],
      "name": "MintNotYetClaimable",
      "type": "error"
    },
    {
      "inputs": [],
      "name": "PriceIdAlreadySet",
      "type": "error"
    },
    {
      "inputs": [],
      "name": "PriceIdNotSet",
      "type": "error"
    },
    {
      "inputs": [],
      "name": "RWACannotBeZero",
      "type": "error"
    },
    {
      "inputs": [],
      "name": "RedeemerNull",
      "type": "error"
    },
    {
      "inputs": [],
      "name": "RedemptionTooSmall",
      "type": "error"
    },
    {
      "inputs": [],
      "name": "TxnAlreadyValidated",
      "type": "error"
    },
    {
      "anonymous": false,
      "inputs": [
        {
          "indexed": false,
          "internalType": "address",
          "name": "oldAssetSender",
          "type": "address"
        },
        {
          "indexed": false,
          "internalType": "address",
          "name": "newAssetSender",
          "type": "address"
        }
      ],
      "name": "AssetSenderSet",
      "type": "event"
    },
    {
      "anonymous": false,
      "inputs": [
        {
          "indexed": true,
          "internalType": "uint256",
          "name": "claimTimestamp",
          "type": "uint256"
        },
        {
          "indexed": true,
          "internalType": "bytes32",
          "name": "depositId",
          "type": "bytes32"
        }
      ],
      "name": "ClaimableTimestampSet",
      "type": "event"
    },
    {
      "anonymous": false,
      "inputs": [
        {
          "indexed": true,
          "internalType": "bytes32",
          "name": "txHash",
          "type": "bytes32"
        },
        {
          "indexed": true,
          "internalType": "address",
          "name": "user",
          "type": "address"
        },
        {
          "indexed": false,
          "internalType": "uint256",
          "name": "depositAmountAfterFee",
          "type": "uint256"
        },
        {
          "indexed": false,
          "internalType": "uint256",
          "name": "feeAmount",
          "type": "uint256"
        },
        {
          "indexed": false,
          "internalType": "uint256",
          "name": "timestamp",
          "type": "uint256"
        }
      ],
      "name": "DepositProofAdded",
      "type": "event"
    },
    {
      "anonymous": false,
      "inputs": [
        {
          "indexed": true,
          "internalType": "bytes32",
          "name": "depositId",
          "type": "bytes32"
        },
        {
          "indexed": false,
          "internalType": "address",
          "name": "oldDepositor",
          "type": "address"
        },
        {
          "indexed": false,
          "internalType": "address",
          "name": "newDepositor",
          "type": "address"
        },
        {
          "indexed": false,
          "internalType": "uint256",
          "name": "oldPriceId",
          "type": "uint256"
        },
        {
          "indexed": false,
          "internalType": "uint256",
          "name": "newPriceId",
          "type": "uint256"
        },
        {
          "indexed": false,
          "internalType": "uint256",
          "name": "oldDepositAmount",
          "type": "uint256"
        },
        {
          "indexed": false,
          "internalType": "uint256",
          "name": "newDepositAmount",
          "type": "uint256"
        }
      ],
      "name": "DepositorOverwritten",
      "type": "event"
    },
    {
      "anonymous": false,
      "inputs": [
        {
          "indexed": false,
          "internalType": "address",
          "name": "oldFeeRecipient",
          "type": "address"
        },
        {
          "indexed": false,
          "internalType": "address",
          "name": "newFeeRecipient",
          "type": "address"
        }
      ],
      "name": "FeeRecipientSet",
      "type": "event"
    },
    {
      "anonymous": false,
      "inputs": [
        {
          "indexed": false,
          "internalType": "uint256",
          "name": "oldMinimum",
          "type": "uint256"
        },
        {
          "indexed": false,
          "internalType": "uint256",
          "name": "newMinimum",
          "type": "uint256"
        }
      ],
      "name": "MinimumDepositAmountSet",
      "type": "event"
    },
    {
      "anonymous": false,
      "inputs": [
        {
          "indexed": false,
          "internalType": "uint256",
          "name": "oldRedemptionMin",
          "type": "uint256"
        },
        {
          "indexed": false,
          "internalType": "uint256",
          "name": "newRedemptionMin",
          "type": "uint256"
        }
      ],
      "name": "MinimumRedemptionAmountSet",
      "type": "event"
    },
    {
      "anonymous": false,
      "inputs": [
        {
          "indexed": true,
          "internalType": "address",
          "name": "user",
          "type": "address"
        },
        {
          "indexed": true,
          "internalType": "bytes32",
          "name": "depositId",
          "type": "bytes32"
        },
        {
          "indexed": false,
          "internalType": "uint256",
          "name": "rwaAmountOut",
          "type": "uint256"
        },
        {
          "indexed": false,
          "internalType": "uint256",
          "name": "collateralAmountDeposited",
          "type": "uint256"
        },
        {
          "indexed": false,
          "internalType": "uint256",
          "name": "price",
          "type": "uint256"
        },
        {
          "indexed": false,
          "internalType": "uint256",
          "name": "priceId",
          "type": "uint256"
        }
      ],
      "name": "MintCompleted",
      "type": "event"
    },
    {
      "anonymous": false,
      "inputs": [
        {
          "indexed": false,
          "internalType": "uint256",
          "name": "oldFee",
          "type": "uint256"
        },
        {
          "indexed": false,
          "internalType": "uint256",
          "name": "newFee",
          "type": "uint256"
        }
      ],
      "name": "MintFeeSet",
      "type": "event"
    },
    {
      "anonymous": false,
      "inputs": [
        {
          "indexed": true,
          "internalType": "address",
          "name": "user",
          "type": "address"
        },
        {
          "indexed": true,
          "internalType": "bytes32",
          "name": "depositId",
          "type": "bytes32"
        },
        {
          "indexed": false,
          "internalType": "uint256",
          "name": "collateralAmountDeposited",
          "type": "uint256"
        },
        {
          "indexed": false,
          "internalType": "uint256",
          "name": "depositAmountAfterFee",
          "type": "uint256"
        },
        {
          "indexed": false,
          "internalType": "uint256",
          "name": "feeAmount",
          "type": "uint256"
        }
      ],
      "name": "MintRequested",
      "type": "event"
    },
    {
      "anonymous": false,
      "inputs": [
        {
          "indexed": false,
          "internalType": "address",
          "name": "oldPricer",
          "type": "address"
        },
        {
          "indexed": false,
          "internalType": "address",
          "name": "newPricer",
          "type": "address"
        }
      ],
      "name": "NewPricerSet",
      "type": "event"
    },
    {
      "anonymous": false,
      "inputs": [
        {
          "indexed": true,
          "internalType": "bytes32",
          "name": "depositIdSet",
          "type": "bytes32"
        },
        {
          "indexed": true,
          "internalType": "uint256",
          "name": "priceIdSet",
          "type": "uint256"
        }
      ],
      "name": "PriceIdSetForDeposit",
      "type": "event"
    },
    {
      "anonymous": false,
      "inputs": [
        {
          "indexed": true,
          "internalType": "bytes32",
          "name": "redemptionIdSet",
          "type": "bytes32"
        },
        {
          "indexed": true,
          "internalType": "uint256",
          "name": "priceIdSet",
          "type": "uint256"
        },
        {
          "indexed": false,
          "internalType": "bytes32",
          "name": "collateralType",
          "type": "bytes32"
        }
      ],
      "name": "PriceIdSetForRedemption",
      "type": "event"
    },
    {
      "anonymous": false,
      "inputs": [
        {
          "indexed": true,
          "internalType": "bytes32",
          "name": "redemptionId",
          "type": "bytes32"
        },
        {
          "indexed": false,
          "internalType": "address",
          "name": "oldRedeemer",
          "type": "address"
        },
        {
          "indexed": false,
          "internalType": "address",
          "name": "newRedeemer",
          "type": "address"
        },
        {
          "indexed": false,
          "internalType": "uint256",
          "name": "oldPriceId",
          "type": "uint256"
        },
        {
          "indexed": false,
          "internalType": "uint256",
          "name": "newPriceId",
          "type": "uint256"
        },
        {
          "indexed": false,
          "internalType": "uint256",
          "name": "oldRWATokenAmountBurned",
          "type": "uint256"
        },
        {
          "indexed": false,
          "internalType": "uint256",
          "name": "newRWATokenAmountBurned",
          "type": "uint256"
        }
      ],
      "name": "RedeemerOverwritten",
      "type": "event"
    },
    {
      "anonymous": false,
      "inputs": [
        {
          "indexed": true,
          "internalType": "bytes32",
          "name": "redemptionId",
          "type": "bytes32"
        },
        {
          "indexed": false,
          "internalType": "bytes32",
          "name": "collateralType",
          "type": "bytes32"
        }
      ],
      "name": "RedemptionApproved",
      "type": "event"
    },
    {
      "anonymous": false,
      "inputs": [
        {
          "indexed": true,
          "internalType": "address",
          "name": "user",
          "type": "address"
        },
        {
          "indexed": true,
          "internalType": "bytes32",
          "name": "redemptionId",
          "type": "bytes32"
        },
        {
          "indexed": false,
          "internalType": "uint256",
          "name": "rwaAmountRequested",
          "type": "uint256"
        },
        {
          "indexed": false,
          "internalType": "uint256",
          "name": "collateralAmountReturned",
          "type": "uint256"
        },
        {
          "indexed": false,
          "internalType": "uint256",
          "name": "price",
          "type": "uint256"
        },
        {
          "indexed": false,
          "internalType": "bytes32",
          "name": "collateralType",
          "type": "bytes32"
        }
      ],
      "name": "RedemptionCompleted",
      "type": "event"
    },
    {
      "anonymous": false,
      "inputs": [
        {
          "indexed": false,
          "internalType": "uint256",
          "name": "oldFee",
          "type": "uint256"
        },
        {
          "indexed": false,
          "internalType": "uint256",
          "name": "newFee",
          "type": "uint256"
        }
      ],
      "name": "RedemptionFeeSet",
      "type": "event"
    },
    {
      "anonymous": false,
      "inputs": [
        {
          "indexed": false,
          "internalType": "address",
          "name": "caller",
          "type": "address"
        }
      ],
      "name": "RedemptionPaused",
      "type": "event"
    },
    {
      "anonymous": false,
      "inputs": [
        {
          "indexed": true,
          "internalType": "address",
          "name": "user",
          "type": "address"
        },
        {
          "indexed": true,
          "internalType": "bytes32",
          "name": "redemptionId",
          "type": "bytes32"
        },
        {
          "indexed": false,
          "internalType": "uint256",
          "name": "rwaAmountIn",
          "type": "uint256"
        },
        {
          "indexed": false,
          "internalType": "bytes32",
          "name": "collateralType",
          "type": "bytes32"
        }
      ],
      "name": "RedemptionRequested",
      "type": "event"
    },
    {
      "anonymous": false,
      "inputs": [
        {
          "indexed": false,
          "internalType": "address",
          "name": "caller",
          "type": "address"
        }
      ],
      "name": "RedemptionUnpaused",
      "type": "event"
    },
    {
      "anonymous": false,
      "inputs": [
        {
          "indexed": true,
          "internalType": "bytes32",
          "name": "role",
          "type": "bytes32"
        },
        {
          "indexed": true,
          "internalType": "bytes32",
          "name": "previousAdminRole",
          "type": "bytes32"
        },
        {
          "indexed": true,
          "internalType": "bytes32",
          "name": "newAdminRole",
          "type": "bytes32"
        }
      ],
      "name": "RoleAdminChanged",
      "type": "event"
    },
    {
      "anonymous": false,
      "inputs": [
        {
          "indexed": true,
          "internalType": "bytes32",
          "name": "role",
          "type": "bytes32"
        },
        {
          "indexed": true,
          "internalType": "address",
          "name": "account",
          "type": "address"
        },
        {
          "indexed": true,
          "internalType": "address",
          "name": "sender",
          "type": "address"
        }
      ],
      "name": "RoleGranted",
      "type": "event"
    },
    {
      "anonymous": false,
      "inputs": [
        {
          "indexed": true,
          "internalType": "bytes32",
          "name": "role",
          "type": "bytes32"
        },
        {
          "indexed": true,
          "internalType": "address",
          "name": "account",
          "type": "address"
        },
        {
          "indexed": true,
          "internalType": "address",
          "name": "sender",
          "type": "address"
        }
      ],
      "name": "RoleRevoked",
      "type": "event"
    },
    {
      "anonymous": false,
      "inputs": [
        {
          "indexed": false,
          "internalType": "address",
          "name": "caller",
          "type": "address"
        }
      ],
      "name": "SubscriptionPaused",
      "type": "event"
    },
    {
      "anonymous": false,
      "inputs": [
        {
          "indexed": false,
          "internalType": "address",
          "name": "caller",
          "type": "address"
        }
      ],
      "name": "SubscriptionUnpaused",
      "type": "event"
    },
    {
      "inputs": [],
      "name": "BPS_DENOMINATOR",
      "outputs": [
        {
          "internalType": "uint256",
          "name": "",
          "type": "uint256"
        }
      ],
      "stateMutability": "view",
      "type": "function"
    },
    {
      "inputs": [],
      "name": "COLLATERAL_TYPE",
      "outputs": [
        {
          "internalType": "bytes32",
          "name": "",
          "type": "bytes32"
        }
      ],
      "stateMutability": "view",
      "type": "function"
    },
    {
      "inputs": [],
      "name": "DEFAULT_ADMIN_ROLE",
      "outputs": [
        {
          "internalType": "bytes32",
          "name": "",
          "type": "bytes32"
        }
      ],
      "stateMutability": "view",
      "type": "function"
    },
    {
      "inputs": [],
      "name": "MANAGER_ADMIN",
      "outputs": [
        {
          "internalType": "bytes32",
          "name": "",
          "type": "bytes32"
        }
      ],
      "stateMutability": "view",
      "type": "function"
    },
    {
      "inputs": [],
      "name": "PAUSER_ADMIN",
      "outputs": [
        {
          "internalType": "bytes32",
          "name": "",
          "type": "bytes32"
        }
      ],
      "stateMutability": "view",
      "type": "function"
    },
    {
      "inputs": [],
      "name": "PRICE_ID_SETTER_ROLE",
      "outputs": [
        {
          "internalType": "bytes32",
          "name": "",
          "type": "bytes32"
        }
      ],
      "stateMutability": "view",
      "type": "function"
    },
    {
      "inputs": [],
      "name": "RELAYER_ROLE",
      "outputs": [
        {
          "internalType": "bytes32",
          "name": "",
          "type": "bytes32"
        }
      ],
      "stateMutability": "view",
      "type": "function"
    },
    {
      "inputs": [],
      "name": "TIMESTAMP_SETTER_ROLE",
      "outputs": [
        {
          "internalType": "bytes32",
          "name": "",
          "type": "bytes32"
        }
      ],
      "stateMutability": "view",
      "type": "function"
    },
    {
      "inputs": [
        {
          "internalType": "bytes32",
          "name": "txHash",
          "type": "bytes32"
        },
        {
          "internalType": "address",
          "name": "user",
          "type": "address"
        },
        {
          "internalType": "uint256",
          "name": "depositAmountAfterFee",
          "type": "uint256"
        },
        {
          "internalType": "uint256",
          "name": "feeAmount",
          "type": "uint256"
        },
        {
          "internalType": "uint256",
          "name": "timestamp",
          "type": "uint256"
        }
      ],
      "name": "addProof",
      "outputs": [],
      "stateMutability": "nonpayable",
      "type": "function"
    },
    {
      "inputs": [
        {
          "internalType": "bytes32[]",
          "name": "redemptionIds",
          "type": "bytes32[]"
        }
      ],
      "name": "approveRedemptionRequest",
      "outputs": [],
      "stateMutability": "nonpayable",
      "type": "function"
    },
    {
      "inputs": [],
      "name": "assetRecipient",
      "outputs": [
        {
          "internalType": "address",
          "name": "",
          "type": "address"
        }
      ],
      "stateMutability": "view",
      "type": "function"
    },
    {
      "inputs": [],
      "name": "assetSender",
      "outputs": [
        {
          "internalType": "address",
          "name": "",
          "type": "address"
        }
      ],
      "stateMutability": "view",
      "type": "function"
    },
    {
      "inputs": [
        {
          "internalType": "bytes32[]",
          "name": "depositIds",
          "type": "bytes32[]"
        }
      ],
      "name": "claimMint",
      "outputs": [],
      "stateMutability": "nonpayable",
      "type": "function"
    },
    {
      "inputs": [
        {
          "internalType": "bytes32[]",
          "name": "redemptionIds",
          "type": "bytes32[]"
        }
      ],
      "name": "claimRedemption",
      "outputs": [],
      "stateMutability": "nonpayable",
      "type": "function"
    },
    {
      "inputs": [],
      "name": "collateral",
      "outputs": [
        {
          "internalType": "contract IERC20",
          "name": "",
          "type": "address"
        }
      ],
      "stateMutability": "view",
      "type": "function"
    },
    {
      "inputs": [],
      "name": "decimalsMultiplier",
      "outputs": [
        {
          "internalType": "uint256",
          "name": "",
          "type": "uint256"
        }
      ],
      "stateMutability": "view",
      "type": "function"
    },
    {
      "inputs": [
        {
          "internalType": "bytes32",
          "name": "",
          "type": "bytes32"
        }
      ],
      "name": "depositIdToClaimableTimestamp",
      "outputs": [
        {
          "internalType": "uint256",
          "name": "",
          "type": "uint256"
        }
      ],
      "stateMutability": "view",
      "type": "function"
    },
    {
      "inputs": [
        {
          "internalType": "bytes32",
          "name": "",
          "type": "bytes32"
        }
      ],
      "name": "depositIdToDepositor",
      "outputs": [
        {
          "internalType": "address",
          "name": "user",
          "type": "address"
        },
        {
          "internalType": "uint256",
          "name": "amountDepositedMinusFees",
          "type": "uint256"
        },
        {
          "internalType": "uint256",
          "name": "priceId",
          "type": "uint256"
        }
      ],
      "stateMutability": "view",
      "type": "function"
    },
    {
      "inputs": [],
      "name": "feeRecipient",
      "outputs": [
        {
          "internalType": "address",
          "name": "",
          "type": "address"
        }
      ],
      "stateMutability": "view",
      "type": "function"
    },
    {
      "inputs": [
        {
          "internalType": "bytes32",
          "name": "role",
          "type": "bytes32"
        }
      ],
      "name": "getRoleAdmin",
      "outputs": [
        {
          "internalType": "bytes32",
          "name": "",
          "type": "bytes32"
        }
      ],
      "stateMutability": "view",
      "type": "function"
    },
    {
      "inputs": [
        {
          "internalType": "bytes32",
          "name": "role",
          "type": "bytes32"
        },
        {
          "internalType": "uint256",
          "name": "index",
          "type": "uint256"
        }
      ],
      "name": "getRoleMember",
      "outputs": [
        {
          "internalType": "address",
          "name": "",
          "type": "address"
        }
      ],
      "stateMutability": "view",
      "type": "function"
    },
    {
      "inputs": [
        {
          "internalType": "bytes32",
          "name": "role",
          "type": "bytes32"
        }
      ],
      "name": "getRoleMemberCount",
      "outputs": [
        {
          "internalType": "uint256",
          "name": "",
          "type": "uint256"
        }
      ],
      "stateMutability": "view",
      "type": "function"
    },
    {
      "inputs": [
        {
          "internalType": "bytes32",
          "name": "role",
          "type": "bytes32"
        },
        {
          "internalType": "address",
          "name": "account",
          "type": "address"
        }
      ],
      "name": "grantRole",
      "outputs": [],
      "stateMutability": "nonpayable",
      "type": "function"
    },
    {
      "inputs": [
        {
          "internalType": "bytes32",
          "name": "role",
          "type": "bytes32"
        },
        {
          "internalType": "address",
          "name": "account",
          "type": "address"
        }
      ],
      "name": "hasRole",
      "outputs": [
        {
          "internalType": "bool",
          "name": "",
          "type": "bool"
        }
      ],
      "stateMutability": "view",
      "type": "function"
    },
    {
      "inputs": [],
      "name": "minimumDepositAmount",
      "outputs": [
        {
          "internalType": "uint256",
          "name": "",
          "type": "uint256"
        }
      ],
      "stateMutability": "view",
      "type": "function"
    },
    {
      "inputs": [],
      "name": "minimumRedemptionAmount",
      "outputs": [
        {
          "internalType": "uint256",
          "name": "",
          "type": "uint256"
        }
      ],
      "stateMutability": "view",
      "type": "function"
    },
    {
      "inputs": [],
      "name": "mintFee",
      "outputs": [
        {
          "internalType": "uint256",
          "name": "",
          "type": "uint256"
        }
      ],
      "stateMutability": "view",
      "type": "function"
    },
    {
      "inputs": [
        {
          "internalType": "bytes32",
          "name": "depositIdToOverwrite",
          "type": "bytes32"
        },
        {
          "internalType": "address",
          "name": "user",
          "type": "address"
        },
        {
          "internalType": "uint256",
          "name": "depositAmountAfterFee",
          "type": "uint256"
        },
        {
          "internalType": "uint256",
          "name": "priceId",
          "type": "uint256"
        }
      ],
      "name": "overwriteDepositor",
      "outputs": [],
      "stateMutability": "nonpayable",
      "type": "function"
    },
    {
      "inputs": [
        {
          "internalType": "bytes32",
          "name": "redemptionIdToOverwrite",
          "type": "bytes32"
        },
        {
          "internalType": "address",
          "name": "user",
          "type": "address"
        },
        {
          "internalType": "uint256",
          "name": "rwaTokenAmountBurned",
          "type": "uint256"
        },
        {
          "internalType": "uint256",
          "name": "priceId",
          "type": "uint256"
        }
      ],
      "name": "overwriteRedeemer",
      "outputs": [],
      "stateMutability": "nonpayable",
      "type": "function"
    },
    {
      "inputs": [],
      "name": "pauseRedemption",
      "outputs": [],
      "stateMutability": "nonpayable",
      "type": "function"
    },
    {
      "inputs": [],
      "name": "pauseSubscription",
      "outputs": [],
      "stateMutability": "nonpayable",
      "type": "function"
    },
    {
      "inputs": [],
      "name": "pricer",
      "outputs": [
        {
          "internalType": "contract IPricerReader",
          "name": "",
          "type": "address"
        }
      ],
      "stateMutability": "view",
      "type": "function"
    },
    {
      "inputs": [],
      "name": "redemptionFee",
      "outputs": [
        {
          "internalType": "uint256",
          "name": "",
          "type": "uint256"
        }
      ],
      "stateMutability": "view",
      "type": "function"
    },
    {
      "inputs": [
        {
          "internalType": "bytes32",
          "name": "",
          "type": "bytes32"
        }
      ],
      "name": "redemptionIdToRedeemer",
      "outputs": [
        {
          "internalType": "address",
          "name": "user",
          "type": "address"
        },
        {
          "internalType": "uint256",
          "name": "amountRwaTokenBurned",
          "type": "uint256"
        },
        {
          "internalType": "uint256",
          "name": "priceId",
          "type": "uint256"
        },
        {
          "internalType": "bool",
          "name": "approved",
          "type": "bool"
        }
      ],
      "stateMutability": "view",
      "type": "function"
    },
    {
      "inputs": [],
      "name": "redemptionPaused",
      "outputs": [
        {
          "internalType": "bool",
          "name": "",
          "type": "bool"
        }
      ],
      "stateMutability": "view",
      "type": "function"
    },
    {
      "inputs": [],
      "name": "redemptionRequestCounter",
      "outputs": [
        {
          "internalType": "uint256",
          "name": "",
          "type": "uint256"
        }
      ],
      "stateMutability": "view",
      "type": "function"
    },
    {
      "inputs": [
        {
          "internalType": "bytes32",
          "name": "role",
          "type": "bytes32"
        },
        {
          "internalType": "address",
          "name": "account",
          "type": "address"
        }
      ],
      "name": "renounceRole",
      "outputs": [],
      "stateMutability": "nonpayable",
      "type": "function"
    },
    {
      "inputs": [
        {
          "internalType": "uint256",
          "name": "amount",
          "type": "uint256"
        }
      ],
      "name": "requestRedemption",
      "outputs": [],
      "stateMutability": "nonpayable",
      "type": "function"
    },
    {
      "inputs": [
        {
          "internalType": "uint256",
          "name": "amount",
          "type": "uint256"
        }
      ],
      "name": "requestSubscription",
      "outputs": [],
      "stateMutability": "nonpayable",
      "type": "function"
    },
    {
      "inputs": [
        {
          "internalType": "bytes32",
          "name": "role",
          "type": "bytes32"
        },
        {
          "internalType": "address",
          "name": "account",
          "type": "address"
        }
      ],
      "name": "revokeRole",
      "outputs": [],
      "stateMutability": "nonpayable",
      "type": "function"
    },
    {
      "inputs": [],
      "name": "rwa",
      "outputs": [
        {
          "internalType": "contract IRWALike",
          "name": "",
          "type": "address"
        }
      ],
      "stateMutability": "view",
      "type": "function"
    },
    {
      "inputs": [
        {
          "internalType": "address",
          "name": "newAssetSender",
          "type": "address"
        }
      ],
      "name": "setAssetSender",
      "outputs": [],
      "stateMutability": "nonpayable",
      "type": "function"
    },
    {
      "inputs": [
        {
          "internalType": "uint256",
          "name": "claimTimestamp",
          "type": "uint256"
        },
        {
          "internalType": "bytes32[]",
          "name": "depositIds",
          "type": "bytes32[]"
        }
      ],
      "name": "setClaimableTimestamp",
      "outputs": [],
      "stateMutability": "nonpayable",
      "type": "function"
    },
    {
      "inputs": [
        {
          "internalType": "address",
          "name": "newFeeRecipient",
          "type": "address"
        }
      ],
      "name": "setFeeRecipient",
      "outputs": [],
      "stateMutability": "nonpayable",
      "type": "function"
    },
    {
      "inputs": [
        {
          "internalType": "uint256",
          "name": "minDepositAmount",
          "type": "uint256"
        }
      ],
      "name": "setMinimumDepositAmount",
      "outputs": [],
      "stateMutability": "nonpayable",
      "type": "function"
    },
    {
      "inputs": [
        {
          "internalType": "uint256",
          "name": "_minimumRedemptionAmount",
          "type": "uint256"
        }
      ],
      "name": "setMinimumRedemptionAmount",
      "outputs": [],
      "stateMutability": "nonpayable",
      "type": "function"
    },
    {
      "inputs": [
        {
          "internalType": "uint256",
          "name": "_mintFee",
          "type": "uint256"
        }
      ],
      "name": "setMintFee",
      "outputs": [],
      "stateMutability": "nonpayable",
      "type": "function"
    },
    {
      "inputs": [
        {
          "internalType": "bytes32[]",
          "name": "depositIds",
          "type": "bytes32[]"
        },
        {
          "internalType": "uint256[]",
          "name": "priceIds",
          "type": "uint256[]"
        }
      ],
      "name": "setPriceIdForDeposits",
      "outputs": [],
      "stateMutability": "nonpayable",
      "type": "function"
    },
    {
      "inputs": [
        {
          "internalType": "bytes32[]",
          "name": "redemptionIds",
          "type": "bytes32[]"
        },
        {
          "internalType": "uint256[]",
          "name": "priceIds",
          "type": "uint256[]"
        }
      ],
      "name": "setPriceIdForRedemptions",
      "outputs": [],
      "stateMutability": "nonpayable",
      "type": "function"
    },
    {
      "inputs": [
        {
          "internalType": "address",
          "name": "newPricer",
          "type": "address"
        }
      ],
      "name": "setPricer",
      "outputs": [],
      "stateMutability": "nonpayable",
      "type": "function"
    },
    {
      "inputs": [
        {
          "internalType": "uint256",
          "name": "_redemptionFee",
          "type": "uint256"
        }
      ],
      "name": "setRedemptionFee",
      "outputs": [],
      "stateMutability": "nonpayable",
      "type": "function"
    },
    {
      "inputs": [],
      "name": "subscriptionPaused",
      "outputs": [
        {
          "internalType": "bool",
          "name": "",
          "type": "bool"
        }
      ],
      "stateMutability": "view",
      "type": "function"
    },
    {
      "inputs": [],
      "name": "subscriptionRequestCounter",
      "outputs": [
        {
          "internalType": "uint256",
          "name": "",
          "type": "uint256"
        }
      ],
      "stateMutability": "view",
      "type": "function"
    },
    {
      "inputs": [
        {
          "internalType": "bytes4",
          "name": "interfaceId",
          "type": "bytes4"
        }
      ],
      "name": "supportsInterface",
      "outputs": [
        {
          "internalType": "bool",
          "name": "",
          "type": "bool"
        }
      ],
      "stateMutability": "view",
      "type": "function"
    },
    {
      "inputs": [],
      "name": "unpauseRedemption",
      "outputs": [],
      "stateMutability": "nonpayable",
      "type": "function"
    },
    {
      "inputs": [],
      "name": "unpauseSubscription",
      "outputs": [],
      "stateMutability": "nonpayable",
      "type": "function"
    }
  ],
  "bytecode": "0x60e06040526000600a556000600b556001600c556001600d553480156200002557600080fd5b506040516200367d3803806200367d8339810160408190526200004891620004f6565b600160005588888888888888886001600160a01b0388166200007d5760405163a1aeceb760e01b815260040160405180910390fd5b6001600160a01b038716620000a55760405163071aeb1d60e01b815260040160405180910390fd5b6001600160a01b038416620000cd57604051633b2b1d5560e01b815260040160405180910390fd5b6001600160a01b038316620000f557604051634fdcfc5560e11b815260040160405180910390fd5b620001026000876200034e565b6200011d6000805160206200365d833981519152876200034e565b620001386000805160206200361d833981519152866200034e565b620001536000805160206200363d833981519152876200034e565b6200017f7fced4eb9faeb19ab0e2e05a20ade58d82157e1035a3fbff4bc38dd5e609f22b93876200034e565b620001a96000805160206200361d8339815191526000805160206200365d83398151915262000391565b620001d36000805160206200363d8339815191526000805160206200365d83398151915262000391565b6200020e7fe2b7fb3b832174769106daebcfd6d1970523240dda11281102db9363b83b0dc46000805160206200365d83398151915262000391565b6001600160a01b0388811660a0819052888216608052600580546001600160a01b03199081168785161790915560048054909116928716929092178255600884905560098390556040805163313ce56760e01b81529051919263313ce5679282820192602092908290030181865afa1580156200028f573d6000803e3d6000fd5b505050506040513d601f19601f82011682018060405250810190620002b591906200059f565b876001600160a01b031663313ce5676040518163ffffffff1660e01b8152600401602060405180830381865afa158015620002f4573d6000803e3d6000fd5b505050506040513d601f19601f820116820180604052508101906200031a91906200059f565b620003269190620005e1565b6200033390600a620006fa565b60c052506200070b9f50505050505050505050505050505050565b620003658282620003de60201b62001dca1760201c565b60008281526002602090815260409091206200038c91839062001e3562000467821b17901c565b505050565b6000828152600160208190526040808320909101805490849055905190918391839186917fbd79b86ffe0ab8e8776151514217cd7cacd52c909f66475c3af44e129f0b00ff9190a4505050565b60008281526001602090815260408083206001600160a01b038516845290915290205460ff16620004635760008281526001602081815260408084206001600160a01b0386168086529252808420805460ff19169093179092559051339285917f2f8788117e7eff1d82e926ec794901d17c78024a50270940304540a733656f0d9190a45b5050565b60006200047e836001600160a01b03841662000487565b90505b92915050565b6000818152600183016020526040812054620004d05750815460018181018455600084815260208082209093018490558454848252828601909352604090209190915562000481565b50600062000481565b80516001600160a01b0381168114620004f157600080fd5b919050565b60008060008060008060008060006101208a8c0312156200051657600080fd5b620005218a620004d9565b98506200053160208b01620004d9565b97506200054160408b01620004d9565b96506200055160608b01620004d9565b95506200056160808b01620004d9565b94506200057160a08b01620004d9565b935060c08a0151925060e08a01519150620005906101008b01620004d9565b90509295985092959850929598565b600060208284031215620005b257600080fd5b815160ff81168114620005c457600080fd5b9392505050565b634e487b7160e01b600052601160045260246000fd5b60ff8281168282160390811115620004815762000481620005cb565b600181815b808511156200063e578160001904821115620006225762000622620005cb565b808516156200063057918102915b93841c939080029062000602565b509250929050565b600082620006575750600162000481565b81620006665750600062000481565b81600181146200067f57600281146200068a57620006aa565b600191505062000481565b60ff8411156200069e576200069e620005cb565b50506001821b62000481565b5060208310610133831016604e8410600b8410161715620006cf575081810a62000481565b620006db8383620005fd565b8060001904821115620006f257620006f2620005cb565b029392505050565b60006200047e60ff84168362000646565b60805160a05160c051612eaa62000773600039600081816106a401528181612267015261286001526000818161075101528181610aa801528181610b8401528181611933015261196b01526000818161063c01528181611d1801526125110152612eaa6000f3fe608060405234801561001057600080fd5b50600436106102f85760003560e01c80638a07df1e11610193578063ca15c873116100e4578063e0f486ef11610092578063e0f486ef14610786578063e1a452181461078f578063e74b981b14610798578063eddd0d9c146107ab578063ee75d7d4146107be578063eeb3c910146107d1578063f4a20307146107e457600080fd5b8063ca15c873146106ee578063cd4d0bcf14610701578063d0c835ce14610713578063d547741f14610726578063d592d81514610739578063d8dfeb451461074c578063de6afa821461077357600080fd5b8063a217fddf11610141578063a217fddf1461065e578063a6138ed914610666578063aa85c1df14610679578063aab483d61461068c578063bb13245f1461069f578063bcc70283146106c6578063c1473072146106db57600080fd5b80638a07df1e146105ba5780638d044c06146105da5780639010d07c146105e257806391d14854146105f5578063926d7d7f1461060857806392bccb801461062f57806395e4b2511461063757600080fd5b806336568abe1161024d578063525decd6116101fb578063525decd6146104f95780635d591d681461050c57806373a95ddd1461056a5780637dbc1df014610577578063837018fa1461058a57806385c4e79e1461059257806387e2d06e146105a757600080fd5b806336568abe1461040e57806338fed708146104215780633bfa67fe1461048f5780634565e9ff146104b7578063458f5815146104ca57806346904840146104d35780634ef1ccd1146104e657600080fd5b8063248a9ca3116102aa578063248a9ca314610380578063258492cd146103a457806329390370146103b75780632b5eceff146103ca5780632c214c9d146103dd5780632f2ff15d146103f2578063354181f31461040557600080fd5b806301ffc9a7146102fd578063078a6be81461032557806307bda1bb14610348578063080c279a1461035157806313966db51461035a5780632056aa1214610363578063244f5acf1461036d575b600080fd5b61031061030b3660046128be565b61080b565b60405190151581526020015b60405180910390f35b61033a600080516020612e5583398151915281565b60405190815260200161031c565b61033a600c5481565b61033a60085481565b61033a600a5481565b61036b610836565b005b61036b61037b366004612934565b610899565b61033a61038e366004612976565b6000908152600160208190526040909120015490565b61036b6103b23660046129ab565b610bbd565b61036b6103c53660046129e6565b610d50565b61036b6103d8366004612a01565b610daf565b61033a600080516020612e1583398151915281565b61036b610400366004612a47565b610eb3565b61033a600d5481565b61036b61041c366004612a47565b610edf565b61046361042f366004612976565b60076020526000908152604090208054600182015460028301546003909301546001600160a01b0390921692909160ff1684565b604080516001600160a01b0390951685526020850193909352918301521515606082015260800161031c565b6104aa73b473dee33a20adb36cd5ba6bd68f115a285fa52881565b60405161031c9190612a73565b61036b6104c5366004612934565b610f5d565b61033a600b5481565b6005546104aa906001600160a01b031681565b61036b6104f4366004612976565b610feb565b61036b6105073660046129e6565b61106e565b61054561051a366004612976565b6006602052600090815260409020805460018201546002909201546001600160a01b03909116919083565b604080516001600160a01b03909416845260208401929092529082015260600161031c565b600e546103109060ff1681565b61036b610585366004612976565b6110da565b61036b61113b565b61033a600080516020612df583398151915281565b61036b6105b5366004612a87565b61118f565b61033a6105c8366004612976565b600f6020526000908152604090205481565b61036b61133d565b6104aa6105f0366004612af3565b611390565b610310610603366004612a47565b6113af565b61033a7fe2b7fb3b832174769106daebcfd6d1970523240dda11281102db9363b83b0dc481565b61036b6113da565b6104aa7f000000000000000000000000000000000000000000000000000000000000000081565b61033a600081565b6003546104aa906001600160a01b031681565b61036b610687366004612a87565b611430565b61036b61069a366004612976565b611598565b61033a7f000000000000000000000000000000000000000000000000000000000000000081565b61033a600080516020612e3583398151915281565b61036b6106e9366004612934565b611612565b61033a6106fc366004612976565b61171d565b600e5461031090610100900460ff1681565b61036b610721366004612b15565b611734565b61036b610734366004612a47565b6117f9565b61036b610747366004612976565b611820565b6104aa7f000000000000000000000000000000000000000000000000000000000000000081565b61036b6107813660046129ab565b6119f8565b61033a60095481565b61033a61271081565b61036b6107a63660046129e6565b611b37565b61036b6107b9366004612976565b611ba2565b6004546104aa906001600160a01b031681565b61036b6107df366004612976565b611c03565b61033a7fced4eb9faeb19ab0e2e05a20ade58d82157e1035a3fbff4bc38dd5e609f22b9381565b60006001600160e01b03198216635a05180f60e01b1480610830575061083082611e4a565b92915050565b600080516020612df583398151915261084f8133611e7f565b600e805461ff0019166101001790556040517fcd71257f2998474633e94cfffa045014068f6218ffdca256b6f4aa9d5f15fb899061088e903390612a73565b60405180910390a150565b6002600054036108c45760405162461bcd60e51b81526004016108bb90612b61565b60405180910390fd5b6002600055600e5460ff1680156108ee5760405163aadfaddd60e01b815260040160405180910390fd5b600082815b81811015610b695760006007600088888581811061091357610913612b98565b602090810292909201358352508181019290925260409081016000908120825160808101845281546001600160a01b0316815260018201549481019490945260028101549284018390526003015460ff1615156060840152919250900361098d57604051638718c77160e01b815260040160405180910390fd5b6003546040828101519051630e75722360e41b815260048101919091526000916001600160a01b03169063e757223090602401602060405180830381865afa1580156109dd573d6000803e3d6000fd5b505050506040513d601f19601f82011682018060405250810190610a019190612bae565b90506000610a13836020015183611ee3565b90506000610a2082611f14565b90506000610a2e8284612bdd565b9050610a3a8289612bf0565b9750600760008c8c89818110610a5257610a52612b98565b60209081029290920135835250810191909152604001600090812080546001600160a01b0319168155600181018290556002810191909155600301805460ff191690556004548551610ad3916001600160a01b037f000000000000000000000000000000000000000000000000000000000000000081169291169084611f31565b8a8a87818110610ae557610ae5612b98565b87516020898101516040805191825281830188905281018a9052600080516020612e15833981519152606082015292029390930135926001600160a01b031691507fac51b283570e6824c01c2f8719bc758440e55b0eba375d5b6943fbe593b0072a9060800160405180910390a3505050505080610b6290612c03565b90506108f3565b508115610bb157600454600554610bb1916001600160a01b037f0000000000000000000000000000000000000000000000000000000000000000811692918116911685611f31565b50506001600055505050565b600080516020612e55833981519152610bd68133611e7f565b6000600760008781526020019081526020016000206040518060800160405290816000820160009054906101000a90046001600160a01b03166001600160a01b03166001600160a01b0316815260200160018201548152602001600282015481526020016003820160009054906101000a900460ff16151515158152505090506040518060800160405280866001600160a01b03168152602001858152602001848152602001600015158152506007600088815260200190815260200160002060008201518160000160006101000a8154816001600160a01b0302191690836001600160a01b03160217905550602082015181600101556040820151816002015560608201518160030160006101000a81548160ff021916908315150217905550905050857f5a0c55c421ae3aac2379811eca16aaee32b6e64411322b624118d4219b9350a082600001518784604001518786602001518a604051610d4096959493929190612c1c565b60405180910390a2505050505050565b600380546001600160a01b038381166001600160a01b03198316179092556040519116907f801352e72ef9b80b3992ccbedf07ab0e133e7da7aaccf0024abf23f4f32eb99a90610da39083908590612c52565b60405180910390a15050565b7fe2b7fb3b832174769106daebcfd6d1970523240dda11281102db9363b83b0dc4610dda8133611e7f565b6000868152600660205260409020546001600160a01b031615610e1057604051631aeecebf60e21b815260040160405180910390fd5b60408051606080820183526001600160a01b0388811680845260208085018a815260008688018181528e82526006845290889020965187546001600160a01b031916951694909417865551600186015591516002909401939093558351888152908101879052928301859052909188917fc985471d1cb1bb75da0d54fa5ab10f7171e952cefcc0bf4fc7c2546c19d1811f910160405180910390a3505050505050565b60008281526001602081905260409091200154610ed08133611e7f565b610eda8383611f91565b505050565b6001600160a01b0381163314610f4f5760405162461bcd60e51b815260206004820152602f60248201527f416363657373436f6e74726f6c3a2063616e206f6e6c792072656e6f756e636560448201526e103937b632b9903337b91039b2b63360891b60648201526084016108bb565b610f598282611fb3565b5050565b600260005403610f7f5760405162461bcd60e51b81526004016108bb90612b61565b6002600055600e54610100900460ff168015610fae5760405163aadfaddd60e01b815260040160405180910390fd5b8160005b81811015610bb157610fdb858583818110610fcf57610fcf612b98565b90506020020135611fd5565b610fe481612c03565b9050610fb2565b600080516020612e558339815191526110048133611e7f565b6127108210156110275760405163617ab12d60e11b815260040160405180910390fd5b600980549083905560408051828152602081018590527ffdaf6ed728cef208e62328a008209556f8281f3062b14dd08aaaa90fa159421191015b60405180910390a1505050565b600080516020612e558339815191526110878133611e7f565b600480546001600160a01b038481166001600160a01b03198316179092556040519116907fb09f298b2812193d5ada18beaadd6cb8f12b3640926d99de46e2a65394df829d906110619083908690612c52565b6127108111156110fd57604051637e2df70960e11b815260040160405180910390fd5b600b80549082905560408051828152602081018490527f2956acfe8584fb02384e06c675ee215bf10d55c3de1e6ff9b2f621e8a40c64709101610da3565b600080516020612e558339815191526111548133611e7f565b600e805461ff00191690556040517f94482ee2b195c365dbbc2d689fd5a088d2b219abe44360ba8895525c9471d66f9061088e903390612a73565b600080516020612e358339815191526111a88133611e7f565b838281146111c95760405163cc6e40b360e01b815260040160405180910390fd5b60005b818110156113345760006006818989858181106111eb576111eb612b98565b60209081029290920135835250810191909152604001600020546001600160a01b03160361122c576040516305a8a45b60e41b815260040160405180910390fd5b6006600088888481811061124257611242612b98565b9050602002013581526020019081526020016000206002015460001461127b57604051631139f30960e31b815260040160405180910390fd5b84848281811061128d5761128d612b98565b90506020020135600660008989858181106112aa576112aa612b98565b905060200201358152602001908152602001600020600201819055508484828181106112d8576112d8612b98565b905060200201358787838181106112f1576112f1612b98565b905060200201357fc2055184bbc2d10b90bf7df17a84f8bdda6b52377a976e41e0c1610fffafc0d760405160405180910390a361132d81612c03565b90506111cc565b50505050505050565b600080516020612e558339815191526113568133611e7f565b600e805460ff191690556040517fc641b9c4afa539cedcbe2e5f3e47d9f092175b5d0b8ae72dffa634a3eb3e47e49061088e903390612a73565b60008281526002602052604081206113a8908361204c565b9392505050565b60009182526001602090815260408084206001600160a01b0393909316845291905290205460ff1690565b600080516020612df58339815191526113f38133611e7f565b600e805460ff191660011790556040517f71e0406677c0570b2a66b1a4feeccf5c1cba2d6729435461e27a312b15410d049061088e903390612a73565b600080516020612e358339815191526114498133611e7f565b8382811461146a5760405163cc6e40b360e01b815260040160405180910390fd5b60005b81811015611334576007600088888481811061148b5761148b612b98565b905060200201358152602001908152602001600020600201546000146114c457604051631139f30960e31b815260040160405180910390fd5b8484828181106114d6576114d6612b98565b90506020020135600760008989858181106114f3576114f3612b98565b9050602002013581526020019081526020016000206002018190555084848281811061152157611521612b98565b9050602002013587878381811061153a5761153a612b98565b905060200201357f3760fe360839f267cd9fea570d3b743ea48ad870db3be0278762fce279461a91600080516020612e1583398151915260405161158091815260200190565b60405180910390a361159181612c03565b905061146d565b600080516020612e558339815191526115b18133611e7f565b6127108210156115d45760405163617ab12d60e11b815260040160405180910390fd5b600880549083905560408051828152602081018590527fe6e25add7363f8f8a40cbea9810d3115a33703b10972ef759104219b006574369101611061565b6002600054036116345760405162461bcd60e51b81526004016108bb90612b61565b6002600055600e5460ff16801561165e5760405163aadfaddd60e01b815260040160405180910390fd5b8160005b81811015610bb15760006007600087878581811061168257611682612b98565b6020908102929092013583525081019190915260400160002060038101805460ff1916600117905590508585838181106116be576116be612b98565b905060200201357f2241c69695767e5ee32132030b1e93d4d195a9de6d3e7dbc9307928981eb0ab2600080516020612e1583398151915260405161170491815260200190565b60405180910390a25061171681612c03565b9050611662565b600081815260026020526040812061083090612058565b7fced4eb9faeb19ab0e2e05a20ade58d82157e1035a3fbff4bc38dd5e609f22b9361175f8133611e7f565b8160005b818110156117f15785600f600087878581811061178257611782612b98565b905060200201358152602001908152602001600020819055508484828181106117ad576117ad612b98565b90506020020135867f15d20a98e8d4b1247fc51e2f6817929874a0769087776e52268eb1b4c8bdb2dd60405160405180910390a36117ea81612c03565b9050611763565b505050505050565b600082815260016020819052604090912001546118168133611e7f565b610eda8383611fb3565b6002600054036118425760405162461bcd60e51b81526004016108bb90612b61565b6002600055600e54610100900460ff1680156118715760405163aadfaddd60e01b815260040160405180910390fd5b60085482101561189457604051636ba4a1c760e01b815260040160405180910390fd5b600061189f83612062565b905060006118ad8285612bdd565b600c805491925060009190826118c283612c03565b909155506040805160608101825233815260208082018681526000838501818152868252600690935293909320915182546001600160a01b0319166001600160a01b039091161782559151600182015590516002909101559050821561195e5760055461195e906001600160a01b037f000000000000000000000000000000000000000000000000000000000000000081169133911686611f31565b6119a76001600160a01b037f0000000000000000000000000000000000000000000000000000000000000000163373b473dee33a20adb36cd5ba6bd68f115a285fa52885611f31565b6040805186815260208101849052908101849052819033907f7cbce37c7b11d322316420484f40c29ce672ad3fa16752551a3dbe6ccfa04e149060600160405180910390a350506001600055505050565b600080516020612e55833981519152611a118133611e7f565b6000600660008781526020019081526020016000206040518060600160405290816000820160009054906101000a90046001600160a01b03166001600160a01b03166001600160a01b031681526020016001820154815260200160028201548152505090506040518060600160405280866001600160a01b03168152602001858152602001848152506006600088815260200190815260200160002060008201518160000160006101000a8154816001600160a01b0302191690836001600160a01b031602179055506020820151816001015560408201518160020155905050857f7e506b1f11218d4c947d5a59a97fd996c42afc2b024b6aeaec050930eb2b339982600001518784604001518786602001518a604051610d4096959493929190612c1c565b600080516020612e55833981519152611b508133611e7f565b600580546001600160a01b038481166001600160a01b0319831681179093556040519116917f15d80a013f22151bc7246e3bc132e12828cde19de98870475e3fa7084015272191611061918491612c52565b612710811115611bc557604051637e2df70960e11b815260040160405180910390fd5b600a80549082905560408051828152602081018490527f387269377ae17304805d5f88cea4252e5ca47346783c279aeb9e8627335a49ac9101610da3565b600260005403611c255760405162461bcd60e51b81526004016108bb90612b61565b6002600055600e5460ff168015611c4f5760405163aadfaddd60e01b815260040160405180910390fd5b600954821015611c725760405163595bd39f60e11b815260040160405180910390fd5b600d805460009182611c8383612c03565b9091555060408051608081018252338082526020808301888152600084860181815260608601828152888352600790945290869020945185546001600160a01b0319166001600160a01b039182161786559151600186015551600285015590516003909301805460ff191693151593909317909255915163079cc67960e41b81526004810192909252602482018690529192507f0000000000000000000000000000000000000000000000000000000000000000909116906379cc679090604401600060405180830381600087803b158015611d5e57600080fd5b505af1158015611d72573d6000803e3d6000fd5b505060408051868152600080516020612e1583398151915260208201528493503392507fcd0e262a00d41fb09ed44684e2d1e2fcd0c0fe41fb1f7ea097936f3f249a2f61910160405180910390a35050600160005550565b611dd482826113af565b610f595760008281526001602081815260408084206001600160a01b0386168086529252808420805460ff19169093179092559051339285917f2f8788117e7eff1d82e926ec794901d17c78024a50270940304540a733656f0d9190a45050565b60006113a8836001600160a01b038416612075565b60006001600160e01b03198216637965db0b60e01b148061083057506301ffc9a760e01b6001600160e01b0319831614610830565b611e8982826113af565b610f5957611ea1816001600160a01b031660146120c4565b611eac8360206120c4565b604051602001611ebd929190612c90565b60408051601f198184030181529082905262461bcd60e51b82526108bb91600401612cff565b600080611ef08385612d32565b9050611f0c611f07670de0b6b3a764000083612d51565b612260565b949350505050565b6000612710600b5483611f279190612d32565b6108309190612d51565b604080516001600160a01b0385811660248301528416604482015260648082018490528251808303909101815260849091019091526020810180516001600160e01b03166323b872dd60e01b179052611f8b90859061228c565b50505050565b611f9b8282611dca565b6000828152600260205260409020610eda9082611e35565b611fbd828261235e565b6000828152600260205260409020610eda90826123c5565b6000818152600f6020526040812054900361200357604051630ad2496160e31b815260040160405180910390fd5b6000818152600f60205260409020544210156120325760405163309b0bcf60e21b815260040160405180910390fd5b61203b816123da565b6000908152600f6020526040812055565b60006113a883836125d2565b6000610830825490565b6000612710600a5483611f279190612d32565b60008181526001830160205260408120546120bc57508154600181810184556000848152602080822090930184905584548482528286019093526040902091909155610830565b506000610830565b606060006120d3836002612d32565b6120de906002612bf0565b67ffffffffffffffff8111156120f6576120f6612d73565b6040519080825280601f01601f191660200182016040528015612120576020820181803683370190505b509050600360fc1b8160008151811061213b5761213b612b98565b60200101906001600160f81b031916908160001a905350600f60fb1b8160018151811061216a5761216a612b98565b60200101906001600160f81b031916908160001a905350600061218e846002612d32565b612199906001612bf0565b90505b6001811115612211576f181899199a1a9b1b9c1cb0b131b232b360811b85600f16601081106121cd576121cd612b98565b1a60f81b8282815181106121e3576121e3612b98565b60200101906001600160f81b031916908160001a90535060049490941c9361220a81612d89565b905061219c565b5083156113a85760405162461bcd60e51b815260206004820181905260248201527f537472696e67733a20686578206c656e67746820696e73756666696369656e7460448201526064016108bb565b60006108307f000000000000000000000000000000000000000000000000000000000000000083612d51565b60006122e1826040518060400160405280602081526020017f5361666545524332303a206c6f772d6c6576656c2063616c6c206661696c6564815250856001600160a01b03166125fc9092919063ffffffff16565b805190915015610eda57808060200190518101906122ff9190612da0565b610eda5760405162461bcd60e51b815260206004820152602a60248201527f5361666545524332303a204552433230206f7065726174696f6e20646964206e6044820152691bdd081cdd58d8d9595960b21b60648201526084016108bb565b61236882826113af565b15610f595760008281526001602090815260408083206001600160a01b0385168085529252808320805460ff1916905551339285917ff6391f5c32d9c69d2a47ea670b442974b53935d1edc7fd64eb21e047a839171b9190a45050565b60006113a8836001600160a01b03841661260b565b6000818152600660209081526040808320815160608101835281546001600160a01b031681526001820154938101939093526002015490820181905290910361243657604051638718c77160e01b815260040160405180910390fd5b6003546040828101519051630e75722360e41b815260048101919091526000916001600160a01b03169063e757223090602401602060405180830381865afa158015612486573d6000803e3d6000fd5b505050506040513d601f19601f820116820180604052508101906124aa9190612bae565b905060006124bc8360200151836126fe565b60008581526006602052604080822080546001600160a01b03191681556001810183905560020191909155845190516340c10f1960e01b81526001600160a01b039182166004820152602481018390529192507f000000000000000000000000000000000000000000000000000000000000000016906340c10f1990604401600060405180830381600087803b15801561255557600080fd5b505af1158015612569573d6000803e3d6000fd5b50508451602080870151604080890151815188815293840192909252820187905260608201528793506001600160a01b0390911691507fdd602cc9cb236502fb74f091872b4025184011dd96eee41099caa260842f20249060800160405180910390a350505050565b60008260000182815481106125e9576125e9612b98565b9060005260206000200154905092915050565b6060611f0c8484600085612728565b600081815260018301602052604081205480156126f457600061262f600183612bdd565b855490915060009061264390600190612bdd565b90508181146126a857600086600001828154811061266357612663612b98565b906000526020600020015490508087600001848154811061268657612686612b98565b6000918252602080832090910192909255918252600188019052604090208390555b85548690806126b9576126b9612dc2565b600190038181906000526020600020016000905590558560010160008681526020019081526020016000206000905560019350505050610830565b6000915050610830565b60008061270a84612859565b61271c90670de0b6b3a7640000612d32565b9050611f0c8382612d51565b6060824710156127895760405162461bcd60e51b815260206004820152602660248201527f416464726573733a20696e73756666696369656e742062616c616e636520666f6044820152651c8818d85b1b60d21b60648201526084016108bb565b6001600160a01b0385163b6127e05760405162461bcd60e51b815260206004820152601d60248201527f416464726573733a2063616c6c20746f206e6f6e2d636f6e747261637400000060448201526064016108bb565b600080866001600160a01b031685876040516127fc9190612dd8565b60006040518083038185875af1925050503d8060008114612839576040519150601f19603f3d011682016040523d82523d6000602084013e61283e565b606091505b509150915061284e828286612885565b979650505050505050565b60006108307f000000000000000000000000000000000000000000000000000000000000000083612d32565b606083156128945750816113a8565b8251156128a45782518084602001fd5b8160405162461bcd60e51b81526004016108bb9190612cff565b6000602082840312156128d057600080fd5b81356001600160e01b0319811681146113a857600080fd5b60008083601f8401126128fa57600080fd5b50813567ffffffffffffffff81111561291257600080fd5b6020830191508360208260051b850101111561292d57600080fd5b9250929050565b6000806020838503121561294757600080fd5b823567ffffffffffffffff81111561295e57600080fd5b61296a858286016128e8565b90969095509350505050565b60006020828403121561298857600080fd5b5035919050565b80356001600160a01b03811681146129a657600080fd5b919050565b600080600080608085870312156129c157600080fd5b843593506129d16020860161298f565b93969395505050506040820135916060013590565b6000602082840312156129f857600080fd5b6113a88261298f565b600080600080600060a08688031215612a1957600080fd5b85359450612a296020870161298f565b94979496505050506040830135926060810135926080909101359150565b60008060408385031215612a5a57600080fd5b82359150612a6a6020840161298f565b90509250929050565b6001600160a01b0391909116815260200190565b60008060008060408587031215612a9d57600080fd5b843567ffffffffffffffff80821115612ab557600080fd5b612ac1888389016128e8565b90965094506020870135915080821115612ada57600080fd5b50612ae7878288016128e8565b95989497509550505050565b60008060408385031215612b0657600080fd5b50508035926020909101359150565b600080600060408486031215612b2a57600080fd5b83359250602084013567ffffffffffffffff811115612b4857600080fd5b612b54868287016128e8565b9497909650939450505050565b6020808252601f908201527f5265656e7472616e637947756172643a207265656e7472616e742063616c6c00604082015260600190565b634e487b7160e01b600052603260045260246000fd5b600060208284031215612bc057600080fd5b5051919050565b634e487b7160e01b600052601160045260246000fd5b8181038181111561083057610830612bc7565b8082018082111561083057610830612bc7565b600060018201612c1557612c15612bc7565b5060010190565b6001600160a01b03968716815294909516602085015260408401929092526060830152608082015260a081019190915260c00190565b6001600160a01b0392831681529116602082015260400190565b60005b83811015612c87578181015183820152602001612c6f565b50506000910152565b76020b1b1b2b9b9a1b7b73a3937b61d1030b1b1b7bab73a1604d1b815260008351612cc2816017850160208801612c6c565b7001034b99036b4b9b9b4b733903937b6329607d1b6017918401918201528351612cf3816028840160208801612c6c565b01602801949350505050565b6020815260008251806020840152612d1e816040850160208701612c6c565b601f01601f19169190910160400192915050565b6000816000190483118215151615612d4c57612d4c612bc7565b500290565b600082612d6e57634e487b7160e01b600052601260045260246000fd5b500490565b634e487b7160e01b600052604160045260246000fd5b600081612d9857612d98612bc7565b506000190190565b600060208284031215612db257600080fd5b815180151581146113a857600080fd5b634e487b7160e01b600052603160045260246000fd5b60008251612dea818460208701612c6c565b919091019291505056fe9ac2c43e905fe4f0c030a0b0e4b805a284e79da32a5c9c71be1c68dd79bbb89d97b07680601d6d5b0f01a053417c5a26825633ae6e06f4015150a3cd5603a7d7830a9081649e91840eb0274e99b47626a896cfa0f4dd591cb31cd5060e566c0d8c6dd8af24db306eb580672d47cf7dd23b8394bf74074f8ac14b948512ecdb03a2646970667358221220bc12b8aa2a32bf4233ce14b75c545f9db945ba5c7ccfc8e6f89206daf141b5e164736f6c634300081000339ac2c43e905fe4f0c030a0b0e4b805a284e79da32a5c9c71be1c68dd79bbb89d830a9081649e91840eb0274e99b47626a896cfa0f4dd591cb31cd5060e566c0d8c6dd8af24db306eb580672d47cf7dd23b8394bf74074f8ac14b948512ecdb03",
  "linkReferences": {},
  "deployedLinkReferences": {}
}