{
  "_format": "hh-sol-artifact-1",
  "contractName": "ERC721PresetMinterPauserAutoIdUpgradeable",
  "sourceName": "contracts/external/openzeppelin/contracts-upgradeable/token/ERC721/ERC721PresetMinterPauserAutoIdUpgradeable.sol",
  "abi": [
    {
      "anonymous": false,
      "inputs": [
        {
          "indexed": true,
          "internalType": "address",
          "name": "owner",
          "type": "address"
        },
        {
          "indexed": true,
          "internalType": "address",
          "name": "approved",
          "type": "address"
        },
        {
          "indexed": true,
          "internalType": "uint256",
          "name": "tokenId",
          "type": "uint256"
        }
      ],
      "name": "Approval",
      "type": "event"
    },
    {
      "anonymous": false,
      "inputs": [
        {
          "indexed": true,
          "internalType": "address",
          "name": "owner",
          "type": "address"
        },
        {
          "indexed": true,
          "internalType": "address",
          "name": "operator",
          "type": "address"
        },
        {
          "indexed": false,
          "internalType": "bool",
          "name": "approved",
          "type": "bool"
        }
      ],
      "name": "ApprovalForAll",
      "type": "event"
    },
    {
      "anonymous": false,
      "inputs": [
        {
          "indexed": false,
          "internalType": "uint8",
          "name": "version",
          "type": "uint8"
        }
      ],
      "name": "Initialized",
      "type": "event"
    },
    {
      "anonymous": false,
      "inputs": [
        {
          "indexed": false,
          "internalType": "address",
          "name": "account",
          "type": "address"
        }
      ],
      "name": "Paused",
      "type": "event"
    },
    {
      "anonymous": false,
      "inputs": [
        {
          "indexed": true,
          "internalType": "bytes32",
          "name": "role",
          "type": "bytes32"
        },
        {
          "indexed": true,
          "internalType": "bytes32",
          "name": "previousAdminRole",
          "type": "bytes32"
        },
        {
          "indexed": true,
          "internalType": "bytes32",
          "name": "newAdminRole",
          "type": "bytes32"
        }
      ],
      "name": "RoleAdminChanged",
      "type": "event"
    },
    {
      "anonymous": false,
      "inputs": [
        {
          "indexed": true,
          "internalType": "bytes32",
          "name": "role",
          "type": "bytes32"
        },
        {
          "indexed": true,
          "internalType": "address",
          "name": "account",
          "type": "address"
        },
        {
          "indexed": true,
          "internalType": "address",
          "name": "sender",
          "type": "address"
        }
      ],
      "name": "RoleGranted",
      "type": "event"
    },
    {
      "anonymous": false,
      "inputs": [
        {
          "indexed": true,
          "internalType": "bytes32",
          "name": "role",
          "type": "bytes32"
        },
        {
          "indexed": true,
          "internalType": "address",
          "name": "account",
          "type": "address"
        },
        {
          "indexed": true,
          "internalType": "address",
          "name": "sender",
          "type": "address"
        }
      ],
      "name": "RoleRevoked",
      "type": "event"
    },
    {
      "anonymous": false,
      "inputs": [
        {
          "indexed": true,
          "internalType": "address",
          "name": "from",
          "type": "address"
        },
        {
          "indexed": true,
          "internalType": "address",
          "name": "to",
          "type": "address"
        },
        {
          "indexed": true,
          "internalType": "uint256",
          "name": "tokenId",
          "type": "uint256"
        }
      ],
      "name": "Transfer",
      "type": "event"
    },
    {
      "anonymous": false,
      "inputs": [
        {
          "indexed": false,
          "internalType": "address",
          "name": "account",
          "type": "address"
        }
      ],
      "name": "Unpaused",
      "type": "event"
    },
    {
      "inputs": [],
      "name": "DEFAULT_ADMIN_ROLE",
      "outputs": [
        {
          "internalType": "bytes32",
          "name": "",
          "type": "bytes32"
        }
      ],
      "stateMutability": "view",
      "type": "function"
    },
    {
      "inputs": [],
      "name": "MINTER_ROLE",
      "outputs": [
        {
          "internalType": "bytes32",
          "name": "",
          "type": "bytes32"
        }
      ],
      "stateMutability": "view",
      "type": "function"
    },
    {
      "inputs": [],
      "name": "PAUSER_ROLE",
      "outputs": [
        {
          "internalType": "bytes32",
          "name": "",
          "type": "bytes32"
        }
      ],
      "stateMutability": "view",
      "type": "function"
    },
    {
      "inputs": [
        {
          "internalType": "address",
          "name": "to",
          "type": "address"
        },
        {
          "internalType": "uint256",
          "name": "tokenId",
          "type": "uint256"
        }
      ],
      "name": "approve",
      "outputs": [],
      "stateMutability": "nonpayable",
      "type": "function"
    },
    {
      "inputs": [
        {
          "internalType": "address",
          "name": "owner",
          "type": "address"
        }
      ],
      "name": "balanceOf",
      "outputs": [
        {
          "internalType": "uint256",
          "name": "",
          "type": "uint256"
        }
      ],
      "stateMutability": "view",
      "type": "function"
    },
    {
      "inputs": [
        {
          "internalType": "uint256",
          "name": "tokenId",
          "type": "uint256"
        }
      ],
      "name": "burn",
      "outputs": [],
      "stateMutability": "nonpayable",
      "type": "function"
    },
    {
      "inputs": [
        {
          "internalType": "uint256",
          "name": "tokenId",
          "type": "uint256"
        }
      ],
      "name": "getApproved",
      "outputs": [
        {
          "internalType": "address",
          "name": "",
          "type": "address"
        }
      ],
      "stateMutability": "view",
      "type": "function"
    },
    {
      "inputs": [
        {
          "internalType": "bytes32",
          "name": "role",
          "type": "bytes32"
        }
      ],
      "name": "getRoleAdmin",
      "outputs": [
        {
          "internalType": "bytes32",
          "name": "",
          "type": "bytes32"
        }
      ],
      "stateMutability": "view",
      "type": "function"
    },
    {
      "inputs": [
        {
          "internalType": "bytes32",
          "name": "role",
          "type": "bytes32"
        },
        {
          "internalType": "uint256",
          "name": "index",
          "type": "uint256"
        }
      ],
      "name": "getRoleMember",
      "outputs": [
        {
          "internalType": "address",
          "name": "",
          "type": "address"
        }
      ],
      "stateMutability": "view",
      "type": "function"
    },
    {
      "inputs": [
        {
          "internalType": "bytes32",
          "name": "role",
          "type": "bytes32"
        }
      ],
      "name": "getRoleMemberCount",
      "outputs": [
        {
          "internalType": "uint256",
          "name": "",
          "type": "uint256"
        }
      ],
      "stateMutability": "view",
      "type": "function"
    },
    {
      "inputs": [
        {
          "internalType": "bytes32",
          "name": "role",
          "type": "bytes32"
        },
        {
          "internalType": "address",
          "name": "account",
          "type": "address"
        }
      ],
      "name": "grantRole",
      "outputs": [],
      "stateMutability": "nonpayable",
      "type": "function"
    },
    {
      "inputs": [
        {
          "internalType": "bytes32",
          "name": "role",
          "type": "bytes32"
        },
        {
          "internalType": "address",
          "name": "account",
          "type": "address"
        }
      ],
      "name": "hasRole",
      "outputs": [
        {
          "internalType": "bool",
          "name": "",
          "type": "bool"
        }
      ],
      "stateMutability": "view",
      "type": "function"
    },
    {
      "inputs": [
        {
          "internalType": "string",
          "name": "name",
          "type": "string"
        },
        {
          "internalType": "string",
          "name": "symbol",
          "type": "string"
        },
        {
          "internalType": "string",
          "name": "baseTokenURI",
          "type": "string"
        }
      ],
      "name": "initialize",
      "outputs": [],
      "stateMutability": "nonpayable",
      "type": "function"
    },
    {
      "inputs": [
        {
          "internalType": "address",
          "name": "owner",
          "type": "address"
        },
        {
          "internalType": "address",
          "name": "operator",
          "type": "address"
        }
      ],
      "name": "isApprovedForAll",
      "outputs": [
        {
          "internalType": "bool",
          "name": "",
          "type": "bool"
        }
      ],
      "stateMutability": "view",
      "type": "function"
    },
    {
      "inputs": [
        {
          "internalType": "address",
          "name": "to",
          "type": "address"
        }
      ],
      "name": "mint",
      "outputs": [],
      "stateMutability": "nonpayable",
      "type": "function"
    },
    {
      "inputs": [],
      "name": "name",
      "outputs": [
        {
          "internalType": "string",
          "name": "",
          "type": "string"
        }
      ],
      "stateMutability": "view",
      "type": "function"
    },
    {
      "inputs": [
        {
          "internalType": "uint256",
          "name": "tokenId",
          "type": "uint256"
        }
      ],
      "name": "ownerOf",
      "outputs": [
        {
          "internalType": "address",
          "name": "",
          "type": "address"
        }
      ],
      "stateMutability": "view",
      "type": "function"
    },
    {
      "inputs": [],
      "name": "pause",
      "outputs": [],
      "stateMutability": "nonpayable",
      "type": "function"
    },
    {
      "inputs": [],
      "name": "paused",
      "outputs": [
        {
          "internalType": "bool",
          "name": "",
          "type": "bool"
        }
      ],
      "stateMutability": "view",
      "type": "function"
    },
    {
      "inputs": [
        {
          "internalType": "bytes32",
          "name": "role",
          "type": "bytes32"
        },
        {
          "internalType": "address",
          "name": "account",
          "type": "address"
        }
      ],
      "name": "renounceRole",
      "outputs": [],
      "stateMutability": "nonpayable",
      "type": "function"
    },
    {
      "inputs": [
        {
          "internalType": "bytes32",
          "name": "role",
          "type": "bytes32"
        },
        {
          "internalType": "address",
          "name": "account",
          "type": "address"
        }
      ],
      "name": "revokeRole",
      "outputs": [],
      "stateMutability": "nonpayable",
      "type": "function"
    },
    {
      "inputs": [
        {
          "internalType": "address",
          "name": "from",
          "type": "address"
        },
        {
          "internalType": "address",
          "name": "to",
          "type": "address"
        },
        {
          "internalType": "uint256",
          "name": "tokenId",
          "type": "uint256"
        }
      ],
      "name": "safeTransferFrom",
      "outputs": [],
      "stateMutability": "nonpayable",
      "type": "function"
    },
    {
      "inputs": [
        {
          "internalType": "address",
          "name": "from",
          "type": "address"
        },
        {
          "internalType": "address",
          "name": "to",
          "type": "address"
        },
        {
          "internalType": "uint256",
          "name": "tokenId",
          "type": "uint256"
        },
        {
          "internalType": "bytes",
          "name": "data",
          "type": "bytes"
        }
      ],
      "name": "safeTransferFrom",
      "outputs": [],
      "stateMutability": "nonpayable",
      "type": "function"
    },
    {
      "inputs": [
        {
          "internalType": "address",
          "name": "operator",
          "type": "address"
        },
        {
          "internalType": "bool",
          "name": "approved",
          "type": "bool"
        }
      ],
      "name": "setApprovalForAll",
      "outputs": [],
      "stateMutability": "nonpayable",
      "type": "function"
    },
    {
      "inputs": [
        {
          "internalType": "bytes4",
          "name": "interfaceId",
          "type": "bytes4"
        }
      ],
      "name": "supportsInterface",
      "outputs": [
        {
          "internalType": "bool",
          "name": "",
          "type": "bool"
        }
      ],
      "stateMutability": "view",
      "type": "function"
    },
    {
      "inputs": [],
      "name": "symbol",
      "outputs": [
        {
          "internalType": "string",
          "name": "",
          "type": "string"
        }
      ],
      "stateMutability": "view",
      "type": "function"
    },
    {
      "inputs": [
        {
          "internalType": "uint256",
          "name": "index",
          "type": "uint256"
        }
      ],
      "name": "tokenByIndex",
      "outputs": [
        {
          "internalType": "uint256",
          "name": "",
          "type": "uint256"
        }
      ],
      "stateMutability": "view",
      "type": "function"
    },
    {
      "inputs": [
        {
          "internalType": "address",
          "name": "owner",
          "type": "address"
        },
        {
          "internalType": "uint256",
          "name": "index",
          "type": "uint256"
        }
      ],
      "name": "tokenOfOwnerByIndex",
      "outputs": [
        {
          "internalType": "uint256",
          "name": "",
          "type": "uint256"
        }
      ],
      "stateMutability": "view",
      "type": "function"
    },
    {
      "inputs": [
        {
          "internalType": "uint256",
          "name": "tokenId",
          "type": "uint256"
        }
      ],
      "name": "tokenURI",
      "outputs": [
        {
          "internalType": "string",
          "name": "",
          "type": "string"
        }
      ],
      "stateMutability": "view",
      "type": "function"
    },
    {
      "inputs": [],
      "name": "totalSupply",
      "outputs": [
        {
          "internalType": "uint256",
          "name": "",
          "type": "uint256"
        }
      ],
      "stateMutability": "view",
      "type": "function"
    },
    {
      "inputs": [
        {
          "internalType": "address",
          "name": "from",
          "type": "address"
        },
        {
          "internalType": "address",
          "name": "to",
          "type": "address"
        },
        {
          "internalType": "uint256",
          "name": "tokenId",
          "type": "uint256"
        }
      ],
      "name": "transferFrom",
      "outputs": [],
      "stateMutability": "nonpayable",
      "type": "function"
    },
    {
      "inputs": [],
      "name": "unpause",
      "outputs": [],
      "stateMutability": "nonpayable",
      "type": "function"
    }
  ],
  "bytecode": "0x608060405234801561001057600080fd5b50612818806100206000396000f3fe608060405234801561001057600080fd5b50600436106101b05760003560e01c80636a627842116100ef578063a6487c5311610092578063a6487c531461038a578063b88d4fde1461039d578063c87b56dd146103b0578063ca15c873146103c3578063d5391393146103d6578063d547741f146103eb578063e63ab1e9146103fe578063e985e9c51461041357600080fd5b80636a6278421461031357806370a08231146103265780638456cb59146103395780639010d07c1461034157806391d148541461035457806395d89b4114610367578063a217fddf1461036f578063a22cb4651461037757600080fd5b80632f745c59116101575780632f745c591461028d57806336568abe146102a05780633f4ba83a146102b357806342842e0e146102bb57806342966c68146102ce5780634f6ccce7146102e15780635c975abb146102f45780636352211e1461030057600080fd5b806301ffc9a7146101b557806306fdde03146101dd578063081812fc146101f2578063095ea7b31461021d57806318160ddd1461023257806323b872dd14610244578063248a9ca3146102575780632f2ff15d1461027a575b600080fd5b6101c86101c3366004611f76565b610426565b60405190151581526020015b60405180910390f35b6101e5610437565b6040516101d49190611fe3565b610205610200366004611ff6565b6104c9565b6040516001600160a01b0390911681526020016101d4565b61023061022b36600461202b565b6104f0565b005b60fd545b6040519081526020016101d4565b610230610252366004612055565b61060a565b610236610265366004611ff6565b60009081526065602052604090206001015490565b610230610288366004612091565b61063c565b61023661029b36600461202b565b610661565b6102306102ae366004612091565b6106f7565b610230610775565b6102306102c9366004612055565b6107f9565b6102306102dc366004611ff6565b610814565b6102366102ef366004611ff6565b610845565b61015f5460ff166101c8565b61020561030e366004611ff6565b6108d8565b6102306103213660046120bd565b61090d565b6102366103343660046120bd565b6109a7565b610230610a2d565b61020561034f3660046120d8565b610aad565b6101c8610362366004612091565b610acc565b6101e5610af7565b610236600081565b6102306103853660046120fa565b610b06565b6102306103983660046121e2565b610b11565b6102306103ab36600461226a565b610c28565b6101e56103be366004611ff6565b610c5a565b6102366103d1366004611ff6565b610cc0565b61023660008051602061278383398151915281565b6102306103f9366004612091565b610cd7565b61023660008051602061276383398151915281565b6101c86104213660046122e6565b610cfc565b600061043182610d2a565b92915050565b606060c9805461044690612310565b80601f016020809104026020016040519081016040528092919081815260200182805461047290612310565b80156104bf5780601f10610494576101008083540402835291602001916104bf565b820191906000526020600020905b8154815290600101906020018083116104a257829003601f168201915b5050505050905090565b60006104d482610d4f565b50600090815260cd60205260409020546001600160a01b031690565b60006104fb826108d8565b9050806001600160a01b0316836001600160a01b03160361056d5760405162461bcd60e51b815260206004820152602160248201527f4552433732313a20617070726f76616c20746f2063757272656e74206f776e656044820152603960f91b60648201526084015b60405180910390fd5b336001600160a01b038216148061058957506105898133610cfc565b6105fb5760405162461bcd60e51b815260206004820152603e60248201527f4552433732313a20617070726f76652063616c6c6572206973206e6f7420746f60448201527f6b656e206f776e6572206e6f7220617070726f76656420666f7220616c6c00006064820152608401610564565b6106058383610d83565b505050565b610615335b82610df1565b6106315760405162461bcd60e51b81526004016105649061234a565b610605838383610e50565b60008281526065602052604090206001015461065781610fe5565b6106058383610fef565b600061066c836109a7565b82106106ce5760405162461bcd60e51b815260206004820152602b60248201527f455243373231456e756d657261626c653a206f776e657220696e646578206f7560448201526a74206f6620626f756e647360a81b6064820152608401610564565b506001600160a01b0391909116600090815260fb60209081526040808320938352929052205490565b6001600160a01b03811633146107675760405162461bcd60e51b815260206004820152602f60248201527f416363657373436f6e74726f6c3a2063616e206f6e6c792072656e6f756e636560448201526e103937b632b9903337b91039b2b63360891b6064820152608401610564565b6107718282611011565b5050565b61078d60008051602061276383398151915233610acc565b6107ef576040805162461bcd60e51b81526020600482015260248101919091526000805160206127c383398151915260448201527f6d75737420686176652070617573657220726f6c6520746f20756e70617573656064820152608401610564565b6107f7611033565b565b61060583838360405180602001604052806000815250610c28565b61081d3361060f565b6108395760405162461bcd60e51b81526004016105649061234a565b61084281611086565b50565b600061085060fd5490565b82106108b35760405162461bcd60e51b815260206004820152602c60248201527f455243373231456e756d657261626c653a20676c6f62616c20696e646578206f60448201526b7574206f6620626f756e647360a01b6064820152608401610564565b60fd82815481106108c6576108c6612398565b90600052602060002001549050919050565b600081815260cb60205260408120546001600160a01b0316806104315760405162461bcd60e51b8152600401610564906123ae565b61092560008051602061278383398151915233610acc565b6109855760405162461bcd60e51b815260206004820152603d60248201526000805160206127c383398151915260448201527f6d7573742068617665206d696e74657220726f6c6520746f206d696e740000006064820152608401610564565b610998816109936101c35490565b61111b565b6108426101c380546001019055565b60006001600160a01b038216610a115760405162461bcd60e51b815260206004820152602960248201527f4552433732313a2061646472657373207a65726f206973206e6f7420612076616044820152683634b21037bbb732b960b91b6064820152608401610564565b506001600160a01b0316600090815260cc602052604090205490565b610a4560008051602061276383398151915233610acc565b610aa55760405162461bcd60e51b815260206004820152603e60248201526000805160206127c383398151915260448201527f6d75737420686176652070617573657220726f6c6520746f20706175736500006064820152608401610564565b6107f7611257565b6000828152609760205260408120610ac59083611295565b9392505050565b60009182526065602090815260408084206001600160a01b0393909316845291905290205460ff1690565b606060ca805461044690612310565b6107713383836112a1565b600054610100900460ff1615808015610b315750600054600160ff909116105b80610b4b5750303b158015610b4b575060005460ff166001145b610bae5760405162461bcd60e51b815260206004820152602e60248201527f496e697469616c697a61626c653a20636f6e747261637420697320616c72656160448201526d191e481a5b9a5d1a585b1a5e995960921b6064820152608401610564565b6000805460ff191660011790558015610bd1576000805461ff0019166101001790555b610bdc84848461136b565b8015610c22576000805461ff0019169055604051600181527f7f26b83ff96e1f2b6a682f133852f6798a09c465da95921460cefb38474024989060200160405180910390a15b50505050565b610c323383610df1565b610c4e5760405162461bcd60e51b81526004016105649061234a565b610c22848484846113af565b6060610c6582610d4f565b6000610c6f6113e2565b90506000815111610c8f5760405180602001604052806000815250610ac5565b80610c99846113f2565b604051602001610caa9291906123e0565b6040516020818303038152906040529392505050565b6000818152609760205260408120610431906114f3565b600082815260656020526040902060010154610cf281610fe5565b6106058383611011565b6001600160a01b03918216600090815260ce6020908152604080832093909416825291909152205460ff1690565b60006001600160e01b0319821663780e9d6360e01b14806104315750610431826114fd565b600081815260cb60205260409020546001600160a01b03166108425760405162461bcd60e51b8152600401610564906123ae565b600081815260cd6020526040902080546001600160a01b0319166001600160a01b0384169081179091558190610db8826108d8565b6001600160a01b03167f8c5be1e5ebec7d5bd14f71427d1e84f3dd0314c0f7b2291e5b200ac8c7c3b92560405160405180910390a45050565b600080610dfd836108d8565b9050806001600160a01b0316846001600160a01b03161480610e245750610e248185610cfc565b80610e485750836001600160a01b0316610e3d846104c9565b6001600160a01b0316145b949350505050565b826001600160a01b0316610e63826108d8565b6001600160a01b031614610ec75760405162461bcd60e51b815260206004820152602560248201527f4552433732313a207472616e736665722066726f6d20696e636f72726563742060448201526437bbb732b960d91b6064820152608401610564565b6001600160a01b038216610f295760405162461bcd60e51b8152602060048201526024808201527f4552433732313a207472616e7366657220746f20746865207a65726f206164646044820152637265737360e01b6064820152608401610564565b610f3483838361153d565b610f3f600082610d83565b6001600160a01b038316600090815260cc60205260408120805460019290610f68908490612425565b90915550506001600160a01b038216600090815260cc60205260408120805460019290610f96908490612438565b9091555050600081815260cb602052604080822080546001600160a01b0319166001600160a01b0386811691821790925591518493918716916000805160206127a383398151915291a4505050565b6108428133611548565b610ff982826115ac565b60008281526097602052604090206106059082611632565b61101b8282611647565b600082815260976020526040902061060590826116ae565b61103b6116c3565b61015f805460ff191690557f5db9ee0a495bf2e6ff9c91a7834c1ba4fdd244a5e8aa4e537bd38aeae4b073aa335b6040516001600160a01b03909116815260200160405180910390a1565b6000611091826108d8565b905061109f8160008461153d565b6110aa600083610d83565b6001600160a01b038116600090815260cc602052604081208054600192906110d3908490612425565b9091555050600082815260cb602052604080822080546001600160a01b0319169055518391906001600160a01b038416906000805160206127a3833981519152908390a45050565b6001600160a01b0382166111715760405162461bcd60e51b815260206004820181905260248201527f4552433732313a206d696e7420746f20746865207a65726f20616464726573736044820152606401610564565b600081815260cb60205260409020546001600160a01b0316156111d65760405162461bcd60e51b815260206004820152601c60248201527f4552433732313a20746f6b656e20616c7265616479206d696e746564000000006044820152606401610564565b6111e26000838361153d565b6001600160a01b038216600090815260cc6020526040812080546001929061120b908490612438565b9091555050600081815260cb602052604080822080546001600160a01b0319166001600160a01b03861690811790915590518392906000805160206127a3833981519152908290a45050565b61125f61170d565b61015f805460ff191660011790557f62e78cea01bee320cd4e420270b5ea74000d11b0c9f74754ebdbfc544b05a2586110693390565b6000610ac58383611754565b816001600160a01b0316836001600160a01b0316036112fe5760405162461bcd60e51b815260206004820152601960248201527822a9219b99189d1030b8383937bb32903a379031b0b63632b960391b6044820152606401610564565b6001600160a01b03838116600081815260ce6020908152604080832094871680845294825291829020805460ff191686151590811790915591519182527f17307eab39ab6107e8899845ad3d59bd9653f200f220920489ca2b5937696c31910160405180910390a3505050565b600054610100900460ff166113925760405162461bcd60e51b81526004016105649061244b565b61139c838361177e565b6113a46117be565b6106058383836117f2565b6113ba848484610e50565b6113c684848484611862565b610c225760405162461bcd60e51b815260040161056490612496565b60606101c4805461044690612310565b6060816000036114195750506040805180820190915260018152600360fc1b602082015290565b8160005b8115611443578061142d816124e8565b915061143c9050600a83612517565b915061141d565b60008167ffffffffffffffff81111561145e5761145e612136565b6040519080825280601f01601f191660200182016040528015611488576020820181803683370190505b5090505b8415610e485761149d600183612425565b91506114aa600a8661252b565b6114b5906030612438565b60f81b8183815181106114ca576114ca612398565b60200101906001600160f81b031916908160001a9053506114ec600a86612517565b945061148c565b6000610431825490565b60006001600160e01b031982166380ac58cd60e01b148061152e57506001600160e01b03198216635b5e139f60e01b145b80610431575061043182611963565b610605838383611988565b6115528282610acc565b6107715761156a816001600160a01b031660146119fb565b6115758360206119fb565b60405160200161158692919061253f565b60408051601f198184030181529082905262461bcd60e51b825261056491600401611fe3565b6115b68282610acc565b6107715760008281526065602090815260408083206001600160a01b03851684529091529020805460ff191660011790556115ee3390565b6001600160a01b0316816001600160a01b0316837f2f8788117e7eff1d82e926ec794901d17c78024a50270940304540a733656f0d60405160405180910390a45050565b6000610ac5836001600160a01b038416611b97565b6116518282610acc565b156107715760008281526065602090815260408083206001600160a01b0385168085529252808320805460ff1916905551339285917ff6391f5c32d9c69d2a47ea670b442974b53935d1edc7fd64eb21e047a839171b9190a45050565b6000610ac5836001600160a01b038416611be6565b61015f5460ff166107f75760405162461bcd60e51b815260206004820152601460248201527314185d5cd8589b194e881b9bdd081c185d5cd95960621b6044820152606401610564565b61015f5460ff16156107f75760405162461bcd60e51b815260206004820152601060248201526f14185d5cd8589b194e881c185d5cd95960821b6044820152606401610564565b600082600001828154811061176b5761176b612398565b9060005260206000200154905092915050565b600054610100900460ff166117a55760405162461bcd60e51b81526004016105649061244b565b60c96117b183826125fc565b5060ca61060582826125fc565b600054610100900460ff166117e55760405162461bcd60e51b81526004016105649061244b565b61015f805460ff19169055565b600054610100900460ff166118195760405162461bcd60e51b81526004016105649061244b565b6101c461182682826125fc565b50611832600033611cd9565b61184a60008051602061278383398151915233611cd9565b61060560008051602061276383398151915233611cd9565b60006001600160a01b0384163b1561195857604051630a85bd0160e11b81526001600160a01b0385169063150b7a02906118a69033908990889088906004016126bc565b6020604051808303816000875af19250505080156118e1575060408051601f3d908101601f191682019092526118de918101906126f9565b60015b61193e573d80801561190f576040519150601f19603f3d011682016040523d82523d6000602084013e611914565b606091505b5080516000036119365760405162461bcd60e51b815260040161056490612496565b805181602001fd5b6001600160e01b031916630a85bd0160e11b149050610e48565b506001949350505050565b60006001600160e01b03198216635a05180f60e01b1480610431575061043182611ce3565b611993838383611d18565b61015f5460ff16156106055760405162461bcd60e51b815260206004820152602b60248201527f4552433732315061757361626c653a20746f6b656e207472616e73666572207760448201526a1a1a5b19481c185d5cd95960aa1b6064820152608401610564565b60606000611a0a836002612716565b611a15906002612438565b67ffffffffffffffff811115611a2d57611a2d612136565b6040519080825280601f01601f191660200182016040528015611a57576020820181803683370190505b509050600360fc1b81600081518110611a7257611a72612398565b60200101906001600160f81b031916908160001a905350600f60fb1b81600181518110611aa157611aa1612398565b60200101906001600160f81b031916908160001a9053506000611ac5846002612716565b611ad0906001612438565b90505b6001811115611b48576f181899199a1a9b1b9c1cb0b131b232b360811b85600f1660108110611b0457611b04612398565b1a60f81b828281518110611b1a57611b1a612398565b60200101906001600160f81b031916908160001a90535060049490941c93611b4181612735565b9050611ad3565b508315610ac55760405162461bcd60e51b815260206004820181905260248201527f537472696e67733a20686578206c656e67746820696e73756666696369656e746044820152606401610564565b6000818152600183016020526040812054611bde57508154600181810184556000848152602080822090930184905584548482528286019093526040902091909155610431565b506000610431565b60008181526001830160205260408120548015611ccf576000611c0a600183612425565b8554909150600090611c1e90600190612425565b9050818114611c83576000866000018281548110611c3e57611c3e612398565b9060005260206000200154905080876000018481548110611c6157611c61612398565b6000918252602080832090910192909255918252600188019052604090208390555b8554869080611c9457611c9461274c565b600190038181906000526020600020016000905590558560010160008681526020019081526020016000206000905560019350505050610431565b6000915050610431565b6107718282610fef565b60006001600160e01b03198216637965db0b60e01b148061043157506301ffc9a760e01b6001600160e01b0319831614610431565b6001600160a01b038316611d7357611d6e8160fd8054600083815260fe60205260408120829055600182018355919091527f9346ac6dd7de6b96975fec380d4d994c4c12e6a8897544f22915316cc6cca2800155565b611d96565b816001600160a01b0316836001600160a01b031614611d9657611d968382611dd0565b6001600160a01b038216611dad5761060581611e6d565b826001600160a01b0316826001600160a01b031614610605576106058282611f1c565b60006001611ddd846109a7565b611de79190612425565b600083815260fc6020526040902054909150808214611e3a576001600160a01b038416600090815260fb60209081526040808320858452825280832054848452818420819055835260fc90915290208190555b50600091825260fc602090815260408084208490556001600160a01b03909416835260fb81528383209183525290812055565b60fd54600090611e7f90600190612425565b600083815260fe602052604081205460fd8054939450909284908110611ea757611ea7612398565b906000526020600020015490508060fd8381548110611ec857611ec8612398565b600091825260208083209091019290925582815260fe909152604080822084905585825281205560fd805480611f0057611f0061274c565b6001900381819060005260206000200160009055905550505050565b6000611f27836109a7565b6001600160a01b03909316600090815260fb60209081526040808320868452825280832085905593825260fc9052919091209190915550565b6001600160e01b03198116811461084257600080fd5b600060208284031215611f8857600080fd5b8135610ac581611f60565b60005b83811015611fae578181015183820152602001611f96565b50506000910152565b60008151808452611fcf816020860160208601611f93565b601f01601f19169290920160200192915050565b602081526000610ac56020830184611fb7565b60006020828403121561200857600080fd5b5035919050565b80356001600160a01b038116811461202657600080fd5b919050565b6000806040838503121561203e57600080fd5b6120478361200f565b946020939093013593505050565b60008060006060848603121561206a57600080fd5b6120738461200f565b92506120816020850161200f565b9150604084013590509250925092565b600080604083850312156120a457600080fd5b823591506120b46020840161200f565b90509250929050565b6000602082840312156120cf57600080fd5b610ac58261200f565b600080604083850312156120eb57600080fd5b50508035926020909101359150565b6000806040838503121561210d57600080fd5b6121168361200f565b91506020830135801515811461212b57600080fd5b809150509250929050565b634e487b7160e01b600052604160045260246000fd5b600067ffffffffffffffff8084111561216757612167612136565b604051601f8501601f19908116603f0116810190828211818310171561218f5761218f612136565b816040528093508581528686860111156121a857600080fd5b858560208301376000602087830101525050509392505050565b600082601f8301126121d357600080fd5b610ac58383356020850161214c565b6000806000606084860312156121f757600080fd5b833567ffffffffffffffff8082111561220f57600080fd5b61221b878388016121c2565b9450602086013591508082111561223157600080fd5b61223d878388016121c2565b9350604086013591508082111561225357600080fd5b50612260868287016121c2565b9150509250925092565b6000806000806080858703121561228057600080fd5b6122898561200f565b93506122976020860161200f565b925060408501359150606085013567ffffffffffffffff8111156122ba57600080fd5b8501601f810187136122cb57600080fd5b6122da8782356020840161214c565b91505092959194509250565b600080604083850312156122f957600080fd5b6123028361200f565b91506120b46020840161200f565b600181811c9082168061232457607f821691505b60208210810361234457634e487b7160e01b600052602260045260246000fd5b50919050565b6020808252602e908201527f4552433732313a2063616c6c6572206973206e6f7420746f6b656e206f776e6560408201526d1c881b9bdc88185c1c1c9bdd995960921b606082015260800190565b634e487b7160e01b600052603260045260246000fd5b602080825260189082015277115490cdcc8c4e881a5b9d985b1a59081d1bdad95b88125160421b604082015260600190565b600083516123f2818460208801611f93565b835190830190612406818360208801611f93565b01949350505050565b634e487b7160e01b600052601160045260246000fd5b818103818111156104315761043161240f565b808201808211156104315761043161240f565b6020808252602b908201527f496e697469616c697a61626c653a20636f6e7472616374206973206e6f74206960408201526a6e697469616c697a696e6760a81b606082015260800190565b60208082526032908201527f4552433732313a207472616e7366657220746f206e6f6e20455243373231526560408201527131b2b4bb32b91034b6b83632b6b2b73a32b960711b606082015260800190565b6000600182016124fa576124fa61240f565b5060010190565b634e487b7160e01b600052601260045260246000fd5b60008261252657612526612501565b500490565b60008261253a5761253a612501565b500690565b76020b1b1b2b9b9a1b7b73a3937b61d1030b1b1b7bab73a1604d1b815260008351612571816017850160208801611f93565b7001034b99036b4b9b9b4b733903937b6329607d1b60179184019182015283516125a2816028840160208801611f93565b01602801949350505050565b601f82111561060557600081815260208120601f850160051c810160208610156125d55750805b601f850160051c820191505b818110156125f4578281556001016125e1565b505050505050565b815167ffffffffffffffff81111561261657612616612136565b61262a816126248454612310565b846125ae565b602080601f83116001811461265f57600084156126475750858301515b600019600386901b1c1916600185901b1785556125f4565b600085815260208120601f198616915b8281101561268e5788860151825594840194600190910190840161266f565b50858210156126ac5787850151600019600388901b60f8161c191681555b5050505050600190811b01905550565b6001600160a01b03858116825284166020820152604081018390526080606082018190526000906126ef90830184611fb7565b9695505050505050565b60006020828403121561270b57600080fd5b8151610ac581611f60565b60008160001904831182151516156127305761273061240f565b500290565b6000816127445761274461240f565b506000190190565b634e487b7160e01b600052603160045260246000fdfe65d7a28e3265b37a6474929f336521b332c1681b933f6cb9f3376673440d862a9f2df0fed2c77648de5860a4cc508cd0818c85b8b8a1ab4ceeef8d981c8956a6ddf252ad1be2c89b69c2b068fc378daa952ba7f163c4a11628f55a4df523b3ef4552433732315072657365744d696e7465725061757365724175746f49643a20a26469706673582212205ab0935053c34513b64d4d4370f9d39695ee83777c65164d944c503c102e7c0d64736f6c63430008100033",
  "linkReferences": {},
  "deployedLinkReferences": {}
}