{
  "_format": "hh-sol-artifact-1",
  "contractName": "HYFManager",
  "sourceName": "contracts/abby/HYFManager.sol",
  "abi": [
    {
      "inputs": [
        {
          "internalType": "address",
          "name": "_collateral",
          "type": "address"
        },
        {
          "internalType": "address",
          "name": "_audcCollateral",
          "type": "address"
        },
        {
          "internalType": "address",
          "name": "_rwa",
          "type": "address"
        },
        {
          "internalType": "address",
          "name": "_rwaAyf",
          "type": "address"
        },
        {
          "internalType": "address",
          "name": "managerAdmin",
          "type": "address"
        },
        {
          "internalType": "address",
          "name": "pauser",
          "type": "address"
        },
        {
          "internalType": "address",
          "name": "_assetSender",
          "type": "address"
        },
        {
          "internalType": "address",
          "name": "_feeRecipient",
          "type": "address"
        },
        {
          "internalType": "uint256",
          "name": "_minimumDepositAmount",
          "type": "uint256"
        },
        {
          "internalType": "uint256",
          "name": "_minimumRedemptionAmount",
          "type": "uint256"
        },
        {
          "internalType": "address",
          "name": "blocklist",
          "type": "address"
        }
      ],
      "stateMutability": "nonpayable",
      "type": "constructor"
    },
    {
      "inputs": [],
      "name": "AmountTooSmall",
      "type": "error"
    },
    {
      "inputs": [],
      "name": "ArraySizeMismatch",
      "type": "error"
    },
    {
      "inputs": [],
      "name": "AssetSenderCannotBeZero",
      "type": "error"
    },
    {
      "inputs": [],
      "name": "ClaimableTimestampInPast",
      "type": "error"
    },
    {
      "inputs": [],
      "name": "ClaimableTimestampNotSet",
      "type": "error"
    },
    {
      "inputs": [],
      "name": "CollateralCannotBeZero",
      "type": "error"
    },
    {
      "inputs": [],
      "name": "DepositProofAlreadyExists",
      "type": "error"
    },
    {
      "inputs": [],
      "name": "DepositTooSmall",
      "type": "error"
    },
    {
      "inputs": [],
      "name": "DepositorNull",
      "type": "error"
    },
    {
      "inputs": [],
      "name": "FeaturePaused",
      "type": "error"
    },
    {
      "inputs": [],
      "name": "FeeRecipientCannotBeZero",
      "type": "error"
    },
    {
      "inputs": [],
      "name": "FeeTooLarge",
      "type": "error"
    },
    {
      "inputs": [],
      "name": "MintNotYetClaimable",
      "type": "error"
    },
    {
      "inputs": [],
      "name": "PriceIdAlreadySet",
      "type": "error"
    },
    {
      "inputs": [],
      "name": "PriceIdNotSet",
      "type": "error"
    },
    {
      "inputs": [],
      "name": "RWACannotBeZero",
      "type": "error"
    },
    {
      "inputs": [],
      "name": "RedeemerNull",
      "type": "error"
    },
    {
      "inputs": [],
      "name": "RedemptionTooSmall",
      "type": "error"
    },
    {
      "inputs": [],
      "name": "TxnAlreadyValidated",
      "type": "error"
    },
    {
      "anonymous": false,
      "inputs": [
        {
          "indexed": false,
          "internalType": "address",
          "name": "oldAssetSender",
          "type": "address"
        },
        {
          "indexed": false,
          "internalType": "address",
          "name": "newAssetSender",
          "type": "address"
        }
      ],
      "name": "AssetSenderSet",
      "type": "event"
    },
    {
      "anonymous": false,
      "inputs": [
        {
          "indexed": true,
          "internalType": "uint256",
          "name": "claimTimestamp",
          "type": "uint256"
        },
        {
          "indexed": true,
          "internalType": "bytes32",
          "name": "depositId",
          "type": "bytes32"
        }
      ],
      "name": "ClaimableTimestampSet",
      "type": "event"
    },
    {
      "anonymous": false,
      "inputs": [
        {
          "indexed": true,
          "internalType": "bytes32",
          "name": "txHash",
          "type": "bytes32"
        },
        {
          "indexed": true,
          "internalType": "address",
          "name": "user",
          "type": "address"
        },
        {
          "indexed": false,
          "internalType": "uint256",
          "name": "depositAmountAfterFee",
          "type": "uint256"
        },
        {
          "indexed": false,
          "internalType": "uint256",
          "name": "feeAmount",
          "type": "uint256"
        },
        {
          "indexed": false,
          "internalType": "uint256",
          "name": "timestamp",
          "type": "uint256"
        }
      ],
      "name": "DepositProofAdded",
      "type": "event"
    },
    {
      "anonymous": false,
      "inputs": [
        {
          "indexed": true,
          "internalType": "bytes32",
          "name": "depositId",
          "type": "bytes32"
        },
        {
          "indexed": false,
          "internalType": "address",
          "name": "oldDepositor",
          "type": "address"
        },
        {
          "indexed": false,
          "internalType": "address",
          "name": "newDepositor",
          "type": "address"
        },
        {
          "indexed": false,
          "internalType": "uint256",
          "name": "oldPriceId",
          "type": "uint256"
        },
        {
          "indexed": false,
          "internalType": "uint256",
          "name": "newPriceId",
          "type": "uint256"
        },
        {
          "indexed": false,
          "internalType": "uint256",
          "name": "oldDepositAmount",
          "type": "uint256"
        },
        {
          "indexed": false,
          "internalType": "uint256",
          "name": "newDepositAmount",
          "type": "uint256"
        }
      ],
      "name": "DepositorOverwritten",
      "type": "event"
    },
    {
      "anonymous": false,
      "inputs": [
        {
          "indexed": false,
          "internalType": "address",
          "name": "oldFeeRecipient",
          "type": "address"
        },
        {
          "indexed": false,
          "internalType": "address",
          "name": "newFeeRecipient",
          "type": "address"
        }
      ],
      "name": "FeeRecipientSet",
      "type": "event"
    },
    {
      "anonymous": false,
      "inputs": [
        {
          "indexed": false,
          "internalType": "uint256",
          "name": "oldMinimum",
          "type": "uint256"
        },
        {
          "indexed": false,
          "internalType": "uint256",
          "name": "newMinimum",
          "type": "uint256"
        }
      ],
      "name": "MinimumDepositAmountSet",
      "type": "event"
    },
    {
      "anonymous": false,
      "inputs": [
        {
          "indexed": false,
          "internalType": "uint256",
          "name": "oldRedemptionMin",
          "type": "uint256"
        },
        {
          "indexed": false,
          "internalType": "uint256",
          "name": "newRedemptionMin",
          "type": "uint256"
        }
      ],
      "name": "MinimumRedemptionAmountSet",
      "type": "event"
    },
    {
      "anonymous": false,
      "inputs": [
        {
          "indexed": true,
          "internalType": "address",
          "name": "user",
          "type": "address"
        },
        {
          "indexed": true,
          "internalType": "bytes32",
          "name": "depositId",
          "type": "bytes32"
        },
        {
          "indexed": false,
          "internalType": "uint256",
          "name": "rwaAmountOut",
          "type": "uint256"
        },
        {
          "indexed": false,
          "internalType": "uint256",
          "name": "collateralAmountDeposited",
          "type": "uint256"
        },
        {
          "indexed": false,
          "internalType": "uint256",
          "name": "price",
          "type": "uint256"
        },
        {
          "indexed": false,
          "internalType": "uint256",
          "name": "priceId",
          "type": "uint256"
        }
      ],
      "name": "MintCompleted",
      "type": "event"
    },
    {
      "anonymous": false,
      "inputs": [
        {
          "indexed": false,
          "internalType": "uint256",
          "name": "oldFee",
          "type": "uint256"
        },
        {
          "indexed": false,
          "internalType": "uint256",
          "name": "newFee",
          "type": "uint256"
        }
      ],
      "name": "MintFeeSet",
      "type": "event"
    },
    {
      "anonymous": false,
      "inputs": [
        {
          "indexed": true,
          "internalType": "address",
          "name": "user",
          "type": "address"
        },
        {
          "indexed": true,
          "internalType": "bytes32",
          "name": "depositId",
          "type": "bytes32"
        },
        {
          "indexed": false,
          "internalType": "uint256",
          "name": "collateralAmountDeposited",
          "type": "uint256"
        },
        {
          "indexed": false,
          "internalType": "uint256",
          "name": "depositAmountAfterFee",
          "type": "uint256"
        },
        {
          "indexed": false,
          "internalType": "uint256",
          "name": "feeAmount",
          "type": "uint256"
        }
      ],
      "name": "MintRequested",
      "type": "event"
    },
    {
      "anonymous": false,
      "inputs": [
        {
          "indexed": false,
          "internalType": "address",
          "name": "oldPricer",
          "type": "address"
        },
        {
          "indexed": false,
          "internalType": "address",
          "name": "newPricer",
          "type": "address"
        }
      ],
      "name": "NewPricerSet",
      "type": "event"
    },
    {
      "anonymous": false,
      "inputs": [
        {
          "indexed": true,
          "internalType": "bytes32",
          "name": "depositIdSet",
          "type": "bytes32"
        },
        {
          "indexed": true,
          "internalType": "uint256",
          "name": "priceIdSet",
          "type": "uint256"
        }
      ],
      "name": "PriceIdSetForDeposit",
      "type": "event"
    },
    {
      "anonymous": false,
      "inputs": [
        {
          "indexed": true,
          "internalType": "bytes32",
          "name": "redemptionIdSet",
          "type": "bytes32"
        },
        {
          "indexed": true,
          "internalType": "uint256",
          "name": "priceIdSet",
          "type": "uint256"
        },
        {
          "indexed": false,
          "internalType": "bytes32",
          "name": "collateralType",
          "type": "bytes32"
        }
      ],
      "name": "PriceIdSetForRedemption",
      "type": "event"
    },
    {
      "anonymous": false,
      "inputs": [
        {
          "indexed": true,
          "internalType": "bytes32",
          "name": "redemptionId",
          "type": "bytes32"
        },
        {
          "indexed": false,
          "internalType": "address",
          "name": "oldRedeemer",
          "type": "address"
        },
        {
          "indexed": false,
          "internalType": "address",
          "name": "newRedeemer",
          "type": "address"
        },
        {
          "indexed": false,
          "internalType": "uint256",
          "name": "oldPriceId",
          "type": "uint256"
        },
        {
          "indexed": false,
          "internalType": "uint256",
          "name": "newPriceId",
          "type": "uint256"
        },
        {
          "indexed": false,
          "internalType": "uint256",
          "name": "oldRWATokenAmountBurned",
          "type": "uint256"
        },
        {
          "indexed": false,
          "internalType": "uint256",
          "name": "newRWATokenAmountBurned",
          "type": "uint256"
        }
      ],
      "name": "RedeemerOverwritten",
      "type": "event"
    },
    {
      "anonymous": false,
      "inputs": [
        {
          "indexed": true,
          "internalType": "bytes32",
          "name": "redemptionId",
          "type": "bytes32"
        },
        {
          "indexed": false,
          "internalType": "bytes32",
          "name": "collateralType",
          "type": "bytes32"
        }
      ],
      "name": "RedemptionApproved",
      "type": "event"
    },
    {
      "anonymous": false,
      "inputs": [
        {
          "indexed": true,
          "internalType": "address",
          "name": "user",
          "type": "address"
        },
        {
          "indexed": true,
          "internalType": "bytes32",
          "name": "redemptionId",
          "type": "bytes32"
        },
        {
          "indexed": false,
          "internalType": "uint256",
          "name": "rwaAmountRequested",
          "type": "uint256"
        },
        {
          "indexed": false,
          "internalType": "uint256",
          "name": "collateralAmountReturned",
          "type": "uint256"
        },
        {
          "indexed": false,
          "internalType": "uint256",
          "name": "price",
          "type": "uint256"
        },
        {
          "indexed": false,
          "internalType": "bytes32",
          "name": "collateralType",
          "type": "bytes32"
        }
      ],
      "name": "RedemptionCompleted",
      "type": "event"
    },
    {
      "anonymous": false,
      "inputs": [
        {
          "indexed": false,
          "internalType": "uint256",
          "name": "oldFee",
          "type": "uint256"
        },
        {
          "indexed": false,
          "internalType": "uint256",
          "name": "newFee",
          "type": "uint256"
        }
      ],
      "name": "RedemptionFeeSet",
      "type": "event"
    },
    {
      "anonymous": false,
      "inputs": [
        {
          "indexed": false,
          "internalType": "address",
          "name": "caller",
          "type": "address"
        }
      ],
      "name": "RedemptionPaused",
      "type": "event"
    },
    {
      "anonymous": false,
      "inputs": [
        {
          "indexed": true,
          "internalType": "address",
          "name": "user",
          "type": "address"
        },
        {
          "indexed": true,
          "internalType": "bytes32",
          "name": "redemptionId",
          "type": "bytes32"
        },
        {
          "indexed": false,
          "internalType": "uint256",
          "name": "rwaAmountIn",
          "type": "uint256"
        },
        {
          "indexed": false,
          "internalType": "bytes32",
          "name": "collateralType",
          "type": "bytes32"
        }
      ],
      "name": "RedemptionRequested",
      "type": "event"
    },
    {
      "anonymous": false,
      "inputs": [
        {
          "indexed": false,
          "internalType": "address",
          "name": "caller",
          "type": "address"
        }
      ],
      "name": "RedemptionUnpaused",
      "type": "event"
    },
    {
      "anonymous": false,
      "inputs": [
        {
          "indexed": true,
          "internalType": "bytes32",
          "name": "role",
          "type": "bytes32"
        },
        {
          "indexed": true,
          "internalType": "bytes32",
          "name": "previousAdminRole",
          "type": "bytes32"
        },
        {
          "indexed": true,
          "internalType": "bytes32",
          "name": "newAdminRole",
          "type": "bytes32"
        }
      ],
      "name": "RoleAdminChanged",
      "type": "event"
    },
    {
      "anonymous": false,
      "inputs": [
        {
          "indexed": true,
          "internalType": "bytes32",
          "name": "role",
          "type": "bytes32"
        },
        {
          "indexed": true,
          "internalType": "address",
          "name": "account",
          "type": "address"
        },
        {
          "indexed": true,
          "internalType": "address",
          "name": "sender",
          "type": "address"
        }
      ],
      "name": "RoleGranted",
      "type": "event"
    },
    {
      "anonymous": false,
      "inputs": [
        {
          "indexed": true,
          "internalType": "bytes32",
          "name": "role",
          "type": "bytes32"
        },
        {
          "indexed": true,
          "internalType": "address",
          "name": "account",
          "type": "address"
        },
        {
          "indexed": true,
          "internalType": "address",
          "name": "sender",
          "type": "address"
        }
      ],
      "name": "RoleRevoked",
      "type": "event"
    },
    {
      "anonymous": false,
      "inputs": [
        {
          "indexed": false,
          "internalType": "address",
          "name": "caller",
          "type": "address"
        }
      ],
      "name": "SubscriptionPaused",
      "type": "event"
    },
    {
      "anonymous": false,
      "inputs": [
        {
          "indexed": false,
          "internalType": "address",
          "name": "caller",
          "type": "address"
        }
      ],
      "name": "SubscriptionUnpaused",
      "type": "event"
    },
    {
      "inputs": [],
      "name": "AUDC_TO_USDC_EXCHANGE_RATE",
      "outputs": [
        {
          "internalType": "uint256",
          "name": "",
          "type": "uint256"
        }
      ],
      "stateMutability": "view",
      "type": "function"
    },
    {
      "inputs": [],
      "name": "BPS_DENOMINATOR",
      "outputs": [
        {
          "internalType": "uint256",
          "name": "",
          "type": "uint256"
        }
      ],
      "stateMutability": "view",
      "type": "function"
    },
    {
      "inputs": [],
      "name": "COLLATERAL_TYPE",
      "outputs": [
        {
          "internalType": "bytes32",
          "name": "",
          "type": "bytes32"
        }
      ],
      "stateMutability": "view",
      "type": "function"
    },
    {
      "inputs": [],
      "name": "DEFAULT_ADMIN_ROLE",
      "outputs": [
        {
          "internalType": "bytes32",
          "name": "",
          "type": "bytes32"
        }
      ],
      "stateMutability": "view",
      "type": "function"
    },
    {
      "inputs": [],
      "name": "HYF_TO_USDC_CONVERSION_RATE",
      "outputs": [
        {
          "internalType": "uint256",
          "name": "",
          "type": "uint256"
        }
      ],
      "stateMutability": "view",
      "type": "function"
    },
    {
      "inputs": [],
      "name": "MANAGER_ADMIN",
      "outputs": [
        {
          "internalType": "bytes32",
          "name": "",
          "type": "bytes32"
        }
      ],
      "stateMutability": "view",
      "type": "function"
    },
    {
      "inputs": [],
      "name": "PAUSER_ADMIN",
      "outputs": [
        {
          "internalType": "bytes32",
          "name": "",
          "type": "bytes32"
        }
      ],
      "stateMutability": "view",
      "type": "function"
    },
    {
      "inputs": [],
      "name": "PRICE_ID_SETTER_ROLE",
      "outputs": [
        {
          "internalType": "bytes32",
          "name": "",
          "type": "bytes32"
        }
      ],
      "stateMutability": "view",
      "type": "function"
    },
    {
      "inputs": [],
      "name": "RELAYER_ROLE",
      "outputs": [
        {
          "internalType": "bytes32",
          "name": "",
          "type": "bytes32"
        }
      ],
      "stateMutability": "view",
      "type": "function"
    },
    {
      "inputs": [],
      "name": "TIMESTAMP_SETTER_ROLE",
      "outputs": [
        {
          "internalType": "bytes32",
          "name": "",
          "type": "bytes32"
        }
      ],
      "stateMutability": "view",
      "type": "function"
    },
    {
      "inputs": [
        {
          "internalType": "bytes32",
          "name": "txHash",
          "type": "bytes32"
        },
        {
          "internalType": "address",
          "name": "user",
          "type": "address"
        },
        {
          "internalType": "uint256",
          "name": "depositAmountAfterFee",
          "type": "uint256"
        },
        {
          "internalType": "uint256",
          "name": "feeAmount",
          "type": "uint256"
        },
        {
          "internalType": "uint256",
          "name": "timestamp",
          "type": "uint256"
        }
      ],
      "name": "addProof",
      "outputs": [],
      "stateMutability": "nonpayable",
      "type": "function"
    },
    {
      "inputs": [
        {
          "internalType": "bytes32[]",
          "name": "redemptionIds",
          "type": "bytes32[]"
        }
      ],
      "name": "approveRedemptionRequest",
      "outputs": [],
      "stateMutability": "nonpayable",
      "type": "function"
    },
    {
      "inputs": [],
      "name": "assetRecipient",
      "outputs": [
        {
          "internalType": "address",
          "name": "",
          "type": "address"
        }
      ],
      "stateMutability": "view",
      "type": "function"
    },
    {
      "inputs": [],
      "name": "assetSender",
      "outputs": [
        {
          "internalType": "address",
          "name": "",
          "type": "address"
        }
      ],
      "stateMutability": "view",
      "type": "function"
    },
    {
      "inputs": [],
      "name": "audcCollateral",
      "outputs": [
        {
          "internalType": "address",
          "name": "",
          "type": "address"
        }
      ],
      "stateMutability": "view",
      "type": "function"
    },
    {
      "inputs": [
        {
          "internalType": "bytes32[]",
          "name": "depositIds",
          "type": "bytes32[]"
        }
      ],
      "name": "claimMint",
      "outputs": [],
      "stateMutability": "nonpayable",
      "type": "function"
    },
    {
      "inputs": [
        {
          "internalType": "bytes32[]",
          "name": "redemptionIds",
          "type": "bytes32[]"
        }
      ],
      "name": "claimRedemption",
      "outputs": [],
      "stateMutability": "nonpayable",
      "type": "function"
    },
    {
      "inputs": [],
      "name": "collateral",
      "outputs": [
        {
          "internalType": "contract IERC20",
          "name": "",
          "type": "address"
        }
      ],
      "stateMutability": "view",
      "type": "function"
    },
    {
      "inputs": [],
      "name": "decimalsMultiplier",
      "outputs": [
        {
          "internalType": "uint256",
          "name": "",
          "type": "uint256"
        }
      ],
      "stateMutability": "view",
      "type": "function"
    },
    {
      "inputs": [
        {
          "internalType": "bytes32",
          "name": "",
          "type": "bytes32"
        }
      ],
      "name": "depositIdToClaimableTimestamp",
      "outputs": [
        {
          "internalType": "uint256",
          "name": "",
          "type": "uint256"
        }
      ],
      "stateMutability": "view",
      "type": "function"
    },
    {
      "inputs": [
        {
          "internalType": "bytes32",
          "name": "",
          "type": "bytes32"
        }
      ],
      "name": "depositIdToDepositor",
      "outputs": [
        {
          "internalType": "address",
          "name": "user",
          "type": "address"
        },
        {
          "internalType": "uint256",
          "name": "amountDepositedMinusFees",
          "type": "uint256"
        },
        {
          "internalType": "uint256",
          "name": "priceId",
          "type": "uint256"
        }
      ],
      "stateMutability": "view",
      "type": "function"
    },
    {
      "inputs": [],
      "name": "feeRecipient",
      "outputs": [
        {
          "internalType": "address",
          "name": "",
          "type": "address"
        }
      ],
      "stateMutability": "view",
      "type": "function"
    },
    {
      "inputs": [
        {
          "internalType": "bytes32",
          "name": "role",
          "type": "bytes32"
        }
      ],
      "name": "getRoleAdmin",
      "outputs": [
        {
          "internalType": "bytes32",
          "name": "",
          "type": "bytes32"
        }
      ],
      "stateMutability": "view",
      "type": "function"
    },
    {
      "inputs": [
        {
          "internalType": "bytes32",
          "name": "role",
          "type": "bytes32"
        },
        {
          "internalType": "uint256",
          "name": "index",
          "type": "uint256"
        }
      ],
      "name": "getRoleMember",
      "outputs": [
        {
          "internalType": "address",
          "name": "",
          "type": "address"
        }
      ],
      "stateMutability": "view",
      "type": "function"
    },
    {
      "inputs": [
        {
          "internalType": "bytes32",
          "name": "role",
          "type": "bytes32"
        }
      ],
      "name": "getRoleMemberCount",
      "outputs": [
        {
          "internalType": "uint256",
          "name": "",
          "type": "uint256"
        }
      ],
      "stateMutability": "view",
      "type": "function"
    },
    {
      "inputs": [
        {
          "internalType": "bytes32",
          "name": "role",
          "type": "bytes32"
        },
        {
          "internalType": "address",
          "name": "account",
          "type": "address"
        }
      ],
      "name": "grantRole",
      "outputs": [],
      "stateMutability": "nonpayable",
      "type": "function"
    },
    {
      "inputs": [
        {
          "internalType": "bytes32",
          "name": "role",
          "type": "bytes32"
        },
        {
          "internalType": "address",
          "name": "account",
          "type": "address"
        }
      ],
      "name": "hasRole",
      "outputs": [
        {
          "internalType": "bool",
          "name": "",
          "type": "bool"
        }
      ],
      "stateMutability": "view",
      "type": "function"
    },
    {
      "inputs": [],
      "name": "minimumDepositAmount",
      "outputs": [
        {
          "internalType": "uint256",
          "name": "",
          "type": "uint256"
        }
      ],
      "stateMutability": "view",
      "type": "function"
    },
    {
      "inputs": [],
      "name": "minimumRedemptionAmount",
      "outputs": [
        {
          "internalType": "uint256",
          "name": "",
          "type": "uint256"
        }
      ],
      "stateMutability": "view",
      "type": "function"
    },
    {
      "inputs": [],
      "name": "mintFee",
      "outputs": [
        {
          "internalType": "uint256",
          "name": "",
          "type": "uint256"
        }
      ],
      "stateMutability": "view",
      "type": "function"
    },
    {
      "inputs": [
        {
          "internalType": "bytes32",
          "name": "depositIdToOverwrite",
          "type": "bytes32"
        },
        {
          "internalType": "address",
          "name": "user",
          "type": "address"
        },
        {
          "internalType": "uint256",
          "name": "depositAmountAfterFee",
          "type": "uint256"
        },
        {
          "internalType": "uint256",
          "name": "priceId",
          "type": "uint256"
        }
      ],
      "name": "overwriteDepositor",
      "outputs": [],
      "stateMutability": "nonpayable",
      "type": "function"
    },
    {
      "inputs": [
        {
          "internalType": "bytes32",
          "name": "redemptionIdToOverwrite",
          "type": "bytes32"
        },
        {
          "internalType": "address",
          "name": "user",
          "type": "address"
        },
        {
          "internalType": "uint256",
          "name": "rwaTokenAmountBurned",
          "type": "uint256"
        },
        {
          "internalType": "uint256",
          "name": "priceId",
          "type": "uint256"
        }
      ],
      "name": "overwriteRedeemer",
      "outputs": [],
      "stateMutability": "nonpayable",
      "type": "function"
    },
    {
      "inputs": [],
      "name": "pauseRedemption",
      "outputs": [],
      "stateMutability": "nonpayable",
      "type": "function"
    },
    {
      "inputs": [],
      "name": "pauseSubscription",
      "outputs": [],
      "stateMutability": "nonpayable",
      "type": "function"
    },
    {
      "inputs": [],
      "name": "pricer",
      "outputs": [
        {
          "internalType": "contract IPricerReader",
          "name": "",
          "type": "address"
        }
      ],
      "stateMutability": "view",
      "type": "function"
    },
    {
      "inputs": [],
      "name": "redemptionFee",
      "outputs": [
        {
          "internalType": "uint256",
          "name": "",
          "type": "uint256"
        }
      ],
      "stateMutability": "view",
      "type": "function"
    },
    {
      "inputs": [
        {
          "internalType": "bytes32",
          "name": "",
          "type": "bytes32"
        }
      ],
      "name": "redemptionIdToRedeemer",
      "outputs": [
        {
          "internalType": "address",
          "name": "user",
          "type": "address"
        },
        {
          "internalType": "uint256",
          "name": "amountRwaTokenBurned",
          "type": "uint256"
        },
        {
          "internalType": "uint256",
          "name": "priceId",
          "type": "uint256"
        },
        {
          "internalType": "bool",
          "name": "approved",
          "type": "bool"
        }
      ],
      "stateMutability": "view",
      "type": "function"
    },
    {
      "inputs": [],
      "name": "redemptionPaused",
      "outputs": [
        {
          "internalType": "bool",
          "name": "",
          "type": "bool"
        }
      ],
      "stateMutability": "view",
      "type": "function"
    },
    {
      "inputs": [],
      "name": "redemptionRequestCounter",
      "outputs": [
        {
          "internalType": "uint256",
          "name": "",
          "type": "uint256"
        }
      ],
      "stateMutability": "view",
      "type": "function"
    },
    {
      "inputs": [
        {
          "internalType": "bytes32",
          "name": "role",
          "type": "bytes32"
        },
        {
          "internalType": "address",
          "name": "account",
          "type": "address"
        }
      ],
      "name": "renounceRole",
      "outputs": [],
      "stateMutability": "nonpayable",
      "type": "function"
    },
    {
      "inputs": [
        {
          "internalType": "uint256",
          "name": "ayfAmount",
          "type": "uint256"
        }
      ],
      "name": "requestRedemption",
      "outputs": [],
      "stateMutability": "nonpayable",
      "type": "function"
    },
    {
      "inputs": [
        {
          "internalType": "uint256",
          "name": "amount",
          "type": "uint256"
        }
      ],
      "name": "requestSubscription",
      "outputs": [],
      "stateMutability": "nonpayable",
      "type": "function"
    },
    {
      "inputs": [
        {
          "internalType": "bytes32",
          "name": "role",
          "type": "bytes32"
        },
        {
          "internalType": "address",
          "name": "account",
          "type": "address"
        }
      ],
      "name": "revokeRole",
      "outputs": [],
      "stateMutability": "nonpayable",
      "type": "function"
    },
    {
      "inputs": [],
      "name": "rwa",
      "outputs": [
        {
          "internalType": "contract IRWALike",
          "name": "",
          "type": "address"
        }
      ],
      "stateMutability": "view",
      "type": "function"
    },
    {
      "inputs": [],
      "name": "rwaAyf",
      "outputs": [
        {
          "internalType": "address",
          "name": "",
          "type": "address"
        }
      ],
      "stateMutability": "view",
      "type": "function"
    },
    {
      "inputs": [
        {
          "internalType": "address",
          "name": "newAssetSender",
          "type": "address"
        }
      ],
      "name": "setAssetSender",
      "outputs": [],
      "stateMutability": "nonpayable",
      "type": "function"
    },
    {
      "inputs": [
        {
          "internalType": "uint256",
          "name": "claimTimestamp",
          "type": "uint256"
        },
        {
          "internalType": "bytes32[]",
          "name": "depositIds",
          "type": "bytes32[]"
        }
      ],
      "name": "setClaimableTimestamp",
      "outputs": [],
      "stateMutability": "nonpayable",
      "type": "function"
    },
    {
      "inputs": [
        {
          "internalType": "address",
          "name": "newFeeRecipient",
          "type": "address"
        }
      ],
      "name": "setFeeRecipient",
      "outputs": [],
      "stateMutability": "nonpayable",
      "type": "function"
    },
    {
      "inputs": [
        {
          "internalType": "uint256",
          "name": "minDepositAmount",
          "type": "uint256"
        }
      ],
      "name": "setMinimumDepositAmount",
      "outputs": [],
      "stateMutability": "nonpayable",
      "type": "function"
    },
    {
      "inputs": [
        {
          "internalType": "uint256",
          "name": "_minimumRedemptionAmount",
          "type": "uint256"
        }
      ],
      "name": "setMinimumRedemptionAmount",
      "outputs": [],
      "stateMutability": "nonpayable",
      "type": "function"
    },
    {
      "inputs": [
        {
          "internalType": "uint256",
          "name": "_mintFee",
          "type": "uint256"
        }
      ],
      "name": "setMintFee",
      "outputs": [],
      "stateMutability": "nonpayable",
      "type": "function"
    },
    {
      "inputs": [
        {
          "internalType": "bytes32[]",
          "name": "depositIds",
          "type": "bytes32[]"
        },
        {
          "internalType": "uint256[]",
          "name": "priceIds",
          "type": "uint256[]"
        }
      ],
      "name": "setPriceIdForDeposits",
      "outputs": [],
      "stateMutability": "nonpayable",
      "type": "function"
    },
    {
      "inputs": [
        {
          "internalType": "bytes32[]",
          "name": "redemptionIds",
          "type": "bytes32[]"
        },
        {
          "internalType": "uint256[]",
          "name": "priceIds",
          "type": "uint256[]"
        }
      ],
      "name": "setPriceIdForRedemptions",
      "outputs": [],
      "stateMutability": "nonpayable",
      "type": "function"
    },
    {
      "inputs": [
        {
          "internalType": "address",
          "name": "newPricer",
          "type": "address"
        }
      ],
      "name": "setPricer",
      "outputs": [],
      "stateMutability": "nonpayable",
      "type": "function"
    },
    {
      "inputs": [
        {
          "internalType": "uint256",
          "name": "_redemptionFee",
          "type": "uint256"
        }
      ],
      "name": "setRedemptionFee",
      "outputs": [],
      "stateMutability": "nonpayable",
      "type": "function"
    },
    {
      "inputs": [],
      "name": "subscriptionPaused",
      "outputs": [
        {
          "internalType": "bool",
          "name": "",
          "type": "bool"
        }
      ],
      "stateMutability": "view",
      "type": "function"
    },
    {
      "inputs": [],
      "name": "subscriptionRequestCounter",
      "outputs": [
        {
          "internalType": "uint256",
          "name": "",
          "type": "uint256"
        }
      ],
      "stateMutability": "view",
      "type": "function"
    },
    {
      "inputs": [
        {
          "internalType": "bytes4",
          "name": "interfaceId",
          "type": "bytes4"
        }
      ],
      "name": "supportsInterface",
      "outputs": [
        {
          "internalType": "bool",
          "name": "",
          "type": "bool"
        }
      ],
      "stateMutability": "view",
      "type": "function"
    },
    {
      "inputs": [],
      "name": "unpauseRedemption",
      "outputs": [],
      "stateMutability": "nonpayable",
      "type": "function"
    },
    {
      "inputs": [],
      "name": "unpauseSubscription",
      "outputs": [],
      "stateMutability": "nonpayable",
      "type": "function"
    }
  ],
  "bytecode": "0x60e06040526000600b556000600c556001600e556001600f553480156200002557600080fd5b50604051620037ba380380620037ba83398101604081905262000048916200051a565b60016000558a8a8a8a8a8a8a8a8a8a6001600160a01b038a166200007f5760405163a1aeceb760e01b815260040160405180910390fd5b6001600160a01b038816620000a75760405163071aeb1d60e01b815260040160405180910390fd5b6001600160a01b038416620000cf57604051633b2b1d5560e01b815260040160405180910390fd5b6001600160a01b038316620000f757604051634fdcfc5560e11b815260040160405180910390fd5b6200010460008762000372565b6200011f6000805160206200379a8339815191528762000372565b6200013a6000805160206200375a8339815191528662000372565b620001556000805160206200377a8339815191528762000372565b620001817fced4eb9faeb19ab0e2e05a20ade58d82157e1035a3fbff4bc38dd5e609f22b938762000372565b620001ab6000805160206200375a8339815191526000805160206200379a833981519152620003b5565b620001d56000805160206200377a8339815191526000805160206200379a833981519152620003b5565b620002107fe2b7fb3b832174769106daebcfd6d1970523240dda11281102db9363b83b0dc46000805160206200379a833981519152620003b5565b6001600160a01b038a811660a0819052600d80546001600160a01b03199081168d8516179091558a83166080526003805482168b851617905560068054821687851617905560058054909116928716929092179091556009839055600a8290556040805163313ce56760e01b8152905163313ce567916004818101926020929091908290030181865afa158015620002ac573d6000803e3d6000fd5b505050506040513d601f19601f82011682018060405250810190620002d29190620005eb565b886001600160a01b031663313ce5676040518163ffffffff1660e01b8152600401602060405180830381865afa15801562000311573d6000803e3d6000fd5b505050506040513d601f19601f82011682018060405250810190620003379190620005eb565b6200034391906200062d565b6200035090600a62000746565b60c0818152505050505050505050505050505050505050505050505062000757565b6200038982826200040260201b62001e881760201c565b6000828152600260209081526040909120620003b091839062001ef36200048b821b17901c565b505050565b6000828152600160208190526040808320909101805490849055905190918391839186917fbd79b86ffe0ab8e8776151514217cd7cacd52c909f66475c3af44e129f0b00ff9190a4505050565b60008281526001602090815260408083206001600160a01b038516845290915290205460ff16620004875760008281526001602081815260408084206001600160a01b0386168086529252808420805460ff19169093179092559051339285917f2f8788117e7eff1d82e926ec794901d17c78024a50270940304540a733656f0d9190a45b5050565b6000620004a2836001600160a01b038416620004ab565b90505b92915050565b6000818152600183016020526040812054620004f457508154600181810184556000848152602080822090930184905584548482528286019093526040902091909155620004a5565b506000620004a5565b80516001600160a01b03811681146200051557600080fd5b919050565b60008060008060008060008060008060006101608c8e0312156200053d57600080fd5b620005488c620004fd565b9a506200055860208d01620004fd565b99506200056860408d01620004fd565b98506200057860608d01620004fd565b97506200058860808d01620004fd565b96506200059860a08d01620004fd565b9550620005a860c08d01620004fd565b9450620005b860e08d01620004fd565b93506101008c015192506101208c01519150620005d96101408d01620004fd565b90509295989b509295989b9093969950565b600060208284031215620005fe57600080fd5b815160ff811681146200061057600080fd5b9392505050565b634e487b7160e01b600052601160045260246000fd5b60ff8281168282160390811115620004a557620004a562000617565b600181815b808511156200068a5781600019048211156200066e576200066e62000617565b808516156200067c57918102915b93841c93908002906200064e565b509250929050565b600082620006a357506001620004a5565b81620006b257506000620004a5565b8160018114620006cb5760028114620006d657620006f6565b6001915050620004a5565b60ff841115620006ea57620006ea62000617565b50506001821b620004a5565b5060208310610133831016604e8410600b84101617156200071b575081810a620004a5565b62000727838362000649565b80600019048211156200073e576200073e62000617565b029392505050565b6000620004a260ff84168362000692565b60805160a05160c051612f9b620007bf600039600081816107150152818161235101526129510152600081816107c201528181610bbb01528181610c9a01528181611a490152611a810152600081816106ad01528181610b4d01526125fa0152612f9b6000f3fe608060405234801561001057600080fd5b50600436106103245760003560e01c806385c4e79e116101a9578063c1473072116100ef578063de6afa821161009d578063de6afa82146107e4578063e0f486ef146107f7578063e1a4521814610800578063e74b981b14610809578063eddd0d9c1461081c578063ee75d7d41461082f578063eeb3c91014610842578063f4a203071461085557600080fd5b8063c14730721461074c578063ca15c8731461075f578063cd4d0bcf14610772578063d0c835ce14610784578063d547741f14610797578063d592d815146107aa578063d8dfeb45146107bd57600080fd5b806392bccb801161015757806392bccb80146106a057806395e4b251146106a8578063a217fddf146106cf578063a6138ed9146106d7578063aa85c1df146106ea578063aab483d6146106fd578063bb13245f14610710578063bcc702831461073757600080fd5b806385c4e79e1461060357806387e2d06e146106185780638a07df1e1461062b5780638d044c061461064b5780639010d07c1461065357806391d1485414610666578063926d7d7f1461067957600080fd5b806336568abe1161026e5780634ef1ccd11161021c5780634ef1ccd114610538578063525decd61461054b5780635d591d681461055e578063609478cc146105bc5780637232291a146105cc57806373a95ddd146105db5780637dbc1df0146105e8578063837018fa146105fb57600080fd5b806336568abe1461045a57806338fed7081461046d57806339f6987a146104db5780633bfa67fe146104ee5780634565e9ff14610509578063458f58151461051c578063469048401461052557600080fd5b8063244f5acf116102d6578063244f5acf146103b9578063248a9ca3146103cc578063258492cd146103f057806329390370146104035780632b5eceff146104165780632c214c9d146104295780632f2ff15d1461043e578063354181f31461045157600080fd5b806301ffc9a714610329578063078a6be81461035157806307bda1bb14610374578063080c279a1461037d57806313966db5146103865780632056aa121461038f5780632186753114610399575b600080fd5b61033c6103373660046129af565b61087c565b60405190151581526020015b60405180910390f35b610366600080516020612f4683398151915281565b604051908152602001610348565b610366600e5481565b61036660095481565b610366600b5481565b6103976108a7565b005b600d546103ac906001600160a01b031681565b60405161034891906129d9565b6103976103c7366004612a39565b61090a565b6103666103da366004612a7b565b6000908152600160208190526040909120015490565b6103976103fe366004612ab0565b610cd3565b610397610411366004612aeb565b610e66565b610397610424366004612b06565b610ec5565b610366600080516020612f0683398151915281565b61039761044c366004612b4c565b610fc9565b610366600f5481565b610397610468366004612b4c565b610ff5565b6104af61047b366004612a7b565b60086020526000908152604090208054600182015460028301546003909301546001600160a01b0390921692909160ff1684565b604080516001600160a01b03909516855260208501939093529183015215156060820152608001610348565b6003546103ac906001600160a01b031681565b6103ac736223c2c68d1e786cd02a2ebbdf873e1f9d268d4581565b610397610517366004612a39565b611073565b610366600c5481565b6006546103ac906001600160a01b031681565b610397610546366004612a7b565b611101565b610397610559366004612aeb565b611184565b61059761056c366004612a7b565b6007602052600090815260409020805460018201546002909201546001600160a01b03909116919083565b604080516001600160a01b039094168452602084019290925290820152606001610348565b6103666805d9f7ea1bffaa000081565b610366670928ca80cfc2000081565b60105461033c9060ff1681565b6103976105f6366004612a7b565b6111f0565b610397611251565b610366600080516020612ee683398151915281565b610397610626366004612b78565b6112a5565b610366610639366004612a7b565b60116020526000908152604090205481565b610397611453565b6103ac610661366004612be4565b6114a6565b61033c610674366004612b4c565b6114c5565b6103667fe2b7fb3b832174769106daebcfd6d1970523240dda11281102db9363b83b0dc481565b6103976114f0565b6103ac7f000000000000000000000000000000000000000000000000000000000000000081565b610366600081565b6004546103ac906001600160a01b031681565b6103976106f8366004612b78565b611546565b61039761070b366004612a7b565b6116ae565b6103667f000000000000000000000000000000000000000000000000000000000000000081565b610366600080516020612f2683398151915281565b61039761075a366004612a39565b611728565b61036661076d366004612a7b565b611833565b60105461033c90610100900460ff1681565b610397610792366004612c06565b61184a565b6103976107a5366004612b4c565b61190f565b6103976107b8366004612a7b565b611936565b6103ac7f000000000000000000000000000000000000000000000000000000000000000081565b6103976107f2366004612ab0565b611b0e565b610366600a5481565b61036661271081565b610397610817366004612aeb565b611c4d565b61039761082a366004612a7b565b611cb8565b6005546103ac906001600160a01b031681565b610397610850366004612a7b565b611d19565b6103667fced4eb9faeb19ab0e2e05a20ade58d82157e1035a3fbff4bc38dd5e609f22b9381565b60006001600160e01b03198216635a05180f60e01b14806108a157506108a182611f08565b92915050565b600080516020612ee68339815191526108c08133611f3d565b6010805461ff0019166101001790556040517fcd71257f2998474633e94cfffa045014068f6218ffdca256b6f4aa9d5f15fb89906108ff9033906129d9565b60405180910390a150565b6002600054036109355760405162461bcd60e51b815260040161092c90612c52565b60405180910390fd5b600260005560105460ff16801561095f5760405163aadfaddd60e01b815260040160405180910390fd5b600082815b81811015610c7f5760006008600088888581811061098457610984612c89565b602090810292909201358352508181019290925260409081016000908120825160808101845281546001600160a01b0316815260018201549481019490945260028101549284018390526003015460ff161515606084015291925090036109fe57604051638718c77160e01b815260040160405180910390fd5b600480546040838101519051630e75722360e41b8152928301526000916001600160a01b039091169063e757223090602401602060405180830381865afa158015610a4d573d6000803e3d6000fd5b505050506040513d601f19601f82011682018060405250810190610a719190612c9f565b90506000610a83836020015183611fa1565b905060006805d9f7ea1bffaa0000610aa383670de0b6b3a7640000612cce565b610aad9190612ced565b90506000610aba83611ffe565b90506000610ac88285612d0f565b9050610ad4828a612d22565b9850600860008d8d8a818110610aec57610aec612c89565b602090810292909201358352508101919091526040908101600090812080546001600160a01b0319168155600181018290556002810191909155600301805460ff1916905551630852cd8d60e31b8152600481018490526001600160a01b037f000000000000000000000000000000000000000000000000000000000000000016906342966c6890602401600060405180830381600087803b158015610b9157600080fd5b505af1158015610ba5573d6000803e3d6000fd5b50506005548851610be893506001600160a01b037f000000000000000000000000000000000000000000000000000000000000000081169350909116908461201b565b8b8b88818110610bfa57610bfa612c89565b885160208a8101516040805191825281830188905281018b9052600080516020612f06833981519152606082015292029390930135926001600160a01b031691507fac51b283570e6824c01c2f8719bc758440e55b0eba375d5b6943fbe593b0072a9060800160405180910390a350505050505080610c7890612d35565b9050610964565b508115610cc757600554600654610cc7916001600160a01b037f000000000000000000000000000000000000000000000000000000000000000081169291811691168561201b565b50506001600055505050565b600080516020612f46833981519152610cec8133611f3d565b6000600860008781526020019081526020016000206040518060800160405290816000820160009054906101000a90046001600160a01b03166001600160a01b03166001600160a01b0316815260200160018201548152602001600282015481526020016003820160009054906101000a900460ff16151515158152505090506040518060800160405280866001600160a01b03168152602001858152602001848152602001600015158152506008600088815260200190815260200160002060008201518160000160006101000a8154816001600160a01b0302191690836001600160a01b03160217905550602082015181600101556040820151816002015560608201518160030160006101000a81548160ff021916908315150217905550905050857f5a0c55c421ae3aac2379811eca16aaee32b6e64411322b624118d4219b9350a082600001518784604001518786602001518a604051610e5696959493929190612d4e565b60405180910390a2505050505050565b600480546001600160a01b038381166001600160a01b03198316179092556040519116907f801352e72ef9b80b3992ccbedf07ab0e133e7da7aaccf0024abf23f4f32eb99a90610eb99083908590612d84565b60405180910390a15050565b7fe2b7fb3b832174769106daebcfd6d1970523240dda11281102db9363b83b0dc4610ef08133611f3d565b6000868152600760205260409020546001600160a01b031615610f2657604051631aeecebf60e21b815260040160405180910390fd5b60408051606080820183526001600160a01b0388811680845260208085018a815260008688018181528e82526007845290889020965187546001600160a01b031916951694909417865551600186015591516002909401939093558351888152908101879052928301859052909188917fc985471d1cb1bb75da0d54fa5ab10f7171e952cefcc0bf4fc7c2546c19d1811f910160405180910390a3505050505050565b60008281526001602081905260409091200154610fe68133611f3d565b610ff0838361207b565b505050565b6001600160a01b03811633146110655760405162461bcd60e51b815260206004820152602f60248201527f416363657373436f6e74726f6c3a2063616e206f6e6c792072656e6f756e636560448201526e103937b632b9903337b91039b2b63360891b606482015260840161092c565b61106f828261209d565b5050565b6002600054036110955760405162461bcd60e51b815260040161092c90612c52565b6002600055601054610100900460ff1680156110c45760405163aadfaddd60e01b815260040160405180910390fd5b8160005b81811015610cc7576110f18585838181106110e5576110e5612c89565b905060200201356120bf565b6110fa81612d35565b90506110c8565b600080516020612f4683398151915261111a8133611f3d565b61271082101561113d5760405163617ab12d60e11b815260040160405180910390fd5b600a80549083905560408051828152602081018590527ffdaf6ed728cef208e62328a008209556f8281f3062b14dd08aaaa90fa159421191015b60405180910390a1505050565b600080516020612f4683398151915261119d8133611f3d565b600580546001600160a01b038481166001600160a01b03198316179092556040519116907fb09f298b2812193d5ada18beaadd6cb8f12b3640926d99de46e2a65394df829d906111779083908690612d84565b61271081111561121357604051637e2df70960e11b815260040160405180910390fd5b600c80549082905560408051828152602081018490527f2956acfe8584fb02384e06c675ee215bf10d55c3de1e6ff9b2f621e8a40c64709101610eb9565b600080516020612f4683398151915261126a8133611f3d565b6010805461ff00191690556040517f94482ee2b195c365dbbc2d689fd5a088d2b219abe44360ba8895525c9471d66f906108ff9033906129d9565b600080516020612f268339815191526112be8133611f3d565b838281146112df5760405163cc6e40b360e01b815260040160405180910390fd5b60005b8181101561144a57600060078189898581811061130157611301612c89565b60209081029290920135835250810191909152604001600020546001600160a01b031603611342576040516305a8a45b60e41b815260040160405180910390fd5b6007600088888481811061135857611358612c89565b9050602002013581526020019081526020016000206002015460001461139157604051631139f30960e31b815260040160405180910390fd5b8484828181106113a3576113a3612c89565b90506020020135600760008989858181106113c0576113c0612c89565b905060200201358152602001908152602001600020600201819055508484828181106113ee576113ee612c89565b9050602002013587878381811061140757611407612c89565b905060200201357fc2055184bbc2d10b90bf7df17a84f8bdda6b52377a976e41e0c1610fffafc0d760405160405180910390a361144381612d35565b90506112e2565b50505050505050565b600080516020612f4683398151915261146c8133611f3d565b6010805460ff191690556040517fc641b9c4afa539cedcbe2e5f3e47d9f092175b5d0b8ae72dffa634a3eb3e47e4906108ff9033906129d9565b60008281526002602052604081206114be9083612136565b9392505050565b60009182526001602090815260408084206001600160a01b0393909316845291905290205460ff1690565b600080516020612ee68339815191526115098133611f3d565b6010805460ff191660011790556040517f71e0406677c0570b2a66b1a4feeccf5c1cba2d6729435461e27a312b15410d04906108ff9033906129d9565b600080516020612f2683398151915261155f8133611f3d565b838281146115805760405163cc6e40b360e01b815260040160405180910390fd5b60005b8181101561144a57600860008888848181106115a1576115a1612c89565b905060200201358152602001908152602001600020600201546000146115da57604051631139f30960e31b815260040160405180910390fd5b8484828181106115ec576115ec612c89565b905060200201356008600089898581811061160957611609612c89565b9050602002013581526020019081526020016000206002018190555084848281811061163757611637612c89565b9050602002013587878381811061165057611650612c89565b905060200201357f3760fe360839f267cd9fea570d3b743ea48ad870db3be0278762fce279461a91600080516020612f0683398151915260405161169691815260200190565b60405180910390a36116a781612d35565b9050611583565b600080516020612f468339815191526116c78133611f3d565b6127108210156116ea5760405163617ab12d60e11b815260040160405180910390fd5b600980549083905560408051828152602081018590527fe6e25add7363f8f8a40cbea9810d3115a33703b10972ef759104219b006574369101611177565b60026000540361174a5760405162461bcd60e51b815260040161092c90612c52565b600260005560105460ff1680156117745760405163aadfaddd60e01b815260040160405180910390fd5b8160005b81811015610cc75760006008600087878581811061179857611798612c89565b6020908102929092013583525081019190915260400160002060038101805460ff1916600117905590508585838181106117d4576117d4612c89565b905060200201357f2241c69695767e5ee32132030b1e93d4d195a9de6d3e7dbc9307928981eb0ab2600080516020612f0683398151915260405161181a91815260200190565b60405180910390a25061182c81612d35565b9050611778565b60008181526002602052604081206108a190612142565b7fced4eb9faeb19ab0e2e05a20ade58d82157e1035a3fbff4bc38dd5e609f22b936118758133611f3d565b8160005b8181101561190757856011600087878581811061189857611898612c89565b905060200201358152602001908152602001600020819055508484828181106118c3576118c3612c89565b90506020020135867f15d20a98e8d4b1247fc51e2f6817929874a0769087776e52268eb1b4c8bdb2dd60405160405180910390a361190081612d35565b9050611879565b505050505050565b6000828152600160208190526040909120015461192c8133611f3d565b610ff0838361209d565b6002600054036119585760405162461bcd60e51b815260040161092c90612c52565b6002600055601054610100900460ff1680156119875760405163aadfaddd60e01b815260040160405180910390fd5b6009548210156119aa57604051636ba4a1c760e01b815260040160405180910390fd5b60006119b58361214c565b905060006119c38285612d0f565b600e805491925060009190826119d883612d35565b909155506040805160608101825233815260208082018681526000838501818152868252600790935293909320915182546001600160a01b0319166001600160a01b0390911617825591516001820155905160029091015590508215611a7457600654611a74906001600160a01b037f00000000000000000000000000000000000000000000000000000000000000008116913391168661201b565b611abd6001600160a01b037f00000000000000000000000000000000000000000000000000000000000000001633736223c2c68d1e786cd02a2ebbdf873e1f9d268d458561201b565b6040805186815260208101849052908101849052819033907f7cbce37c7b11d322316420484f40c29ce672ad3fa16752551a3dbe6ccfa04e149060600160405180910390a350506001600055505050565b600080516020612f46833981519152611b278133611f3d565b6000600760008781526020019081526020016000206040518060600160405290816000820160009054906101000a90046001600160a01b03166001600160a01b03166001600160a01b031681526020016001820154815260200160028201548152505090506040518060600160405280866001600160a01b03168152602001858152602001848152506007600088815260200190815260200160002060008201518160000160006101000a8154816001600160a01b0302191690836001600160a01b031602179055506020820151816001015560408201518160020155905050857f7e506b1f11218d4c947d5a59a97fd996c42afc2b024b6aeaec050930eb2b339982600001518784604001518786602001518a604051610e5696959493929190612d4e565b600080516020612f46833981519152611c668133611f3d565b600680546001600160a01b038481166001600160a01b0319831681179093556040519116917f15d80a013f22151bc7246e3bc132e12828cde19de98870475e3fa7084015272191611177918491612d84565b612710811115611cdb57604051637e2df70960e11b815260040160405180910390fd5b600b80549082905560408051828152602081018490527f387269377ae17304805d5f88cea4252e5ca47346783c279aeb9e8627335a49ac9101610eb9565b600260005403611d3b5760405162461bcd60e51b815260040161092c90612c52565b600260005560105460ff168015611d655760405163aadfaddd60e01b815260040160405180910390fd5b600a54821015611d885760405163595bd39f60e11b815260040160405180910390fd5b600f805460009182611d9983612d35565b90915550604080516080810182523380825260208083018881526000848601818152606086018281528883526008909452959020935184546001600160a01b0319166001600160a01b039182161785559051600185015593516002840155516003928301805460ff19169115159190911790559054929350611e349290911690736223c2c68d1e786cd02a2ebbdf873e1f9d268d458661201b565b60408051848152600080516020612f068339815191526020820152829133917fcd0e262a00d41fb09ed44684e2d1e2fcd0c0fe41fb1f7ea097936f3f249a2f61910160405180910390a35050600160005550565b611e9282826114c5565b61106f5760008281526001602081815260408084206001600160a01b0386168086529252808420805460ff19169093179092559051339285917f2f8788117e7eff1d82e926ec794901d17c78024a50270940304540a733656f0d9190a45050565b60006114be836001600160a01b03841661215f565b60006001600160e01b03198216637965db0b60e01b14806108a157506301ffc9a760e01b6001600160e01b03198316146108a1565b611f4782826114c5565b61106f57611f5f816001600160a01b031660146121ae565b611f6a8360206121ae565b604051602001611f7b929190612dc2565b60408051601f198184030181529082905262461bcd60e51b825261092c91600401612e31565b600080670de0b6b3a7640000611fb78486612cce565b611fc19190612ced565b90506000670de0b6b3a7640000611fe0670928ca80cfc2000084612cce565b611fea9190612ced565b9050611ff58161234a565b95945050505050565b6000612710600c54836120119190612cce565b6108a19190612ced565b604080516001600160a01b0385811660248301528416604482015260648082018490528251808303909101815260849091019091526020810180516001600160e01b03166323b872dd60e01b179052612075908590612376565b50505050565b6120858282611e88565b6000828152600260205260409020610ff09082611ef3565b6120a78282612448565b6000828152600260205260409020610ff090826124af565b60008181526011602052604081205490036120ed57604051630ad2496160e31b815260040160405180910390fd5b60008181526011602052604090205442101561211c5760405163309b0bcf60e21b815260040160405180910390fd5b612125816124c4565b600090815260116020526040812055565b60006114be83836126bb565b60006108a1825490565b6000612710600b54836120119190612cce565b60008181526001830160205260408120546121a6575081546001818101845560008481526020808220909301849055845484825282860190935260409020919091556108a1565b5060006108a1565b606060006121bd836002612cce565b6121c8906002612d22565b67ffffffffffffffff8111156121e0576121e0612e64565b6040519080825280601f01601f19166020018201604052801561220a576020820181803683370190505b509050600360fc1b8160008151811061222557612225612c89565b60200101906001600160f81b031916908160001a905350600f60fb1b8160018151811061225457612254612c89565b60200101906001600160f81b031916908160001a9053506000612278846002612cce565b612283906001612d22565b90505b60018111156122fb576f181899199a1a9b1b9c1cb0b131b232b360811b85600f16601081106122b7576122b7612c89565b1a60f81b8282815181106122cd576122cd612c89565b60200101906001600160f81b031916908160001a90535060049490941c936122f481612e7a565b9050612286565b5083156114be5760405162461bcd60e51b815260206004820181905260248201527f537472696e67733a20686578206c656e67746820696e73756666696369656e74604482015260640161092c565b60006108a17f000000000000000000000000000000000000000000000000000000000000000083612ced565b60006123cb826040518060400160405280602081526020017f5361666545524332303a206c6f772d6c6576656c2063616c6c206661696c6564815250856001600160a01b03166126e59092919063ffffffff16565b805190915015610ff057808060200190518101906123e99190612e91565b610ff05760405162461bcd60e51b815260206004820152602a60248201527f5361666545524332303a204552433230206f7065726174696f6e20646964206e6044820152691bdd081cdd58d8d9595960b21b606482015260840161092c565b61245282826114c5565b1561106f5760008281526001602090815260408083206001600160a01b0385168085529252808320805460ff1916905551339285917ff6391f5c32d9c69d2a47ea670b442974b53935d1edc7fd64eb21e047a839171b9190a45050565b60006114be836001600160a01b0384166126fc565b6000818152600760209081526040808320815160608101835281546001600160a01b031681526001820154938101939093526002015490820181905290910361252057604051638718c77160e01b815260040160405180910390fd5b600480546040838101519051630e75722360e41b8152928301526000916001600160a01b039091169063e757223090602401602060405180830381865afa15801561256f573d6000803e3d6000fd5b505050506040513d601f19601f820116820180604052508101906125939190612c9f565b905060006125a58360200151836127ef565b60008581526007602052604080822080546001600160a01b03191681556001810183905560020191909155845190516340c10f1960e01b81526001600160a01b039182166004820152602481018390529192507f000000000000000000000000000000000000000000000000000000000000000016906340c10f1990604401600060405180830381600087803b15801561263e57600080fd5b505af1158015612652573d6000803e3d6000fd5b50508451602080870151604080890151815188815293840192909252820187905260608201528793506001600160a01b0390911691507fdd602cc9cb236502fb74f091872b4025184011dd96eee41099caa260842f20249060800160405180910390a350505050565b60008260000182815481106126d2576126d2612c89565b9060005260206000200154905092915050565b60606126f48484600085612819565b949350505050565b600081815260018301602052604081205480156127e5576000612720600183612d0f565b855490915060009061273490600190612d0f565b905081811461279957600086600001828154811061275457612754612c89565b906000526020600020015490508087600001848154811061277757612777612c89565b6000918252602080832090910192909255918252600188019052604090208390555b85548690806127aa576127aa612eb3565b6001900381819060005260206000200160009055905585600101600086815260200190815260200160002060009055600193505050506108a1565b60009150506108a1565b6000806127fb8461294a565b61280d90670de0b6b3a7640000612cce565b90506126f48382612ced565b60608247101561287a5760405162461bcd60e51b815260206004820152602660248201527f416464726573733a20696e73756666696369656e742062616c616e636520666f6044820152651c8818d85b1b60d21b606482015260840161092c565b6001600160a01b0385163b6128d15760405162461bcd60e51b815260206004820152601d60248201527f416464726573733a2063616c6c20746f206e6f6e2d636f6e7472616374000000604482015260640161092c565b600080866001600160a01b031685876040516128ed9190612ec9565b60006040518083038185875af1925050503d806000811461292a576040519150601f19603f3d011682016040523d82523d6000602084013e61292f565b606091505b509150915061293f828286612976565b979650505050505050565b60006108a17f000000000000000000000000000000000000000000000000000000000000000083612cce565b606083156129855750816114be565b8251156129955782518084602001fd5b8160405162461bcd60e51b815260040161092c9190612e31565b6000602082840312156129c157600080fd5b81356001600160e01b0319811681146114be57600080fd5b6001600160a01b0391909116815260200190565b60008083601f8401126129ff57600080fd5b50813567ffffffffffffffff811115612a1757600080fd5b6020830191508360208260051b8501011115612a3257600080fd5b9250929050565b60008060208385031215612a4c57600080fd5b823567ffffffffffffffff811115612a6357600080fd5b612a6f858286016129ed565b90969095509350505050565b600060208284031215612a8d57600080fd5b5035919050565b80356001600160a01b0381168114612aab57600080fd5b919050565b60008060008060808587031215612ac657600080fd5b84359350612ad660208601612a94565b93969395505050506040820135916060013590565b600060208284031215612afd57600080fd5b6114be82612a94565b600080600080600060a08688031215612b1e57600080fd5b85359450612b2e60208701612a94565b94979496505050506040830135926060810135926080909101359150565b60008060408385031215612b5f57600080fd5b82359150612b6f60208401612a94565b90509250929050565b60008060008060408587031215612b8e57600080fd5b843567ffffffffffffffff80821115612ba657600080fd5b612bb2888389016129ed565b90965094506020870135915080821115612bcb57600080fd5b50612bd8878288016129ed565b95989497509550505050565b60008060408385031215612bf757600080fd5b50508035926020909101359150565b600080600060408486031215612c1b57600080fd5b83359250602084013567ffffffffffffffff811115612c3957600080fd5b612c45868287016129ed565b9497909650939450505050565b6020808252601f908201527f5265656e7472616e637947756172643a207265656e7472616e742063616c6c00604082015260600190565b634e487b7160e01b600052603260045260246000fd5b600060208284031215612cb157600080fd5b5051919050565b634e487b7160e01b600052601160045260246000fd5b6000816000190483118215151615612ce857612ce8612cb8565b500290565b600082612d0a57634e487b7160e01b600052601260045260246000fd5b500490565b818103818111156108a1576108a1612cb8565b808201808211156108a1576108a1612cb8565b600060018201612d4757612d47612cb8565b5060010190565b6001600160a01b03968716815294909516602085015260408401929092526060830152608082015260a081019190915260c00190565b6001600160a01b0392831681529116602082015260400190565b60005b83811015612db9578181015183820152602001612da1565b50506000910152565b76020b1b1b2b9b9a1b7b73a3937b61d1030b1b1b7bab73a1604d1b815260008351612df4816017850160208801612d9e565b7001034b99036b4b9b9b4b733903937b6329607d1b6017918401918201528351612e25816028840160208801612d9e565b01602801949350505050565b6020815260008251806020840152612e50816040850160208701612d9e565b601f01601f19169190910160400192915050565b634e487b7160e01b600052604160045260246000fd5b600081612e8957612e89612cb8565b506000190190565b600060208284031215612ea357600080fd5b815180151581146114be57600080fd5b634e487b7160e01b600052603160045260246000fd5b60008251612edb818460208701612d9e565b919091019291505056fe9ac2c43e905fe4f0c030a0b0e4b805a284e79da32a5c9c71be1c68dd79bbb89dd6aca1be9729c13d677335161321649cccae6a591554772516700f986f942eaa830a9081649e91840eb0274e99b47626a896cfa0f4dd591cb31cd5060e566c0d8c6dd8af24db306eb580672d47cf7dd23b8394bf74074f8ac14b948512ecdb03a2646970667358221220af010696bd77095f4e7149c1582e24f9e6aa5d41f8e7403d0871056cccef490b64736f6c634300081000339ac2c43e905fe4f0c030a0b0e4b805a284e79da32a5c9c71be1c68dd79bbb89d830a9081649e91840eb0274e99b47626a896cfa0f4dd591cb31cd5060e566c0d8c6dd8af24db306eb580672d47cf7dd23b8394bf74074f8ac14b948512ecdb03",
  "linkReferences": {},
  "deployedLinkReferences": {}
}