{
  "_format": "hh-sol-artifact-1",
  "contractName": "ABBYManager",
  "sourceName": "contracts/abby/ABBYManager.sol",
  "abi": [
    {
      "inputs": [
        {
          "internalType": "address",
          "name": "_collateral",
          "type": "address"
        },
        {
          "internalType": "address",
          "name": "_rwa",
          "type": "address"
        },
        {
          "internalType": "address",
          "name": "managerAdmin",
          "type": "address"
        },
        {
          "internalType": "address",
          "name": "pauser",
          "type": "address"
        },
        {
          "internalType": "address",
          "name": "_assetSender",
          "type": "address"
        },
        {
          "internalType": "address",
          "name": "_feeRecipient",
          "type": "address"
        },
        {
          "internalType": "uint256",
          "name": "_minimumDepositAmount",
          "type": "uint256"
        },
        {
          "internalType": "uint256",
          "name": "_minimumRedemptionAmount",
          "type": "uint256"
        },
        {
          "internalType": "address",
          "name": "blocklist",
          "type": "address"
        }
      ],
      "stateMutability": "nonpayable",
      "type": "constructor"
    },
    {
      "inputs": [],
      "name": "AmountTooSmall",
      "type": "error"
    },
    {
      "inputs": [],
      "name": "ArraySizeMismatch",
      "type": "error"
    },
    {
      "inputs": [],
      "name": "AssetSenderCannotBeZero",
      "type": "error"
    },
    {
      "inputs": [],
      "name": "ClaimableTimestampInPast",
      "type": "error"
    },
    {
      "inputs": [],
      "name": "ClaimableTimestampNotSet",
      "type": "error"
    },
    {
      "inputs": [],
      "name": "CollateralCannotBeZero",
      "type": "error"
    },
    {
      "inputs": [],
      "name": "DepositProofAlreadyExists",
      "type": "error"
    },
    {
      "inputs": [],
      "name": "DepositTooSmall",
      "type": "error"
    },
    {
      "inputs": [],
      "name": "DepositorNull",
      "type": "error"
    },
    {
      "inputs": [],
      "name": "FeaturePaused",
      "type": "error"
    },
    {
      "inputs": [],
      "name": "FeeRecipientCannotBeZero",
      "type": "error"
    },
    {
      "inputs": [],
      "name": "FeeTooLarge",
      "type": "error"
    },
    {
      "inputs": [],
      "name": "MintNotYetClaimable",
      "type": "error"
    },
    {
      "inputs": [],
      "name": "PriceIdAlreadySet",
      "type": "error"
    },
    {
      "inputs": [],
      "name": "PriceIdNotSet",
      "type": "error"
    },
    {
      "inputs": [],
      "name": "RWACannotBeZero",
      "type": "error"
    },
    {
      "inputs": [],
      "name": "RedeemerNull",
      "type": "error"
    },
    {
      "inputs": [],
      "name": "RedemptionTooSmall",
      "type": "error"
    },
    {
      "inputs": [],
      "name": "TxnAlreadyValidated",
      "type": "error"
    },
    {
      "anonymous": false,
      "inputs": [
        {
          "indexed": false,
          "internalType": "address",
          "name": "oldAssetSender",
          "type": "address"
        },
        {
          "indexed": false,
          "internalType": "address",
          "name": "newAssetSender",
          "type": "address"
        }
      ],
      "name": "AssetSenderSet",
      "type": "event"
    },
    {
      "anonymous": false,
      "inputs": [
        {
          "indexed": true,
          "internalType": "uint256",
          "name": "claimTimestamp",
          "type": "uint256"
        },
        {
          "indexed": true,
          "internalType": "bytes32",
          "name": "depositId",
          "type": "bytes32"
        }
      ],
      "name": "ClaimableTimestampSet",
      "type": "event"
    },
    {
      "anonymous": false,
      "inputs": [
        {
          "indexed": true,
          "internalType": "bytes32",
          "name": "txHash",
          "type": "bytes32"
        },
        {
          "indexed": true,
          "internalType": "address",
          "name": "user",
          "type": "address"
        },
        {
          "indexed": false,
          "internalType": "uint256",
          "name": "depositAmountAfterFee",
          "type": "uint256"
        },
        {
          "indexed": false,
          "internalType": "uint256",
          "name": "feeAmount",
          "type": "uint256"
        },
        {
          "indexed": false,
          "internalType": "uint256",
          "name": "timestamp",
          "type": "uint256"
        }
      ],
      "name": "DepositProofAdded",
      "type": "event"
    },
    {
      "anonymous": false,
      "inputs": [
        {
          "indexed": true,
          "internalType": "bytes32",
          "name": "depositId",
          "type": "bytes32"
        },
        {
          "indexed": false,
          "internalType": "address",
          "name": "oldDepositor",
          "type": "address"
        },
        {
          "indexed": false,
          "internalType": "address",
          "name": "newDepositor",
          "type": "address"
        },
        {
          "indexed": false,
          "internalType": "uint256",
          "name": "oldPriceId",
          "type": "uint256"
        },
        {
          "indexed": false,
          "internalType": "uint256",
          "name": "newPriceId",
          "type": "uint256"
        },
        {
          "indexed": false,
          "internalType": "uint256",
          "name": "oldDepositAmount",
          "type": "uint256"
        },
        {
          "indexed": false,
          "internalType": "uint256",
          "name": "newDepositAmount",
          "type": "uint256"
        }
      ],
      "name": "DepositorOverwritten",
      "type": "event"
    },
    {
      "anonymous": false,
      "inputs": [
        {
          "indexed": false,
          "internalType": "address",
          "name": "oldFeeRecipient",
          "type": "address"
        },
        {
          "indexed": false,
          "internalType": "address",
          "name": "newFeeRecipient",
          "type": "address"
        }
      ],
      "name": "FeeRecipientSet",
      "type": "event"
    },
    {
      "anonymous": false,
      "inputs": [
        {
          "indexed": false,
          "internalType": "uint256",
          "name": "oldMinimum",
          "type": "uint256"
        },
        {
          "indexed": false,
          "internalType": "uint256",
          "name": "newMinimum",
          "type": "uint256"
        }
      ],
      "name": "MinimumDepositAmountSet",
      "type": "event"
    },
    {
      "anonymous": false,
      "inputs": [
        {
          "indexed": false,
          "internalType": "uint256",
          "name": "oldRedemptionMin",
          "type": "uint256"
        },
        {
          "indexed": false,
          "internalType": "uint256",
          "name": "newRedemptionMin",
          "type": "uint256"
        }
      ],
      "name": "MinimumRedemptionAmountSet",
      "type": "event"
    },
    {
      "anonymous": false,
      "inputs": [
        {
          "indexed": true,
          "internalType": "address",
          "name": "user",
          "type": "address"
        },
        {
          "indexed": true,
          "internalType": "bytes32",
          "name": "depositId",
          "type": "bytes32"
        },
        {
          "indexed": false,
          "internalType": "uint256",
          "name": "rwaAmountOut",
          "type": "uint256"
        },
        {
          "indexed": false,
          "internalType": "uint256",
          "name": "collateralAmountDeposited",
          "type": "uint256"
        },
        {
          "indexed": false,
          "internalType": "uint256",
          "name": "price",
          "type": "uint256"
        },
        {
          "indexed": false,
          "internalType": "uint256",
          "name": "priceId",
          "type": "uint256"
        }
      ],
      "name": "MintCompleted",
      "type": "event"
    },
    {
      "anonymous": false,
      "inputs": [
        {
          "indexed": false,
          "internalType": "uint256",
          "name": "oldFee",
          "type": "uint256"
        },
        {
          "indexed": false,
          "internalType": "uint256",
          "name": "newFee",
          "type": "uint256"
        }
      ],
      "name": "MintFeeSet",
      "type": "event"
    },
    {
      "anonymous": false,
      "inputs": [
        {
          "indexed": true,
          "internalType": "address",
          "name": "user",
          "type": "address"
        },
        {
          "indexed": true,
          "internalType": "bytes32",
          "name": "depositId",
          "type": "bytes32"
        },
        {
          "indexed": false,
          "internalType": "uint256",
          "name": "collateralAmountDeposited",
          "type": "uint256"
        },
        {
          "indexed": false,
          "internalType": "uint256",
          "name": "depositAmountAfterFee",
          "type": "uint256"
        },
        {
          "indexed": false,
          "internalType": "uint256",
          "name": "feeAmount",
          "type": "uint256"
        }
      ],
      "name": "MintRequested",
      "type": "event"
    },
    {
      "anonymous": false,
      "inputs": [
        {
          "indexed": false,
          "internalType": "address",
          "name": "oldPricer",
          "type": "address"
        },
        {
          "indexed": false,
          "internalType": "address",
          "name": "newPricer",
          "type": "address"
        }
      ],
      "name": "NewPricerSet",
      "type": "event"
    },
    {
      "anonymous": false,
      "inputs": [
        {
          "indexed": false,
          "internalType": "uint256",
          "name": "oldMinimum",
          "type": "uint256"
        },
        {
          "indexed": false,
          "internalType": "uint256",
          "name": "newMinimum",
          "type": "uint256"
        }
      ],
      "name": "OffChainRedemptionMinimumSet",
      "type": "event"
    },
    {
      "anonymous": false,
      "inputs": [
        {
          "indexed": false,
          "internalType": "address",
          "name": "caller",
          "type": "address"
        }
      ],
      "name": "OffChainRedemptionPaused",
      "type": "event"
    },
    {
      "anonymous": false,
      "inputs": [
        {
          "indexed": false,
          "internalType": "address",
          "name": "caller",
          "type": "address"
        }
      ],
      "name": "OffChainRedemptionUnpaused",
      "type": "event"
    },
    {
      "anonymous": false,
      "inputs": [
        {
          "indexed": true,
          "internalType": "bytes32",
          "name": "depositIdSet",
          "type": "bytes32"
        },
        {
          "indexed": true,
          "internalType": "uint256",
          "name": "priceIdSet",
          "type": "uint256"
        }
      ],
      "name": "PriceIdSetForDeposit",
      "type": "event"
    },
    {
      "anonymous": false,
      "inputs": [
        {
          "indexed": true,
          "internalType": "bytes32",
          "name": "redemptionIdSet",
          "type": "bytes32"
        },
        {
          "indexed": true,
          "internalType": "uint256",
          "name": "priceIdSet",
          "type": "uint256"
        }
      ],
      "name": "PriceIdSetForRedemption",
      "type": "event"
    },
    {
      "anonymous": false,
      "inputs": [
        {
          "indexed": true,
          "internalType": "bytes32",
          "name": "redemptionId",
          "type": "bytes32"
        },
        {
          "indexed": false,
          "internalType": "address",
          "name": "oldRedeemer",
          "type": "address"
        },
        {
          "indexed": false,
          "internalType": "address",
          "name": "newRedeemer",
          "type": "address"
        },
        {
          "indexed": false,
          "internalType": "uint256",
          "name": "oldPriceId",
          "type": "uint256"
        },
        {
          "indexed": false,
          "internalType": "uint256",
          "name": "newPriceId",
          "type": "uint256"
        },
        {
          "indexed": false,
          "internalType": "uint256",
          "name": "oldRWATokenAmountBurned",
          "type": "uint256"
        },
        {
          "indexed": false,
          "internalType": "uint256",
          "name": "newRWATokenAmountBurned",
          "type": "uint256"
        }
      ],
      "name": "RedeemerOverwritten",
      "type": "event"
    },
    {
      "anonymous": false,
      "inputs": [
        {
          "indexed": true,
          "internalType": "bytes32",
          "name": "redemptionId",
          "type": "bytes32"
        }
      ],
      "name": "RedemptionApproved",
      "type": "event"
    },
    {
      "anonymous": false,
      "inputs": [
        {
          "indexed": true,
          "internalType": "address",
          "name": "user",
          "type": "address"
        },
        {
          "indexed": true,
          "internalType": "bytes32",
          "name": "redemptionId",
          "type": "bytes32"
        },
        {
          "indexed": false,
          "internalType": "uint256",
          "name": "rwaAmountRequested",
          "type": "uint256"
        },
        {
          "indexed": false,
          "internalType": "uint256",
          "name": "collateralAmountReturned",
          "type": "uint256"
        },
        {
          "indexed": false,
          "internalType": "uint256",
          "name": "price",
          "type": "uint256"
        }
      ],
      "name": "RedemptionCompleted",
      "type": "event"
    },
    {
      "anonymous": false,
      "inputs": [
        {
          "indexed": false,
          "internalType": "uint256",
          "name": "oldFee",
          "type": "uint256"
        },
        {
          "indexed": false,
          "internalType": "uint256",
          "name": "newFee",
          "type": "uint256"
        }
      ],
      "name": "RedemptionFeeSet",
      "type": "event"
    },
    {
      "anonymous": false,
      "inputs": [
        {
          "indexed": false,
          "internalType": "address",
          "name": "caller",
          "type": "address"
        }
      ],
      "name": "RedemptionPaused",
      "type": "event"
    },
    {
      "anonymous": false,
      "inputs": [
        {
          "indexed": true,
          "internalType": "address",
          "name": "user",
          "type": "address"
        },
        {
          "indexed": true,
          "internalType": "bytes32",
          "name": "redemptionId",
          "type": "bytes32"
        },
        {
          "indexed": false,
          "internalType": "uint256",
          "name": "rwaAmountIn",
          "type": "uint256"
        }
      ],
      "name": "RedemptionRequested",
      "type": "event"
    },
    {
      "anonymous": false,
      "inputs": [
        {
          "indexed": true,
          "internalType": "address",
          "name": "user",
          "type": "address"
        },
        {
          "indexed": true,
          "internalType": "bytes32",
          "name": "redemptionId",
          "type": "bytes32"
        },
        {
          "indexed": false,
          "internalType": "uint256",
          "name": "rwaTokenAmountIn",
          "type": "uint256"
        },
        {
          "indexed": false,
          "internalType": "bytes32",
          "name": "offChainDestination",
          "type": "bytes32"
        }
      ],
      "name": "RedemptionRequestedServicedOffChain",
      "type": "event"
    },
    {
      "anonymous": false,
      "inputs": [
        {
          "indexed": false,
          "internalType": "address",
          "name": "caller",
          "type": "address"
        }
      ],
      "name": "RedemptionUnpaused",
      "type": "event"
    },
    {
      "anonymous": false,
      "inputs": [
        {
          "indexed": true,
          "internalType": "bytes32",
          "name": "role",
          "type": "bytes32"
        },
        {
          "indexed": true,
          "internalType": "bytes32",
          "name": "previousAdminRole",
          "type": "bytes32"
        },
        {
          "indexed": true,
          "internalType": "bytes32",
          "name": "newAdminRole",
          "type": "bytes32"
        }
      ],
      "name": "RoleAdminChanged",
      "type": "event"
    },
    {
      "anonymous": false,
      "inputs": [
        {
          "indexed": true,
          "internalType": "bytes32",
          "name": "role",
          "type": "bytes32"
        },
        {
          "indexed": true,
          "internalType": "address",
          "name": "account",
          "type": "address"
        },
        {
          "indexed": true,
          "internalType": "address",
          "name": "sender",
          "type": "address"
        }
      ],
      "name": "RoleGranted",
      "type": "event"
    },
    {
      "anonymous": false,
      "inputs": [
        {
          "indexed": true,
          "internalType": "bytes32",
          "name": "role",
          "type": "bytes32"
        },
        {
          "indexed": true,
          "internalType": "address",
          "name": "account",
          "type": "address"
        },
        {
          "indexed": true,
          "internalType": "address",
          "name": "sender",
          "type": "address"
        }
      ],
      "name": "RoleRevoked",
      "type": "event"
    },
    {
      "anonymous": false,
      "inputs": [
        {
          "indexed": false,
          "internalType": "address",
          "name": "caller",
          "type": "address"
        }
      ],
      "name": "SubscriptionPaused",
      "type": "event"
    },
    {
      "anonymous": false,
      "inputs": [
        {
          "indexed": false,
          "internalType": "address",
          "name": "caller",
          "type": "address"
        }
      ],
      "name": "SubscriptionUnpaused",
      "type": "event"
    },
    {
      "inputs": [],
      "name": "BPS_DENOMINATOR",
      "outputs": [
        {
          "internalType": "uint256",
          "name": "",
          "type": "uint256"
        }
      ],
      "stateMutability": "view",
      "type": "function"
    },
    {
      "inputs": [],
      "name": "DEFAULT_ADMIN_ROLE",
      "outputs": [
        {
          "internalType": "bytes32",
          "name": "",
          "type": "bytes32"
        }
      ],
      "stateMutability": "view",
      "type": "function"
    },
    {
      "inputs": [],
      "name": "MANAGER_ADMIN",
      "outputs": [
        {
          "internalType": "bytes32",
          "name": "",
          "type": "bytes32"
        }
      ],
      "stateMutability": "view",
      "type": "function"
    },
    {
      "inputs": [],
      "name": "PAUSER_ADMIN",
      "outputs": [
        {
          "internalType": "bytes32",
          "name": "",
          "type": "bytes32"
        }
      ],
      "stateMutability": "view",
      "type": "function"
    },
    {
      "inputs": [],
      "name": "PRICE_ID_SETTER_ROLE",
      "outputs": [
        {
          "internalType": "bytes32",
          "name": "",
          "type": "bytes32"
        }
      ],
      "stateMutability": "view",
      "type": "function"
    },
    {
      "inputs": [],
      "name": "RELAYER_ROLE",
      "outputs": [
        {
          "internalType": "bytes32",
          "name": "",
          "type": "bytes32"
        }
      ],
      "stateMutability": "view",
      "type": "function"
    },
    {
      "inputs": [],
      "name": "TIMESTAMP_SETTER_ROLE",
      "outputs": [
        {
          "internalType": "bytes32",
          "name": "",
          "type": "bytes32"
        }
      ],
      "stateMutability": "view",
      "type": "function"
    },
    {
      "inputs": [
        {
          "internalType": "bytes32",
          "name": "txHash",
          "type": "bytes32"
        },
        {
          "internalType": "address",
          "name": "user",
          "type": "address"
        },
        {
          "internalType": "uint256",
          "name": "depositAmountAfterFee",
          "type": "uint256"
        },
        {
          "internalType": "uint256",
          "name": "feeAmount",
          "type": "uint256"
        },
        {
          "internalType": "uint256",
          "name": "timestamp",
          "type": "uint256"
        }
      ],
      "name": "addProof",
      "outputs": [],
      "stateMutability": "nonpayable",
      "type": "function"
    },
    {
      "inputs": [
        {
          "internalType": "bytes32[]",
          "name": "redemptionIds",
          "type": "bytes32[]"
        }
      ],
      "name": "approveRedemptionRequest",
      "outputs": [],
      "stateMutability": "nonpayable",
      "type": "function"
    },
    {
      "inputs": [],
      "name": "assetRecipient",
      "outputs": [
        {
          "internalType": "address",
          "name": "",
          "type": "address"
        }
      ],
      "stateMutability": "view",
      "type": "function"
    },
    {
      "inputs": [],
      "name": "assetSender",
      "outputs": [
        {
          "internalType": "address",
          "name": "",
          "type": "address"
        }
      ],
      "stateMutability": "view",
      "type": "function"
    },
    {
      "inputs": [
        {
          "internalType": "bytes32[]",
          "name": "depositIds",
          "type": "bytes32[]"
        }
      ],
      "name": "claimMint",
      "outputs": [],
      "stateMutability": "nonpayable",
      "type": "function"
    },
    {
      "inputs": [
        {
          "internalType": "bytes32[]",
          "name": "redemptionIds",
          "type": "bytes32[]"
        }
      ],
      "name": "claimRedemption",
      "outputs": [],
      "stateMutability": "nonpayable",
      "type": "function"
    },
    {
      "inputs": [],
      "name": "collateral",
      "outputs": [
        {
          "internalType": "contract IERC20",
          "name": "",
          "type": "address"
        }
      ],
      "stateMutability": "view",
      "type": "function"
    },
    {
      "inputs": [],
      "name": "decimalsMultiplier",
      "outputs": [
        {
          "internalType": "uint256",
          "name": "",
          "type": "uint256"
        }
      ],
      "stateMutability": "view",
      "type": "function"
    },
    {
      "inputs": [
        {
          "internalType": "bytes32",
          "name": "",
          "type": "bytes32"
        }
      ],
      "name": "depositIdToClaimableTimestamp",
      "outputs": [
        {
          "internalType": "uint256",
          "name": "",
          "type": "uint256"
        }
      ],
      "stateMutability": "view",
      "type": "function"
    },
    {
      "inputs": [
        {
          "internalType": "bytes32",
          "name": "",
          "type": "bytes32"
        }
      ],
      "name": "depositIdToDepositor",
      "outputs": [
        {
          "internalType": "address",
          "name": "user",
          "type": "address"
        },
        {
          "internalType": "uint256",
          "name": "amountDepositedMinusFees",
          "type": "uint256"
        },
        {
          "internalType": "uint256",
          "name": "priceId",
          "type": "uint256"
        }
      ],
      "stateMutability": "view",
      "type": "function"
    },
    {
      "inputs": [],
      "name": "feeRecipient",
      "outputs": [
        {
          "internalType": "address",
          "name": "",
          "type": "address"
        }
      ],
      "stateMutability": "view",
      "type": "function"
    },
    {
      "inputs": [
        {
          "internalType": "bytes32",
          "name": "role",
          "type": "bytes32"
        }
      ],
      "name": "getRoleAdmin",
      "outputs": [
        {
          "internalType": "bytes32",
          "name": "",
          "type": "bytes32"
        }
      ],
      "stateMutability": "view",
      "type": "function"
    },
    {
      "inputs": [
        {
          "internalType": "bytes32",
          "name": "role",
          "type": "bytes32"
        },
        {
          "internalType": "uint256",
          "name": "index",
          "type": "uint256"
        }
      ],
      "name": "getRoleMember",
      "outputs": [
        {
          "internalType": "address",
          "name": "",
          "type": "address"
        }
      ],
      "stateMutability": "view",
      "type": "function"
    },
    {
      "inputs": [
        {
          "internalType": "bytes32",
          "name": "role",
          "type": "bytes32"
        }
      ],
      "name": "getRoleMemberCount",
      "outputs": [
        {
          "internalType": "uint256",
          "name": "",
          "type": "uint256"
        }
      ],
      "stateMutability": "view",
      "type": "function"
    },
    {
      "inputs": [
        {
          "internalType": "bytes32",
          "name": "role",
          "type": "bytes32"
        },
        {
          "internalType": "address",
          "name": "account",
          "type": "address"
        }
      ],
      "name": "grantRole",
      "outputs": [],
      "stateMutability": "nonpayable",
      "type": "function"
    },
    {
      "inputs": [
        {
          "internalType": "bytes32",
          "name": "role",
          "type": "bytes32"
        },
        {
          "internalType": "address",
          "name": "account",
          "type": "address"
        }
      ],
      "name": "hasRole",
      "outputs": [
        {
          "internalType": "bool",
          "name": "",
          "type": "bool"
        }
      ],
      "stateMutability": "view",
      "type": "function"
    },
    {
      "inputs": [],
      "name": "minimumDepositAmount",
      "outputs": [
        {
          "internalType": "uint256",
          "name": "",
          "type": "uint256"
        }
      ],
      "stateMutability": "view",
      "type": "function"
    },
    {
      "inputs": [],
      "name": "minimumOffChainRedemptionAmount",
      "outputs": [
        {
          "internalType": "uint256",
          "name": "",
          "type": "uint256"
        }
      ],
      "stateMutability": "view",
      "type": "function"
    },
    {
      "inputs": [],
      "name": "minimumRedemptionAmount",
      "outputs": [
        {
          "internalType": "uint256",
          "name": "",
          "type": "uint256"
        }
      ],
      "stateMutability": "view",
      "type": "function"
    },
    {
      "inputs": [],
      "name": "mintFee",
      "outputs": [
        {
          "internalType": "uint256",
          "name": "",
          "type": "uint256"
        }
      ],
      "stateMutability": "view",
      "type": "function"
    },
    {
      "inputs": [],
      "name": "offChainRedemptionPaused",
      "outputs": [
        {
          "internalType": "bool",
          "name": "",
          "type": "bool"
        }
      ],
      "stateMutability": "view",
      "type": "function"
    },
    {
      "inputs": [
        {
          "internalType": "bytes32",
          "name": "depositIdToOverwrite",
          "type": "bytes32"
        },
        {
          "internalType": "address",
          "name": "user",
          "type": "address"
        },
        {
          "internalType": "uint256",
          "name": "depositAmountAfterFee",
          "type": "uint256"
        },
        {
          "internalType": "uint256",
          "name": "priceId",
          "type": "uint256"
        }
      ],
      "name": "overwriteDepositor",
      "outputs": [],
      "stateMutability": "nonpayable",
      "type": "function"
    },
    {
      "inputs": [
        {
          "internalType": "bytes32",
          "name": "redemptionIdToOverwrite",
          "type": "bytes32"
        },
        {
          "internalType": "address",
          "name": "user",
          "type": "address"
        },
        {
          "internalType": "uint256",
          "name": "rwaTokenAmountBurned",
          "type": "uint256"
        },
        {
          "internalType": "uint256",
          "name": "priceId",
          "type": "uint256"
        }
      ],
      "name": "overwriteRedeemer",
      "outputs": [],
      "stateMutability": "nonpayable",
      "type": "function"
    },
    {
      "inputs": [],
      "name": "pauseOffChainRedemption",
      "outputs": [],
      "stateMutability": "nonpayable",
      "type": "function"
    },
    {
      "inputs": [],
      "name": "pauseRedemption",
      "outputs": [],
      "stateMutability": "nonpayable",
      "type": "function"
    },
    {
      "inputs": [],
      "name": "pauseSubscription",
      "outputs": [],
      "stateMutability": "nonpayable",
      "type": "function"
    },
    {
      "inputs": [],
      "name": "pricer",
      "outputs": [
        {
          "internalType": "contract IPricerReader",
          "name": "",
          "type": "address"
        }
      ],
      "stateMutability": "view",
      "type": "function"
    },
    {
      "inputs": [],
      "name": "redemptionFee",
      "outputs": [
        {
          "internalType": "uint256",
          "name": "",
          "type": "uint256"
        }
      ],
      "stateMutability": "view",
      "type": "function"
    },
    {
      "inputs": [
        {
          "internalType": "bytes32",
          "name": "",
          "type": "bytes32"
        }
      ],
      "name": "redemptionIdToRedeemer",
      "outputs": [
        {
          "internalType": "address",
          "name": "user",
          "type": "address"
        },
        {
          "internalType": "uint256",
          "name": "amountRwaTokenBurned",
          "type": "uint256"
        },
        {
          "internalType": "uint256",
          "name": "priceId",
          "type": "uint256"
        },
        {
          "internalType": "bool",
          "name": "approved",
          "type": "bool"
        }
      ],
      "stateMutability": "view",
      "type": "function"
    },
    {
      "inputs": [],
      "name": "redemptionPaused",
      "outputs": [
        {
          "internalType": "bool",
          "name": "",
          "type": "bool"
        }
      ],
      "stateMutability": "view",
      "type": "function"
    },
    {
      "inputs": [],
      "name": "redemptionRequestCounter",
      "outputs": [
        {
          "internalType": "uint256",
          "name": "",
          "type": "uint256"
        }
      ],
      "stateMutability": "view",
      "type": "function"
    },
    {
      "inputs": [
        {
          "internalType": "bytes32",
          "name": "role",
          "type": "bytes32"
        },
        {
          "internalType": "address",
          "name": "account",
          "type": "address"
        }
      ],
      "name": "renounceRole",
      "outputs": [],
      "stateMutability": "nonpayable",
      "type": "function"
    },
    {
      "inputs": [
        {
          "internalType": "uint256",
          "name": "amount",
          "type": "uint256"
        }
      ],
      "name": "requestRedemption",
      "outputs": [],
      "stateMutability": "nonpayable",
      "type": "function"
    },
    {
      "inputs": [
        {
          "internalType": "uint256",
          "name": "amountRWATokenToRedeem",
          "type": "uint256"
        },
        {
          "internalType": "bytes32",
          "name": "offChainDestination",
          "type": "bytes32"
        }
      ],
      "name": "requestRedemptionServicedOffchain",
      "outputs": [],
      "stateMutability": "nonpayable",
      "type": "function"
    },
    {
      "inputs": [
        {
          "internalType": "uint256",
          "name": "amount",
          "type": "uint256"
        }
      ],
      "name": "requestSubscription",
      "outputs": [],
      "stateMutability": "nonpayable",
      "type": "function"
    },
    {
      "inputs": [
        {
          "internalType": "bytes32",
          "name": "role",
          "type": "bytes32"
        },
        {
          "internalType": "address",
          "name": "account",
          "type": "address"
        }
      ],
      "name": "revokeRole",
      "outputs": [],
      "stateMutability": "nonpayable",
      "type": "function"
    },
    {
      "inputs": [],
      "name": "rwa",
      "outputs": [
        {
          "internalType": "contract IRWALike",
          "name": "",
          "type": "address"
        }
      ],
      "stateMutability": "view",
      "type": "function"
    },
    {
      "inputs": [
        {
          "internalType": "address",
          "name": "newAssetSender",
          "type": "address"
        }
      ],
      "name": "setAssetSender",
      "outputs": [],
      "stateMutability": "nonpayable",
      "type": "function"
    },
    {
      "inputs": [
        {
          "internalType": "uint256",
          "name": "claimTimestamp",
          "type": "uint256"
        },
        {
          "internalType": "bytes32[]",
          "name": "depositIds",
          "type": "bytes32[]"
        }
      ],
      "name": "setClaimableTimestamp",
      "outputs": [],
      "stateMutability": "nonpayable",
      "type": "function"
    },
    {
      "inputs": [
        {
          "internalType": "address",
          "name": "newFeeRecipient",
          "type": "address"
        }
      ],
      "name": "setFeeRecipient",
      "outputs": [],
      "stateMutability": "nonpayable",
      "type": "function"
    },
    {
      "inputs": [
        {
          "internalType": "uint256",
          "name": "minDepositAmount",
          "type": "uint256"
        }
      ],
      "name": "setMinimumDepositAmount",
      "outputs": [],
      "stateMutability": "nonpayable",
      "type": "function"
    },
    {
      "inputs": [
        {
          "internalType": "uint256",
          "name": "_minimumRedemptionAmount",
          "type": "uint256"
        }
      ],
      "name": "setMinimumRedemptionAmount",
      "outputs": [],
      "stateMutability": "nonpayable",
      "type": "function"
    },
    {
      "inputs": [
        {
          "internalType": "uint256",
          "name": "_mintFee",
          "type": "uint256"
        }
      ],
      "name": "setMintFee",
      "outputs": [],
      "stateMutability": "nonpayable",
      "type": "function"
    },
    {
      "inputs": [
        {
          "internalType": "uint256",
          "name": "_minimumOffChainRedemptionAmount",
          "type": "uint256"
        }
      ],
      "name": "setOffChainRedemptionMinimum",
      "outputs": [],
      "stateMutability": "nonpayable",
      "type": "function"
    },
    {
      "inputs": [
        {
          "internalType": "bytes32[]",
          "name": "depositIds",
          "type": "bytes32[]"
        },
        {
          "internalType": "uint256[]",
          "name": "priceIds",
          "type": "uint256[]"
        }
      ],
      "name": "setPriceIdForDeposits",
      "outputs": [],
      "stateMutability": "nonpayable",
      "type": "function"
    },
    {
      "inputs": [
        {
          "internalType": "bytes32[]",
          "name": "redemptionIds",
          "type": "bytes32[]"
        },
        {
          "internalType": "uint256[]",
          "name": "priceIds",
          "type": "uint256[]"
        }
      ],
      "name": "setPriceIdForRedemptions",
      "outputs": [],
      "stateMutability": "nonpayable",
      "type": "function"
    },
    {
      "inputs": [
        {
          "internalType": "address",
          "name": "newPricer",
          "type": "address"
        }
      ],
      "name": "setPricer",
      "outputs": [],
      "stateMutability": "nonpayable",
      "type": "function"
    },
    {
      "inputs": [
        {
          "internalType": "uint256",
          "name": "_redemptionFee",
          "type": "uint256"
        }
      ],
      "name": "setRedemptionFee",
      "outputs": [],
      "stateMutability": "nonpayable",
      "type": "function"
    },
    {
      "inputs": [],
      "name": "subscriptionPaused",
      "outputs": [
        {
          "internalType": "bool",
          "name": "",
          "type": "bool"
        }
      ],
      "stateMutability": "view",
      "type": "function"
    },
    {
      "inputs": [],
      "name": "subscriptionRequestCounter",
      "outputs": [
        {
          "internalType": "uint256",
          "name": "",
          "type": "uint256"
        }
      ],
      "stateMutability": "view",
      "type": "function"
    },
    {
      "inputs": [
        {
          "internalType": "bytes4",
          "name": "interfaceId",
          "type": "bytes4"
        }
      ],
      "name": "supportsInterface",
      "outputs": [
        {
          "internalType": "bool",
          "name": "",
          "type": "bool"
        }
      ],
      "stateMutability": "view",
      "type": "function"
    },
    {
      "inputs": [],
      "name": "unpauseOffChainRedemption",
      "outputs": [],
      "stateMutability": "nonpayable",
      "type": "function"
    },
    {
      "inputs": [],
      "name": "unpauseRedemption",
      "outputs": [],
      "stateMutability": "nonpayable",
      "type": "function"
    },
    {
      "inputs": [],
      "name": "unpauseSubscription",
      "outputs": [],
      "stateMutability": "nonpayable",
      "type": "function"
    }
  ],
  "bytecode": "0x60e06040526000600a556000600b556001600c556001600d553480156200002557600080fd5b506040516200396238038062003962833981016040819052620000489162000510565b6001600055888888888888888887878787878787876001600160a01b038816620000855760405163a1aeceb760e01b815260040160405180910390fd5b6001600160a01b038716620000ad5760405163071aeb1d60e01b815260040160405180910390fd5b6001600160a01b038416620000d557604051633b2b1d5560e01b815260040160405180910390fd5b6001600160a01b038316620000fd57604051634fdcfc5560e11b815260040160405180910390fd5b6200010a60008762000368565b62000125600080516020620039428339815191528762000368565b62000140600080516020620039028339815191528662000368565b6200015b600080516020620039228339815191528762000368565b620001877fced4eb9faeb19ab0e2e05a20ade58d82157e1035a3fbff4bc38dd5e609f22b938762000368565b620001b16000805160206200390283398151915260008051602062003942833981519152620003ab565b620001db6000805160206200392283398151915260008051602062003942833981519152620003ab565b620002167fe2b7fb3b832174769106daebcfd6d1970523240dda11281102db9363b83b0dc460008051602062003942833981519152620003ab565b6001600160a01b0388811660a0819052888216608052600580546001600160a01b03199081168785161790915560048054909116928716929092178255600884905560098390556040805163313ce56760e01b81529051919263313ce5679282820192602092908290030181865afa15801562000297573d6000803e3d6000fd5b505050506040513d601f19601f82011682018060405250810190620002bd9190620005b9565b876001600160a01b031663313ce5676040518163ffffffff1660e01b8152600401602060405180830381865afa158015620002fc573d6000803e3d6000fd5b505050506040513d601f19601f82011682018060405250810190620003229190620005b9565b6200032e9190620005fb565b6200033b90600a62000714565b60c08181525050505050505050505080600f81905550505050505050505050505050505050505062000725565b6200037f8282620003f860201b620020991760201c565b6000828152600260209081526040909120620003a69183906200210462000481821b17901c565b505050565b6000828152600160208190526040808320909101805490849055905190918391839186917fbd79b86ffe0ab8e8776151514217cd7cacd52c909f66475c3af44e129f0b00ff9190a4505050565b60008281526001602090815260408083206001600160a01b038516845290915290205460ff166200047d5760008281526001602081815260408084206001600160a01b0386168086529252808420805460ff19169093179092559051339285917f2f8788117e7eff1d82e926ec794901d17c78024a50270940304540a733656f0d9190a45b5050565b600062000498836001600160a01b038416620004a1565b90505b92915050565b6000818152600183016020526040812054620004ea575081546001818101845560008481526020808220909301849055845484825282860190935260409020919091556200049b565b5060006200049b565b80516001600160a01b03811681146200050b57600080fd5b919050565b60008060008060008060008060006101208a8c0312156200053057600080fd5b6200053b8a620004f3565b98506200054b60208b01620004f3565b97506200055b60408b01620004f3565b96506200056b60608b01620004f3565b95506200057b60808b01620004f3565b94506200058b60a08b01620004f3565b935060c08a0151925060e08a01519150620005aa6101008b01620004f3565b90509295985092959850929598565b600060208284031215620005cc57600080fd5b815160ff81168114620005de57600080fd5b9392505050565b634e487b7160e01b600052601160045260246000fd5b60ff82811682821603908111156200049b576200049b620005e5565b600181815b80851115620006585781600019048211156200063c576200063c620005e5565b808516156200064a57918102915b93841c93908002906200061c565b509250929050565b60008262000671575060016200049b565b8162000680575060006200049b565b8160018114620006995760028114620006a457620006c4565b60019150506200049b565b60ff841115620006b857620006b8620005e5565b50506001821b6200049b565b5060208310610133831016604e8410600b8410161715620006e9575081810a6200049b565b620006f5838362000617565b80600019048211156200070c576200070c620005e5565b029392505050565b60006200049860ff84168362000660565b60805160a05160c05161316e62000794600039600081816106df015281816125360152612b2b01526000818161078c01528181610b1c01528181610be401528181611a560152611a8e01526000818161067701528181611e9c01528181611fe801526127c9015261316e6000f3fe608060405234801561001057600080fd5b506004361061032f5760003560e01c80638a07df1e116101b4578063cd4d0bcf116100fa578063e1a452181161009d578063e1a45218146107dd578063e4107c97146107e6578063e74b981b146107f9578063eddd0d9c1461080c578063ee75d7d41461081f578063eeb3c91014610832578063f4a2030714610845578063f80a36d61461086c57600080fd5b8063cd4d0bcf1461073c578063d0c835ce1461074e578063d547741f14610761578063d592d81514610774578063d8dfeb4514610787578063dd45eef6146107ae578063de6afa82146107c1578063e0f486ef146107d457600080fd5b8063a217fddf11610162578063a217fddf14610699578063a6138ed9146106a1578063aa85c1df146106b4578063aab483d6146106c7578063bb13245f146106da578063bcc7028314610701578063c147307214610716578063ca15c8731461072957600080fd5b80638a07df1e146105f55780638d044c06146106155780639010d07c1461061d57806391d1485414610630578063926d7d7f1461064357806392bccb801461066a57806395e4b2511461067257600080fd5b806338fed708116102795780634ef1ccd1116102275780634ef1ccd114610521578063525decd6146105345780635d591d681461054757806373a95ddd146105a55780637dbc1df0146105b2578063837018fa146105c557806385c4e79e146105cd57806387e2d06e146105e257600080fd5b806338fed7081461044c5780633bfa67fe146104ba5780634565e9ff146104e2578063458f5815146104f557806346904840146104fe57806349cbbf2a146105115780634dfe7af21461051957600080fd5b8063244f5acf116102e1578063244f5acf146103ad578063248a9ca3146103c0578063258492cd146103e457806329390370146103f75780632b5eceff1461040a5780632f2ff15d1461041d578063354181f31461043057806336568abe1461043957600080fd5b806301ffc9a714610334578063078a6be81461035c57806307bda1bb1461037f578063080c279a1461038857806312589fb51461039157806313966db51461039a5780632056aa12146103a3575b600080fd5b610347610342366004612b89565b61087f565b60405190151581526020015b60405180910390f35b61037160008051602061311983398151915281565b604051908152602001610353565b610371600c5481565b61037160085481565b610371600f5481565b610371600a5481565b6103ab6108aa565b005b6103ab6103bb366004612bff565b61090d565b6103716103ce366004612c41565b6000908152600160208190526040909120015490565b6103ab6103f2366004612c76565b610c1d565b6103ab610405366004612cb1565b610db0565b6103ab610418366004612ccc565b610e29565b6103ab61042b366004612d12565b610f2d565b610371600d5481565b6103ab610447366004612d12565b610f59565b61048e61045a366004612c41565b60076020526000908152604090208054600182015460028301546003909301546001600160a01b0390921692909160ff1684565b604080516001600160a01b03909516855260208501939093529183015215156060820152608001610353565b6104d5730686b3a7b9be2751bb51084a6e0e7db7f1746eb181565b6040516103539190612d3e565b6103ab6104f0366004612bff565b610fd7565b610371600b5481565b6005546104d5906001600160a01b031681565b6103ab611065565b6103ab6110bf565b6103ab61052f366004612c41565b611114565b6103ab610542366004612cb1565b61118e565b610580610555366004612c41565b6006602052600090815260409020805460018201546002909201546001600160a01b03909116919083565b604080516001600160a01b039094168452602084019290925290820152606001610353565b600e546103479060ff1681565b6103ab6105c0366004612c41565b6111fa565b6103ab611274565b6103716000805160206130d983398151915281565b6103ab6105f0366004612d52565b6112c8565b610371610603366004612c41565b60106020526000908152604090205481565b6103ab611476565b6104d561062b366004612dbe565b6114c9565b61034761063e366004612d12565b6114e8565b6103717fe2b7fb3b832174769106daebcfd6d1970523240dda11281102db9363b83b0dc481565b6103ab611513565b6104d57f000000000000000000000000000000000000000000000000000000000000000081565b610371600081565b6003546104d5906001600160a01b031681565b6103ab6106c2366004612d52565b611569565b6103ab6106d5366004612c41565b6116b5565b6103717f000000000000000000000000000000000000000000000000000000000000000081565b6103716000805160206130f983398151915281565b6103ab610724366004612bff565b61172f565b610371610737366004612c41565b61181f565b600e5461034790610100900460ff1681565b6103ab61075c366004612de0565b611836565b6103ab61076f366004612d12565b61191c565b6103ab610782366004612c41565b611943565b6104d57f000000000000000000000000000000000000000000000000000000000000000081565b600e546103479062010000900460ff1681565b6103ab6107cf366004612c76565b611b1b565b61037160095481565b61037161271081565b6103ab6107f4366004612c41565b611c5a565b6103ab610807366004612cb1565b611cb1565b6103ab61081a366004612c41565b611d1c565b6004546104d5906001600160a01b031681565b6103ab610840366004612c41565b611d96565b6103717fced4eb9faeb19ab0e2e05a20ade58d82157e1035a3fbff4bc38dd5e609f22b9381565b6103ab61087a366004612dbe565b611f44565b60006001600160e01b03198216635a05180f60e01b14806108a457506108a482612119565b92915050565b6000805160206130d98339815191526108c3813361214e565b600e805461ff0019166101001790556040517fcd71257f2998474633e94cfffa045014068f6218ffdca256b6f4aa9d5f15fb8990610902903390612d3e565b60405180910390a150565b6002600054036109385760405162461bcd60e51b815260040161092f90612e2c565b60405180910390fd5b6002600055600e5460ff1680156109625760405163aadfaddd60e01b815260040160405180910390fd5b600082815b81811015610bc95760006007600088888581811061098757610987612e63565b602090810292909201358352508181019290925260409081016000908120825160808101845281546001600160a01b0316815260018201549481019490945260028101549284018390526003015460ff16151560608401529192509003610a0157604051638718c77160e01b815260040160405180910390fd5b6003546040828101519051630e75722360e41b815260048101919091526000916001600160a01b03169063e757223090602401602060405180830381865afa158015610a51573d6000803e3d6000fd5b505050506040513d601f19601f82011682018060405250810190610a759190612e79565b90506000610a878360200151836121b2565b90506000610a94826121e3565b90506000610aa28284612ea8565b9050610aae8289612ebb565b9750600760008c8c89818110610ac657610ac6612e63565b60209081029290920135835250810191909152604001600090812080546001600160a01b0319168155600181018290556002810191909155600301805460ff191690556004548551610b47916001600160a01b037f000000000000000000000000000000000000000000000000000000000000000081169291169084612200565b8a8a87818110610b5957610b59612e63565b87516020898101516040805191825281830188905281018a905292029390930135926001600160a01b031691507f35908d59be205275271010c5ea7062a88a2b5fbafe268bb9070550276f0edadd9060600160405180910390a3505050505080610bc290612ece565b9050610967565b508115610c1157600454600554610c11916001600160a01b037f0000000000000000000000000000000000000000000000000000000000000000811692918116911685612200565b50506001600055505050565b600080516020613119833981519152610c36813361214e565b6000600760008781526020019081526020016000206040518060800160405290816000820160009054906101000a90046001600160a01b03166001600160a01b03166001600160a01b0316815260200160018201548152602001600282015481526020016003820160009054906101000a900460ff16151515158152505090506040518060800160405280866001600160a01b03168152602001858152602001848152602001600015158152506007600088815260200190815260200160002060008201518160000160006101000a8154816001600160a01b0302191690836001600160a01b03160217905550602082015181600101556040820151816002015560608201518160030160006101000a81548160ff021916908315150217905550905050857f5a0c55c421ae3aac2379811eca16aaee32b6e64411322b624118d4219b9350a082600001518784604001518786602001518a604051610da096959493929190612ee7565b60405180910390a2505050505050565b600080516020613119833981519152610dc9813361214e565b600380546001600160a01b038481166001600160a01b03198316179092556040519116907f801352e72ef9b80b3992ccbedf07ab0e133e7da7aaccf0024abf23f4f32eb99a90610e1c9083908690612f1d565b60405180910390a1505050565b7fe2b7fb3b832174769106daebcfd6d1970523240dda11281102db9363b83b0dc4610e54813361214e565b6000868152600660205260409020546001600160a01b031615610e8a57604051631aeecebf60e21b815260040160405180910390fd5b60408051606080820183526001600160a01b0388811680845260208085018a815260008688018181528e82526006845290889020965187546001600160a01b031916951694909417865551600186015591516002909401939093558351888152908101879052928301859052909188917fc985471d1cb1bb75da0d54fa5ab10f7171e952cefcc0bf4fc7c2546c19d1811f910160405180910390a3505050505050565b60008281526001602081905260409091200154610f4a813361214e565b610f548383612260565b505050565b6001600160a01b0381163314610fc95760405162461bcd60e51b815260206004820152602f60248201527f416363657373436f6e74726f6c3a2063616e206f6e6c792072656e6f756e636560448201526e103937b632b9903337b91039b2b63360891b606482015260840161092f565b610fd38282612282565b5050565b600260005403610ff95760405162461bcd60e51b815260040161092f90612e2c565b6002600055600e54610100900460ff1680156110285760405163aadfaddd60e01b815260040160405180910390fd5b8160005b81811015610c115761105585858381811061104957611049612e63565b905060200201356122a4565b61105e81612ece565b905061102c565b6000805160206130d983398151915261107e813361214e565b600e805462ff00001916620100001790556040517fdc41a92196ccc1ab8149c01bc68c2f506b10a7bb5cd2693c9516d176f5381ff490610902903390612d3e565b6000805160206131198339815191526110d8813361214e565b600e805462ff0000191690556040517f53a8c40fc17c78d38e2c06aa8d2c550c1acbf7b30d087dbda289ab3dd41c235c90610902903390612d3e565b60008051602061311983398151915261112d813361214e565b6127108210156111505760405163617ab12d60e11b815260040160405180910390fd5b600980549083905560408051828152602081018590527ffdaf6ed728cef208e62328a008209556f8281f3062b14dd08aaaa90fa15942119101610e1c565b6000805160206131198339815191526111a7813361214e565b600480546001600160a01b038481166001600160a01b03198316179092556040519116907fb09f298b2812193d5ada18beaadd6cb8f12b3640926d99de46e2a65394df829d90610e1c9083908690612f1d565b600080516020613119833981519152611213813361214e565b61271082111561123657604051637e2df70960e11b815260040160405180910390fd5b600b80549083905560408051828152602081018590527f2956acfe8584fb02384e06c675ee215bf10d55c3de1e6ff9b2f621e8a40c64709101610e1c565b60008051602061311983398151915261128d813361214e565b600e805461ff00191690556040517f94482ee2b195c365dbbc2d689fd5a088d2b219abe44360ba8895525c9471d66f90610902903390612d3e565b6000805160206130f98339815191526112e1813361214e565b838281146113025760405163cc6e40b360e01b815260040160405180910390fd5b60005b8181101561146d57600060068189898581811061132457611324612e63565b60209081029290920135835250810191909152604001600020546001600160a01b031603611365576040516305a8a45b60e41b815260040160405180910390fd5b6006600088888481811061137b5761137b612e63565b905060200201358152602001908152602001600020600201546000146113b457604051631139f30960e31b815260040160405180910390fd5b8484828181106113c6576113c6612e63565b90506020020135600660008989858181106113e3576113e3612e63565b9050602002013581526020019081526020016000206002018190555084848281811061141157611411612e63565b9050602002013587878381811061142a5761142a612e63565b905060200201357fc2055184bbc2d10b90bf7df17a84f8bdda6b52377a976e41e0c1610fffafc0d760405160405180910390a361146681612ece565b9050611305565b50505050505050565b60008051602061311983398151915261148f813361214e565b600e805460ff191690556040517fc641b9c4afa539cedcbe2e5f3e47d9f092175b5d0b8ae72dffa634a3eb3e47e490610902903390612d3e565b60008281526002602052604081206114e1908361231b565b9392505050565b60009182526001602090815260408084206001600160a01b0393909316845291905290205460ff1690565b6000805160206130d983398151915261152c813361214e565b600e805460ff191660011790556040517f71e0406677c0570b2a66b1a4feeccf5c1cba2d6729435461e27a312b15410d0490610902903390612d3e565b6000805160206130f9833981519152611582813361214e565b838281146115a35760405163cc6e40b360e01b815260040160405180910390fd5b60005b8181101561146d57600760008888848181106115c4576115c4612e63565b905060200201358152602001908152602001600020600201546000146115fd57604051631139f30960e31b815260040160405180910390fd5b84848281811061160f5761160f612e63565b905060200201356007600089898581811061162c5761162c612e63565b9050602002013581526020019081526020016000206002018190555084848281811061165a5761165a612e63565b9050602002013587878381811061167357611673612e63565b905060200201357e05e86a70f400d1820ab5a0573a2be911d831ab28fe2e9448b34daab223b09c60405160405180910390a36116ae81612ece565b90506115a6565b6000805160206131198339815191526116ce813361214e565b6127108210156116f15760405163617ab12d60e11b815260040160405180910390fd5b600880549083905560408051828152602081018590527fe6e25add7363f8f8a40cbea9810d3115a33703b10972ef759104219b006574369101610e1c565b6002600054036117515760405162461bcd60e51b815260040161092f90612e2c565b6002600055600e5460ff16801561177b5760405163aadfaddd60e01b815260040160405180910390fd5b8160005b81811015610c115760006007600087878581811061179f5761179f612e63565b6020908102929092013583525081019190915260400160002060038101805460ff1916600117905590508585838181106117db576117db612e63565b905060200201357f95c65e945cc73b3e4c479575c2ca94761c30bf982502e99e12713057322d6b3f60405160405180910390a25061181881612ece565b905061177f565b60008181526002602052604081206108a490612327565b7fced4eb9faeb19ab0e2e05a20ade58d82157e1035a3fbff4bc38dd5e609f22b93611861813361214e565b428410156118825760405163209768a360e11b815260040160405180910390fd5b8160005b818110156119145785601060008787858181106118a5576118a5612e63565b905060200201358152602001908152602001600020819055508484828181106118d0576118d0612e63565b90506020020135867f15d20a98e8d4b1247fc51e2f6817929874a0769087776e52268eb1b4c8bdb2dd60405160405180910390a361190d81612ece565b9050611886565b505050505050565b60008281526001602081905260409091200154611939813361214e565b610f548383612282565b6002600054036119655760405162461bcd60e51b815260040161092f90612e2c565b6002600055600e54610100900460ff1680156119945760405163aadfaddd60e01b815260040160405180910390fd5b6008548210156119b757604051636ba4a1c760e01b815260040160405180910390fd5b60006119c283612331565b905060006119d08285612ea8565b600c805491925060009190826119e583612ece565b909155506040805160608101825233815260208082018681526000838501818152868252600690935293909320915182546001600160a01b0319166001600160a01b0390911617825591516001820155905160029091015590508215611a8157600554611a81906001600160a01b037f000000000000000000000000000000000000000000000000000000000000000081169133911686612200565b611aca6001600160a01b037f00000000000000000000000000000000000000000000000000000000000000001633730686b3a7b9be2751bb51084a6e0e7db7f1746eb185612200565b6040805186815260208101849052908101849052819033907f7cbce37c7b11d322316420484f40c29ce672ad3fa16752551a3dbe6ccfa04e149060600160405180910390a350506001600055505050565b600080516020613119833981519152611b34813361214e565b6000600660008781526020019081526020016000206040518060600160405290816000820160009054906101000a90046001600160a01b03166001600160a01b03166001600160a01b031681526020016001820154815260200160028201548152505090506040518060600160405280866001600160a01b03168152602001858152602001848152506006600088815260200190815260200160002060008201518160000160006101000a8154816001600160a01b0302191690836001600160a01b031602179055506020820151816001015560408201518160020155905050857f7e506b1f11218d4c947d5a59a97fd996c42afc2b024b6aeaec050930eb2b339982600001518784604001518786602001518a604051610da096959493929190612ee7565b600080516020613119833981519152611c73813361214e565b600f80549083905560408051828152602081018590527f1071422bad736c3651d3d3b7a4eda70e84e9c85a08f21c955d79ded03bbf06bb9101610e1c565b600080516020613119833981519152611cca813361214e565b600580546001600160a01b038481166001600160a01b0319831681179093556040519116917f15d80a013f22151bc7246e3bc132e12828cde19de98870475e3fa7084015272191610e1c918491612f1d565b600080516020613119833981519152611d35813361214e565b612710821115611d5857604051637e2df70960e11b815260040160405180910390fd5b600a80549083905560408051828152602081018590527f387269377ae17304805d5f88cea4252e5ca47346783c279aeb9e8627335a49ac9101610e1c565b600260005403611db85760405162461bcd60e51b815260040161092f90612e2c565b6002600055600e5460ff168015611de25760405163aadfaddd60e01b815260040160405180910390fd5b600954821015611e055760405163595bd39f60e11b815260040160405180910390fd5b600d805460009182611e1683612ece565b9091555060408051608081018252338082526020808301888152600084860181815260608601828152888352600790945290869020945185546001600160a01b0319166001600160a01b039182161786559151600186015551600285015590516003909301805460ff191693151593909317909255915163079cc67960e41b81529293507f000000000000000000000000000000000000000000000000000000000000000016916379cc679091611ed1918790600401612f37565b600060405180830381600087803b158015611eeb57600080fd5b505af1158015611eff573d6000803e3d6000fd5b50506040518581528392503391507f80ebb30e7c30052bf403a20da869bdd033841684e93930d97c4af74238529b4f9060200160405180910390a35050600160005550565b600260005403611f665760405162461bcd60e51b815260040161092f90612e2c565b6002600055600e5462010000900460ff168015611f965760405163aadfaddd60e01b815260040160405180910390fd5b600f54831015611fb95760405163595bd39f60e11b815260040160405180910390fd5b600d805460009182611fca83612ece565b9091555060405163079cc67960e41b81529091506001600160a01b037f000000000000000000000000000000000000000000000000000000000000000016906379cc67909061201f9033908890600401612f37565b600060405180830381600087803b15801561203957600080fd5b505af115801561204d573d6000803e3d6000fd5b505060408051878152602081018790528493503392507fad2102c6abc98f954bd5d61e6c0d19764db331f63019296309309a34f70e66a6910160405180910390a3505060016000555050565b6120a382826114e8565b610fd35760008281526001602081815260408084206001600160a01b0386168086529252808420805460ff19169093179092559051339285917f2f8788117e7eff1d82e926ec794901d17c78024a50270940304540a733656f0d9190a45050565b60006114e1836001600160a01b038416612344565b60006001600160e01b03198216637965db0b60e01b14806108a457506301ffc9a760e01b6001600160e01b03198316146108a4565b61215882826114e8565b610fd357612170816001600160a01b03166014612393565b61217b836020612393565b60405160200161218c929190612f74565b60408051601f198184030181529082905262461bcd60e51b825261092f91600401612fe3565b6000806121bf8385613016565b90506121db6121d6670de0b6b3a764000083613035565b61252f565b949350505050565b6000612710600b54836121f69190613016565b6108a49190613035565b604080516001600160a01b0385811660248301528416604482015260648082018490528251808303909101815260849091019091526020810180516001600160e01b03166323b872dd60e01b17905261225a90859061255b565b50505050565b61226a8282612099565b6000828152600260205260409020610f549082612104565b61228c828261262d565b6000828152600260205260409020610f549082612694565b60008181526010602052604081205490036122d257604051630ad2496160e31b815260040160405180910390fd5b6000818152601060205260409020544210156123015760405163309b0bcf60e21b815260040160405180910390fd5b61230a816126a9565b600090815260106020526040812055565b60006114e1838361289d565b60006108a4825490565b6000612710600a54836121f69190613016565b600081815260018301602052604081205461238b575081546001818101845560008481526020808220909301849055845484825282860190935260409020919091556108a4565b5060006108a4565b606060006123a2836002613016565b6123ad906002612ebb565b67ffffffffffffffff8111156123c5576123c5613057565b6040519080825280601f01601f1916602001820160405280156123ef576020820181803683370190505b509050600360fc1b8160008151811061240a5761240a612e63565b60200101906001600160f81b031916908160001a905350600f60fb1b8160018151811061243957612439612e63565b60200101906001600160f81b031916908160001a905350600061245d846002613016565b612468906001612ebb565b90505b60018111156124e0576f181899199a1a9b1b9c1cb0b131b232b360811b85600f166010811061249c5761249c612e63565b1a60f81b8282815181106124b2576124b2612e63565b60200101906001600160f81b031916908160001a90535060049490941c936124d98161306d565b905061246b565b5083156114e15760405162461bcd60e51b815260206004820181905260248201527f537472696e67733a20686578206c656e67746820696e73756666696369656e74604482015260640161092f565b60006108a47f000000000000000000000000000000000000000000000000000000000000000083613035565b60006125b0826040518060400160405280602081526020017f5361666545524332303a206c6f772d6c6576656c2063616c6c206661696c6564815250856001600160a01b03166128c79092919063ffffffff16565b805190915015610f5457808060200190518101906125ce9190613084565b610f545760405162461bcd60e51b815260206004820152602a60248201527f5361666545524332303a204552433230206f7065726174696f6e20646964206e6044820152691bdd081cdd58d8d9595960b21b606482015260840161092f565b61263782826114e8565b15610fd35760008281526001602090815260408083206001600160a01b0385168085529252808320805460ff1916905551339285917ff6391f5c32d9c69d2a47ea670b442974b53935d1edc7fd64eb21e047a839171b9190a45050565b60006114e1836001600160a01b0384166128d6565b6000818152600660209081526040808320815160608101835281546001600160a01b031681526001820154938101939093526002015490820181905290910361270557604051638718c77160e01b815260040160405180910390fd5b6003546040828101519051630e75722360e41b815260048101919091526000916001600160a01b03169063e757223090602401602060405180830381865afa158015612755573d6000803e3d6000fd5b505050506040513d601f19601f820116820180604052508101906127799190612e79565b9050600061278b8360200151836129c9565b60008581526006602052604080822080546001600160a01b03191681556001810183905560020191909155845190516340c10f1960e01b81529192507f00000000000000000000000000000000000000000000000000000000000000006001600160a01b0316916340c10f1991612806918590600401612f37565b600060405180830381600087803b15801561282057600080fd5b505af1158015612834573d6000803e3d6000fd5b50508451602080870151604080890151815188815293840192909252820187905260608201528793506001600160a01b0390911691507fdd602cc9cb236502fb74f091872b4025184011dd96eee41099caa260842f20249060800160405180910390a350505050565b60008260000182815481106128b4576128b4612e63565b9060005260206000200154905092915050565b60606121db84846000856129f3565b600081815260018301602052604081205480156129bf5760006128fa600183612ea8565b855490915060009061290e90600190612ea8565b905081811461297357600086600001828154811061292e5761292e612e63565b906000526020600020015490508087600001848154811061295157612951612e63565b6000918252602080832090910192909255918252600188019052604090208390555b8554869080612984576129846130a6565b6001900381819060005260206000200160009055905585600101600086815260200190815260200160002060009055600193505050506108a4565b60009150506108a4565b6000806129d584612b24565b6129e790670de0b6b3a7640000613016565b90506121db8382613035565b606082471015612a545760405162461bcd60e51b815260206004820152602660248201527f416464726573733a20696e73756666696369656e742062616c616e636520666f6044820152651c8818d85b1b60d21b606482015260840161092f565b6001600160a01b0385163b612aab5760405162461bcd60e51b815260206004820152601d60248201527f416464726573733a2063616c6c20746f206e6f6e2d636f6e7472616374000000604482015260640161092f565b600080866001600160a01b03168587604051612ac791906130bc565b60006040518083038185875af1925050503d8060008114612b04576040519150601f19603f3d011682016040523d82523d6000602084013e612b09565b606091505b5091509150612b19828286612b50565b979650505050505050565b60006108a47f000000000000000000000000000000000000000000000000000000000000000083613016565b60608315612b5f5750816114e1565b825115612b6f5782518084602001fd5b8160405162461bcd60e51b815260040161092f9190612fe3565b600060208284031215612b9b57600080fd5b81356001600160e01b0319811681146114e157600080fd5b60008083601f840112612bc557600080fd5b50813567ffffffffffffffff811115612bdd57600080fd5b6020830191508360208260051b8501011115612bf857600080fd5b9250929050565b60008060208385031215612c1257600080fd5b823567ffffffffffffffff811115612c2957600080fd5b612c3585828601612bb3565b90969095509350505050565b600060208284031215612c5357600080fd5b5035919050565b80356001600160a01b0381168114612c7157600080fd5b919050565b60008060008060808587031215612c8c57600080fd5b84359350612c9c60208601612c5a565b93969395505050506040820135916060013590565b600060208284031215612cc357600080fd5b6114e182612c5a565b600080600080600060a08688031215612ce457600080fd5b85359450612cf460208701612c5a565b94979496505050506040830135926060810135926080909101359150565b60008060408385031215612d2557600080fd5b82359150612d3560208401612c5a565b90509250929050565b6001600160a01b0391909116815260200190565b60008060008060408587031215612d6857600080fd5b843567ffffffffffffffff80821115612d8057600080fd5b612d8c88838901612bb3565b90965094506020870135915080821115612da557600080fd5b50612db287828801612bb3565b95989497509550505050565b60008060408385031215612dd157600080fd5b50508035926020909101359150565b600080600060408486031215612df557600080fd5b83359250602084013567ffffffffffffffff811115612e1357600080fd5b612e1f86828701612bb3565b9497909650939450505050565b6020808252601f908201527f5265656e7472616e637947756172643a207265656e7472616e742063616c6c00604082015260600190565b634e487b7160e01b600052603260045260246000fd5b600060208284031215612e8b57600080fd5b5051919050565b634e487b7160e01b600052601160045260246000fd5b818103818111156108a4576108a4612e92565b808201808211156108a4576108a4612e92565b600060018201612ee057612ee0612e92565b5060010190565b6001600160a01b03968716815294909516602085015260408401929092526060830152608082015260a081019190915260c00190565b6001600160a01b0392831681529116602082015260400190565b6001600160a01b03929092168252602082015260400190565b60005b83811015612f6b578181015183820152602001612f53565b50506000910152565b76020b1b1b2b9b9a1b7b73a3937b61d1030b1b1b7bab73a1604d1b815260008351612fa6816017850160208801612f50565b7001034b99036b4b9b9b4b733903937b6329607d1b6017918401918201528351612fd7816028840160208801612f50565b01602801949350505050565b6020815260008251806020840152613002816040850160208701612f50565b601f01601f19169190910160400192915050565b600081600019048311821515161561303057613030612e92565b500290565b60008261305257634e487b7160e01b600052601260045260246000fd5b500490565b634e487b7160e01b600052604160045260246000fd5b60008161307c5761307c612e92565b506000190190565b60006020828403121561309657600080fd5b815180151581146114e157600080fd5b634e487b7160e01b600052603160045260246000fd5b600082516130ce818460208701612f50565b919091019291505056fe9ac2c43e905fe4f0c030a0b0e4b805a284e79da32a5c9c71be1c68dd79bbb89d830a9081649e91840eb0274e99b47626a896cfa0f4dd591cb31cd5060e566c0d8c6dd8af24db306eb580672d47cf7dd23b8394bf74074f8ac14b948512ecdb03a2646970667358221220f3b847aadf5a06e7dd5c3587329ea7903847a76f922f32e77bc0e679b00de9af64736f6c634300081000339ac2c43e905fe4f0c030a0b0e4b805a284e79da32a5c9c71be1c68dd79bbb89d830a9081649e91840eb0274e99b47626a896cfa0f4dd591cb31cd5060e566c0d8c6dd8af24db306eb580672d47cf7dd23b8394bf74074f8ac14b948512ecdb03",
  "linkReferences": {},
  "deployedLinkReferences": {}
}