{"contracts/abby/ABBYManager.sol":{"ABBYManager":{"abi":[{"inputs":[{"internalType":"address","name":"_collateral","type":"address"},{"internalType":"address","name":"_rwa","type":"address"},{"internalType":"address","name":"managerAdmin","type":"address"},{"internalType":"address","name":"pauser","type":"address"},{"internalType":"address","name":"_assetSender","type":"address"},{"internalType":"address","name":"_feeRecipient","type":"address"},{"internalType":"uint256","name":"_minimumDepositAmount","type":"uint256"},{"internalType":"uint256","name":"_minimumRedemptionAmount","type":"uint256"},{"internalType":"address","name":"blocklist","type":"address"}],"stateMutability":"nonpayable","type":"constructor"},{"inputs":[],"name":"AmountTooSmall","type":"error"},{"inputs":[],"name":"ArraySizeMismatch","type":"error"},{"inputs":[],"name":"AssetSenderCannotBeZero","type":"error"},{"inputs":[],"name":"ClaimableTimestampInPast","type":"error"},{"inputs":[],"name":"ClaimableTimestampNotSet","type":"error"},{"inputs":[],"name":"CollateralCannotBeZero","type":"error"},{"inputs":[],"name":"DepositProofAlreadyExists","type":"error"},{"inputs":[],"name":"DepositTooSmall","type":"error"},{"inputs":[],"name":"DepositorNull","type":"error"},{"inputs":[],"name":"FeaturePaused","type":"error"},{"inputs":[],"name":"FeeRecipientCannotBeZero","type":"error"},{"inputs":[],"name":"FeeTooLarge","type":"error"},{"inputs":[],"name":"MintNotYetClaimable","type":"error"},{"inputs":[],"name":"PriceIdAlreadySet","type":"error"},{"inputs":[],"name":"PriceIdNotSet","type":"error"},{"inputs":[],"name":"RWACannotBeZero","type":"error"},{"inputs":[],"name":"RedeemerNull","type":"error"},{"inputs":[],"name":"RedemptionTooSmall","type":"error"},{"inputs":[],"name":"TxnAlreadyValidated","type":"error"},{"anonymous":false,"inputs":[{"indexed":false,"internalType":"address","name":"oldAssetSender","type":"address"},{"indexed":false,"internalType":"address","name":"newAssetSender","type":"address"}],"name":"AssetSenderSet","type":"event"},{"anonymous":false,"inputs":[{"indexed":true,"internalType":"uint256","name":"claimTimestamp","type":"uint256"},{"indexed":true,"internalType":"bytes32","name":"depositId","type":"bytes32"}],"name":"ClaimableTimestampSet","type":"event"},{"anonymous":false,"inputs":[{"indexed":true,"internalType":"bytes32","name":"txHash","type":"bytes32"},{"indexed":true,"internalType":"address","name":"user","type":"address"},{"indexed":false,"internalType":"uint256","name":"depositAmountAfterFee","type":"uint256"},{"indexed":false,"internalType":"uint256","name":"feeAmount","type":"uint256"},{"indexed":false,"internalType":"uint256","name":"timestamp","type":"uint256"}],"name":"DepositProofAdded","type":"event"},{"anonymous":false,"inputs":[{"indexed":true,"internalType":"bytes32","name":"depositId","type":"bytes32"},{"indexed":false,"internalType":"address","name":"oldDepositor","type":"address"},{"indexed":false,"internalType":"address","name":"newDepositor","type":"address"},{"indexed":false,"internalType":"uint256","name":"oldPriceId","type":"uint256"},{"indexed":false,"internalType":"uint256","name":"newPriceId","type":"uint256"},{"indexed":false,"internalType":"uint256","name":"oldDepositAmount","type":"uint256"},{"indexed":false,"internalType":"uint256","name":"newDepositAmount","type":"uint256"}],"name":"DepositorOverwritten","type":"event"},{"anonymous":false,"inputs":[{"indexed":false,"internalType":"address","name":"oldFeeRecipient","type":"address"},{"indexed":false,"internalType":"address","name":"newFeeRecipient","type":"address"}],"name":"FeeRecipientSet","type":"event"},{"anonymous":false,"inputs":[{"indexed":false,"internalType":"uint256","name":"oldMinimum","type":"uint256"},{"indexed":false,"internalType":"uint256","name":"newMinimum","type":"uint256"}],"name":"MinimumDepositAmountSet","type":"event"},{"anonymous":false,"inputs":[{"indexed":false,"internalType":"uint256","name":"oldRedemptionMin","type":"uint256"},{"indexed":false,"internalType":"uint256","name":"newRedemptionMin","type":"uint256"}],"name":"MinimumRedemptionAmountSet","type":"event"},{"anonymous":false,"inputs":[{"indexed":true,"internalType":"address","name":"user","type":"address"},{"indexed":true,"internalType":"bytes32","name":"depositId","type":"bytes32"},{"indexed":false,"internalType":"uint256","name":"rwaAmountOut","type":"uint256"},{"indexed":false,"internalType":"uint256","name":"collateralAmountDeposited","type":"uint256"},{"indexed":false,"internalType":"uint256","name":"price","type":"uint256"},{"indexed":false,"internalType":"uint256","name":"priceId","type":"uint256"}],"name":"MintCompleted","type":"event"},{"anonymous":false,"inputs":[{"indexed":false,"internalType":"uint256","name":"oldFee","type":"uint256"},{"indexed":false,"internalType":"uint256","name":"newFee","type":"uint256"}],"name":"MintFeeSet","type":"event"},{"anonymous":false,"inputs":[{"indexed":true,"internalType":"address","name":"user","type":"address"},{"indexed":true,"internalType":"bytes32","name":"depositId","type":"bytes32"},{"indexed":false,"internalType":"uint256","name":"collateralAmountDeposited","type":"uint256"},{"indexed":false,"internalType":"uint256","name":"depositAmountAfterFee","type":"uint256"},{"indexed":false,"internalType":"uint256","name":"feeAmount","type":"uint256"}],"name":"MintRequested","type":"event"},{"anonymous":false,"inputs":[{"indexed":false,"internalType":"address","name":"oldPricer","type":"address"},{"indexed":false,"internalType":"address","name":"newPricer","type":"address"}],"name":"NewPricerSet","type":"event"},{"anonymous":false,"inputs":[{"indexed":false,"internalType":"uint256","name":"oldMinimum","type":"uint256"},{"indexed":false,"internalType":"uint256","name":"newMinimum","type":"uint256"}],"name":"OffChainRedemptionMinimumSet","type":"event"},{"anonymous":false,"inputs":[{"indexed":false,"internalType":"address","name":"caller","type":"address"}],"name":"OffChainRedemptionPaused","type":"event"},{"anonymous":false,"inputs":[{"indexed":false,"internalType":"address","name":"caller","type":"address"}],"name":"OffChainRedemptionUnpaused","type":"event"},{"anonymous":false,"inputs":[{"indexed":true,"internalType":"bytes32","name":"depositIdSet","type":"bytes32"},{"indexed":true,"internalType":"uint256","name":"priceIdSet","type":"uint256"}],"name":"PriceIdSetForDeposit","type":"event"},{"anonymous":false,"inputs":[{"indexed":true,"internalType":"bytes32","name":"redemptionIdSet","type":"bytes32"},{"indexed":true,"internalType":"uint256","name":"priceIdSet","type":"uint256"}],"name":"PriceIdSetForRedemption","type":"event"},{"anonymous":false,"inputs":[{"indexed":true,"internalType":"bytes32","name":"redemptionId","type":"bytes32"},{"indexed":false,"internalType":"address","name":"oldRedeemer","type":"address"},{"indexed":false,"internalType":"address","name":"newRedeemer","type":"address"},{"indexed":false,"internalType":"uint256","name":"oldPriceId","type":"uint256"},{"indexed":false,"internalType":"uint256","name":"newPriceId","type":"uint256"},{"indexed":false,"internalType":"uint256","name":"oldRWATokenAmountBurned","type":"uint256"},{"indexed":false,"internalType":"uint256","name":"newRWATokenAmountBurned","type":"uint256"}],"name":"RedeemerOverwritten","type":"event"},{"anonymous":false,"inputs":[{"indexed":true,"internalType":"address","name":"user","type":"address"},{"indexed":true,"internalType":"bytes32","name":"redemptionId","type":"bytes32"},{"indexed":false,"internalType":"uint256","name":"rwaAmountRequested","type":"uint256"},{"indexed":false,"internalType":"uint256","name":"collateralAmountReturned","type":"uint256"},{"indexed":false,"internalType":"uint256","name":"price","type":"uint256"}],"name":"RedemptionCompleted","type":"event"},{"anonymous":false,"inputs":[{"indexed":false,"internalType":"uint256","name":"oldFee","type":"uint256"},{"indexed":false,"internalType":"uint256","name":"newFee","type":"uint256"}],"name":"RedemptionFeeSet","type":"event"},{"anonymous":false,"inputs":[{"indexed":false,"internalType":"address","name":"caller","type":"address"}],"name":"RedemptionPaused","type":"event"},{"anonymous":false,"inputs":[{"indexed":true,"internalType":"address","name":"user","type":"address"},{"indexed":true,"internalType":"bytes32","name":"redemptionId","type":"bytes32"},{"indexed":false,"internalType":"uint256","name":"rwaAmountIn","type":"uint256"}],"name":"RedemptionRequested","type":"event"},{"anonymous":false,"inputs":[{"indexed":true,"internalType":"address","name":"user","type":"address"},{"indexed":true,"internalType":"bytes32","name":"redemptionId","type":"bytes32"},{"indexed":false,"internalType":"uint256","name":"rwaTokenAmountIn","type":"uint256"},{"indexed":false,"internalType":"bytes32","name":"offChainDestination","type":"bytes32"}],"name":"RedemptionRequestedServicedOffChain","type":"event"},{"anonymous":false,"inputs":[{"indexed":false,"internalType":"address","name":"caller","type":"address"}],"name":"RedemptionUnpaused","type":"event"},{"anonymous":false,"inputs":[{"indexed":true,"internalType":"bytes32","name":"role","type":"bytes32"},{"indexed":true,"internalType":"bytes32","name":"previousAdminRole","type":"bytes32"},{"indexed":true,"internalType":"bytes32","name":"newAdminRole","type":"bytes32"}],"name":"RoleAdminChanged","type":"event"},{"anonymous":false,"inputs":[{"indexed":true,"internalType":"bytes32","name":"role","type":"bytes32"},{"indexed":true,"internalType":"address","name":"account","type":"address"},{"indexed":true,"internalType":"address","name":"sender","type":"address"}],"name":"RoleGranted","type":"event"},{"anonymous":false,"inputs":[{"indexed":true,"internalType":"bytes32","name":"role","type":"bytes32"},{"indexed":true,"internalType":"address","name":"account","type":"address"},{"indexed":true,"internalType":"address","name":"sender","type":"address"}],"name":"RoleRevoked","type":"event"},{"anonymous":false,"inputs":[{"indexed":false,"internalType":"address","name":"caller","type":"address"}],"name":"SubscriptionPaused","type":"event"},{"anonymous":false,"inputs":[{"indexed":false,"internalType":"address","name":"caller","type":"address"}],"name":"SubscriptionUnpaused","type":"event"},{"inputs":[],"name":"BPS_DENOMINATOR","outputs":[{"internalType":"uint256","name":"","type":"uint256"}],"stateMutability":"view","type":"function"},{"inputs":[],"name":"DEFAULT_ADMIN_ROLE","outputs":[{"internalType":"bytes32","name":"","type":"bytes32"}],"stateMutability":"view","type":"function"},{"inputs":[],"name":"MANAGER_ADMIN","outputs":[{"internalType":"bytes32","name":"","type":"bytes32"}],"stateMutability":"view","type":"function"},{"inputs":[],"name":"PAUSER_ADMIN","outputs":[{"internalType":"bytes32","name":"","type":"bytes32"}],"stateMutability":"view","type":"function"},{"inputs":[],"name":"PRICE_ID_SETTER_ROLE","outputs":[{"internalType":"bytes32","name":"","type":"bytes32"}],"stateMutability":"view","type":"function"},{"inputs":[],"name":"RELAYER_ROLE","outputs":[{"internalType":"bytes32","name":"","type":"bytes32"}],"stateMutability":"view","type":"function"},{"inputs":[],"name":"TIMESTAMP_SETTER_ROLE","outputs":[{"internalType":"bytes32","name":"","type":"bytes32"}],"stateMutability":"view","type":"function"},{"inputs":[{"internalType":"bytes32","name":"txHash","type":"bytes32"},{"internalType":"address","name":"user","type":"address"},{"internalType":"uint256","name":"depositAmountAfterFee","type":"uint256"},{"internalType":"uint256","name":"feeAmount","type":"uint256"},{"internalType":"uint256","name":"timestamp","type":"uint256"}],"name":"addProof","outputs":[],"stateMutability":"nonpayable","type":"function"},{"inputs":[],"name":"assetRecipient","outputs":[{"internalType":"address","name":"","type":"address"}],"stateMutability":"view","type":"function"},{"inputs":[],"name":"assetSender","outputs":[{"internalType":"address","name":"","type":"address"}],"stateMutability":"view","type":"function"},{"inputs":[{"internalType":"bytes32[]","name":"depositIds","type":"bytes32[]"}],"name":"claimMint","outputs":[],"stateMutability":"nonpayable","type":"function"},{"inputs":[{"internalType":"bytes32[]","name":"redemptionIds","type":"bytes32[]"}],"name":"claimRedemption","outputs":[],"stateMutability":"nonpayable","type":"function"},{"inputs":[],"name":"collateral","outputs":[{"internalType":"contract IERC20","name":"","type":"address"}],"stateMutability":"view","type":"function"},{"inputs":[],"name":"decimalsMultiplier","outputs":[{"internalType":"uint256","name":"","type":"uint256"}],"stateMutability":"view","type":"function"},{"inputs":[{"internalType":"bytes32","name":"","type":"bytes32"}],"name":"depositIdToClaimableTimestamp","outputs":[{"internalType":"uint256","name":"","type":"uint256"}],"stateMutability":"view","type":"function"},{"inputs":[{"internalType":"bytes32","name":"","type":"bytes32"}],"name":"depositIdToDepositor","outputs":[{"internalType":"address","name":"user","type":"address"},{"internalType":"uint256","name":"amountDepositedMinusFees","type":"uint256"},{"internalType":"uint256","name":"priceId","type":"uint256"}],"stateMutability":"view","type":"function"},{"inputs":[],"name":"feeRecipient","outputs":[{"internalType":"address","name":"","type":"address"}],"stateMutability":"view","type":"function"},{"inputs":[{"internalType":"bytes32","name":"role","type":"bytes32"}],"name":"getRoleAdmin","outputs":[{"internalType":"bytes32","name":"","type":"bytes32"}],"stateMutability":"view","type":"function"},{"inputs":[{"internalType":"bytes32","name":"role","type":"bytes32"},{"internalType":"uint256","name":"index","type":"uint256"}],"name":"getRoleMember","outputs":[{"internalType":"address","name":"","type":"address"}],"stateMutability":"view","type":"function"},{"inputs":[{"internalType":"bytes32","name":"role","type":"bytes32"}],"name":"getRoleMemberCount","outputs":[{"internalType":"uint256","name":"","type":"uint256"}],"stateMutability":"view","type":"function"},{"inputs":[{"internalType":"bytes32","name":"role","type":"bytes32"},{"internalType":"address","name":"account","type":"address"}],"name":"grantRole","outputs":[],"stateMutability":"nonpayable","type":"function"},{"inputs":[{"internalType":"bytes32","name":"role","type":"bytes32"},{"internalType":"address","name":"account","type":"address"}],"name":"hasRole","outputs":[{"internalType":"bool","name":"","type":"bool"}],"stateMutability":"view","type":"function"},{"inputs":[],"name":"minimumDepositAmount","outputs":[{"internalType":"uint256","name":"","type":"uint256"}],"stateMutability":"view","type":"function"},{"inputs":[],"name":"minimumOffChainRedemptionAmount","outputs":[{"internalType":"uint256","name":"","type":"uint256"}],"stateMutability":"view","type":"function"},{"inputs":[],"name":"minimumRedemptionAmount","outputs":[{"internalType":"uint256","name":"","type":"uint256"}],"stateMutability":"view","type":"function"},{"inputs":[],"name":"mintFee","outputs":[{"internalType":"uint256","name":"","type":"uint256"}],"stateMutability":"view","type":"function"},{"inputs":[],"name":"offChainRedemptionPaused","outputs":[{"internalType":"bool","name":"","type":"bool"}],"stateMutability":"view","type":"function"},{"inputs":[{"internalType":"bytes32","name":"depositIdToOverwrite","type":"bytes32"},{"internalType":"address","name":"user","type":"address"},{"internalType":"uint256","name":"depositAmountAfterFee","type":"uint256"},{"internalType":"uint256","name":"priceId","type":"uint256"}],"name":"overwriteDepositor","outputs":[],"stateMutability":"nonpayable","type":"function"},{"inputs":[{"internalType":"bytes32","name":"redemptionIdToOverwrite","type":"bytes32"},{"internalType":"address","name":"user","type":"address"},{"internalType":"uint256","name":"rwaTokenAmountBurned","type":"uint256"},{"internalType":"uint256","name":"priceId","type":"uint256"}],"name":"overwriteRedeemer","outputs":[],"stateMutability":"nonpayable","type":"function"},{"inputs":[],"name":"pauseOffChainRedemption","outputs":[],"stateMutability":"nonpayable","type":"function"},{"inputs":[],"name":"pauseRedemption","outputs":[],"stateMutability":"nonpayable","type":"function"},{"inputs":[],"name":"pauseSubscription","outputs":[],"stateMutability":"nonpayable","type":"function"},{"inputs":[],"name":"pricer","outputs":[{"internalType":"contract IPricerReader","name":"","type":"address"}],"stateMutability":"view","type":"function"},{"inputs":[],"name":"redemptionFee","outputs":[{"internalType":"uint256","name":"","type":"uint256"}],"stateMutability":"view","type":"function"},{"inputs":[{"internalType":"bytes32","name":"","type":"bytes32"}],"name":"redemptionIdToRedeemer","outputs":[{"internalType":"address","name":"user","type":"address"},{"internalType":"uint256","name":"amountRwaTokenBurned","type":"uint256"},{"internalType":"uint256","name":"priceId","type":"uint256"}],"stateMutability":"view","type":"function"},{"inputs":[],"name":"redemptionPaused","outputs":[{"internalType":"bool","name":"","type":"bool"}],"stateMutability":"view","type":"function"},{"inputs":[],"name":"redemptionRequestCounter","outputs":[{"internalType":"uint256","name":"","type":"uint256"}],"stateMutability":"view","type":"function"},{"inputs":[{"internalType":"bytes32","name":"role","type":"bytes32"},{"internalType":"address","name":"account","type":"address"}],"name":"renounceRole","outputs":[],"stateMutability":"nonpayable","type":"function"},{"inputs":[{"internalType":"uint256","name":"amount","type":"uint256"}],"name":"requestRedemption","outputs":[],"stateMutability":"nonpayable","type":"function"},{"inputs":[{"internalType":"uint256","name":"amountRWATokenToRedeem","type":"uint256"},{"internalType":"bytes32","name":"offChainDestination","type":"bytes32"}],"name":"requestRedemptionServicedOffchain","outputs":[],"stateMutability":"nonpayable","type":"function"},{"inputs":[{"internalType":"uint256","name":"amount","type":"uint256"}],"name":"requestSubscription","outputs":[],"stateMutability":"nonpayable","type":"function"},{"inputs":[{"internalType":"bytes32","name":"role","type":"bytes32"},{"internalType":"address","name":"account","type":"address"}],"name":"revokeRole","outputs":[],"stateMutability":"nonpayable","type":"function"},{"inputs":[],"name":"rwa","outputs":[{"internalType":"contract IRWALike","name":"","type":"address"}],"stateMutability":"view","type":"function"},{"inputs":[{"internalType":"address","name":"newAssetSender","type":"address"}],"name":"setAssetSender","outputs":[],"stateMutability":"nonpayable","type":"function"},{"inputs":[{"internalType":"uint256","name":"claimTimestamp","type":"uint256"},{"internalType":"bytes32[]","name":"depositIds","type":"bytes32[]"}],"name":"setClaimableTimestamp","outputs":[],"stateMutability":"nonpayable","type":"function"},{"inputs":[{"internalType":"address","name":"newFeeRecipient","type":"address"}],"name":"setFeeRecipient","outputs":[],"stateMutability":"nonpayable","type":"function"},{"inputs":[{"internalType":"uint256","name":"minDepositAmount","type":"uint256"}],"name":"setMinimumDepositAmount","outputs":[],"stateMutability":"nonpayable","type":"function"},{"inputs":[{"internalType":"uint256","name":"_minimumRedemptionAmount","type":"uint256"}],"name":"setMinimumRedemptionAmount","outputs":[],"stateMutability":"nonpayable","type":"function"},{"inputs":[{"internalType":"uint256","name":"_mintFee","type":"uint256"}],"name":"setMintFee","outputs":[],"stateMutability":"nonpayable","type":"function"},{"inputs":[{"internalType":"uint256","name":"_minimumOffChainRedemptionAmount","type":"uint256"}],"name":"setOffChainRedemptionMinimum","outputs":[],"stateMutability":"nonpayable","type":"function"},{"inputs":[{"internalType":"bytes32[]","name":"depositIds","type":"bytes32[]"},{"internalType":"uint256[]","name":"priceIds","type":"uint256[]"}],"name":"setPriceIdForDeposits","outputs":[],"stateMutability":"nonpayable","type":"function"},{"inputs":[{"internalType":"bytes32[]","name":"redemptionIds","type":"bytes32[]"},{"internalType":"uint256[]","name":"priceIds","type":"uint256[]"}],"name":"setPriceIdForRedemptions","outputs":[],"stateMutability":"nonpayable","type":"function"},{"inputs":[{"internalType":"address","name":"newPricer","type":"address"}],"name":"setPricer","outputs":[],"stateMutability":"nonpayable","type":"function"},{"inputs":[{"internalType":"uint256","name":"_redemptionFee","type":"uint256"}],"name":"setRedemptionFee","outputs":[],"stateMutability":"nonpayable","type":"function"},{"inputs":[],"name":"subscriptionPaused","outputs":[{"internalType":"bool","name":"","type":"bool"}],"stateMutability":"view","type":"function"},{"inputs":[],"name":"subscriptionRequestCounter","outputs":[{"internalType":"uint256","name":"","type":"uint256"}],"stateMutability":"view","type":"function"},{"inputs":[{"internalType":"bytes4","name":"interfaceId","type":"bytes4"}],"name":"supportsInterface","outputs":[{"internalType":"bool","name":"","type":"bool"}],"stateMutability":"view","type":"function"},{"inputs":[],"name":"unpauseOffChainRedemption","outputs":[],"stateMutability":"nonpayable","type":"function"},{"inputs":[],"name":"unpauseRedemption","outputs":[],"stateMutability":"nonpayable","type":"function"},{"inputs":[],"name":"unpauseSubscription","outputs":[],"stateMutability":"nonpayable","type":"function"}],"devdoc":{"kind":"dev","methods":{"addProof(bytes32,address,uint256,uint256,uint256)":{"details":"txHash is used as the depositId in storageAll amounts are in decimals of `collateral`","params":{"depositAmountAfterFee":"The amount of the deposit after fees","feeAmount":"The amount of the fees taken","timestamp":"The timestamp of the deposit","txHash":"The transaction hash of the deposit","user":"The address of the user who made the deposit"}},"claimMint(bytes32[])":{"details":"Implicitly does all transfer checks present in underlying `rwa`The priceId corresponding to a given depositId must be set prior to      claiming a mint","params":{"depositIds":"An array containing the deposit Ids one wishes to claim"}},"claimRedemption(bytes32[])":{"details":"Implicitly does all checks present in underlying `rwa`The price Id corresponding to a redemptionId must be set prior to      claiming a redemption","params":{"redemptionIds":"an Array of redemption Id's which ought to fulfilled"}},"getRoleAdmin(bytes32)":{"details":"Returns the admin role that controls `role`. See {grantRole} and {revokeRole}. To change a role's admin, use {_setRoleAdmin}."},"getRoleMember(bytes32,uint256)":{"details":"Returns one of the accounts that have `role`. `index` must be a value between 0 and {getRoleMemberCount}, non-inclusive. Role bearers are not sorted in any particular way, and their ordering may change at any point. WARNING: When using {getRoleMember} and {getRoleMemberCount}, make sure you perform all queries on the same block. See the following https://forum.openzeppelin.com/t/iterating-over-elements-on-enumerableset-in-openzeppelin-contracts/2296[forum post] for more information."},"getRoleMemberCount(bytes32)":{"details":"Returns the number of accounts that have `role`. Can be used together with {getRoleMember} to enumerate all bearers of a role."},"grantRole(bytes32,address)":{"details":"Grants `role` to `account`. If `account` had not been already granted `role`, emits a {RoleGranted} event. Requirements: - the caller must have ``role``'s admin role."},"hasRole(bytes32,address)":{"details":"Returns `true` if `account` has been granted `role`."},"overwriteDepositor(bytes32,address,uint256,uint256)":{"params":{"depositAmountAfterFee":"The deposit value for the new entry","depositIdToOverwrite":"The depositId of the entry we wish to                              overwrite","priceId":"The priceId to be associated with the new                              entry","user":"The user for the new entry"}},"overwriteRedeemer(bytes32,address,uint256,uint256)":{"params":{"priceId":"The priceID to be associated with the new                                entry","redemptionIdToOverwrite":"The redemptionId of the entry we wish to                                overwrite","rwaTokenAmountBurned":"The burn amount for the new entry","user":"The user for the new entry"}},"renounceRole(bytes32,address)":{"details":"Revokes `role` from the calling account. Roles are often managed via {grantRole} and {revokeRole}: this function's purpose is to provide a mechanism for accounts to lose their privileges if they are compromised (such as when a trusted device is misplaced). If the calling account had been revoked `role`, emits a {RoleRevoked} event. Requirements: - the caller must be `account`."},"requestRedemption(uint256)":{"params":{"amount":"The amount (in units of `rwa`) that a user wishes to redeem               from the fund"}},"requestRedemptionServicedOffchain(uint256,bytes32)":{"params":{"amountRWATokenToRedeem":"The requested redemption amount","offChainDestination":"A hash of the destination to which                               the request should be serviced to."}},"requestSubscription(uint256)":{"params":{"amount":"The amount of collateral one wished to deposit"}},"revokeRole(bytes32,address)":{"details":"Revokes `role` from `account`. If `account` had been granted `role`, emits a {RoleRevoked} event. Requirements: - the caller must have ``role``'s admin role."},"setAssetSender(address)":{"params":{"newAssetSender":"The address of the new `assetSender`"}},"setClaimableTimestamp(uint256,bytes32[])":{"params":{"claimTimestamp":"The timestamp at which the deposit can be claimed","depositIds":"The depositIds to set the claimable timestamp for"}},"setFeeRecipient(address)":{"params":{"newFeeRecipient":"The address of the new `feeRecipient`"}},"setMinimumDepositAmount(uint256)":{"params":{"minDepositAmount":"The minimum amount required to submit a deposit                         request"}},"setMinimumRedemptionAmount(uint256)":{"params":{"_minimumRedemptionAmount":"The minimum amount required to submit a                                 redemption request"}},"setMintFee(uint256)":{"details":"The maximum fee that can be set is 10_000 bps, or 100%","params":{"_mintFee":"The new mint fee specified in basis points"}},"setOffChainRedemptionMinimum(uint256)":{"params":{"_minimumOffChainRedemptionAmount":"The new minimum off chain                                         redemption amount"}},"setPriceIdForDeposits(bytes32[],uint256[])":{"details":"Array size must match","params":{"depositIds":"an Array of deposit Ids to be associated","priceIds":"an Array of price Ids to be associated"}},"setPriceIdForRedemptions(bytes32[],uint256[])":{"params":{"priceIds":"an Array of priceIds to associate","redemptionIds":"an Array of redemptionIds to associate"}},"setPricer(address)":{"params":{"newPricer":"The address of the new pricer contract"}},"setRedemptionFee(uint256)":{"details":"The maximum fee that can be set is 10_000 bps, or 100%","params":{"_redemptionFee":"The new redeem fee specified in basis points"}},"supportsInterface(bytes4)":{"details":"See {IERC165-supportsInterface}."}},"version":1},"evm":{"bytecode":{"linkReferences":{},"object":"60e06040526000600a556000600b556001600c556001600d553480156200002557600080fd5b506040516200349f3803806200349f833981016040819052620000489162000510565b6001600055888888888888888887878787878787876001600160a01b038816620000855760405163a1aeceb760e01b815260040160405180910390fd5b6001600160a01b038716620000ad5760405163071aeb1d60e01b815260040160405180910390fd5b6001600160a01b038416620000d557604051633b2b1d5560e01b815260040160405180910390fd5b6001600160a01b038316620000fd57604051634fdcfc5560e11b815260040160405180910390fd5b6200010a60008762000368565b620001256000805160206200347f8339815191528762000368565b620001406000805160206200343f8339815191528662000368565b6200015b6000805160206200345f8339815191528762000368565b620001877fced4eb9faeb19ab0e2e05a20ade58d82157e1035a3fbff4bc38dd5e609f22b938762000368565b620001b16000805160206200343f8339815191526000805160206200347f833981519152620003ab565b620001db6000805160206200345f8339815191526000805160206200347f833981519152620003ab565b620002167fe2b7fb3b832174769106daebcfd6d1970523240dda11281102db9363b83b0dc46000805160206200347f833981519152620003ab565b6001600160a01b0388811660a0819052888216608052600580546001600160a01b03199081168785161790915560048054909116928716929092178255600884905560098390556040805163313ce56760e01b81529051919263313ce5679282820192602092908290030181865afa15801562000297573d6000803e3d6000fd5b505050506040513d601f19601f82011682018060405250810190620002bd9190620005b9565b876001600160a01b031663313ce5676040518163ffffffff1660e01b8152600401602060405180830381865afa158015620002fc573d6000803e3d6000fd5b505050506040513d601f19601f82011682018060405250810190620003229190620005b9565b6200032e9190620005fb565b6200033b90600a62000714565b60c08181525050505050505050505080600f81905550505050505050505050505050505050505062000725565b6200037f8282620003f860201b62001c531760201c565b6000828152600260209081526040909120620003a691839062001cbe62000481821b17901c565b505050565b6000828152600160208190526040808320909101805490849055905190918391839186917fbd79b86ffe0ab8e8776151514217cd7cacd52c909f66475c3af44e129f0b00ff9190a4505050565b60008281526001602090815260408083206001600160a01b038516845290915290205460ff166200047d5760008281526001602081815260408084206001600160a01b0386168086529252808420805460ff19169093179092559051339285917f2f8788117e7eff1d82e926ec794901d17c78024a50270940304540a733656f0d9190a45b5050565b600062000498836001600160a01b038416620004a1565b90505b92915050565b6000818152600183016020526040812054620004ea575081546001818101845560008481526020808220909301849055845484825282860190935260409020919091556200049b565b5060006200049b565b80516001600160a01b03811681146200050b57600080fd5b919050565b60008060008060008060008060006101208a8c0312156200053057600080fd5b6200053b8a620004f3565b98506200054b60208b01620004f3565b97506200055b60408b01620004f3565b96506200056b60608b01620004f3565b95506200057b60808b01620004f3565b94506200058b60a08b01620004f3565b935060c08a0151925060e08a01519150620005aa6101008b01620004f3565b90509295985092959850929598565b600060208284031215620005cc57600080fd5b815160ff81168114620005de57600080fd5b9392505050565b634e487b7160e01b600052601160045260246000fd5b60ff82811682821603908111156200049b576200049b620005e5565b600181815b80851115620006585781600019048211156200063c576200063c620005e5565b808516156200064a57918102915b93841c93908002906200061c565b509250929050565b60008262000671575060016200049b565b8162000680575060006200049b565b8160018114620006995760028114620006a457620006c4565b60019150506200049b565b60ff841115620006b857620006b8620005e5565b50506001821b6200049b565b5060208310610133831016604e8410600b8410161715620006e9575081810a6200049b565b620006f5838362000617565b80600019048211156200070c576200070c620005e5565b029392505050565b60006200049860ff84168362000660565b60805160a05160c051612cc06200077f6000396000818161069f015261254c0152600081816107390152818161162a015261166201526000818161063701528181611a5601528181611ba201526122410152612cc06000f3fe608060405234801561001057600080fd5b50600436106103245760003560e01c80638a07df1e116101a9578063d0c835ce116100ef578063e1a452181161009d578063e1a452181461078a578063e4107c9714610793578063e74b981b146107a6578063eddd0d9c146107b9578063ee75d7d4146107cc578063eeb3c910146107df578063f4a20307146107f2578063f80a36d61461081957600080fd5b8063d0c835ce146106fb578063d547741f1461070e578063d592d81514610721578063d8dfeb4514610734578063dd45eef61461075b578063de6afa821461076e578063e0f486ef1461078157600080fd5b8063a217fddf11610157578063a217fddf14610659578063a6138ed914610661578063aa85c1df14610674578063aab483d614610687578063bb13245f1461069a578063bcc70283146106c1578063ca15c873146106d6578063cd4d0bcf146106e957600080fd5b80638a07df1e146105b55780638d044c06146105d55780639010d07c146105dd57806391d14854146105f0578063926d7d7f1461060357806392bccb801461062a57806395e4b2511461063257600080fd5b806338fed7081161026e5780634ef1ccd11161021c5780634ef1ccd114610506578063525decd6146105195780635d591d681461052c57806373a95ddd146105655780637dbc1df014610572578063837018fa1461058557806385c4e79e1461058d57806387e2d06e146105a257600080fd5b806338fed708146104415780633bfa67fe1461049f5780634565e9ff146104c7578063458f5815146104da57806346904840146104e357806349cbbf2a146104f65780634dfe7af2146104fe57600080fd5b8063244f5acf116102d6578063244f5acf146103a2578063248a9ca3146103b5578063258492cd146103d957806329390370146103ec5780632b5eceff146103ff5780632f2ff15d14610412578063354181f31461042557806336568abe1461042e57600080fd5b806301ffc9a714610329578063078a6be81461035157806307bda1bb14610374578063080c279a1461037d57806312589fb51461038657806313966db51461038f5780632056aa1214610398575b600080fd5b61033c6103373660046126db565b61082c565b60405190151581526020015b60405180910390f35b610366600080516020612c6b83398151915281565b604051908152602001610348565b610366600c5481565b61036660085481565b610366600f5481565b610366600a5481565b6103a0610857565b005b6103a06103b0366004612751565b6108ba565b6103666103c3366004612793565b6000908152600160208190526040909120015490565b6103a06103e73660046127c8565b610919565b6103a06103fa366004612803565b610a68565b6103a061040d36600461281e565b610ae1565b6103a0610420366004612864565b610be5565b610366600d5481565b6103a061043c366004612864565b610c11565b61047a61044f366004612793565b6007602052600090815260409020805460018201546002909201546001600160a01b03909116919083565b604080516001600160a01b039094168452602084019290925290820152606001610348565b6104ba730686b3a7b9be2751bb51084a6e0e7db7f1746eb181565b6040516103489190612890565b6103a06104d5366004612751565b610c8f565b610366600b5481565b6005546104ba906001600160a01b031681565b6103a0610d29565b6103a0610d83565b6103a0610514366004612793565b610dd8565b6103a0610527366004612803565b610e52565b61047a61053a366004612793565b6006602052600090815260409020805460018201546002909201546001600160a01b03909116919083565b600e5461033c9060ff1681565b6103a0610580366004612793565b610ebe565b6103a0610f38565b610366600080516020612c2b83398151915281565b6103a06105b03660046128a4565b610f8c565b6103666105c3366004612793565b60106020526000908152604090205481565b6103a061113a565b6104ba6105eb366004612910565b61118d565b61033c6105fe366004612864565b6111ac565b6103667fe2b7fb3b832174769106daebcfd6d1970523240dda11281102db9363b83b0dc481565b6103a06111d7565b6104ba7f000000000000000000000000000000000000000000000000000000000000000081565b610366600081565b6003546104ba906001600160a01b031681565b6103a06106823660046128a4565b61122d565b6103a0610695366004612793565b611379565b6103667f000000000000000000000000000000000000000000000000000000000000000081565b610366600080516020612c4b83398151915281565b6103666106e4366004612793565b6113f3565b600e5461033c90610100900460ff1681565b6103a0610709366004612932565b61140a565b6103a061071c366004612864565b6114f0565b6103a061072f366004612793565b611517565b6104ba7f000000000000000000000000000000000000000000000000000000000000000081565b600e5461033c9062010000900460ff1681565b6103a061077c3660046127c8565b6116ef565b61036660095481565b61036661271081565b6103a06107a1366004612793565b61182e565b6103a06107b4366004612803565b611885565b6103a06107c7366004612793565b6118f0565b6004546104ba906001600160a01b031681565b6103a06107ed366004612793565b61196a565b6103667fced4eb9faeb19ab0e2e05a20ade58d82157e1035a3fbff4bc38dd5e609f22b9381565b6103a0610827366004612910565b611afe565b60006001600160e01b03198216635a05180f60e01b1480610851575061085182611cd3565b92915050565b600080516020612c2b8339815191526108708133611d08565b600e805461ff0019166101001790556040517fcd71257f2998474633e94cfffa045014068f6218ffdca256b6f4aa9d5f15fb89906108af903390612890565b60405180910390a150565b6002600054036108e55760405162461bcd60e51b81526004016108dc9061297e565b60405180910390fd5b6002600055600e5460ff16801561090f5760405163aadfaddd60e01b815260040160405180910390fd5b5050600160005550565b600080516020612c6b8339815191526109328133611d08565b6000600760008781526020019081526020016000206040518060600160405290816000820160009054906101000a90046001600160a01b03166001600160a01b03166001600160a01b031681526020016001820154815260200160028201548152505090506040518060600160405280866001600160a01b03168152602001858152602001848152506007600088815260200190815260200160002060008201518160000160006101000a8154816001600160a01b0302191690836001600160a01b031602179055506020820151816001015560408201518160020155905050857f5a0c55c421ae3aac2379811eca16aaee32b6e64411322b624118d4219b9350a082600001518784604001518786602001518a604051610a58969594939291906129b5565b60405180910390a2505050505050565b600080516020612c6b833981519152610a818133611d08565b600380546001600160a01b038481166001600160a01b03198316179092556040519116907f801352e72ef9b80b3992ccbedf07ab0e133e7da7aaccf0024abf23f4f32eb99a90610ad490839086906129eb565b60405180910390a1505050565b7fe2b7fb3b832174769106daebcfd6d1970523240dda11281102db9363b83b0dc4610b0c8133611d08565b6000868152600660205260409020546001600160a01b031615610b4257604051631aeecebf60e21b815260040160405180910390fd5b60408051606080820183526001600160a01b0388811680845260208085018a815260008688018181528e82526006845290889020965187546001600160a01b031916951694909417865551600186015591516002909401939093558351888152908101879052928301859052909188917fc985471d1cb1bb75da0d54fa5ab10f7171e952cefcc0bf4fc7c2546c19d1811f910160405180910390a3505050505050565b60008281526001602081905260409091200154610c028133611d08565b610c0c8383611d6c565b505050565b6001600160a01b0381163314610c815760405162461bcd60e51b815260206004820152602f60248201527f416363657373436f6e74726f6c3a2063616e206f6e6c792072656e6f756e636560448201526e103937b632b9903337b91039b2b63360891b60648201526084016108dc565b610c8b8282611d8e565b5050565b600260005403610cb15760405162461bcd60e51b81526004016108dc9061297e565b6002600055600e54610100900460ff168015610ce05760405163aadfaddd60e01b815260040160405180910390fd5b8160005b81811015610d1d57610d0d858583818110610d0157610d01612a05565b90506020020135611db0565b610d1681612a31565b9050610ce4565b50506001600055505050565b600080516020612c2b833981519152610d428133611d08565b600e805462ff00001916620100001790556040517fdc41a92196ccc1ab8149c01bc68c2f506b10a7bb5cd2693c9516d176f5381ff4906108af903390612890565b600080516020612c6b833981519152610d9c8133611d08565b600e805462ff0000191690556040517f53a8c40fc17c78d38e2c06aa8d2c550c1acbf7b30d087dbda289ab3dd41c235c906108af903390612890565b600080516020612c6b833981519152610df18133611d08565b612710821015610e145760405163617ab12d60e11b815260040160405180910390fd5b600980549083905560408051828152602081018590527ffdaf6ed728cef208e62328a008209556f8281f3062b14dd08aaaa90fa15942119101610ad4565b600080516020612c6b833981519152610e6b8133611d08565b600480546001600160a01b038481166001600160a01b03198316179092556040519116907fb09f298b2812193d5ada18beaadd6cb8f12b3640926d99de46e2a65394df829d90610ad490839086906129eb565b600080516020612c6b833981519152610ed78133611d08565b612710821115610efa57604051637e2df70960e11b815260040160405180910390fd5b600b80549083905560408051828152602081018590527f2956acfe8584fb02384e06c675ee215bf10d55c3de1e6ff9b2f621e8a40c64709101610ad4565b600080516020612c6b833981519152610f518133611d08565b600e805461ff00191690556040517f94482ee2b195c365dbbc2d689fd5a088d2b219abe44360ba8895525c9471d66f906108af903390612890565b600080516020612c4b833981519152610fa58133611d08565b83828114610fc65760405163cc6e40b360e01b815260040160405180910390fd5b60005b81811015611131576000600681898985818110610fe857610fe8612a05565b60209081029290920135835250810191909152604001600020546001600160a01b031603611029576040516305a8a45b60e41b815260040160405180910390fd5b6006600088888481811061103f5761103f612a05565b9050602002013581526020019081526020016000206002015460001461107857604051631139f30960e31b815260040160405180910390fd5b84848281811061108a5761108a612a05565b90506020020135600660008989858181106110a7576110a7612a05565b905060200201358152602001908152602001600020600201819055508484828181106110d5576110d5612a05565b905060200201358787838181106110ee576110ee612a05565b905060200201357fc2055184bbc2d10b90bf7df17a84f8bdda6b52377a976e41e0c1610fffafc0d760405160405180910390a361112a81612a31565b9050610fc9565b50505050505050565b600080516020612c6b8339815191526111538133611d08565b600e805460ff191690556040517fc641b9c4afa539cedcbe2e5f3e47d9f092175b5d0b8ae72dffa634a3eb3e47e4906108af903390612890565b60008281526002602052604081206111a59083611e27565b9392505050565b60009182526001602090815260408084206001600160a01b0393909316845291905290205460ff1690565b600080516020612c2b8339815191526111f08133611d08565b600e805460ff191660011790556040517f71e0406677c0570b2a66b1a4feeccf5c1cba2d6729435461e27a312b15410d04906108af903390612890565b600080516020612c4b8339815191526112468133611d08565b838281146112675760405163cc6e40b360e01b815260040160405180910390fd5b60005b81811015611131576007600088888481811061128857611288612a05565b905060200201358152602001908152602001600020600201546000146112c157604051631139f30960e31b815260040160405180910390fd5b8484828181106112d3576112d3612a05565b90506020020135600760008989858181106112f0576112f0612a05565b9050602002013581526020019081526020016000206002018190555084848281811061131e5761131e612a05565b9050602002013587878381811061133757611337612a05565b905060200201357e05e86a70f400d1820ab5a0573a2be911d831ab28fe2e9448b34daab223b09c60405160405180910390a361137281612a31565b905061126a565b600080516020612c6b8339815191526113928133611d08565b6127108210156113b55760405163617ab12d60e11b815260040160405180910390fd5b600880549083905560408051828152602081018590527fe6e25add7363f8f8a40cbea9810d3115a33703b10972ef759104219b006574369101610ad4565b600081815260026020526040812061085190611e33565b7fced4eb9faeb19ab0e2e05a20ade58d82157e1035a3fbff4bc38dd5e609f22b936114358133611d08565b428410156114565760405163209768a360e11b815260040160405180910390fd5b8160005b818110156114e857856010600087878581811061147957611479612a05565b905060200201358152602001908152602001600020819055508484828181106114a4576114a4612a05565b90506020020135867f15d20a98e8d4b1247fc51e2f6817929874a0769087776e52268eb1b4c8bdb2dd60405160405180910390a36114e181612a31565b905061145a565b505050505050565b6000828152600160208190526040909120015461150d8133611d08565b610c0c8383611d8e565b6002600054036115395760405162461bcd60e51b81526004016108dc9061297e565b6002600055600e54610100900460ff1680156115685760405163aadfaddd60e01b815260040160405180910390fd5b60085482101561158b57604051636ba4a1c760e01b815260040160405180910390fd5b600061159683611e3d565b905060006115a48285612a4a565b600c805491925060009190826115b983612a31565b909155506040805160608101825233815260208082018681526000838501818152868252600690935293909320915182546001600160a01b0319166001600160a01b039091161782559151600182015590516002909101559050821561165557600554611655906001600160a01b037f000000000000000000000000000000000000000000000000000000000000000081169133911686611e5a565b61169e6001600160a01b037f00000000000000000000000000000000000000000000000000000000000000001633730686b3a7b9be2751bb51084a6e0e7db7f1746eb185611e5a565b6040805186815260208101849052908101849052819033907f7cbce37c7b11d322316420484f40c29ce672ad3fa16752551a3dbe6ccfa04e149060600160405180910390a350506001600055505050565b600080516020612c6b8339815191526117088133611d08565b6000600660008781526020019081526020016000206040518060600160405290816000820160009054906101000a90046001600160a01b03166001600160a01b03166001600160a01b031681526020016001820154815260200160028201548152505090506040518060600160405280866001600160a01b03168152602001858152602001848152506006600088815260200190815260200160002060008201518160000160006101000a8154816001600160a01b0302191690836001600160a01b031602179055506020820151816001015560408201518160020155905050857f7e506b1f11218d4c947d5a59a97fd996c42afc2b024b6aeaec050930eb2b339982600001518784604001518786602001518a604051610a58969594939291906129b5565b600080516020612c6b8339815191526118478133611d08565b600f80549083905560408051828152602081018590527f1071422bad736c3651d3d3b7a4eda70e84e9c85a08f21c955d79ded03bbf06bb9101610ad4565b600080516020612c6b83398151915261189e8133611d08565b600580546001600160a01b038481166001600160a01b0319831681179093556040519116917f15d80a013f22151bc7246e3bc132e12828cde19de98870475e3fa7084015272191610ad49184916129eb565b600080516020612c6b8339815191526119098133611d08565b61271082111561192c57604051637e2df70960e11b815260040160405180910390fd5b600a80549083905560408051828152602081018590527f387269377ae17304805d5f88cea4252e5ca47346783c279aeb9e8627335a49ac9101610ad4565b60026000540361198c5760405162461bcd60e51b81526004016108dc9061297e565b6002600055600e5460ff1680156119b65760405163aadfaddd60e01b815260040160405180910390fd5b6009548210156119d95760405163595bd39f60e11b815260040160405180910390fd5b600d8054600091826119ea83612a31565b909155506040805160608101825233808252602080830188815260008486018181528782526007909352859020935184546001600160a01b0319166001600160a01b03918216178555905160018501559051600290930192909255915163079cc67960e41b81529293507f000000000000000000000000000000000000000000000000000000000000000016916379cc679091611a8b918790600401612a5d565b600060405180830381600087803b158015611aa557600080fd5b505af1158015611ab9573d6000803e3d6000fd5b50506040518581528392503391507f80ebb30e7c30052bf403a20da869bdd033841684e93930d97c4af74238529b4f9060200160405180910390a35050600160005550565b600260005403611b205760405162461bcd60e51b81526004016108dc9061297e565b6002600055600e5462010000900460ff168015611b505760405163aadfaddd60e01b815260040160405180910390fd5b600f54831015611b735760405163595bd39f60e11b815260040160405180910390fd5b600d805460009182611b8483612a31565b9091555060405163079cc67960e41b81529091506001600160a01b037f000000000000000000000000000000000000000000000000000000000000000016906379cc679090611bd99033908890600401612a5d565b600060405180830381600087803b158015611bf357600080fd5b505af1158015611c07573d6000803e3d6000fd5b505060408051878152602081018790528493503392507fad2102c6abc98f954bd5d61e6c0d19764db331f63019296309309a34f70e66a6910160405180910390a3505060016000555050565b611c5d82826111ac565b610c8b5760008281526001602081815260408084206001600160a01b0386168086529252808420805460ff19169093179092559051339285917f2f8788117e7eff1d82e926ec794901d17c78024a50270940304540a733656f0d9190a45050565b60006111a5836001600160a01b038416611eba565b60006001600160e01b03198216637965db0b60e01b148061085157506301ffc9a760e01b6001600160e01b0319831614610851565b611d1282826111ac565b610c8b57611d2a816001600160a01b03166014611f09565b611d35836020611f09565b604051602001611d46929190612a9a565b60408051601f198184030181529082905262461bcd60e51b82526108dc91600401612b09565b611d768282611c53565b6000828152600260205260409020610c0c9082611cbe565b611d9882826120a5565b6000828152600260205260409020610c0c908261210c565b6000818152601060205260408120549003611dde57604051630ad2496160e31b815260040160405180910390fd5b600081815260106020526040902054421015611e0d5760405163309b0bcf60e21b815260040160405180910390fd5b611e1681612121565b600090815260106020526040812055565b60006111a58383612315565b6000610851825490565b6000612710600a5483611e509190612b3c565b6108519190612b5b565b604080516001600160a01b0385811660248301528416604482015260648082018490528251808303909101815260849091019091526020810180516001600160e01b03166323b872dd60e01b179052611eb490859061233f565b50505050565b6000818152600183016020526040812054611f0157508154600181810184556000848152602080822090930184905584548482528286019093526040902091909155610851565b506000610851565b60606000611f18836002612b3c565b611f23906002612b7d565b67ffffffffffffffff811115611f3b57611f3b612b90565b6040519080825280601f01601f191660200182016040528015611f65576020820181803683370190505b509050600360fc1b81600081518110611f8057611f80612a05565b60200101906001600160f81b031916908160001a905350600f60fb1b81600181518110611faf57611faf612a05565b60200101906001600160f81b031916908160001a9053506000611fd3846002612b3c565b611fde906001612b7d565b90505b6001811115612056576f181899199a1a9b1b9c1cb0b131b232b360811b85600f166010811061201257612012612a05565b1a60f81b82828151811061202857612028612a05565b60200101906001600160f81b031916908160001a90535060049490941c9361204f81612ba6565b9050611fe1565b5083156111a55760405162461bcd60e51b815260206004820181905260248201527f537472696e67733a20686578206c656e67746820696e73756666696369656e7460448201526064016108dc565b6120af82826111ac565b15610c8b5760008281526001602090815260408083206001600160a01b0385168085529252808320805460ff1916905551339285917ff6391f5c32d9c69d2a47ea670b442974b53935d1edc7fd64eb21e047a839171b9190a45050565b60006111a5836001600160a01b038416612411565b6000818152600660209081526040808320815160608101835281546001600160a01b031681526001820154938101939093526002015490820181905290910361217d57604051638718c77160e01b815260040160405180910390fd5b6003546040828101519051630e75722360e41b815260048101919091526000916001600160a01b03169063e757223090602401602060405180830381865afa1580156121cd573d6000803e3d6000fd5b505050506040513d601f19601f820116820180604052508101906121f19190612bbd565b90506000612203836020015183612504565b60008581526006602052604080822080546001600160a01b03191681556001810183905560020191909155845190516340c10f1960e01b81529192507f00000000000000000000000000000000000000000000000000000000000000006001600160a01b0316916340c10f199161227e918590600401612a5d565b600060405180830381600087803b15801561229857600080fd5b505af11580156122ac573d6000803e3d6000fd5b50508451602080870151604080890151815188815293840192909252820187905260608201528793506001600160a01b0390911691507fdd602cc9cb236502fb74f091872b4025184011dd96eee41099caa260842f20249060800160405180910390a350505050565b600082600001828154811061232c5761232c612a05565b9060005260206000200154905092915050565b6000612394826040518060400160405280602081526020017f5361666545524332303a206c6f772d6c6576656c2063616c6c206661696c6564815250856001600160a01b03166125369092919063ffffffff16565b805190915015610c0c57808060200190518101906123b29190612bd6565b610c0c5760405162461bcd60e51b815260206004820152602a60248201527f5361666545524332303a204552433230206f7065726174696f6e20646964206e6044820152691bdd081cdd58d8d9595960b21b60648201526084016108dc565b600081815260018301602052604081205480156124fa576000612435600183612a4a565b855490915060009061244990600190612a4a565b90508181146124ae57600086600001828154811061246957612469612a05565b906000526020600020015490508087600001848154811061248c5761248c612a05565b6000918252602080832090910192909255918252600188019052604090208390555b85548690806124bf576124bf612bf8565b600190038181906000526020600020016000905590558560010160008681526020019081526020016000206000905560019350505050610851565b6000915050610851565b60008061251084612545565b61252290670de0b6b3a7640000612b3c565b905061252e8382612b5b565b949350505050565b606061252e8484600085612571565b60006108517f000000000000000000000000000000000000000000000000000000000000000083612b3c565b6060824710156125d25760405162461bcd60e51b815260206004820152602660248201527f416464726573733a20696e73756666696369656e742062616c616e636520666f6044820152651c8818d85b1b60d21b60648201526084016108dc565b6001600160a01b0385163b6126295760405162461bcd60e51b815260206004820152601d60248201527f416464726573733a2063616c6c20746f206e6f6e2d636f6e747261637400000060448201526064016108dc565b600080866001600160a01b031685876040516126459190612c0e565b60006040518083038185875af1925050503d8060008114612682576040519150601f19603f3d011682016040523d82523d6000602084013e612687565b606091505b50915091506126978282866126a2565b979650505050505050565b606083156126b15750816111a5565b8251156126c15782518084602001fd5b8160405162461bcd60e51b81526004016108dc9190612b09565b6000602082840312156126ed57600080fd5b81356001600160e01b0319811681146111a557600080fd5b60008083601f84011261271757600080fd5b50813567ffffffffffffffff81111561272f57600080fd5b6020830191508360208260051b850101111561274a57600080fd5b9250929050565b6000806020838503121561276457600080fd5b823567ffffffffffffffff81111561277b57600080fd5b61278785828601612705565b90969095509350505050565b6000602082840312156127a557600080fd5b5035919050565b80356001600160a01b03811681146127c357600080fd5b919050565b600080600080608085870312156127de57600080fd5b843593506127ee602086016127ac565b93969395505050506040820135916060013590565b60006020828403121561281557600080fd5b6111a5826127ac565b600080600080600060a0868803121561283657600080fd5b85359450612846602087016127ac565b94979496505050506040830135926060810135926080909101359150565b6000806040838503121561287757600080fd5b82359150612887602084016127ac565b90509250929050565b6001600160a01b0391909116815260200190565b600080600080604085870312156128ba57600080fd5b843567ffffffffffffffff808211156128d257600080fd5b6128de88838901612705565b909650945060208701359150808211156128f757600080fd5b5061290487828801612705565b95989497509550505050565b6000806040838503121561292357600080fd5b50508035926020909101359150565b60008060006040848603121561294757600080fd5b83359250602084013567ffffffffffffffff81111561296557600080fd5b61297186828701612705565b9497909650939450505050565b6020808252601f908201527f5265656e7472616e637947756172643a207265656e7472616e742063616c6c00604082015260600190565b6001600160a01b03968716815294909516602085015260408401929092526060830152608082015260a081019190915260c00190565b6001600160a01b0392831681529116602082015260400190565b634e487b7160e01b600052603260045260246000fd5b634e487b7160e01b600052601160045260246000fd5b600060018201612a4357612a43612a1b565b5060010190565b8181038181111561085157610851612a1b565b6001600160a01b03929092168252602082015260400190565b60005b83811015612a91578181015183820152602001612a79565b50506000910152565b76020b1b1b2b9b9a1b7b73a3937b61d1030b1b1b7bab73a1604d1b815260008351612acc816017850160208801612a76565b7001034b99036b4b9b9b4b733903937b6329607d1b6017918401918201528351612afd816028840160208801612a76565b01602801949350505050565b6020815260008251806020840152612b28816040850160208701612a76565b601f01601f19169190910160400192915050565b6000816000190483118215151615612b5657612b56612a1b565b500290565b600082612b7857634e487b7160e01b600052601260045260246000fd5b500490565b8082018082111561085157610851612a1b565b634e487b7160e01b600052604160045260246000fd5b600081612bb557612bb5612a1b565b506000190190565b600060208284031215612bcf57600080fd5b5051919050565b600060208284031215612be857600080fd5b815180151581146111a557600080fd5b634e487b7160e01b600052603160045260246000fd5b60008251612c20818460208701612a76565b919091019291505056fe9ac2c43e905fe4f0c030a0b0e4b805a284e79da32a5c9c71be1c68dd79bbb89d830a9081649e91840eb0274e99b47626a896cfa0f4dd591cb31cd5060e566c0d8c6dd8af24db306eb580672d47cf7dd23b8394bf74074f8ac14b948512ecdb03a2646970667358221220a5f01a3b62dfa9f17c04b2f1f1343fbb1dabd04d0fd0e497dfe972ef494d917464736f6c634300081000339ac2c43e905fe4f0c030a0b0e4b805a284e79da32a5c9c71be1c68dd79bbb89d830a9081649e91840eb0274e99b47626a896cfa0f4dd591cb31cd5060e566c0d8c6dd8af24db306eb580672d47cf7dd23b8394bf74074f8ac14b948512ecdb03","opcodes":"PUSH1 0xE0 PUSH1 0x40 MSTORE PUSH1 0x0 PUSH1 0xA SSTORE PUSH1 0x0 PUSH1 0xB SSTORE PUSH1 0x1 PUSH1 0xC SSTORE PUSH1 0x1 PUSH1 0xD SSTORE CALLVALUE DUP1 ISZERO PUSH3 0x25 JUMPI PUSH1 0x0 DUP1 REVERT JUMPDEST POP PUSH1 0x40 MLOAD PUSH3 0x349F CODESIZE SUB DUP1 PUSH3 0x349F DUP4 CODECOPY DUP2 ADD PUSH1 0x40 DUP2 SWAP1 MSTORE PUSH3 0x48 SWAP2 PUSH3 0x510 JUMP JUMPDEST PUSH1 0x1 PUSH1 0x0 SSTORE DUP9 DUP9 DUP9 DUP9 DUP9 DUP9 DUP9 DUP9 DUP8 DUP8 DUP8 DUP8 DUP8 DUP8 DUP8 DUP8 PUSH1 0x1 PUSH1 0x1 PUSH1 0xA0 SHL SUB DUP9 AND PUSH3 0x85 JUMPI PUSH1 0x40 MLOAD PUSH4 0xA1AECEB7 PUSH1 0xE0 SHL DUP2 MSTORE PUSH1 0x4 ADD PUSH1 0x40 MLOAD DUP1 SWAP2 SUB SWAP1 REVERT JUMPDEST PUSH1 0x1 PUSH1 0x1 PUSH1 0xA0 SHL SUB DUP8 AND PUSH3 0xAD JUMPI PUSH1 0x40 MLOAD PUSH4 0x71AEB1D PUSH1 0xE0 SHL DUP2 MSTORE PUSH1 0x4 ADD PUSH1 0x40 MLOAD DUP1 SWAP2 SUB SWAP1 REVERT JUMPDEST PUSH1 0x1 PUSH1 0x1 PUSH1 0xA0 SHL SUB DUP5 AND PUSH3 0xD5 JUMPI PUSH1 0x40 MLOAD PUSH4 0x3B2B1D55 PUSH1 0xE0 SHL DUP2 MSTORE PUSH1 0x4 ADD PUSH1 0x40 MLOAD DUP1 SWAP2 SUB SWAP1 REVERT JUMPDEST PUSH1 0x1 PUSH1 0x1 PUSH1 0xA0 SHL SUB DUP4 AND PUSH3 0xFD JUMPI PUSH1 0x40 MLOAD PUSH4 0x4FDCFC55 PUSH1 0xE1 SHL DUP2 MSTORE PUSH1 0x4 ADD PUSH1 0x40 MLOAD DUP1 SWAP2 SUB SWAP1 REVERT JUMPDEST PUSH3 0x10A PUSH1 0x0 DUP8 PUSH3 0x368 JUMP JUMPDEST PUSH3 0x125 PUSH1 0x0 DUP1 MLOAD PUSH1 0x20 PUSH3 0x347F DUP4 CODECOPY DUP2 MLOAD SWAP2 MSTORE DUP8 PUSH3 0x368 JUMP JUMPDEST PUSH3 0x140 PUSH1 0x0 DUP1 MLOAD PUSH1 0x20 PUSH3 0x343F DUP4 CODECOPY DUP2 MLOAD SWAP2 MSTORE DUP7 PUSH3 0x368 JUMP JUMPDEST PUSH3 0x15B PUSH1 0x0 DUP1 MLOAD PUSH1 0x20 PUSH3 0x345F DUP4 CODECOPY DUP2 MLOAD SWAP2 MSTORE DUP8 PUSH3 0x368 JUMP JUMPDEST PUSH3 0x187 PUSH32 0xCED4EB9FAEB19AB0E2E05A20ADE58D82157E1035A3FBFF4BC38DD5E609F22B93 DUP8 PUSH3 0x368 JUMP JUMPDEST PUSH3 0x1B1 PUSH1 0x0 DUP1 MLOAD PUSH1 0x20 PUSH3 0x343F DUP4 CODECOPY DUP2 MLOAD SWAP2 MSTORE PUSH1 0x0 DUP1 MLOAD PUSH1 0x20 PUSH3 0x347F DUP4 CODECOPY DUP2 MLOAD SWAP2 MSTORE PUSH3 0x3AB JUMP JUMPDEST PUSH3 0x1DB PUSH1 0x0 DUP1 MLOAD PUSH1 0x20 PUSH3 0x345F DUP4 CODECOPY DUP2 MLOAD SWAP2 MSTORE PUSH1 0x0 DUP1 MLOAD PUSH1 0x20 PUSH3 0x347F DUP4 CODECOPY DUP2 MLOAD SWAP2 MSTORE PUSH3 0x3AB JUMP JUMPDEST PUSH3 0x216 PUSH32 0xE2B7FB3B832174769106DAEBCFD6D1970523240DDA11281102DB9363B83B0DC4 PUSH1 0x0 DUP1 MLOAD PUSH1 0x20 PUSH3 0x347F DUP4 CODECOPY DUP2 MLOAD SWAP2 MSTORE PUSH3 0x3AB JUMP JUMPDEST PUSH1 0x1 PUSH1 0x1 PUSH1 0xA0 SHL SUB DUP9 DUP2 AND PUSH1 0xA0 DUP2 SWAP1 MSTORE DUP9 DUP3 AND PUSH1 0x80 MSTORE PUSH1 0x5 DUP1 SLOAD PUSH1 0x1 PUSH1 0x1 PUSH1 0xA0 SHL SUB NOT SWAP1 DUP2 AND DUP8 DUP6 AND OR SWAP1 SWAP2 SSTORE PUSH1 0x4 DUP1 SLOAD SWAP1 SWAP2 AND SWAP3 DUP8 AND SWAP3 SWAP1 SWAP3 OR DUP3 SSTORE PUSH1 0x8 DUP5 SWAP1 SSTORE PUSH1 0x9 DUP4 SWAP1 SSTORE PUSH1 0x40 DUP1 MLOAD PUSH4 0x313CE567 PUSH1 0xE0 SHL DUP2 MSTORE SWAP1 MLOAD SWAP2 SWAP3 PUSH4 0x313CE567 SWAP3 DUP3 DUP3 ADD SWAP3 PUSH1 0x20 SWAP3 SWAP1 DUP3 SWAP1 SUB ADD DUP2 DUP7 GAS STATICCALL ISZERO DUP1 ISZERO PUSH3 0x297 JUMPI RETURNDATASIZE PUSH1 0x0 DUP1 RETURNDATACOPY RETURNDATASIZE PUSH1 0x0 REVERT JUMPDEST POP POP POP POP PUSH1 0x40 MLOAD RETURNDATASIZE PUSH1 0x1F NOT PUSH1 0x1F DUP3 ADD AND DUP3 ADD DUP1 PUSH1 0x40 MSTORE POP DUP2 ADD SWAP1 PUSH3 0x2BD SWAP2 SWAP1 PUSH3 0x5B9 JUMP JUMPDEST DUP8 PUSH1 0x1 PUSH1 0x1 PUSH1 0xA0 SHL SUB AND PUSH4 0x313CE567 PUSH1 0x40 MLOAD DUP2 PUSH4 0xFFFFFFFF AND PUSH1 0xE0 SHL DUP2 MSTORE PUSH1 0x4 ADD PUSH1 0x20 PUSH1 0x40 MLOAD DUP1 DUP4 SUB DUP2 DUP7 GAS STATICCALL ISZERO DUP1 ISZERO PUSH3 0x2FC JUMPI RETURNDATASIZE PUSH1 0x0 DUP1 RETURNDATACOPY RETURNDATASIZE PUSH1 0x0 REVERT JUMPDEST POP POP POP POP PUSH1 0x40 MLOAD RETURNDATASIZE PUSH1 0x1F NOT PUSH1 0x1F DUP3 ADD AND DUP3 ADD DUP1 PUSH1 0x40 MSTORE POP DUP2 ADD SWAP1 PUSH3 0x322 SWAP2 SWAP1 PUSH3 0x5B9 JUMP JUMPDEST PUSH3 0x32E SWAP2 SWAP1 PUSH3 0x5FB JUMP JUMPDEST PUSH3 0x33B SWAP1 PUSH1 0xA PUSH3 0x714 JUMP JUMPDEST PUSH1 0xC0 DUP2 DUP2 MSTORE POP POP POP POP POP POP POP POP POP POP DUP1 PUSH1 0xF DUP2 SWAP1 SSTORE POP POP POP POP POP POP POP POP POP POP POP POP POP POP POP POP POP POP PUSH3 0x725 JUMP JUMPDEST PUSH3 0x37F DUP3 DUP3 PUSH3 0x3F8 PUSH1 0x20 SHL PUSH3 0x1C53 OR PUSH1 0x20 SHR JUMP JUMPDEST PUSH1 0x0 DUP3 DUP2 MSTORE PUSH1 0x2 PUSH1 0x20 SWAP1 DUP2 MSTORE PUSH1 0x40 SWAP1 SWAP2 KECCAK256 PUSH3 0x3A6 SWAP2 DUP4 SWAP1 PUSH3 0x1CBE PUSH3 0x481 DUP3 SHL OR SWAP1 SHR JUMP JUMPDEST POP POP POP JUMP JUMPDEST PUSH1 0x0 DUP3 DUP2 MSTORE PUSH1 0x1 PUSH1 0x20 DUP2 SWAP1 MSTORE PUSH1 0x40 DUP1 DUP4 KECCAK256 SWAP1 SWAP2 ADD DUP1 SLOAD SWAP1 DUP5 SWAP1 SSTORE SWAP1 MLOAD SWAP1 SWAP2 DUP4 SWAP2 DUP4 SWAP2 DUP7 SWAP2 PUSH32 0xBD79B86FFE0AB8E8776151514217CD7CACD52C909F66475C3AF44E129F0B00FF SWAP2 SWAP1 LOG4 POP POP POP JUMP JUMPDEST PUSH1 0x0 DUP3 DUP2 MSTORE PUSH1 0x1 PUSH1 0x20 SWAP1 DUP2 MSTORE PUSH1 0x40 DUP1 DUP4 KECCAK256 PUSH1 0x1 PUSH1 0x1 PUSH1 0xA0 SHL SUB DUP6 AND DUP5 MSTORE SWAP1 SWAP2 MSTORE SWAP1 KECCAK256 SLOAD PUSH1 0xFF AND PUSH3 0x47D JUMPI PUSH1 0x0 DUP3 DUP2 MSTORE PUSH1 0x1 PUSH1 0x20 DUP2 DUP2 MSTORE PUSH1 0x40 DUP1 DUP5 KECCAK256 PUSH1 0x1 PUSH1 0x1 PUSH1 0xA0 SHL SUB DUP7 AND DUP1 DUP7 MSTORE SWAP3 MSTORE DUP1 DUP5 KECCAK256 DUP1 SLOAD PUSH1 0xFF NOT AND SWAP1 SWAP4 OR SWAP1 SWAP3 SSTORE SWAP1 MLOAD CALLER SWAP3 DUP6 SWAP2 PUSH32 0x2F8788117E7EFF1D82E926EC794901D17C78024A50270940304540A733656F0D SWAP2 SWAP1 LOG4 JUMPDEST POP POP JUMP JUMPDEST PUSH1 0x0 PUSH3 0x498 DUP4 PUSH1 0x1 PUSH1 0x1 PUSH1 0xA0 SHL SUB DUP5 AND PUSH3 0x4A1 JUMP JUMPDEST SWAP1 POP JUMPDEST SWAP3 SWAP2 POP POP JUMP JUMPDEST PUSH1 0x0 DUP2 DUP2 MSTORE PUSH1 0x1 DUP4 ADD PUSH1 0x20 MSTORE PUSH1 0x40 DUP2 KECCAK256 SLOAD PUSH3 0x4EA JUMPI POP DUP2 SLOAD PUSH1 0x1 DUP2 DUP2 ADD DUP5 SSTORE PUSH1 0x0 DUP5 DUP2 MSTORE PUSH1 0x20 DUP1 DUP3 KECCAK256 SWAP1 SWAP4 ADD DUP5 SWAP1 SSTORE DUP5 SLOAD DUP5 DUP3 MSTORE DUP3 DUP7 ADD SWAP1 SWAP4 MSTORE PUSH1 0x40 SWAP1 KECCAK256 SWAP2 SWAP1 SWAP2 SSTORE PUSH3 0x49B JUMP JUMPDEST POP PUSH1 0x0 PUSH3 0x49B JUMP JUMPDEST DUP1 MLOAD PUSH1 0x1 PUSH1 0x1 PUSH1 0xA0 SHL SUB DUP2 AND DUP2 EQ PUSH3 0x50B JUMPI PUSH1 0x0 DUP1 REVERT JUMPDEST SWAP2 SWAP1 POP JUMP JUMPDEST PUSH1 0x0 DUP1 PUSH1 0x0 DUP1 PUSH1 0x0 DUP1 PUSH1 0x0 DUP1 PUSH1 0x0 PUSH2 0x120 DUP11 DUP13 SUB SLT ISZERO PUSH3 0x530 JUMPI PUSH1 0x0 DUP1 REVERT JUMPDEST PUSH3 0x53B DUP11 PUSH3 0x4F3 JUMP JUMPDEST SWAP9 POP PUSH3 0x54B PUSH1 0x20 DUP12 ADD PUSH3 0x4F3 JUMP JUMPDEST SWAP8 POP PUSH3 0x55B PUSH1 0x40 DUP12 ADD PUSH3 0x4F3 JUMP JUMPDEST SWAP7 POP PUSH3 0x56B PUSH1 0x60 DUP12 ADD PUSH3 0x4F3 JUMP JUMPDEST SWAP6 POP PUSH3 0x57B PUSH1 0x80 DUP12 ADD PUSH3 0x4F3 JUMP JUMPDEST SWAP5 POP PUSH3 0x58B PUSH1 0xA0 DUP12 ADD PUSH3 0x4F3 JUMP JUMPDEST SWAP4 POP PUSH1 0xC0 DUP11 ADD MLOAD SWAP3 POP PUSH1 0xE0 DUP11 ADD MLOAD SWAP2 POP PUSH3 0x5AA PUSH2 0x100 DUP12 ADD PUSH3 0x4F3 JUMP JUMPDEST SWAP1 POP SWAP3 SWAP6 SWAP9 POP SWAP3 SWAP6 SWAP9 POP SWAP3 SWAP6 SWAP9 JUMP JUMPDEST PUSH1 0x0 PUSH1 0x20 DUP3 DUP5 SUB SLT ISZERO PUSH3 0x5CC JUMPI PUSH1 0x0 DUP1 REVERT JUMPDEST DUP2 MLOAD PUSH1 0xFF DUP2 AND DUP2 EQ PUSH3 0x5DE JUMPI PUSH1 0x0 DUP1 REVERT JUMPDEST SWAP4 SWAP3 POP POP POP JUMP JUMPDEST PUSH4 0x4E487B71 PUSH1 0xE0 SHL PUSH1 0x0 MSTORE PUSH1 0x11 PUSH1 0x4 MSTORE PUSH1 0x24 PUSH1 0x0 REVERT JUMPDEST PUSH1 0xFF DUP3 DUP2 AND DUP3 DUP3 AND SUB SWAP1 DUP2 GT ISZERO PUSH3 0x49B JUMPI PUSH3 0x49B PUSH3 0x5E5 JUMP JUMPDEST PUSH1 0x1 DUP2 DUP2 JUMPDEST DUP1 DUP6 GT ISZERO PUSH3 0x658 JUMPI DUP2 PUSH1 0x0 NOT DIV DUP3 GT ISZERO PUSH3 0x63C JUMPI PUSH3 0x63C PUSH3 0x5E5 JUMP JUMPDEST DUP1 DUP6 AND ISZERO PUSH3 0x64A JUMPI SWAP2 DUP2 MUL SWAP2 JUMPDEST SWAP4 DUP5 SHR SWAP4 SWAP1 DUP1 MUL SWAP1 PUSH3 0x61C JUMP JUMPDEST POP SWAP3 POP SWAP3 SWAP1 POP JUMP JUMPDEST PUSH1 0x0 DUP3 PUSH3 0x671 JUMPI POP PUSH1 0x1 PUSH3 0x49B JUMP JUMPDEST DUP2 PUSH3 0x680 JUMPI POP PUSH1 0x0 PUSH3 0x49B JUMP JUMPDEST DUP2 PUSH1 0x1 DUP2 EQ PUSH3 0x699 JUMPI PUSH1 0x2 DUP2 EQ PUSH3 0x6A4 JUMPI PUSH3 0x6C4 JUMP JUMPDEST PUSH1 0x1 SWAP2 POP POP PUSH3 0x49B JUMP JUMPDEST PUSH1 0xFF DUP5 GT ISZERO PUSH3 0x6B8 JUMPI PUSH3 0x6B8 PUSH3 0x5E5 JUMP JUMPDEST POP POP PUSH1 0x1 DUP3 SHL PUSH3 0x49B JUMP JUMPDEST POP PUSH1 0x20 DUP4 LT PUSH2 0x133 DUP4 LT AND PUSH1 0x4E DUP5 LT PUSH1 0xB DUP5 LT AND OR ISZERO PUSH3 0x6E9 JUMPI POP DUP2 DUP2 EXP PUSH3 0x49B JUMP JUMPDEST PUSH3 0x6F5 DUP4 DUP4 PUSH3 0x617 JUMP JUMPDEST DUP1 PUSH1 0x0 NOT DIV DUP3 GT ISZERO PUSH3 0x70C JUMPI PUSH3 0x70C PUSH3 0x5E5 JUMP JUMPDEST MUL SWAP4 SWAP3 POP POP POP JUMP JUMPDEST PUSH1 0x0 PUSH3 0x498 PUSH1 0xFF DUP5 AND DUP4 PUSH3 0x660 JUMP JUMPDEST PUSH1 0x80 MLOAD PUSH1 0xA0 MLOAD PUSH1 0xC0 MLOAD PUSH2 0x2CC0 PUSH3 0x77F PUSH1 0x0 CODECOPY PUSH1 0x0 DUP2 DUP2 PUSH2 0x69F ADD MSTORE PUSH2 0x254C ADD MSTORE PUSH1 0x0 DUP2 DUP2 PUSH2 0x739 ADD MSTORE DUP2 DUP2 PUSH2 0x162A ADD MSTORE PUSH2 0x1662 ADD MSTORE PUSH1 0x0 DUP2 DUP2 PUSH2 0x637 ADD MSTORE DUP2 DUP2 PUSH2 0x1A56 ADD MSTORE DUP2 DUP2 PUSH2 0x1BA2 ADD MSTORE PUSH2 0x2241 ADD MSTORE PUSH2 0x2CC0 PUSH1 0x0 RETURN INVALID PUSH1 0x80 PUSH1 0x40 MSTORE CALLVALUE DUP1 ISZERO PUSH2 0x10 JUMPI PUSH1 0x0 DUP1 REVERT JUMPDEST POP PUSH1 0x4 CALLDATASIZE LT PUSH2 0x324 JUMPI PUSH1 0x0 CALLDATALOAD PUSH1 0xE0 SHR DUP1 PUSH4 0x8A07DF1E GT PUSH2 0x1A9 JUMPI DUP1 PUSH4 0xD0C835CE GT PUSH2 0xEF JUMPI DUP1 PUSH4 0xE1A45218 GT PUSH2 0x9D JUMPI DUP1 PUSH4 0xE1A45218 EQ PUSH2 0x78A JUMPI DUP1 PUSH4 0xE4107C97 EQ PUSH2 0x793 JUMPI DUP1 PUSH4 0xE74B981B EQ PUSH2 0x7A6 JUMPI DUP1 PUSH4 0xEDDD0D9C EQ PUSH2 0x7B9 JUMPI DUP1 PUSH4 0xEE75D7D4 EQ PUSH2 0x7CC JUMPI DUP1 PUSH4 0xEEB3C910 EQ PUSH2 0x7DF JUMPI DUP1 PUSH4 0xF4A20307 EQ PUSH2 0x7F2 JUMPI DUP1 PUSH4 0xF80A36D6 EQ PUSH2 0x819 JUMPI PUSH1 0x0 DUP1 REVERT JUMPDEST DUP1 PUSH4 0xD0C835CE EQ PUSH2 0x6FB JUMPI DUP1 PUSH4 0xD547741F EQ PUSH2 0x70E JUMPI DUP1 PUSH4 0xD592D815 EQ PUSH2 0x721 JUMPI DUP1 PUSH4 0xD8DFEB45 EQ PUSH2 0x734 JUMPI DUP1 PUSH4 0xDD45EEF6 EQ PUSH2 0x75B JUMPI DUP1 PUSH4 0xDE6AFA82 EQ PUSH2 0x76E JUMPI DUP1 PUSH4 0xE0F486EF EQ PUSH2 0x781 JUMPI PUSH1 0x0 DUP1 REVERT JUMPDEST DUP1 PUSH4 0xA217FDDF GT PUSH2 0x157 JUMPI DUP1 PUSH4 0xA217FDDF EQ PUSH2 0x659 JUMPI DUP1 PUSH4 0xA6138ED9 EQ PUSH2 0x661 JUMPI DUP1 PUSH4 0xAA85C1DF EQ PUSH2 0x674 JUMPI DUP1 PUSH4 0xAAB483D6 EQ PUSH2 0x687 JUMPI DUP1 PUSH4 0xBB13245F EQ PUSH2 0x69A JUMPI DUP1 PUSH4 0xBCC70283 EQ PUSH2 0x6C1 JUMPI DUP1 PUSH4 0xCA15C873 EQ PUSH2 0x6D6 JUMPI DUP1 PUSH4 0xCD4D0BCF EQ PUSH2 0x6E9 JUMPI PUSH1 0x0 DUP1 REVERT JUMPDEST DUP1 PUSH4 0x8A07DF1E EQ PUSH2 0x5B5 JUMPI DUP1 PUSH4 0x8D044C06 EQ PUSH2 0x5D5 JUMPI DUP1 PUSH4 0x9010D07C EQ PUSH2 0x5DD JUMPI DUP1 PUSH4 0x91D14854 EQ PUSH2 0x5F0 JUMPI DUP1 PUSH4 0x926D7D7F EQ PUSH2 0x603 JUMPI DUP1 PUSH4 0x92BCCB80 EQ PUSH2 0x62A JUMPI DUP1 PUSH4 0x95E4B251 EQ PUSH2 0x632 JUMPI PUSH1 0x0 DUP1 REVERT JUMPDEST DUP1 PUSH4 0x38FED708 GT PUSH2 0x26E JUMPI DUP1 PUSH4 0x4EF1CCD1 GT PUSH2 0x21C JUMPI DUP1 PUSH4 0x4EF1CCD1 EQ PUSH2 0x506 JUMPI DUP1 PUSH4 0x525DECD6 EQ PUSH2 0x519 JUMPI DUP1 PUSH4 0x5D591D68 EQ PUSH2 0x52C JUMPI DUP1 PUSH4 0x73A95DDD EQ PUSH2 0x565 JUMPI DUP1 PUSH4 0x7DBC1DF0 EQ PUSH2 0x572 JUMPI DUP1 PUSH4 0x837018FA EQ PUSH2 0x585 JUMPI DUP1 PUSH4 0x85C4E79E EQ PUSH2 0x58D JUMPI DUP1 PUSH4 0x87E2D06E EQ PUSH2 0x5A2 JUMPI PUSH1 0x0 DUP1 REVERT JUMPDEST DUP1 PUSH4 0x38FED708 EQ PUSH2 0x441 JUMPI DUP1 PUSH4 0x3BFA67FE EQ PUSH2 0x49F JUMPI DUP1 PUSH4 0x4565E9FF EQ PUSH2 0x4C7 JUMPI DUP1 PUSH4 0x458F5815 EQ PUSH2 0x4DA JUMPI DUP1 PUSH4 0x46904840 EQ PUSH2 0x4E3 JUMPI DUP1 PUSH4 0x49CBBF2A EQ PUSH2 0x4F6 JUMPI DUP1 PUSH4 0x4DFE7AF2 EQ PUSH2 0x4FE JUMPI PUSH1 0x0 DUP1 REVERT JUMPDEST DUP1 PUSH4 0x244F5ACF GT PUSH2 0x2D6 JUMPI DUP1 PUSH4 0x244F5ACF EQ PUSH2 0x3A2 JUMPI DUP1 PUSH4 0x248A9CA3 EQ PUSH2 0x3B5 JUMPI DUP1 PUSH4 0x258492CD EQ PUSH2 0x3D9 JUMPI DUP1 PUSH4 0x29390370 EQ PUSH2 0x3EC JUMPI DUP1 PUSH4 0x2B5ECEFF EQ PUSH2 0x3FF JUMPI DUP1 PUSH4 0x2F2FF15D EQ PUSH2 0x412 JUMPI DUP1 PUSH4 0x354181F3 EQ PUSH2 0x425 JUMPI DUP1 PUSH4 0x36568ABE EQ PUSH2 0x42E JUMPI PUSH1 0x0 DUP1 REVERT JUMPDEST DUP1 PUSH4 0x1FFC9A7 EQ PUSH2 0x329 JUMPI DUP1 PUSH4 0x78A6BE8 EQ PUSH2 0x351 JUMPI DUP1 PUSH4 0x7BDA1BB EQ PUSH2 0x374 JUMPI DUP1 PUSH4 0x80C279A EQ PUSH2 0x37D JUMPI DUP1 PUSH4 0x12589FB5 EQ PUSH2 0x386 JUMPI DUP1 PUSH4 0x13966DB5 EQ PUSH2 0x38F JUMPI DUP1 PUSH4 0x2056AA12 EQ PUSH2 0x398 JUMPI JUMPDEST PUSH1 0x0 DUP1 REVERT JUMPDEST PUSH2 0x33C PUSH2 0x337 CALLDATASIZE PUSH1 0x4 PUSH2 0x26DB JUMP JUMPDEST PUSH2 0x82C JUMP JUMPDEST PUSH1 0x40 MLOAD SWAP1 ISZERO ISZERO DUP2 MSTORE PUSH1 0x20 ADD JUMPDEST PUSH1 0x40 MLOAD DUP1 SWAP2 SUB SWAP1 RETURN JUMPDEST PUSH2 0x366 PUSH1 0x0 DUP1 MLOAD PUSH1 0x20 PUSH2 0x2C6B DUP4 CODECOPY DUP2 MLOAD SWAP2 MSTORE DUP2 JUMP JUMPDEST PUSH1 0x40 MLOAD SWAP1 DUP2 MSTORE PUSH1 0x20 ADD PUSH2 0x348 JUMP JUMPDEST PUSH2 0x366 PUSH1 0xC SLOAD DUP2 JUMP JUMPDEST PUSH2 0x366 PUSH1 0x8 SLOAD DUP2 JUMP JUMPDEST PUSH2 0x366 PUSH1 0xF SLOAD DUP2 JUMP JUMPDEST PUSH2 0x366 PUSH1 0xA SLOAD DUP2 JUMP JUMPDEST PUSH2 0x3A0 PUSH2 0x857 JUMP JUMPDEST STOP JUMPDEST PUSH2 0x3A0 PUSH2 0x3B0 CALLDATASIZE PUSH1 0x4 PUSH2 0x2751 JUMP JUMPDEST PUSH2 0x8BA JUMP JUMPDEST PUSH2 0x366 PUSH2 0x3C3 CALLDATASIZE PUSH1 0x4 PUSH2 0x2793 JUMP JUMPDEST PUSH1 0x0 SWAP1 DUP2 MSTORE PUSH1 0x1 PUSH1 0x20 DUP2 SWAP1 MSTORE PUSH1 0x40 SWAP1 SWAP2 KECCAK256 ADD SLOAD SWAP1 JUMP JUMPDEST PUSH2 0x3A0 PUSH2 0x3E7 CALLDATASIZE PUSH1 0x4 PUSH2 0x27C8 JUMP JUMPDEST PUSH2 0x919 JUMP JUMPDEST PUSH2 0x3A0 PUSH2 0x3FA CALLDATASIZE PUSH1 0x4 PUSH2 0x2803 JUMP JUMPDEST PUSH2 0xA68 JUMP JUMPDEST PUSH2 0x3A0 PUSH2 0x40D CALLDATASIZE PUSH1 0x4 PUSH2 0x281E JUMP JUMPDEST PUSH2 0xAE1 JUMP JUMPDEST PUSH2 0x3A0 PUSH2 0x420 CALLDATASIZE PUSH1 0x4 PUSH2 0x2864 JUMP JUMPDEST PUSH2 0xBE5 JUMP JUMPDEST PUSH2 0x366 PUSH1 0xD SLOAD DUP2 JUMP JUMPDEST PUSH2 0x3A0 PUSH2 0x43C CALLDATASIZE PUSH1 0x4 PUSH2 0x2864 JUMP JUMPDEST PUSH2 0xC11 JUMP JUMPDEST PUSH2 0x47A PUSH2 0x44F CALLDATASIZE PUSH1 0x4 PUSH2 0x2793 JUMP JUMPDEST PUSH1 0x7 PUSH1 0x20 MSTORE PUSH1 0x0 SWAP1 DUP2 MSTORE PUSH1 0x40 SWAP1 KECCAK256 DUP1 SLOAD PUSH1 0x1 DUP3 ADD SLOAD PUSH1 0x2 SWAP1 SWAP3 ADD SLOAD PUSH1 0x1 PUSH1 0x1 PUSH1 0xA0 SHL SUB SWAP1 SWAP2 AND SWAP2 SWAP1 DUP4 JUMP JUMPDEST PUSH1 0x40 DUP1 MLOAD PUSH1 0x1 PUSH1 0x1 PUSH1 0xA0 SHL SUB SWAP1 SWAP5 AND DUP5 MSTORE PUSH1 0x20 DUP5 ADD SWAP3 SWAP1 SWAP3 MSTORE SWAP1 DUP3 ADD MSTORE PUSH1 0x60 ADD PUSH2 0x348 JUMP JUMPDEST PUSH2 0x4BA PUSH20 0x686B3A7B9BE2751BB51084A6E0E7DB7F1746EB1 DUP2 JUMP JUMPDEST PUSH1 0x40 MLOAD PUSH2 0x348 SWAP2 SWAP1 PUSH2 0x2890 JUMP JUMPDEST PUSH2 0x3A0 PUSH2 0x4D5 CALLDATASIZE PUSH1 0x4 PUSH2 0x2751 JUMP JUMPDEST PUSH2 0xC8F JUMP JUMPDEST PUSH2 0x366 PUSH1 0xB SLOAD DUP2 JUMP JUMPDEST PUSH1 0x5 SLOAD PUSH2 0x4BA SWAP1 PUSH1 0x1 PUSH1 0x1 PUSH1 0xA0 SHL SUB AND DUP2 JUMP JUMPDEST PUSH2 0x3A0 PUSH2 0xD29 JUMP JUMPDEST PUSH2 0x3A0 PUSH2 0xD83 JUMP JUMPDEST PUSH2 0x3A0 PUSH2 0x514 CALLDATASIZE PUSH1 0x4 PUSH2 0x2793 JUMP JUMPDEST PUSH2 0xDD8 JUMP JUMPDEST PUSH2 0x3A0 PUSH2 0x527 CALLDATASIZE PUSH1 0x4 PUSH2 0x2803 JUMP JUMPDEST PUSH2 0xE52 JUMP JUMPDEST PUSH2 0x47A PUSH2 0x53A CALLDATASIZE PUSH1 0x4 PUSH2 0x2793 JUMP JUMPDEST PUSH1 0x6 PUSH1 0x20 MSTORE PUSH1 0x0 SWAP1 DUP2 MSTORE PUSH1 0x40 SWAP1 KECCAK256 DUP1 SLOAD PUSH1 0x1 DUP3 ADD SLOAD PUSH1 0x2 SWAP1 SWAP3 ADD SLOAD PUSH1 0x1 PUSH1 0x1 PUSH1 0xA0 SHL SUB SWAP1 SWAP2 AND SWAP2 SWAP1 DUP4 JUMP JUMPDEST PUSH1 0xE SLOAD PUSH2 0x33C SWAP1 PUSH1 0xFF AND DUP2 JUMP JUMPDEST PUSH2 0x3A0 PUSH2 0x580 CALLDATASIZE PUSH1 0x4 PUSH2 0x2793 JUMP JUMPDEST PUSH2 0xEBE JUMP JUMPDEST PUSH2 0x3A0 PUSH2 0xF38 JUMP JUMPDEST PUSH2 0x366 PUSH1 0x0 DUP1 MLOAD PUSH1 0x20 PUSH2 0x2C2B DUP4 CODECOPY DUP2 MLOAD SWAP2 MSTORE DUP2 JUMP JUMPDEST PUSH2 0x3A0 PUSH2 0x5B0 CALLDATASIZE PUSH1 0x4 PUSH2 0x28A4 JUMP JUMPDEST PUSH2 0xF8C JUMP JUMPDEST PUSH2 0x366 PUSH2 0x5C3 CALLDATASIZE PUSH1 0x4 PUSH2 0x2793 JUMP JUMPDEST PUSH1 0x10 PUSH1 0x20 MSTORE PUSH1 0x0 SWAP1 DUP2 MSTORE PUSH1 0x40 SWAP1 KECCAK256 SLOAD DUP2 JUMP JUMPDEST PUSH2 0x3A0 PUSH2 0x113A JUMP JUMPDEST PUSH2 0x4BA PUSH2 0x5EB CALLDATASIZE PUSH1 0x4 PUSH2 0x2910 JUMP JUMPDEST PUSH2 0x118D JUMP JUMPDEST PUSH2 0x33C PUSH2 0x5FE CALLDATASIZE PUSH1 0x4 PUSH2 0x2864 JUMP JUMPDEST PUSH2 0x11AC JUMP JUMPDEST PUSH2 0x366 PUSH32 0xE2B7FB3B832174769106DAEBCFD6D1970523240DDA11281102DB9363B83B0DC4 DUP2 JUMP JUMPDEST PUSH2 0x3A0 PUSH2 0x11D7 JUMP JUMPDEST PUSH2 0x4BA PUSH32 0x0 DUP2 JUMP JUMPDEST PUSH2 0x366 PUSH1 0x0 DUP2 JUMP JUMPDEST PUSH1 0x3 SLOAD PUSH2 0x4BA SWAP1 PUSH1 0x1 PUSH1 0x1 PUSH1 0xA0 SHL SUB AND DUP2 JUMP JUMPDEST PUSH2 0x3A0 PUSH2 0x682 CALLDATASIZE PUSH1 0x4 PUSH2 0x28A4 JUMP JUMPDEST PUSH2 0x122D JUMP JUMPDEST PUSH2 0x3A0 PUSH2 0x695 CALLDATASIZE PUSH1 0x4 PUSH2 0x2793 JUMP JUMPDEST PUSH2 0x1379 JUMP JUMPDEST PUSH2 0x366 PUSH32 0x0 DUP2 JUMP JUMPDEST PUSH2 0x366 PUSH1 0x0 DUP1 MLOAD PUSH1 0x20 PUSH2 0x2C4B DUP4 CODECOPY DUP2 MLOAD SWAP2 MSTORE DUP2 JUMP JUMPDEST PUSH2 0x366 PUSH2 0x6E4 CALLDATASIZE PUSH1 0x4 PUSH2 0x2793 JUMP JUMPDEST PUSH2 0x13F3 JUMP JUMPDEST PUSH1 0xE SLOAD PUSH2 0x33C SWAP1 PUSH2 0x100 SWAP1 DIV PUSH1 0xFF AND DUP2 JUMP JUMPDEST PUSH2 0x3A0 PUSH2 0x709 CALLDATASIZE PUSH1 0x4 PUSH2 0x2932 JUMP JUMPDEST PUSH2 0x140A JUMP JUMPDEST PUSH2 0x3A0 PUSH2 0x71C CALLDATASIZE PUSH1 0x4 PUSH2 0x2864 JUMP JUMPDEST PUSH2 0x14F0 JUMP JUMPDEST PUSH2 0x3A0 PUSH2 0x72F CALLDATASIZE PUSH1 0x4 PUSH2 0x2793 JUMP JUMPDEST PUSH2 0x1517 JUMP JUMPDEST PUSH2 0x4BA PUSH32 0x0 DUP2 JUMP JUMPDEST PUSH1 0xE SLOAD PUSH2 0x33C SWAP1 PUSH3 0x10000 SWAP1 DIV PUSH1 0xFF AND DUP2 JUMP JUMPDEST PUSH2 0x3A0 PUSH2 0x77C CALLDATASIZE PUSH1 0x4 PUSH2 0x27C8 JUMP JUMPDEST PUSH2 0x16EF JUMP JUMPDEST PUSH2 0x366 PUSH1 0x9 SLOAD DUP2 JUMP JUMPDEST PUSH2 0x366 PUSH2 0x2710 DUP2 JUMP JUMPDEST PUSH2 0x3A0 PUSH2 0x7A1 CALLDATASIZE PUSH1 0x4 PUSH2 0x2793 JUMP JUMPDEST PUSH2 0x182E JUMP JUMPDEST PUSH2 0x3A0 PUSH2 0x7B4 CALLDATASIZE PUSH1 0x4 PUSH2 0x2803 JUMP JUMPDEST PUSH2 0x1885 JUMP JUMPDEST PUSH2 0x3A0 PUSH2 0x7C7 CALLDATASIZE PUSH1 0x4 PUSH2 0x2793 JUMP JUMPDEST PUSH2 0x18F0 JUMP JUMPDEST PUSH1 0x4 SLOAD PUSH2 0x4BA SWAP1 PUSH1 0x1 PUSH1 0x1 PUSH1 0xA0 SHL SUB AND DUP2 JUMP JUMPDEST PUSH2 0x3A0 PUSH2 0x7ED CALLDATASIZE PUSH1 0x4 PUSH2 0x2793 JUMP JUMPDEST PUSH2 0x196A JUMP JUMPDEST PUSH2 0x366 PUSH32 0xCED4EB9FAEB19AB0E2E05A20ADE58D82157E1035A3FBFF4BC38DD5E609F22B93 DUP2 JUMP JUMPDEST PUSH2 0x3A0 PUSH2 0x827 CALLDATASIZE PUSH1 0x4 PUSH2 0x2910 JUMP JUMPDEST PUSH2 0x1AFE JUMP JUMPDEST PUSH1 0x0 PUSH1 0x1 PUSH1 0x1 PUSH1 0xE0 SHL SUB NOT DUP3 AND PUSH4 0x5A05180F PUSH1 0xE0 SHL EQ DUP1 PUSH2 0x851 JUMPI POP PUSH2 0x851 DUP3 PUSH2 0x1CD3 JUMP JUMPDEST SWAP3 SWAP2 POP POP JUMP JUMPDEST PUSH1 0x0 DUP1 MLOAD PUSH1 0x20 PUSH2 0x2C2B DUP4 CODECOPY DUP2 MLOAD SWAP2 MSTORE PUSH2 0x870 DUP2 CALLER PUSH2 0x1D08 JUMP JUMPDEST PUSH1 0xE DUP1 SLOAD PUSH2 0xFF00 NOT AND PUSH2 0x100 OR SWAP1 SSTORE PUSH1 0x40 MLOAD PUSH32 0xCD71257F2998474633E94CFFFA045014068F6218FFDCA256B6F4AA9D5F15FB89 SWAP1 PUSH2 0x8AF SWAP1 CALLER SWAP1 PUSH2 0x2890 JUMP JUMPDEST PUSH1 0x40 MLOAD DUP1 SWAP2 SUB SWAP1 LOG1 POP JUMP JUMPDEST PUSH1 0x2 PUSH1 0x0 SLOAD SUB PUSH2 0x8E5 JUMPI PUSH1 0x40 MLOAD PUSH3 0x461BCD PUSH1 0xE5 SHL DUP2 MSTORE PUSH1 0x4 ADD PUSH2 0x8DC SWAP1 PUSH2 0x297E JUMP JUMPDEST PUSH1 0x40 MLOAD DUP1 SWAP2 SUB SWAP1 REVERT JUMPDEST PUSH1 0x2 PUSH1 0x0 SSTORE PUSH1 0xE SLOAD PUSH1 0xFF AND DUP1 ISZERO PUSH2 0x90F JUMPI PUSH1 0x40 MLOAD PUSH4 0xAADFADDD PUSH1 0xE0 SHL DUP2 MSTORE PUSH1 0x4 ADD PUSH1 0x40 MLOAD DUP1 SWAP2 SUB SWAP1 REVERT JUMPDEST POP POP PUSH1 0x1 PUSH1 0x0 SSTORE POP JUMP JUMPDEST PUSH1 0x0 DUP1 MLOAD PUSH1 0x20 PUSH2 0x2C6B DUP4 CODECOPY DUP2 MLOAD SWAP2 MSTORE PUSH2 0x932 DUP2 CALLER PUSH2 0x1D08 JUMP JUMPDEST PUSH1 0x0 PUSH1 0x7 PUSH1 0x0 DUP8 DUP2 MSTORE PUSH1 0x20 ADD SWAP1 DUP2 MSTORE PUSH1 0x20 ADD PUSH1 0x0 KECCAK256 PUSH1 0x40 MLOAD DUP1 PUSH1 0x60 ADD PUSH1 0x40 MSTORE SWAP1 DUP2 PUSH1 0x0 DUP3 ADD PUSH1 0x0 SWAP1 SLOAD SWAP1 PUSH2 0x100 EXP SWAP1 DIV PUSH1 0x1 PUSH1 0x1 PUSH1 0xA0 SHL SUB AND PUSH1 0x1 PUSH1 0x1 PUSH1 0xA0 SHL SUB AND PUSH1 0x1 PUSH1 0x1 PUSH1 0xA0 SHL SUB AND DUP2 MSTORE PUSH1 0x20 ADD PUSH1 0x1 DUP3 ADD SLOAD DUP2 MSTORE PUSH1 0x20 ADD PUSH1 0x2 DUP3 ADD SLOAD DUP2 MSTORE POP POP SWAP1 POP PUSH1 0x40 MLOAD DUP1 PUSH1 0x60 ADD PUSH1 0x40 MSTORE DUP1 DUP7 PUSH1 0x1 PUSH1 0x1 PUSH1 0xA0 SHL SUB AND DUP2 MSTORE PUSH1 0x20 ADD DUP6 DUP2 MSTORE PUSH1 0x20 ADD DUP5 DUP2 MSTORE POP PUSH1 0x7 PUSH1 0x0 DUP9 DUP2 MSTORE PUSH1 0x20 ADD SWAP1 DUP2 MSTORE PUSH1 0x20 ADD PUSH1 0x0 KECCAK256 PUSH1 0x0 DUP3 ADD MLOAD DUP2 PUSH1 0x0 ADD PUSH1 0x0 PUSH2 0x100 EXP DUP2 SLOAD DUP2 PUSH1 0x1 PUSH1 0x1 PUSH1 0xA0 SHL SUB MUL NOT AND SWAP1 DUP4 PUSH1 0x1 PUSH1 0x1 PUSH1 0xA0 SHL SUB AND MUL OR SWAP1 SSTORE POP PUSH1 0x20 DUP3 ADD MLOAD DUP2 PUSH1 0x1 ADD SSTORE PUSH1 0x40 DUP3 ADD MLOAD DUP2 PUSH1 0x2 ADD SSTORE SWAP1 POP POP DUP6 PUSH32 0x5A0C55C421AE3AAC2379811ECA16AAEE32B6E64411322B624118D4219B9350A0 DUP3 PUSH1 0x0 ADD MLOAD DUP8 DUP5 PUSH1 0x40 ADD MLOAD DUP8 DUP7 PUSH1 0x20 ADD MLOAD DUP11 PUSH1 0x40 MLOAD PUSH2 0xA58 SWAP7 SWAP6 SWAP5 SWAP4 SWAP3 SWAP2 SWAP1 PUSH2 0x29B5 JUMP JUMPDEST PUSH1 0x40 MLOAD DUP1 SWAP2 SUB SWAP1 LOG2 POP POP POP POP POP POP JUMP JUMPDEST PUSH1 0x0 DUP1 MLOAD PUSH1 0x20 PUSH2 0x2C6B DUP4 CODECOPY DUP2 MLOAD SWAP2 MSTORE PUSH2 0xA81 DUP2 CALLER PUSH2 0x1D08 JUMP JUMPDEST PUSH1 0x3 DUP1 SLOAD PUSH1 0x1 PUSH1 0x1 PUSH1 0xA0 SHL SUB DUP5 DUP2 AND PUSH1 0x1 PUSH1 0x1 PUSH1 0xA0 SHL SUB NOT DUP4 AND OR SWAP1 SWAP3 SSTORE PUSH1 0x40 MLOAD SWAP2 AND SWAP1 PUSH32 0x801352E72EF9B80B3992CCBEDF07AB0E133E7DA7AACCF0024ABF23F4F32EB99A SWAP1 PUSH2 0xAD4 SWAP1 DUP4 SWAP1 DUP7 SWAP1 PUSH2 0x29EB JUMP JUMPDEST PUSH1 0x40 MLOAD DUP1 SWAP2 SUB SWAP1 LOG1 POP POP POP JUMP JUMPDEST PUSH32 0xE2B7FB3B832174769106DAEBCFD6D1970523240DDA11281102DB9363B83B0DC4 PUSH2 0xB0C DUP2 CALLER PUSH2 0x1D08 JUMP JUMPDEST PUSH1 0x0 DUP7 DUP2 MSTORE PUSH1 0x6 PUSH1 0x20 MSTORE PUSH1 0x40 SWAP1 KECCAK256 SLOAD PUSH1 0x1 PUSH1 0x1 PUSH1 0xA0 SHL SUB AND ISZERO PUSH2 0xB42 JUMPI PUSH1 0x40 MLOAD PUSH4 0x1AEECEBF PUSH1 0xE2 SHL DUP2 MSTORE PUSH1 0x4 ADD PUSH1 0x40 MLOAD DUP1 SWAP2 SUB SWAP1 REVERT JUMPDEST PUSH1 0x40 DUP1 MLOAD PUSH1 0x60 DUP1 DUP3 ADD DUP4 MSTORE PUSH1 0x1 PUSH1 0x1 PUSH1 0xA0 SHL SUB DUP9 DUP2 AND DUP1 DUP5 MSTORE PUSH1 0x20 DUP1 DUP6 ADD DUP11 DUP2 MSTORE PUSH1 0x0 DUP7 DUP9 ADD DUP2 DUP2 MSTORE DUP15 DUP3 MSTORE PUSH1 0x6 DUP5 MSTORE SWAP1 DUP9 SWAP1 KECCAK256 SWAP7 MLOAD DUP8 SLOAD PUSH1 0x1 PUSH1 0x1 PUSH1 0xA0 SHL SUB NOT AND SWAP6 AND SWAP5 SWAP1 SWAP5 OR DUP7 SSTORE MLOAD PUSH1 0x1 DUP7 ADD SSTORE SWAP2 MLOAD PUSH1 0x2 SWAP1 SWAP5 ADD SWAP4 SWAP1 SWAP4 SSTORE DUP4 MLOAD DUP9 DUP2 MSTORE SWAP1 DUP2 ADD DUP8 SWAP1 MSTORE SWAP3 DUP4 ADD DUP6 SWAP1 MSTORE SWAP1 SWAP2 DUP9 SWAP2 PUSH32 0xC985471D1CB1BB75DA0D54FA5AB10F7171E952CEFCC0BF4FC7C2546C19D1811F SWAP2 ADD PUSH1 0x40 MLOAD DUP1 SWAP2 SUB SWAP1 LOG3 POP POP POP POP POP POP JUMP JUMPDEST PUSH1 0x0 DUP3 DUP2 MSTORE PUSH1 0x1 PUSH1 0x20 DUP2 SWAP1 MSTORE PUSH1 0x40 SWAP1 SWAP2 KECCAK256 ADD SLOAD PUSH2 0xC02 DUP2 CALLER PUSH2 0x1D08 JUMP JUMPDEST PUSH2 0xC0C DUP4 DUP4 PUSH2 0x1D6C JUMP JUMPDEST POP POP POP JUMP JUMPDEST PUSH1 0x1 PUSH1 0x1 PUSH1 0xA0 SHL SUB DUP2 AND CALLER EQ PUSH2 0xC81 JUMPI PUSH1 0x40 MLOAD PUSH3 0x461BCD PUSH1 0xE5 SHL DUP2 MSTORE PUSH1 0x20 PUSH1 0x4 DUP3 ADD MSTORE PUSH1 0x2F PUSH1 0x24 DUP3 ADD MSTORE PUSH32 0x416363657373436F6E74726F6C3A2063616E206F6E6C792072656E6F756E6365 PUSH1 0x44 DUP3 ADD MSTORE PUSH15 0x103937B632B9903337B91039B2B633 PUSH1 0x89 SHL PUSH1 0x64 DUP3 ADD MSTORE PUSH1 0x84 ADD PUSH2 0x8DC JUMP JUMPDEST PUSH2 0xC8B DUP3 DUP3 PUSH2 0x1D8E JUMP JUMPDEST POP POP JUMP JUMPDEST PUSH1 0x2 PUSH1 0x0 SLOAD SUB PUSH2 0xCB1 JUMPI PUSH1 0x40 MLOAD PUSH3 0x461BCD PUSH1 0xE5 SHL DUP2 MSTORE PUSH1 0x4 ADD PUSH2 0x8DC SWAP1 PUSH2 0x297E JUMP JUMPDEST PUSH1 0x2 PUSH1 0x0 SSTORE PUSH1 0xE SLOAD PUSH2 0x100 SWAP1 DIV PUSH1 0xFF AND DUP1 ISZERO PUSH2 0xCE0 JUMPI PUSH1 0x40 MLOAD PUSH4 0xAADFADDD PUSH1 0xE0 SHL DUP2 MSTORE PUSH1 0x4 ADD PUSH1 0x40 MLOAD DUP1 SWAP2 SUB SWAP1 REVERT JUMPDEST DUP2 PUSH1 0x0 JUMPDEST DUP2 DUP2 LT ISZERO PUSH2 0xD1D JUMPI PUSH2 0xD0D DUP6 DUP6 DUP4 DUP2 DUP2 LT PUSH2 0xD01 JUMPI PUSH2 0xD01 PUSH2 0x2A05 JUMP JUMPDEST SWAP1 POP PUSH1 0x20 MUL ADD CALLDATALOAD PUSH2 0x1DB0 JUMP JUMPDEST PUSH2 0xD16 DUP2 PUSH2 0x2A31 JUMP JUMPDEST SWAP1 POP PUSH2 0xCE4 JUMP JUMPDEST POP POP PUSH1 0x1 PUSH1 0x0 SSTORE POP POP POP JUMP JUMPDEST PUSH1 0x0 DUP1 MLOAD PUSH1 0x20 PUSH2 0x2C2B DUP4 CODECOPY DUP2 MLOAD SWAP2 MSTORE PUSH2 0xD42 DUP2 CALLER PUSH2 0x1D08 JUMP JUMPDEST PUSH1 0xE DUP1 SLOAD PUSH3 0xFF0000 NOT AND PUSH3 0x10000 OR SWAP1 SSTORE PUSH1 0x40 MLOAD PUSH32 0xDC41A92196CCC1AB8149C01BC68C2F506B10A7BB5CD2693C9516D176F5381FF4 SWAP1 PUSH2 0x8AF SWAP1 CALLER SWAP1 PUSH2 0x2890 JUMP JUMPDEST PUSH1 0x0 DUP1 MLOAD PUSH1 0x20 PUSH2 0x2C6B DUP4 CODECOPY DUP2 MLOAD SWAP2 MSTORE PUSH2 0xD9C DUP2 CALLER PUSH2 0x1D08 JUMP JUMPDEST PUSH1 0xE DUP1 SLOAD PUSH3 0xFF0000 NOT AND SWAP1 SSTORE PUSH1 0x40 MLOAD PUSH32 0x53A8C40FC17C78D38E2C06AA8D2C550C1ACBF7B30D087DBDA289AB3DD41C235C SWAP1 PUSH2 0x8AF SWAP1 CALLER SWAP1 PUSH2 0x2890 JUMP JUMPDEST PUSH1 0x0 DUP1 MLOAD PUSH1 0x20 PUSH2 0x2C6B DUP4 CODECOPY DUP2 MLOAD SWAP2 MSTORE PUSH2 0xDF1 DUP2 CALLER PUSH2 0x1D08 JUMP JUMPDEST PUSH2 0x2710 DUP3 LT ISZERO PUSH2 0xE14 JUMPI PUSH1 0x40 MLOAD PUSH4 0x617AB12D PUSH1 0xE1 SHL DUP2 MSTORE PUSH1 0x4 ADD PUSH1 0x40 MLOAD DUP1 SWAP2 SUB SWAP1 REVERT JUMPDEST PUSH1 0x9 DUP1 SLOAD SWAP1 DUP4 SWAP1 SSTORE PUSH1 0x40 DUP1 MLOAD DUP3 DUP2 MSTORE PUSH1 0x20 DUP2 ADD DUP6 SWAP1 MSTORE PUSH32 0xFDAF6ED728CEF208E62328A008209556F8281F3062B14DD08AAAA90FA1594211 SWAP2 ADD PUSH2 0xAD4 JUMP JUMPDEST PUSH1 0x0 DUP1 MLOAD PUSH1 0x20 PUSH2 0x2C6B DUP4 CODECOPY DUP2 MLOAD SWAP2 MSTORE PUSH2 0xE6B DUP2 CALLER PUSH2 0x1D08 JUMP JUMPDEST PUSH1 0x4 DUP1 SLOAD PUSH1 0x1 PUSH1 0x1 PUSH1 0xA0 SHL SUB DUP5 DUP2 AND PUSH1 0x1 PUSH1 0x1 PUSH1 0xA0 SHL SUB NOT DUP4 AND OR SWAP1 SWAP3 SSTORE PUSH1 0x40 MLOAD SWAP2 AND SWAP1 PUSH32 0xB09F298B2812193D5ADA18BEAADD6CB8F12B3640926D99DE46E2A65394DF829D SWAP1 PUSH2 0xAD4 SWAP1 DUP4 SWAP1 DUP7 SWAP1 PUSH2 0x29EB JUMP JUMPDEST PUSH1 0x0 DUP1 MLOAD PUSH1 0x20 PUSH2 0x2C6B DUP4 CODECOPY DUP2 MLOAD SWAP2 MSTORE PUSH2 0xED7 DUP2 CALLER PUSH2 0x1D08 JUMP JUMPDEST PUSH2 0x2710 DUP3 GT ISZERO PUSH2 0xEFA JUMPI PUSH1 0x40 MLOAD PUSH4 0x7E2DF709 PUSH1 0xE1 SHL DUP2 MSTORE PUSH1 0x4 ADD PUSH1 0x40 MLOAD DUP1 SWAP2 SUB SWAP1 REVERT JUMPDEST PUSH1 0xB DUP1 SLOAD SWAP1 DUP4 SWAP1 SSTORE PUSH1 0x40 DUP1 MLOAD DUP3 DUP2 MSTORE PUSH1 0x20 DUP2 ADD DUP6 SWAP1 MSTORE PUSH32 0x2956ACFE8584FB02384E06C675EE215BF10D55C3DE1E6FF9B2F621E8A40C6470 SWAP2 ADD PUSH2 0xAD4 JUMP JUMPDEST PUSH1 0x0 DUP1 MLOAD PUSH1 0x20 PUSH2 0x2C6B DUP4 CODECOPY DUP2 MLOAD SWAP2 MSTORE PUSH2 0xF51 DUP2 CALLER PUSH2 0x1D08 JUMP JUMPDEST PUSH1 0xE DUP1 SLOAD PUSH2 0xFF00 NOT AND SWAP1 SSTORE PUSH1 0x40 MLOAD PUSH32 0x94482EE2B195C365DBBC2D689FD5A088D2B219ABE44360BA8895525C9471D66F SWAP1 PUSH2 0x8AF SWAP1 CALLER SWAP1 PUSH2 0x2890 JUMP JUMPDEST PUSH1 0x0 DUP1 MLOAD PUSH1 0x20 PUSH2 0x2C4B DUP4 CODECOPY DUP2 MLOAD SWAP2 MSTORE PUSH2 0xFA5 DUP2 CALLER PUSH2 0x1D08 JUMP JUMPDEST DUP4 DUP3 DUP2 EQ PUSH2 0xFC6 JUMPI PUSH1 0x40 MLOAD PUSH4 0xCC6E40B3 PUSH1 0xE0 SHL DUP2 MSTORE PUSH1 0x4 ADD PUSH1 0x40 MLOAD DUP1 SWAP2 SUB SWAP1 REVERT JUMPDEST PUSH1 0x0 JUMPDEST DUP2 DUP2 LT ISZERO PUSH2 0x1131 JUMPI PUSH1 0x0 PUSH1 0x6 DUP2 DUP10 DUP10 DUP6 DUP2 DUP2 LT PUSH2 0xFE8 JUMPI PUSH2 0xFE8 PUSH2 0x2A05 JUMP JUMPDEST PUSH1 0x20 SWAP1 DUP2 MUL SWAP3 SWAP1 SWAP3 ADD CALLDATALOAD DUP4 MSTORE POP DUP2 ADD SWAP2 SWAP1 SWAP2 MSTORE PUSH1 0x40 ADD PUSH1 0x0 KECCAK256 SLOAD PUSH1 0x1 PUSH1 0x1 PUSH1 0xA0 SHL SUB AND SUB PUSH2 0x1029 JUMPI PUSH1 0x40 MLOAD PUSH4 0x5A8A45B PUSH1 0xE4 SHL DUP2 MSTORE PUSH1 0x4 ADD PUSH1 0x40 MLOAD DUP1 SWAP2 SUB SWAP1 REVERT JUMPDEST PUSH1 0x6 PUSH1 0x0 DUP9 DUP9 DUP5 DUP2 DUP2 LT PUSH2 0x103F JUMPI PUSH2 0x103F PUSH2 0x2A05 JUMP JUMPDEST SWAP1 POP PUSH1 0x20 MUL ADD CALLDATALOAD DUP2 MSTORE PUSH1 0x20 ADD SWAP1 DUP2 MSTORE PUSH1 0x20 ADD PUSH1 0x0 KECCAK256 PUSH1 0x2 ADD SLOAD PUSH1 0x0 EQ PUSH2 0x1078 JUMPI PUSH1 0x40 MLOAD PUSH4 0x1139F309 PUSH1 0xE3 SHL DUP2 MSTORE PUSH1 0x4 ADD PUSH1 0x40 MLOAD DUP1 SWAP2 SUB SWAP1 REVERT JUMPDEST DUP5 DUP5 DUP3 DUP2 DUP2 LT PUSH2 0x108A JUMPI PUSH2 0x108A PUSH2 0x2A05 JUMP JUMPDEST SWAP1 POP PUSH1 0x20 MUL ADD CALLDATALOAD PUSH1 0x6 PUSH1 0x0 DUP10 DUP10 DUP6 DUP2 DUP2 LT PUSH2 0x10A7 JUMPI PUSH2 0x10A7 PUSH2 0x2A05 JUMP JUMPDEST SWAP1 POP PUSH1 0x20 MUL ADD CALLDATALOAD DUP2 MSTORE PUSH1 0x20 ADD SWAP1 DUP2 MSTORE PUSH1 0x20 ADD PUSH1 0x0 KECCAK256 PUSH1 0x2 ADD DUP2 SWAP1 SSTORE POP DUP5 DUP5 DUP3 DUP2 DUP2 LT PUSH2 0x10D5 JUMPI PUSH2 0x10D5 PUSH2 0x2A05 JUMP JUMPDEST SWAP1 POP PUSH1 0x20 MUL ADD CALLDATALOAD DUP8 DUP8 DUP4 DUP2 DUP2 LT PUSH2 0x10EE JUMPI PUSH2 0x10EE PUSH2 0x2A05 JUMP JUMPDEST SWAP1 POP PUSH1 0x20 MUL ADD CALLDATALOAD PUSH32 0xC2055184BBC2D10B90BF7DF17A84F8BDDA6B52377A976E41E0C1610FFFAFC0D7 PUSH1 0x40 MLOAD PUSH1 0x40 MLOAD DUP1 SWAP2 SUB SWAP1 LOG3 PUSH2 0x112A DUP2 PUSH2 0x2A31 JUMP JUMPDEST SWAP1 POP PUSH2 0xFC9 JUMP JUMPDEST POP POP POP POP POP POP POP JUMP JUMPDEST PUSH1 0x0 DUP1 MLOAD PUSH1 0x20 PUSH2 0x2C6B DUP4 CODECOPY DUP2 MLOAD SWAP2 MSTORE PUSH2 0x1153 DUP2 CALLER PUSH2 0x1D08 JUMP JUMPDEST PUSH1 0xE DUP1 SLOAD PUSH1 0xFF NOT AND SWAP1 SSTORE PUSH1 0x40 MLOAD PUSH32 0xC641B9C4AFA539CEDCBE2E5F3E47D9F092175B5D0B8AE72DFFA634A3EB3E47E4 SWAP1 PUSH2 0x8AF SWAP1 CALLER SWAP1 PUSH2 0x2890 JUMP JUMPDEST PUSH1 0x0 DUP3 DUP2 MSTORE PUSH1 0x2 PUSH1 0x20 MSTORE PUSH1 0x40 DUP2 KECCAK256 PUSH2 0x11A5 SWAP1 DUP4 PUSH2 0x1E27 JUMP JUMPDEST SWAP4 SWAP3 POP POP POP JUMP JUMPDEST PUSH1 0x0 SWAP2 DUP3 MSTORE PUSH1 0x1 PUSH1 0x20 SWAP1 DUP2 MSTORE PUSH1 0x40 DUP1 DUP5 KECCAK256 PUSH1 0x1 PUSH1 0x1 PUSH1 0xA0 SHL SUB SWAP4 SWAP1 SWAP4 AND DUP5 MSTORE SWAP2 SWAP1 MSTORE SWAP1 KECCAK256 SLOAD PUSH1 0xFF AND SWAP1 JUMP JUMPDEST PUSH1 0x0 DUP1 MLOAD PUSH1 0x20 PUSH2 0x2C2B DUP4 CODECOPY DUP2 MLOAD SWAP2 MSTORE PUSH2 0x11F0 DUP2 CALLER PUSH2 0x1D08 JUMP JUMPDEST PUSH1 0xE DUP1 SLOAD PUSH1 0xFF NOT AND PUSH1 0x1 OR SWAP1 SSTORE PUSH1 0x40 MLOAD PUSH32 0x71E0406677C0570B2A66B1A4FEECCF5C1CBA2D6729435461E27A312B15410D04 SWAP1 PUSH2 0x8AF SWAP1 CALLER SWAP1 PUSH2 0x2890 JUMP JUMPDEST PUSH1 0x0 DUP1 MLOAD PUSH1 0x20 PUSH2 0x2C4B DUP4 CODECOPY DUP2 MLOAD SWAP2 MSTORE PUSH2 0x1246 DUP2 CALLER PUSH2 0x1D08 JUMP JUMPDEST DUP4 DUP3 DUP2 EQ PUSH2 0x1267 JUMPI PUSH1 0x40 MLOAD PUSH4 0xCC6E40B3 PUSH1 0xE0 SHL DUP2 MSTORE PUSH1 0x4 ADD PUSH1 0x40 MLOAD DUP1 SWAP2 SUB SWAP1 REVERT JUMPDEST PUSH1 0x0 JUMPDEST DUP2 DUP2 LT ISZERO PUSH2 0x1131 JUMPI PUSH1 0x7 PUSH1 0x0 DUP9 DUP9 DUP5 DUP2 DUP2 LT PUSH2 0x1288 JUMPI PUSH2 0x1288 PUSH2 0x2A05 JUMP JUMPDEST SWAP1 POP PUSH1 0x20 MUL ADD CALLDATALOAD DUP2 MSTORE PUSH1 0x20 ADD SWAP1 DUP2 MSTORE PUSH1 0x20 ADD PUSH1 0x0 KECCAK256 PUSH1 0x2 ADD SLOAD PUSH1 0x0 EQ PUSH2 0x12C1 JUMPI PUSH1 0x40 MLOAD PUSH4 0x1139F309 PUSH1 0xE3 SHL DUP2 MSTORE PUSH1 0x4 ADD PUSH1 0x40 MLOAD DUP1 SWAP2 SUB SWAP1 REVERT JUMPDEST DUP5 DUP5 DUP3 DUP2 DUP2 LT PUSH2 0x12D3 JUMPI PUSH2 0x12D3 PUSH2 0x2A05 JUMP JUMPDEST SWAP1 POP PUSH1 0x20 MUL ADD CALLDATALOAD PUSH1 0x7 PUSH1 0x0 DUP10 DUP10 DUP6 DUP2 DUP2 LT PUSH2 0x12F0 JUMPI PUSH2 0x12F0 PUSH2 0x2A05 JUMP JUMPDEST SWAP1 POP PUSH1 0x20 MUL ADD CALLDATALOAD DUP2 MSTORE PUSH1 0x20 ADD SWAP1 DUP2 MSTORE PUSH1 0x20 ADD PUSH1 0x0 KECCAK256 PUSH1 0x2 ADD DUP2 SWAP1 SSTORE POP DUP5 DUP5 DUP3 DUP2 DUP2 LT PUSH2 0x131E JUMPI PUSH2 0x131E PUSH2 0x2A05 JUMP JUMPDEST SWAP1 POP PUSH1 0x20 MUL ADD CALLDATALOAD DUP8 DUP8 DUP4 DUP2 DUP2 LT PUSH2 0x1337 JUMPI PUSH2 0x1337 PUSH2 0x2A05 JUMP JUMPDEST SWAP1 POP PUSH1 0x20 MUL ADD CALLDATALOAD PUSH31 0x5E86A70F400D1820AB5A0573A2BE911D831AB28FE2E9448B34DAAB223B09C PUSH1 0x40 MLOAD PUSH1 0x40 MLOAD DUP1 SWAP2 SUB SWAP1 LOG3 PUSH2 0x1372 DUP2 PUSH2 0x2A31 JUMP JUMPDEST SWAP1 POP PUSH2 0x126A JUMP JUMPDEST PUSH1 0x0 DUP1 MLOAD PUSH1 0x20 PUSH2 0x2C6B DUP4 CODECOPY DUP2 MLOAD SWAP2 MSTORE PUSH2 0x1392 DUP2 CALLER PUSH2 0x1D08 JUMP JUMPDEST PUSH2 0x2710 DUP3 LT ISZERO PUSH2 0x13B5 JUMPI PUSH1 0x40 MLOAD PUSH4 0x617AB12D PUSH1 0xE1 SHL DUP2 MSTORE PUSH1 0x4 ADD PUSH1 0x40 MLOAD DUP1 SWAP2 SUB SWAP1 REVERT JUMPDEST PUSH1 0x8 DUP1 SLOAD SWAP1 DUP4 SWAP1 SSTORE PUSH1 0x40 DUP1 MLOAD DUP3 DUP2 MSTORE PUSH1 0x20 DUP2 ADD DUP6 SWAP1 MSTORE PUSH32 0xE6E25ADD7363F8F8A40CBEA9810D3115A33703B10972EF759104219B00657436 SWAP2 ADD PUSH2 0xAD4 JUMP JUMPDEST PUSH1 0x0 DUP2 DUP2 MSTORE PUSH1 0x2 PUSH1 0x20 MSTORE PUSH1 0x40 DUP2 KECCAK256 PUSH2 0x851 SWAP1 PUSH2 0x1E33 JUMP JUMPDEST PUSH32 0xCED4EB9FAEB19AB0E2E05A20ADE58D82157E1035A3FBFF4BC38DD5E609F22B93 PUSH2 0x1435 DUP2 CALLER PUSH2 0x1D08 JUMP JUMPDEST TIMESTAMP DUP5 LT ISZERO PUSH2 0x1456 JUMPI PUSH1 0x40 MLOAD PUSH4 0x209768A3 PUSH1 0xE1 SHL DUP2 MSTORE PUSH1 0x4 ADD PUSH1 0x40 MLOAD DUP1 SWAP2 SUB SWAP1 REVERT JUMPDEST DUP2 PUSH1 0x0 JUMPDEST DUP2 DUP2 LT ISZERO PUSH2 0x14E8 JUMPI DUP6 PUSH1 0x10 PUSH1 0x0 DUP8 DUP8 DUP6 DUP2 DUP2 LT PUSH2 0x1479 JUMPI PUSH2 0x1479 PUSH2 0x2A05 JUMP JUMPDEST SWAP1 POP PUSH1 0x20 MUL ADD CALLDATALOAD DUP2 MSTORE PUSH1 0x20 ADD SWAP1 DUP2 MSTORE PUSH1 0x20 ADD PUSH1 0x0 KECCAK256 DUP2 SWAP1 SSTORE POP DUP5 DUP5 DUP3 DUP2 DUP2 LT PUSH2 0x14A4 JUMPI PUSH2 0x14A4 PUSH2 0x2A05 JUMP JUMPDEST SWAP1 POP PUSH1 0x20 MUL ADD CALLDATALOAD DUP7 PUSH32 0x15D20A98E8D4B1247FC51E2F6817929874A0769087776E52268EB1B4C8BDB2DD PUSH1 0x40 MLOAD PUSH1 0x40 MLOAD DUP1 SWAP2 SUB SWAP1 LOG3 PUSH2 0x14E1 DUP2 PUSH2 0x2A31 JUMP JUMPDEST SWAP1 POP PUSH2 0x145A JUMP JUMPDEST POP POP POP POP POP POP JUMP JUMPDEST PUSH1 0x0 DUP3 DUP2 MSTORE PUSH1 0x1 PUSH1 0x20 DUP2 SWAP1 MSTORE PUSH1 0x40 SWAP1 SWAP2 KECCAK256 ADD SLOAD PUSH2 0x150D DUP2 CALLER PUSH2 0x1D08 JUMP JUMPDEST PUSH2 0xC0C DUP4 DUP4 PUSH2 0x1D8E JUMP JUMPDEST PUSH1 0x2 PUSH1 0x0 SLOAD SUB PUSH2 0x1539 JUMPI PUSH1 0x40 MLOAD PUSH3 0x461BCD PUSH1 0xE5 SHL DUP2 MSTORE PUSH1 0x4 ADD PUSH2 0x8DC SWAP1 PUSH2 0x297E JUMP JUMPDEST PUSH1 0x2 PUSH1 0x0 SSTORE PUSH1 0xE SLOAD PUSH2 0x100 SWAP1 DIV PUSH1 0xFF AND DUP1 ISZERO PUSH2 0x1568 JUMPI PUSH1 0x40 MLOAD PUSH4 0xAADFADDD PUSH1 0xE0 SHL DUP2 MSTORE PUSH1 0x4 ADD PUSH1 0x40 MLOAD DUP1 SWAP2 SUB SWAP1 REVERT JUMPDEST PUSH1 0x8 SLOAD DUP3 LT ISZERO PUSH2 0x158B JUMPI PUSH1 0x40 MLOAD PUSH4 0x6BA4A1C7 PUSH1 0xE0 SHL DUP2 MSTORE PUSH1 0x4 ADD PUSH1 0x40 MLOAD DUP1 SWAP2 SUB SWAP1 REVERT JUMPDEST PUSH1 0x0 PUSH2 0x1596 DUP4 PUSH2 0x1E3D JUMP JUMPDEST SWAP1 POP PUSH1 0x0 PUSH2 0x15A4 DUP3 DUP6 PUSH2 0x2A4A JUMP JUMPDEST PUSH1 0xC DUP1 SLOAD SWAP2 SWAP3 POP PUSH1 0x0 SWAP2 SWAP1 DUP3 PUSH2 0x15B9 DUP4 PUSH2 0x2A31 JUMP JUMPDEST SWAP1 SWAP2 SSTORE POP PUSH1 0x40 DUP1 MLOAD PUSH1 0x60 DUP2 ADD DUP3 MSTORE CALLER DUP2 MSTORE PUSH1 0x20 DUP1 DUP3 ADD DUP7 DUP2 MSTORE PUSH1 0x0 DUP4 DUP6 ADD DUP2 DUP2 MSTORE DUP7 DUP3 MSTORE PUSH1 0x6 SWAP1 SWAP4 MSTORE SWAP4 SWAP1 SWAP4 KECCAK256 SWAP2 MLOAD DUP3 SLOAD PUSH1 0x1 PUSH1 0x1 PUSH1 0xA0 SHL SUB NOT AND PUSH1 0x1 PUSH1 0x1 PUSH1 0xA0 SHL SUB SWAP1 SWAP2 AND OR DUP3 SSTORE SWAP2 MLOAD PUSH1 0x1 DUP3 ADD SSTORE SWAP1 MLOAD PUSH1 0x2 SWAP1 SWAP2 ADD SSTORE SWAP1 POP DUP3 ISZERO PUSH2 0x1655 JUMPI PUSH1 0x5 SLOAD PUSH2 0x1655 SWAP1 PUSH1 0x1 PUSH1 0x1 PUSH1 0xA0 SHL SUB PUSH32 0x0 DUP2 AND SWAP2 CALLER SWAP2 AND DUP7 PUSH2 0x1E5A JUMP JUMPDEST PUSH2 0x169E PUSH1 0x1 PUSH1 0x1 PUSH1 0xA0 SHL SUB PUSH32 0x0 AND CALLER PUSH20 0x686B3A7B9BE2751BB51084A6E0E7DB7F1746EB1 DUP6 PUSH2 0x1E5A JUMP JUMPDEST PUSH1 0x40 DUP1 MLOAD DUP7 DUP2 MSTORE PUSH1 0x20 DUP2 ADD DUP5 SWAP1 MSTORE SWAP1 DUP2 ADD DUP5 SWAP1 MSTORE DUP2 SWAP1 CALLER SWAP1 PUSH32 0x7CBCE37C7B11D322316420484F40C29CE672AD3FA16752551A3DBE6CCFA04E14 SWAP1 PUSH1 0x60 ADD PUSH1 0x40 MLOAD DUP1 SWAP2 SUB SWAP1 LOG3 POP POP PUSH1 0x1 PUSH1 0x0 SSTORE POP POP POP JUMP JUMPDEST PUSH1 0x0 DUP1 MLOAD PUSH1 0x20 PUSH2 0x2C6B DUP4 CODECOPY DUP2 MLOAD SWAP2 MSTORE PUSH2 0x1708 DUP2 CALLER PUSH2 0x1D08 JUMP JUMPDEST PUSH1 0x0 PUSH1 0x6 PUSH1 0x0 DUP8 DUP2 MSTORE PUSH1 0x20 ADD SWAP1 DUP2 MSTORE PUSH1 0x20 ADD PUSH1 0x0 KECCAK256 PUSH1 0x40 MLOAD DUP1 PUSH1 0x60 ADD PUSH1 0x40 MSTORE SWAP1 DUP2 PUSH1 0x0 DUP3 ADD PUSH1 0x0 SWAP1 SLOAD SWAP1 PUSH2 0x100 EXP SWAP1 DIV PUSH1 0x1 PUSH1 0x1 PUSH1 0xA0 SHL SUB AND PUSH1 0x1 PUSH1 0x1 PUSH1 0xA0 SHL SUB AND PUSH1 0x1 PUSH1 0x1 PUSH1 0xA0 SHL SUB AND DUP2 MSTORE PUSH1 0x20 ADD PUSH1 0x1 DUP3 ADD SLOAD DUP2 MSTORE PUSH1 0x20 ADD PUSH1 0x2 DUP3 ADD SLOAD DUP2 MSTORE POP POP SWAP1 POP PUSH1 0x40 MLOAD DUP1 PUSH1 0x60 ADD PUSH1 0x40 MSTORE DUP1 DUP7 PUSH1 0x1 PUSH1 0x1 PUSH1 0xA0 SHL SUB AND DUP2 MSTORE PUSH1 0x20 ADD DUP6 DUP2 MSTORE PUSH1 0x20 ADD DUP5 DUP2 MSTORE POP PUSH1 0x6 PUSH1 0x0 DUP9 DUP2 MSTORE PUSH1 0x20 ADD SWAP1 DUP2 MSTORE PUSH1 0x20 ADD PUSH1 0x0 KECCAK256 PUSH1 0x0 DUP3 ADD MLOAD DUP2 PUSH1 0x0 ADD PUSH1 0x0 PUSH2 0x100 EXP DUP2 SLOAD DUP2 PUSH1 0x1 PUSH1 0x1 PUSH1 0xA0 SHL SUB MUL NOT AND SWAP1 DUP4 PUSH1 0x1 PUSH1 0x1 PUSH1 0xA0 SHL SUB AND MUL OR SWAP1 SSTORE POP PUSH1 0x20 DUP3 ADD MLOAD DUP2 PUSH1 0x1 ADD SSTORE PUSH1 0x40 DUP3 ADD MLOAD DUP2 PUSH1 0x2 ADD SSTORE SWAP1 POP POP DUP6 PUSH32 0x7E506B1F11218D4C947D5A59A97FD996C42AFC2B024B6AEAEC050930EB2B3399 DUP3 PUSH1 0x0 ADD MLOAD DUP8 DUP5 PUSH1 0x40 ADD MLOAD DUP8 DUP7 PUSH1 0x20 ADD MLOAD DUP11 PUSH1 0x40 MLOAD PUSH2 0xA58 SWAP7 SWAP6 SWAP5 SWAP4 SWAP3 SWAP2 SWAP1 PUSH2 0x29B5 JUMP JUMPDEST PUSH1 0x0 DUP1 MLOAD PUSH1 0x20 PUSH2 0x2C6B DUP4 CODECOPY DUP2 MLOAD SWAP2 MSTORE PUSH2 0x1847 DUP2 CALLER PUSH2 0x1D08 JUMP JUMPDEST PUSH1 0xF DUP1 SLOAD SWAP1 DUP4 SWAP1 SSTORE PUSH1 0x40 DUP1 MLOAD DUP3 DUP2 MSTORE PUSH1 0x20 DUP2 ADD DUP6 SWAP1 MSTORE PUSH32 0x1071422BAD736C3651D3D3B7A4EDA70E84E9C85A08F21C955D79DED03BBF06BB SWAP2 ADD PUSH2 0xAD4 JUMP JUMPDEST PUSH1 0x0 DUP1 MLOAD PUSH1 0x20 PUSH2 0x2C6B DUP4 CODECOPY DUP2 MLOAD SWAP2 MSTORE PUSH2 0x189E DUP2 CALLER PUSH2 0x1D08 JUMP JUMPDEST PUSH1 0x5 DUP1 SLOAD PUSH1 0x1 PUSH1 0x1 PUSH1 0xA0 SHL SUB DUP5 DUP2 AND PUSH1 0x1 PUSH1 0x1 PUSH1 0xA0 SHL SUB NOT DUP4 AND DUP2 OR SWAP1 SWAP4 SSTORE PUSH1 0x40 MLOAD SWAP2 AND SWAP2 PUSH32 0x15D80A013F22151BC7246E3BC132E12828CDE19DE98870475E3FA70840152721 SWAP2 PUSH2 0xAD4 SWAP2 DUP5 SWAP2 PUSH2 0x29EB JUMP JUMPDEST PUSH1 0x0 DUP1 MLOAD PUSH1 0x20 PUSH2 0x2C6B DUP4 CODECOPY DUP2 MLOAD SWAP2 MSTORE PUSH2 0x1909 DUP2 CALLER PUSH2 0x1D08 JUMP JUMPDEST PUSH2 0x2710 DUP3 GT ISZERO PUSH2 0x192C JUMPI PUSH1 0x40 MLOAD PUSH4 0x7E2DF709 PUSH1 0xE1 SHL DUP2 MSTORE PUSH1 0x4 ADD PUSH1 0x40 MLOAD DUP1 SWAP2 SUB SWAP1 REVERT JUMPDEST PUSH1 0xA DUP1 SLOAD SWAP1 DUP4 SWAP1 SSTORE PUSH1 0x40 DUP1 MLOAD DUP3 DUP2 MSTORE PUSH1 0x20 DUP2 ADD DUP6 SWAP1 MSTORE PUSH32 0x387269377AE17304805D5F88CEA4252E5CA47346783C279AEB9E8627335A49AC SWAP2 ADD PUSH2 0xAD4 JUMP JUMPDEST PUSH1 0x2 PUSH1 0x0 SLOAD SUB PUSH2 0x198C JUMPI PUSH1 0x40 MLOAD PUSH3 0x461BCD PUSH1 0xE5 SHL DUP2 MSTORE PUSH1 0x4 ADD PUSH2 0x8DC SWAP1 PUSH2 0x297E JUMP JUMPDEST PUSH1 0x2 PUSH1 0x0 SSTORE PUSH1 0xE SLOAD PUSH1 0xFF AND DUP1 ISZERO PUSH2 0x19B6 JUMPI PUSH1 0x40 MLOAD PUSH4 0xAADFADDD PUSH1 0xE0 SHL DUP2 MSTORE PUSH1 0x4 ADD PUSH1 0x40 MLOAD DUP1 SWAP2 SUB SWAP1 REVERT JUMPDEST PUSH1 0x9 SLOAD DUP3 LT ISZERO PUSH2 0x19D9 JUMPI PUSH1 0x40 MLOAD PUSH4 0x595BD39F PUSH1 0xE1 SHL DUP2 MSTORE PUSH1 0x4 ADD PUSH1 0x40 MLOAD DUP1 SWAP2 SUB SWAP1 REVERT JUMPDEST PUSH1 0xD DUP1 SLOAD PUSH1 0x0 SWAP2 DUP3 PUSH2 0x19EA DUP4 PUSH2 0x2A31 JUMP JUMPDEST SWAP1 SWAP2 SSTORE POP PUSH1 0x40 DUP1 MLOAD PUSH1 0x60 DUP2 ADD DUP3 MSTORE CALLER DUP1 DUP3 MSTORE PUSH1 0x20 DUP1 DUP4 ADD DUP9 DUP2 MSTORE PUSH1 0x0 DUP5 DUP7 ADD DUP2 DUP2 MSTORE DUP8 DUP3 MSTORE PUSH1 0x7 SWAP1 SWAP4 MSTORE DUP6 SWAP1 KECCAK256 SWAP4 MLOAD DUP5 SLOAD PUSH1 0x1 PUSH1 0x1 PUSH1 0xA0 SHL SUB NOT AND PUSH1 0x1 PUSH1 0x1 PUSH1 0xA0 SHL SUB SWAP2 DUP3 AND OR DUP6 SSTORE SWAP1 MLOAD PUSH1 0x1 DUP6 ADD SSTORE SWAP1 MLOAD PUSH1 0x2 SWAP1 SWAP4 ADD SWAP3 SWAP1 SWAP3 SSTORE SWAP2 MLOAD PUSH4 0x79CC679 PUSH1 0xE4 SHL DUP2 MSTORE SWAP3 SWAP4 POP PUSH32 0x0 AND SWAP2 PUSH4 0x79CC6790 SWAP2 PUSH2 0x1A8B SWAP2 DUP8 SWAP1 PUSH1 0x4 ADD PUSH2 0x2A5D JUMP JUMPDEST PUSH1 0x0 PUSH1 0x40 MLOAD DUP1 DUP4 SUB DUP2 PUSH1 0x0 DUP8 DUP1 EXTCODESIZE ISZERO DUP1 ISZERO PUSH2 0x1AA5 JUMPI PUSH1 0x0 DUP1 REVERT JUMPDEST POP GAS CALL ISZERO DUP1 ISZERO PUSH2 0x1AB9 JUMPI RETURNDATASIZE PUSH1 0x0 DUP1 RETURNDATACOPY RETURNDATASIZE PUSH1 0x0 REVERT JUMPDEST POP POP PUSH1 0x40 MLOAD DUP6 DUP2 MSTORE DUP4 SWAP3 POP CALLER SWAP2 POP PUSH32 0x80EBB30E7C30052BF403A20DA869BDD033841684E93930D97C4AF74238529B4F SWAP1 PUSH1 0x20 ADD PUSH1 0x40 MLOAD DUP1 SWAP2 SUB SWAP1 LOG3 POP POP PUSH1 0x1 PUSH1 0x0 SSTORE POP JUMP JUMPDEST PUSH1 0x2 PUSH1 0x0 SLOAD SUB PUSH2 0x1B20 JUMPI PUSH1 0x40 MLOAD PUSH3 0x461BCD PUSH1 0xE5 SHL DUP2 MSTORE PUSH1 0x4 ADD PUSH2 0x8DC SWAP1 PUSH2 0x297E JUMP JUMPDEST PUSH1 0x2 PUSH1 0x0 SSTORE PUSH1 0xE SLOAD PUSH3 0x10000 SWAP1 DIV PUSH1 0xFF AND DUP1 ISZERO PUSH2 0x1B50 JUMPI PUSH1 0x40 MLOAD PUSH4 0xAADFADDD PUSH1 0xE0 SHL DUP2 MSTORE PUSH1 0x4 ADD PUSH1 0x40 MLOAD DUP1 SWAP2 SUB SWAP1 REVERT JUMPDEST PUSH1 0xF SLOAD DUP4 LT ISZERO PUSH2 0x1B73 JUMPI PUSH1 0x40 MLOAD PUSH4 0x595BD39F PUSH1 0xE1 SHL DUP2 MSTORE PUSH1 0x4 ADD PUSH1 0x40 MLOAD DUP1 SWAP2 SUB SWAP1 REVERT JUMPDEST PUSH1 0xD DUP1 SLOAD PUSH1 0x0 SWAP2 DUP3 PUSH2 0x1B84 DUP4 PUSH2 0x2A31 JUMP JUMPDEST SWAP1 SWAP2 SSTORE POP PUSH1 0x40 MLOAD PUSH4 0x79CC679 PUSH1 0xE4 SHL DUP2 MSTORE SWAP1 SWAP2 POP PUSH1 0x1 PUSH1 0x1 PUSH1 0xA0 SHL SUB PUSH32 0x0 AND SWAP1 PUSH4 0x79CC6790 SWAP1 PUSH2 0x1BD9 SWAP1 CALLER SWAP1 DUP9 SWAP1 PUSH1 0x4 ADD PUSH2 0x2A5D JUMP JUMPDEST PUSH1 0x0 PUSH1 0x40 MLOAD DUP1 DUP4 SUB DUP2 PUSH1 0x0 DUP8 DUP1 EXTCODESIZE ISZERO DUP1 ISZERO PUSH2 0x1BF3 JUMPI PUSH1 0x0 DUP1 REVERT JUMPDEST POP GAS CALL ISZERO DUP1 ISZERO PUSH2 0x1C07 JUMPI RETURNDATASIZE PUSH1 0x0 DUP1 RETURNDATACOPY RETURNDATASIZE PUSH1 0x0 REVERT JUMPDEST POP POP PUSH1 0x40 DUP1 MLOAD DUP8 DUP2 MSTORE PUSH1 0x20 DUP2 ADD DUP8 SWAP1 MSTORE DUP5 SWAP4 POP CALLER SWAP3 POP PUSH32 0xAD2102C6ABC98F954BD5D61E6C0D19764DB331F63019296309309A34F70E66A6 SWAP2 ADD PUSH1 0x40 MLOAD DUP1 SWAP2 SUB SWAP1 LOG3 POP POP PUSH1 0x1 PUSH1 0x0 SSTORE POP POP JUMP JUMPDEST PUSH2 0x1C5D DUP3 DUP3 PUSH2 0x11AC JUMP JUMPDEST PUSH2 0xC8B JUMPI PUSH1 0x0 DUP3 DUP2 MSTORE PUSH1 0x1 PUSH1 0x20 DUP2 DUP2 MSTORE PUSH1 0x40 DUP1 DUP5 KECCAK256 PUSH1 0x1 PUSH1 0x1 PUSH1 0xA0 SHL SUB DUP7 AND DUP1 DUP7 MSTORE SWAP3 MSTORE DUP1 DUP5 KECCAK256 DUP1 SLOAD PUSH1 0xFF NOT AND SWAP1 SWAP4 OR SWAP1 SWAP3 SSTORE SWAP1 MLOAD CALLER SWAP3 DUP6 SWAP2 PUSH32 0x2F8788117E7EFF1D82E926EC794901D17C78024A50270940304540A733656F0D SWAP2 SWAP1 LOG4 POP POP JUMP JUMPDEST PUSH1 0x0 PUSH2 0x11A5 DUP4 PUSH1 0x1 PUSH1 0x1 PUSH1 0xA0 SHL SUB DUP5 AND PUSH2 0x1EBA JUMP JUMPDEST PUSH1 0x0 PUSH1 0x1 PUSH1 0x1 PUSH1 0xE0 SHL SUB NOT DUP3 AND PUSH4 0x7965DB0B PUSH1 0xE0 SHL EQ DUP1 PUSH2 0x851 JUMPI POP PUSH4 0x1FFC9A7 PUSH1 0xE0 SHL PUSH1 0x1 PUSH1 0x1 PUSH1 0xE0 SHL SUB NOT DUP4 AND EQ PUSH2 0x851 JUMP JUMPDEST PUSH2 0x1D12 DUP3 DUP3 PUSH2 0x11AC JUMP JUMPDEST PUSH2 0xC8B JUMPI PUSH2 0x1D2A DUP2 PUSH1 0x1 PUSH1 0x1 PUSH1 0xA0 SHL SUB AND PUSH1 0x14 PUSH2 0x1F09 JUMP JUMPDEST PUSH2 0x1D35 DUP4 PUSH1 0x20 PUSH2 0x1F09 JUMP JUMPDEST PUSH1 0x40 MLOAD PUSH1 0x20 ADD PUSH2 0x1D46 SWAP3 SWAP2 SWAP1 PUSH2 0x2A9A JUMP JUMPDEST PUSH1 0x40 DUP1 MLOAD PUSH1 0x1F NOT DUP2 DUP5 SUB ADD DUP2 MSTORE SWAP1 DUP3 SWAP1 MSTORE PUSH3 0x461BCD PUSH1 0xE5 SHL DUP3 MSTORE PUSH2 0x8DC SWAP2 PUSH1 0x4 ADD PUSH2 0x2B09 JUMP JUMPDEST PUSH2 0x1D76 DUP3 DUP3 PUSH2 0x1C53 JUMP JUMPDEST PUSH1 0x0 DUP3 DUP2 MSTORE PUSH1 0x2 PUSH1 0x20 MSTORE PUSH1 0x40 SWAP1 KECCAK256 PUSH2 0xC0C SWAP1 DUP3 PUSH2 0x1CBE JUMP JUMPDEST PUSH2 0x1D98 DUP3 DUP3 PUSH2 0x20A5 JUMP JUMPDEST PUSH1 0x0 DUP3 DUP2 MSTORE PUSH1 0x2 PUSH1 0x20 MSTORE PUSH1 0x40 SWAP1 KECCAK256 PUSH2 0xC0C SWAP1 DUP3 PUSH2 0x210C JUMP JUMPDEST PUSH1 0x0 DUP2 DUP2 MSTORE PUSH1 0x10 PUSH1 0x20 MSTORE PUSH1 0x40 DUP2 KECCAK256 SLOAD SWAP1 SUB PUSH2 0x1DDE JUMPI PUSH1 0x40 MLOAD PUSH4 0xAD24961 PUSH1 0xE3 SHL DUP2 MSTORE PUSH1 0x4 ADD PUSH1 0x40 MLOAD DUP1 SWAP2 SUB SWAP1 REVERT JUMPDEST PUSH1 0x0 DUP2 DUP2 MSTORE PUSH1 0x10 PUSH1 0x20 MSTORE PUSH1 0x40 SWAP1 KECCAK256 SLOAD TIMESTAMP LT ISZERO PUSH2 0x1E0D JUMPI PUSH1 0x40 MLOAD PUSH4 0x309B0BCF PUSH1 0xE2 SHL DUP2 MSTORE PUSH1 0x4 ADD PUSH1 0x40 MLOAD DUP1 SWAP2 SUB SWAP1 REVERT JUMPDEST PUSH2 0x1E16 DUP2 PUSH2 0x2121 JUMP JUMPDEST PUSH1 0x0 SWAP1 DUP2 MSTORE PUSH1 0x10 PUSH1 0x20 MSTORE PUSH1 0x40 DUP2 KECCAK256 SSTORE JUMP JUMPDEST PUSH1 0x0 PUSH2 0x11A5 DUP4 DUP4 PUSH2 0x2315 JUMP JUMPDEST PUSH1 0x0 PUSH2 0x851 DUP3 SLOAD SWAP1 JUMP JUMPDEST PUSH1 0x0 PUSH2 0x2710 PUSH1 0xA SLOAD DUP4 PUSH2 0x1E50 SWAP2 SWAP1 PUSH2 0x2B3C JUMP JUMPDEST PUSH2 0x851 SWAP2 SWAP1 PUSH2 0x2B5B JUMP JUMPDEST PUSH1 0x40 DUP1 MLOAD PUSH1 0x1 PUSH1 0x1 PUSH1 0xA0 SHL SUB DUP6 DUP2 AND PUSH1 0x24 DUP4 ADD MSTORE DUP5 AND PUSH1 0x44 DUP3 ADD MSTORE PUSH1 0x64 DUP1 DUP3 ADD DUP5 SWAP1 MSTORE DUP3 MLOAD DUP1 DUP4 SUB SWAP1 SWAP2 ADD DUP2 MSTORE PUSH1 0x84 SWAP1 SWAP2 ADD SWAP1 SWAP2 MSTORE PUSH1 0x20 DUP2 ADD DUP1 MLOAD PUSH1 0x1 PUSH1 0x1 PUSH1 0xE0 SHL SUB AND PUSH4 0x23B872DD PUSH1 0xE0 SHL OR SWAP1 MSTORE PUSH2 0x1EB4 SWAP1 DUP6 SWAP1 PUSH2 0x233F JUMP JUMPDEST POP POP POP POP JUMP JUMPDEST PUSH1 0x0 DUP2 DUP2 MSTORE PUSH1 0x1 DUP4 ADD PUSH1 0x20 MSTORE PUSH1 0x40 DUP2 KECCAK256 SLOAD PUSH2 0x1F01 JUMPI POP DUP2 SLOAD PUSH1 0x1 DUP2 DUP2 ADD DUP5 SSTORE PUSH1 0x0 DUP5 DUP2 MSTORE PUSH1 0x20 DUP1 DUP3 KECCAK256 SWAP1 SWAP4 ADD DUP5 SWAP1 SSTORE DUP5 SLOAD DUP5 DUP3 MSTORE DUP3 DUP7 ADD SWAP1 SWAP4 MSTORE PUSH1 0x40 SWAP1 KECCAK256 SWAP2 SWAP1 SWAP2 SSTORE PUSH2 0x851 JUMP JUMPDEST POP PUSH1 0x0 PUSH2 0x851 JUMP JUMPDEST PUSH1 0x60 PUSH1 0x0 PUSH2 0x1F18 DUP4 PUSH1 0x2 PUSH2 0x2B3C JUMP JUMPDEST PUSH2 0x1F23 SWAP1 PUSH1 0x2 PUSH2 0x2B7D JUMP JUMPDEST PUSH8 0xFFFFFFFFFFFFFFFF DUP2 GT ISZERO PUSH2 0x1F3B JUMPI PUSH2 0x1F3B PUSH2 0x2B90 JUMP JUMPDEST PUSH1 0x40 MLOAD SWAP1 DUP1 DUP3 MSTORE DUP1 PUSH1 0x1F ADD PUSH1 0x1F NOT AND PUSH1 0x20 ADD DUP3 ADD PUSH1 0x40 MSTORE DUP1 ISZERO PUSH2 0x1F65 JUMPI PUSH1 0x20 DUP3 ADD DUP2 DUP1 CALLDATASIZE DUP4 CALLDATACOPY ADD SWAP1 POP JUMPDEST POP SWAP1 POP PUSH1 0x3 PUSH1 0xFC SHL DUP2 PUSH1 0x0 DUP2 MLOAD DUP2 LT PUSH2 0x1F80 JUMPI PUSH2 0x1F80 PUSH2 0x2A05 JUMP JUMPDEST PUSH1 0x20 ADD ADD SWAP1 PUSH1 0x1 PUSH1 0x1 PUSH1 0xF8 SHL SUB NOT AND SWAP1 DUP2 PUSH1 0x0 BYTE SWAP1 MSTORE8 POP PUSH1 0xF PUSH1 0xFB SHL DUP2 PUSH1 0x1 DUP2 MLOAD DUP2 LT PUSH2 0x1FAF JUMPI PUSH2 0x1FAF PUSH2 0x2A05 JUMP JUMPDEST PUSH1 0x20 ADD ADD SWAP1 PUSH1 0x1 PUSH1 0x1 PUSH1 0xF8 SHL SUB NOT AND SWAP1 DUP2 PUSH1 0x0 BYTE SWAP1 MSTORE8 POP PUSH1 0x0 PUSH2 0x1FD3 DUP5 PUSH1 0x2 PUSH2 0x2B3C JUMP JUMPDEST PUSH2 0x1FDE SWAP1 PUSH1 0x1 PUSH2 0x2B7D JUMP JUMPDEST SWAP1 POP JUMPDEST PUSH1 0x1 DUP2 GT ISZERO PUSH2 0x2056 JUMPI PUSH16 0x181899199A1A9B1B9C1CB0B131B232B3 PUSH1 0x81 SHL DUP6 PUSH1 0xF AND PUSH1 0x10 DUP2 LT PUSH2 0x2012 JUMPI PUSH2 0x2012 PUSH2 0x2A05 JUMP JUMPDEST BYTE PUSH1 0xF8 SHL DUP3 DUP3 DUP2 MLOAD DUP2 LT PUSH2 0x2028 JUMPI PUSH2 0x2028 PUSH2 0x2A05 JUMP JUMPDEST PUSH1 0x20 ADD ADD SWAP1 PUSH1 0x1 PUSH1 0x1 PUSH1 0xF8 SHL SUB NOT AND SWAP1 DUP2 PUSH1 0x0 BYTE SWAP1 MSTORE8 POP PUSH1 0x4 SWAP5 SWAP1 SWAP5 SHR SWAP4 PUSH2 0x204F DUP2 PUSH2 0x2BA6 JUMP JUMPDEST SWAP1 POP PUSH2 0x1FE1 JUMP JUMPDEST POP DUP4 ISZERO PUSH2 0x11A5 JUMPI PUSH1 0x40 MLOAD PUSH3 0x461BCD PUSH1 0xE5 SHL DUP2 MSTORE PUSH1 0x20 PUSH1 0x4 DUP3 ADD DUP2 SWAP1 MSTORE PUSH1 0x24 DUP3 ADD MSTORE PUSH32 0x537472696E67733A20686578206C656E67746820696E73756666696369656E74 PUSH1 0x44 DUP3 ADD MSTORE PUSH1 0x64 ADD PUSH2 0x8DC JUMP JUMPDEST PUSH2 0x20AF DUP3 DUP3 PUSH2 0x11AC JUMP JUMPDEST ISZERO PUSH2 0xC8B JUMPI PUSH1 0x0 DUP3 DUP2 MSTORE PUSH1 0x1 PUSH1 0x20 SWAP1 DUP2 MSTORE PUSH1 0x40 DUP1 DUP4 KECCAK256 PUSH1 0x1 PUSH1 0x1 PUSH1 0xA0 SHL SUB DUP6 AND DUP1 DUP6 MSTORE SWAP3 MSTORE DUP1 DUP4 KECCAK256 DUP1 SLOAD PUSH1 0xFF NOT AND SWAP1 SSTORE MLOAD CALLER SWAP3 DUP6 SWAP2 PUSH32 0xF6391F5C32D9C69D2A47EA670B442974B53935D1EDC7FD64EB21E047A839171B SWAP2 SWAP1 LOG4 POP POP JUMP JUMPDEST PUSH1 0x0 PUSH2 0x11A5 DUP4 PUSH1 0x1 PUSH1 0x1 PUSH1 0xA0 SHL SUB DUP5 AND PUSH2 0x2411 JUMP JUMPDEST PUSH1 0x0 DUP2 DUP2 MSTORE PUSH1 0x6 PUSH1 0x20 SWAP1 DUP2 MSTORE PUSH1 0x40 DUP1 DUP4 KECCAK256 DUP2 MLOAD PUSH1 0x60 DUP2 ADD DUP4 MSTORE DUP2 SLOAD PUSH1 0x1 PUSH1 0x1 PUSH1 0xA0 SHL SUB AND DUP2 MSTORE PUSH1 0x1 DUP3 ADD SLOAD SWAP4 DUP2 ADD SWAP4 SWAP1 SWAP4 MSTORE PUSH1 0x2 ADD SLOAD SWAP1 DUP3 ADD DUP2 SWAP1 MSTORE SWAP1 SWAP2 SUB PUSH2 0x217D JUMPI PUSH1 0x40 MLOAD PUSH4 0x8718C771 PUSH1 0xE0 SHL DUP2 MSTORE PUSH1 0x4 ADD PUSH1 0x40 MLOAD DUP1 SWAP2 SUB SWAP1 REVERT JUMPDEST PUSH1 0x3 SLOAD PUSH1 0x40 DUP3 DUP2 ADD MLOAD SWAP1 MLOAD PUSH4 0xE757223 PUSH1 0xE4 SHL DUP2 MSTORE PUSH1 0x4 DUP2 ADD SWAP2 SWAP1 SWAP2 MSTORE PUSH1 0x0 SWAP2 PUSH1 0x1 PUSH1 0x1 PUSH1 0xA0 SHL SUB AND SWAP1 PUSH4 0xE7572230 SWAP1 PUSH1 0x24 ADD PUSH1 0x20 PUSH1 0x40 MLOAD DUP1 DUP4 SUB DUP2 DUP7 GAS STATICCALL ISZERO DUP1 ISZERO PUSH2 0x21CD JUMPI RETURNDATASIZE PUSH1 0x0 DUP1 RETURNDATACOPY RETURNDATASIZE PUSH1 0x0 REVERT JUMPDEST POP POP POP POP PUSH1 0x40 MLOAD RETURNDATASIZE PUSH1 0x1F NOT PUSH1 0x1F DUP3 ADD AND DUP3 ADD DUP1 PUSH1 0x40 MSTORE POP DUP2 ADD SWAP1 PUSH2 0x21F1 SWAP2 SWAP1 PUSH2 0x2BBD JUMP JUMPDEST SWAP1 POP PUSH1 0x0 PUSH2 0x2203 DUP4 PUSH1 0x20 ADD MLOAD DUP4 PUSH2 0x2504 JUMP JUMPDEST PUSH1 0x0 DUP6 DUP2 MSTORE PUSH1 0x6 PUSH1 0x20 MSTORE PUSH1 0x40 DUP1 DUP3 KECCAK256 DUP1 SLOAD PUSH1 0x1 PUSH1 0x1 PUSH1 0xA0 SHL SUB NOT AND DUP2 SSTORE PUSH1 0x1 DUP2 ADD DUP4 SWAP1 SSTORE PUSH1 0x2 ADD SWAP2 SWAP1 SWAP2 SSTORE DUP5 MLOAD SWAP1 MLOAD PUSH4 0x40C10F19 PUSH1 0xE0 SHL DUP2 MSTORE SWAP2 SWAP3 POP PUSH32 0x0 PUSH1 0x1 PUSH1 0x1 PUSH1 0xA0 SHL SUB AND SWAP2 PUSH4 0x40C10F19 SWAP2 PUSH2 0x227E SWAP2 DUP6 SWAP1 PUSH1 0x4 ADD PUSH2 0x2A5D JUMP JUMPDEST PUSH1 0x0 PUSH1 0x40 MLOAD DUP1 DUP4 SUB DUP2 PUSH1 0x0 DUP8 DUP1 EXTCODESIZE ISZERO DUP1 ISZERO PUSH2 0x2298 JUMPI PUSH1 0x0 DUP1 REVERT JUMPDEST POP GAS CALL ISZERO DUP1 ISZERO PUSH2 0x22AC JUMPI RETURNDATASIZE PUSH1 0x0 DUP1 RETURNDATACOPY RETURNDATASIZE PUSH1 0x0 REVERT JUMPDEST POP POP DUP5 MLOAD PUSH1 0x20 DUP1 DUP8 ADD MLOAD PUSH1 0x40 DUP1 DUP10 ADD MLOAD DUP2 MLOAD DUP9 DUP2 MSTORE SWAP4 DUP5 ADD SWAP3 SWAP1 SWAP3 MSTORE DUP3 ADD DUP8 SWAP1 MSTORE PUSH1 0x60 DUP3 ADD MSTORE DUP8 SWAP4 POP PUSH1 0x1 PUSH1 0x1 PUSH1 0xA0 SHL SUB SWAP1 SWAP2 AND SWAP2 POP PUSH32 0xDD602CC9CB236502FB74F091872B4025184011DD96EEE41099CAA260842F2024 SWAP1 PUSH1 0x80 ADD PUSH1 0x40 MLOAD DUP1 SWAP2 SUB SWAP1 LOG3 POP POP POP POP JUMP JUMPDEST PUSH1 0x0 DUP3 PUSH1 0x0 ADD DUP3 DUP2 SLOAD DUP2 LT PUSH2 0x232C JUMPI PUSH2 0x232C PUSH2 0x2A05 JUMP JUMPDEST SWAP1 PUSH1 0x0 MSTORE PUSH1 0x20 PUSH1 0x0 KECCAK256 ADD SLOAD SWAP1 POP SWAP3 SWAP2 POP POP JUMP JUMPDEST PUSH1 0x0 PUSH2 0x2394 DUP3 PUSH1 0x40 MLOAD DUP1 PUSH1 0x40 ADD PUSH1 0x40 MSTORE DUP1 PUSH1 0x20 DUP2 MSTORE PUSH1 0x20 ADD PUSH32 0x5361666545524332303A206C6F772D6C6576656C2063616C6C206661696C6564 DUP2 MSTORE POP DUP6 PUSH1 0x1 PUSH1 0x1 PUSH1 0xA0 SHL SUB AND PUSH2 0x2536 SWAP1 SWAP3 SWAP2 SWAP1 PUSH4 0xFFFFFFFF AND JUMP JUMPDEST DUP1 MLOAD SWAP1 SWAP2 POP ISZERO PUSH2 0xC0C JUMPI DUP1 DUP1 PUSH1 0x20 ADD SWAP1 MLOAD DUP2 ADD SWAP1 PUSH2 0x23B2 SWAP2 SWAP1 PUSH2 0x2BD6 JUMP JUMPDEST PUSH2 0xC0C JUMPI PUSH1 0x40 MLOAD PUSH3 0x461BCD PUSH1 0xE5 SHL DUP2 MSTORE PUSH1 0x20 PUSH1 0x4 DUP3 ADD MSTORE PUSH1 0x2A PUSH1 0x24 DUP3 ADD MSTORE PUSH32 0x5361666545524332303A204552433230206F7065726174696F6E20646964206E PUSH1 0x44 DUP3 ADD MSTORE PUSH10 0x1BDD081CDD58D8D95959 PUSH1 0xB2 SHL PUSH1 0x64 DUP3 ADD MSTORE PUSH1 0x84 ADD PUSH2 0x8DC JUMP JUMPDEST PUSH1 0x0 DUP2 DUP2 MSTORE PUSH1 0x1 DUP4 ADD PUSH1 0x20 MSTORE PUSH1 0x40 DUP2 KECCAK256 SLOAD DUP1 ISZERO PUSH2 0x24FA JUMPI PUSH1 0x0 PUSH2 0x2435 PUSH1 0x1 DUP4 PUSH2 0x2A4A JUMP JUMPDEST DUP6 SLOAD SWAP1 SWAP2 POP PUSH1 0x0 SWAP1 PUSH2 0x2449 SWAP1 PUSH1 0x1 SWAP1 PUSH2 0x2A4A JUMP JUMPDEST SWAP1 POP DUP2 DUP2 EQ PUSH2 0x24AE JUMPI PUSH1 0x0 DUP7 PUSH1 0x0 ADD DUP3 DUP2 SLOAD DUP2 LT PUSH2 0x2469 JUMPI PUSH2 0x2469 PUSH2 0x2A05 JUMP JUMPDEST SWAP1 PUSH1 0x0 MSTORE PUSH1 0x20 PUSH1 0x0 KECCAK256 ADD SLOAD SWAP1 POP DUP1 DUP8 PUSH1 0x0 ADD DUP5 DUP2 SLOAD DUP2 LT PUSH2 0x248C JUMPI PUSH2 0x248C PUSH2 0x2A05 JUMP JUMPDEST PUSH1 0x0 SWAP2 DUP3 MSTORE PUSH1 0x20 DUP1 DUP4 KECCAK256 SWAP1 SWAP2 ADD SWAP3 SWAP1 SWAP3 SSTORE SWAP2 DUP3 MSTORE PUSH1 0x1 DUP9 ADD SWAP1 MSTORE PUSH1 0x40 SWAP1 KECCAK256 DUP4 SWAP1 SSTORE JUMPDEST DUP6 SLOAD DUP7 SWAP1 DUP1 PUSH2 0x24BF JUMPI PUSH2 0x24BF PUSH2 0x2BF8 JUMP JUMPDEST PUSH1 0x1 SWAP1 SUB DUP2 DUP2 SWAP1 PUSH1 0x0 MSTORE PUSH1 0x20 PUSH1 0x0 KECCAK256 ADD PUSH1 0x0 SWAP1 SSTORE SWAP1 SSTORE DUP6 PUSH1 0x1 ADD PUSH1 0x0 DUP7 DUP2 MSTORE PUSH1 0x20 ADD SWAP1 DUP2 MSTORE PUSH1 0x20 ADD PUSH1 0x0 KECCAK256 PUSH1 0x0 SWAP1 SSTORE PUSH1 0x1 SWAP4 POP POP POP POP PUSH2 0x851 JUMP JUMPDEST PUSH1 0x0 SWAP2 POP POP PUSH2 0x851 JUMP JUMPDEST PUSH1 0x0 DUP1 PUSH2 0x2510 DUP5 PUSH2 0x2545 JUMP JUMPDEST PUSH2 0x2522 SWAP1 PUSH8 0xDE0B6B3A7640000 PUSH2 0x2B3C JUMP JUMPDEST SWAP1 POP PUSH2 0x252E DUP4 DUP3 PUSH2 0x2B5B JUMP JUMPDEST SWAP5 SWAP4 POP POP POP POP JUMP JUMPDEST PUSH1 0x60 PUSH2 0x252E DUP5 DUP5 PUSH1 0x0 DUP6 PUSH2 0x2571 JUMP JUMPDEST PUSH1 0x0 PUSH2 0x851 PUSH32 0x0 DUP4 PUSH2 0x2B3C JUMP JUMPDEST PUSH1 0x60 DUP3 SELFBALANCE LT ISZERO PUSH2 0x25D2 JUMPI PUSH1 0x40 MLOAD PUSH3 0x461BCD PUSH1 0xE5 SHL DUP2 MSTORE PUSH1 0x20 PUSH1 0x4 DUP3 ADD MSTORE PUSH1 0x26 PUSH1 0x24 DUP3 ADD MSTORE PUSH32 0x416464726573733A20696E73756666696369656E742062616C616E636520666F PUSH1 0x44 DUP3 ADD MSTORE PUSH6 0x1C8818D85B1B PUSH1 0xD2 SHL PUSH1 0x64 DUP3 ADD MSTORE PUSH1 0x84 ADD PUSH2 0x8DC JUMP JUMPDEST PUSH1 0x1 PUSH1 0x1 PUSH1 0xA0 SHL SUB DUP6 AND EXTCODESIZE PUSH2 0x2629 JUMPI PUSH1 0x40 MLOAD PUSH3 0x461BCD PUSH1 0xE5 SHL DUP2 MSTORE PUSH1 0x20 PUSH1 0x4 DUP3 ADD MSTORE PUSH1 0x1D PUSH1 0x24 DUP3 ADD MSTORE PUSH32 0x416464726573733A2063616C6C20746F206E6F6E2D636F6E7472616374000000 PUSH1 0x44 DUP3 ADD MSTORE PUSH1 0x64 ADD PUSH2 0x8DC JUMP JUMPDEST PUSH1 0x0 DUP1 DUP7 PUSH1 0x1 PUSH1 0x1 PUSH1 0xA0 SHL SUB AND DUP6 DUP8 PUSH1 0x40 MLOAD PUSH2 0x2645 SWAP2 SWAP1 PUSH2 0x2C0E JUMP JUMPDEST PUSH1 0x0 PUSH1 0x40 MLOAD DUP1 DUP4 SUB DUP2 DUP6 DUP8 GAS CALL SWAP3 POP POP POP RETURNDATASIZE DUP1 PUSH1 0x0 DUP2 EQ PUSH2 0x2682 JUMPI PUSH1 0x40 MLOAD SWAP2 POP PUSH1 0x1F NOT PUSH1 0x3F RETURNDATASIZE ADD AND DUP3 ADD PUSH1 0x40 MSTORE RETURNDATASIZE DUP3 MSTORE RETURNDATASIZE PUSH1 0x0 PUSH1 0x20 DUP5 ADD RETURNDATACOPY PUSH2 0x2687 JUMP JUMPDEST PUSH1 0x60 SWAP2 POP JUMPDEST POP SWAP2 POP SWAP2 POP PUSH2 0x2697 DUP3 DUP3 DUP7 PUSH2 0x26A2 JUMP JUMPDEST SWAP8 SWAP7 POP POP POP POP POP POP POP JUMP JUMPDEST PUSH1 0x60 DUP4 ISZERO PUSH2 0x26B1 JUMPI POP DUP2 PUSH2 0x11A5 JUMP JUMPDEST DUP3 MLOAD ISZERO PUSH2 0x26C1 JUMPI DUP3 MLOAD DUP1 DUP5 PUSH1 0x20 ADD REVERT JUMPDEST DUP2 PUSH1 0x40 MLOAD PUSH3 0x461BCD PUSH1 0xE5 SHL DUP2 MSTORE PUSH1 0x4 ADD PUSH2 0x8DC SWAP2 SWAP1 PUSH2 0x2B09 JUMP JUMPDEST PUSH1 0x0 PUSH1 0x20 DUP3 DUP5 SUB SLT ISZERO PUSH2 0x26ED JUMPI PUSH1 0x0 DUP1 REVERT JUMPDEST DUP2 CALLDATALOAD PUSH1 0x1 PUSH1 0x1 PUSH1 0xE0 SHL SUB NOT DUP2 AND DUP2 EQ PUSH2 0x11A5 JUMPI PUSH1 0x0 DUP1 REVERT JUMPDEST PUSH1 0x0 DUP1 DUP4 PUSH1 0x1F DUP5 ADD SLT PUSH2 0x2717 JUMPI PUSH1 0x0 DUP1 REVERT JUMPDEST POP DUP2 CALLDATALOAD PUSH8 0xFFFFFFFFFFFFFFFF DUP2 GT ISZERO PUSH2 0x272F JUMPI PUSH1 0x0 DUP1 REVERT JUMPDEST PUSH1 0x20 DUP4 ADD SWAP2 POP DUP4 PUSH1 0x20 DUP3 PUSH1 0x5 SHL DUP6 ADD ADD GT ISZERO PUSH2 0x274A JUMPI PUSH1 0x0 DUP1 REVERT JUMPDEST SWAP3 POP SWAP3 SWAP1 POP JUMP JUMPDEST PUSH1 0x0 DUP1 PUSH1 0x20 DUP4 DUP6 SUB SLT ISZERO PUSH2 0x2764 JUMPI PUSH1 0x0 DUP1 REVERT JUMPDEST DUP3 CALLDATALOAD PUSH8 0xFFFFFFFFFFFFFFFF DUP2 GT ISZERO PUSH2 0x277B JUMPI PUSH1 0x0 DUP1 REVERT JUMPDEST PUSH2 0x2787 DUP6 DUP3 DUP7 ADD PUSH2 0x2705 JUMP JUMPDEST SWAP1 SWAP7 SWAP1 SWAP6 POP SWAP4 POP POP POP POP JUMP JUMPDEST PUSH1 0x0 PUSH1 0x20 DUP3 DUP5 SUB SLT ISZERO PUSH2 0x27A5 JUMPI PUSH1 0x0 DUP1 REVERT JUMPDEST POP CALLDATALOAD SWAP2 SWAP1 POP JUMP JUMPDEST DUP1 CALLDATALOAD PUSH1 0x1 PUSH1 0x1 PUSH1 0xA0 SHL SUB DUP2 AND DUP2 EQ PUSH2 0x27C3 JUMPI PUSH1 0x0 DUP1 REVERT JUMPDEST SWAP2 SWAP1 POP JUMP JUMPDEST PUSH1 0x0 DUP1 PUSH1 0x0 DUP1 PUSH1 0x80 DUP6 DUP8 SUB SLT ISZERO PUSH2 0x27DE JUMPI PUSH1 0x0 DUP1 REVERT JUMPDEST DUP5 CALLDATALOAD SWAP4 POP PUSH2 0x27EE PUSH1 0x20 DUP7 ADD PUSH2 0x27AC JUMP JUMPDEST SWAP4 SWAP7 SWAP4 SWAP6 POP POP POP POP PUSH1 0x40 DUP3 ADD CALLDATALOAD SWAP2 PUSH1 0x60 ADD CALLDATALOAD SWAP1 JUMP JUMPDEST PUSH1 0x0 PUSH1 0x20 DUP3 DUP5 SUB SLT ISZERO PUSH2 0x2815 JUMPI PUSH1 0x0 DUP1 REVERT JUMPDEST PUSH2 0x11A5 DUP3 PUSH2 0x27AC JUMP JUMPDEST PUSH1 0x0 DUP1 PUSH1 0x0 DUP1 PUSH1 0x0 PUSH1 0xA0 DUP7 DUP9 SUB SLT ISZERO PUSH2 0x2836 JUMPI PUSH1 0x0 DUP1 REVERT JUMPDEST DUP6 CALLDATALOAD SWAP5 POP PUSH2 0x2846 PUSH1 0x20 DUP8 ADD PUSH2 0x27AC JUMP JUMPDEST SWAP5 SWAP8 SWAP5 SWAP7 POP POP POP POP PUSH1 0x40 DUP4 ADD CALLDATALOAD SWAP3 PUSH1 0x60 DUP2 ADD CALLDATALOAD SWAP3 PUSH1 0x80 SWAP1 SWAP2 ADD CALLDATALOAD SWAP2 POP JUMP JUMPDEST PUSH1 0x0 DUP1 PUSH1 0x40 DUP4 DUP6 SUB SLT ISZERO PUSH2 0x2877 JUMPI PUSH1 0x0 DUP1 REVERT JUMPDEST DUP3 CALLDATALOAD SWAP2 POP PUSH2 0x2887 PUSH1 0x20 DUP5 ADD PUSH2 0x27AC JUMP JUMPDEST SWAP1 POP SWAP3 POP SWAP3 SWAP1 POP JUMP JUMPDEST PUSH1 0x1 PUSH1 0x1 PUSH1 0xA0 SHL SUB SWAP2 SWAP1 SWAP2 AND DUP2 MSTORE PUSH1 0x20 ADD SWAP1 JUMP JUMPDEST PUSH1 0x0 DUP1 PUSH1 0x0 DUP1 PUSH1 0x40 DUP6 DUP8 SUB SLT ISZERO PUSH2 0x28BA JUMPI PUSH1 0x0 DUP1 REVERT JUMPDEST DUP5 CALLDATALOAD PUSH8 0xFFFFFFFFFFFFFFFF DUP1 DUP3 GT ISZERO PUSH2 0x28D2 JUMPI PUSH1 0x0 DUP1 REVERT JUMPDEST PUSH2 0x28DE DUP9 DUP4 DUP10 ADD PUSH2 0x2705 JUMP JUMPDEST SWAP1 SWAP7 POP SWAP5 POP PUSH1 0x20 DUP8 ADD CALLDATALOAD SWAP2 POP DUP1 DUP3 GT ISZERO PUSH2 0x28F7 JUMPI PUSH1 0x0 DUP1 REVERT JUMPDEST POP PUSH2 0x2904 DUP8 DUP3 DUP9 ADD PUSH2 0x2705 JUMP JUMPDEST SWAP6 SWAP9 SWAP5 SWAP8 POP SWAP6 POP POP POP POP JUMP JUMPDEST PUSH1 0x0 DUP1 PUSH1 0x40 DUP4 DUP6 SUB SLT ISZERO PUSH2 0x2923 JUMPI PUSH1 0x0 DUP1 REVERT JUMPDEST POP POP DUP1 CALLDATALOAD SWAP3 PUSH1 0x20 SWAP1 SWAP2 ADD CALLDATALOAD SWAP2 POP JUMP JUMPDEST PUSH1 0x0 DUP1 PUSH1 0x0 PUSH1 0x40 DUP5 DUP7 SUB SLT ISZERO PUSH2 0x2947 JUMPI PUSH1 0x0 DUP1 REVERT JUMPDEST DUP4 CALLDATALOAD SWAP3 POP PUSH1 0x20 DUP5 ADD CALLDATALOAD PUSH8 0xFFFFFFFFFFFFFFFF DUP2 GT ISZERO PUSH2 0x2965 JUMPI PUSH1 0x0 DUP1 REVERT JUMPDEST PUSH2 0x2971 DUP7 DUP3 DUP8 ADD PUSH2 0x2705 JUMP JUMPDEST SWAP5 SWAP8 SWAP1 SWAP7 POP SWAP4 SWAP5 POP POP POP POP JUMP JUMPDEST PUSH1 0x20 DUP1 DUP3 MSTORE PUSH1 0x1F SWAP1 DUP3 ADD MSTORE PUSH32 0x5265656E7472616E637947756172643A207265656E7472616E742063616C6C00 PUSH1 0x40 DUP3 ADD MSTORE PUSH1 0x60 ADD SWAP1 JUMP JUMPDEST PUSH1 0x1 PUSH1 0x1 PUSH1 0xA0 SHL SUB SWAP7 DUP8 AND DUP2 MSTORE SWAP5 SWAP1 SWAP6 AND PUSH1 0x20 DUP6 ADD MSTORE PUSH1 0x40 DUP5 ADD SWAP3 SWAP1 SWAP3 MSTORE PUSH1 0x60 DUP4 ADD MSTORE PUSH1 0x80 DUP3 ADD MSTORE PUSH1 0xA0 DUP2 ADD SWAP2 SWAP1 SWAP2 MSTORE PUSH1 0xC0 ADD SWAP1 JUMP JUMPDEST PUSH1 0x1 PUSH1 0x1 PUSH1 0xA0 SHL SUB SWAP3 DUP4 AND DUP2 MSTORE SWAP2 AND PUSH1 0x20 DUP3 ADD MSTORE PUSH1 0x40 ADD SWAP1 JUMP JUMPDEST PUSH4 0x4E487B71 PUSH1 0xE0 SHL PUSH1 0x0 MSTORE PUSH1 0x32 PUSH1 0x4 MSTORE PUSH1 0x24 PUSH1 0x0 REVERT JUMPDEST PUSH4 0x4E487B71 PUSH1 0xE0 SHL PUSH1 0x0 MSTORE PUSH1 0x11 PUSH1 0x4 MSTORE PUSH1 0x24 PUSH1 0x0 REVERT JUMPDEST PUSH1 0x0 PUSH1 0x1 DUP3 ADD PUSH2 0x2A43 JUMPI PUSH2 0x2A43 PUSH2 0x2A1B JUMP JUMPDEST POP PUSH1 0x1 ADD SWAP1 JUMP JUMPDEST DUP2 DUP2 SUB DUP2 DUP2 GT ISZERO PUSH2 0x851 JUMPI PUSH2 0x851 PUSH2 0x2A1B JUMP JUMPDEST PUSH1 0x1 PUSH1 0x1 PUSH1 0xA0 SHL SUB SWAP3 SWAP1 SWAP3 AND DUP3 MSTORE PUSH1 0x20 DUP3 ADD MSTORE PUSH1 0x40 ADD SWAP1 JUMP JUMPDEST PUSH1 0x0 JUMPDEST DUP4 DUP2 LT ISZERO PUSH2 0x2A91 JUMPI DUP2 DUP2 ADD MLOAD DUP4 DUP3 ADD MSTORE PUSH1 0x20 ADD PUSH2 0x2A79 JUMP JUMPDEST POP POP PUSH1 0x0 SWAP2 ADD MSTORE JUMP JUMPDEST PUSH23 0x20B1B1B2B9B9A1B7B73A3937B61D1030B1B1B7BAB73A1 PUSH1 0x4D SHL DUP2 MSTORE PUSH1 0x0 DUP4 MLOAD PUSH2 0x2ACC DUP2 PUSH1 0x17 DUP6 ADD PUSH1 0x20 DUP9 ADD PUSH2 0x2A76 JUMP JUMPDEST PUSH17 0x1034B99036B4B9B9B4B733903937B6329 PUSH1 0x7D SHL PUSH1 0x17 SWAP2 DUP5 ADD SWAP2 DUP3 ADD MSTORE DUP4 MLOAD PUSH2 0x2AFD DUP2 PUSH1 0x28 DUP5 ADD PUSH1 0x20 DUP9 ADD PUSH2 0x2A76 JUMP JUMPDEST ADD PUSH1 0x28 ADD SWAP5 SWAP4 POP POP POP POP JUMP JUMPDEST PUSH1 0x20 DUP2 MSTORE PUSH1 0x0 DUP3 MLOAD DUP1 PUSH1 0x20 DUP5 ADD MSTORE PUSH2 0x2B28 DUP2 PUSH1 0x40 DUP6 ADD PUSH1 0x20 DUP8 ADD PUSH2 0x2A76 JUMP JUMPDEST PUSH1 0x1F ADD PUSH1 0x1F NOT AND SWAP2 SWAP1 SWAP2 ADD PUSH1 0x40 ADD SWAP3 SWAP2 POP POP JUMP JUMPDEST PUSH1 0x0 DUP2 PUSH1 0x0 NOT DIV DUP4 GT DUP3 ISZERO ISZERO AND ISZERO PUSH2 0x2B56 JUMPI PUSH2 0x2B56 PUSH2 0x2A1B JUMP JUMPDEST POP MUL SWAP1 JUMP JUMPDEST PUSH1 0x0 DUP3 PUSH2 0x2B78 JUMPI PUSH4 0x4E487B71 PUSH1 0xE0 SHL PUSH1 0x0 MSTORE PUSH1 0x12 PUSH1 0x4 MSTORE PUSH1 0x24 PUSH1 0x0 REVERT JUMPDEST POP DIV SWAP1 JUMP JUMPDEST DUP1 DUP3 ADD DUP1 DUP3 GT ISZERO PUSH2 0x851 JUMPI PUSH2 0x851 PUSH2 0x2A1B JUMP JUMPDEST PUSH4 0x4E487B71 PUSH1 0xE0 SHL PUSH1 0x0 MSTORE PUSH1 0x41 PUSH1 0x4 MSTORE PUSH1 0x24 PUSH1 0x0 REVERT JUMPDEST PUSH1 0x0 DUP2 PUSH2 0x2BB5 JUMPI PUSH2 0x2BB5 PUSH2 0x2A1B JUMP JUMPDEST POP PUSH1 0x0 NOT ADD SWAP1 JUMP JUMPDEST PUSH1 0x0 PUSH1 0x20 DUP3 DUP5 SUB SLT ISZERO PUSH2 0x2BCF JUMPI PUSH1 0x0 DUP1 REVERT JUMPDEST POP MLOAD SWAP2 SWAP1 POP JUMP JUMPDEST PUSH1 0x0 PUSH1 0x20 DUP3 DUP5 SUB SLT ISZERO PUSH2 0x2BE8 JUMPI PUSH1 0x0 DUP1 REVERT JUMPDEST DUP2 MLOAD DUP1 ISZERO ISZERO DUP2 EQ PUSH2 0x11A5 JUMPI PUSH1 0x0 DUP1 REVERT JUMPDEST PUSH4 0x4E487B71 PUSH1 0xE0 SHL PUSH1 0x0 MSTORE PUSH1 0x31 PUSH1 0x4 MSTORE PUSH1 0x24 PUSH1 0x0 REVERT JUMPDEST PUSH1 0x0 DUP3 MLOAD PUSH2 0x2C20 DUP2 DUP5 PUSH1 0x20 DUP8 ADD PUSH2 0x2A76 JUMP JUMPDEST SWAP2 SWAP1 SWAP2 ADD SWAP3 SWAP2 POP POP JUMP INVALID SWAP11 0xC2 0xC4 RETURNDATACOPY SWAP1 0x5F 0xE4 CREATE 0xC0 ADDRESS LOG0 0xB0 0xE4 0xB8 SDIV LOG2 DUP5 0xE7 SWAP14 LOG3 0x2A 0x5C SWAP13 PUSH18 0xBE1C68DD79BBB89D830A9081649E91840EB0 0x27 0x4E SWAP10 0xB4 PUSH23 0x26A896CFA0F4DD591CB31CD5060E566C0D8C6DD8AF24DB ADDRESS PUSH15 0xB580672D47CF7DD23B8394BF74074F DUP11 0xC1 0x4B SWAP5 DUP6 SLT 0xEC 0xDB SUB LOG2 PUSH5 0x6970667358 0x22 SLT KECCAK256 0xA5 CREATE BYTE EXTCODESIZE PUSH3 0xDFA9F1 PUSH29 0x4B2F1F1343FBB1DABD04D0FD0E497DFE972EF494D917464736F6C6343 STOP ADDMOD LT STOP CALLER SWAP11 0xC2 0xC4 RETURNDATACOPY SWAP1 0x5F 0xE4 CREATE 0xC0 ADDRESS LOG0 0xB0 0xE4 0xB8 SDIV LOG2 DUP5 0xE7 SWAP14 LOG3 0x2A 0x5C SWAP13 PUSH18 0xBE1C68DD79BBB89D830A9081649E91840EB0 0x27 0x4E SWAP10 0xB4 PUSH23 0x26A896CFA0F4DD591CB31CD5060E566C0D8C6DD8AF24DB ADDRESS PUSH15 0xB580672D47CF7DD23B8394BF74074F DUP11 0xC1 0x4B SWAP5 DUP6 SLT 0xEC 0xDB SUB "},"gasEstimates":{"creation":{"codeDepositCost":"2291200","executionCost":"infinite","totalCost":"infinite"},"external":{"BPS_DENOMINATOR()":"239","DEFAULT_ADMIN_ROLE()":"240","MANAGER_ADMIN()":"infinite","PAUSER_ADMIN()":"infinite","PRICE_ID_SETTER_ROLE()":"infinite","RELAYER_ROLE()":"329","TIMESTAMP_SETTER_ROLE()":"371","addProof(bytes32,address,uint256,uint256,uint256)":"infinite","assetRecipient()":"308","assetSender()":"2493","claimMint(bytes32[])":"infinite","claimRedemption(bytes32[])":"31860","collateral()":"infinite","decimalsMultiplier()":"infinite","depositIdToClaimableTimestamp(bytes32)":"2484","depositIdToDepositor(bytes32)":"6844","feeRecipient()":"2495","getRoleAdmin(bytes32)":"2518","getRoleMember(bytes32,uint256)":"infinite","getRoleMemberCount(bytes32)":"infinite","grantRole(bytes32,address)":"infinite","hasRole(bytes32,address)":"2766","minimumDepositAmount()":"2408","minimumOffChainRedemptionAmount()":"2430","minimumRedemptionAmount()":"2472","mintFee()":"2452","offChainRedemptionPaused()":"2443","overwriteDepositor(bytes32,address,uint256,uint256)":"infinite","overwriteRedeemer(bytes32,address,uint256,uint256)":"infinite","pauseOffChainRedemption()":"infinite","pauseRedemption()":"infinite","pauseSubscription()":"infinite","pricer()":"2428","redemptionFee()":"2407","redemptionIdToRedeemer(bytes32)":"6801","redemptionPaused()":"2410","redemptionRequestCounter()":"2473","renounceRole(bytes32,address)":"infinite","requestRedemption(uint256)":"infinite","requestRedemptionServicedOffchain(uint256,bytes32)":"infinite","requestSubscription(uint256)":"infinite","revokeRole(bytes32,address)":"infinite","rwa()":"infinite","setAssetSender(address)":"infinite","setClaimableTimestamp(uint256,bytes32[])":"infinite","setFeeRecipient(address)":"infinite","setMinimumDepositAmount(uint256)":"infinite","setMinimumRedemptionAmount(uint256)":"infinite","setMintFee(uint256)":"infinite","setOffChainRedemptionMinimum(uint256)":"infinite","setPriceIdForDeposits(bytes32[],uint256[])":"infinite","setPriceIdForRedemptions(bytes32[],uint256[])":"infinite","setPricer(address)":"infinite","setRedemptionFee(uint256)":"infinite","subscriptionPaused()":"2509","subscriptionRequestCounter()":"2386","supportsInterface(bytes4)":"infinite","unpauseOffChainRedemption()":"infinite","unpauseRedemption()":"infinite","unpauseSubscription()":"infinite"},"internal":{"_claimMint(bytes32)":"infinite"}},"methodIdentifiers":{"BPS_DENOMINATOR()":"e1a45218","DEFAULT_ADMIN_ROLE()":"a217fddf","MANAGER_ADMIN()":"078a6be8","PAUSER_ADMIN()":"85c4e79e","PRICE_ID_SETTER_ROLE()":"bcc70283","RELAYER_ROLE()":"926d7d7f","TIMESTAMP_SETTER_ROLE()":"f4a20307","addProof(bytes32,address,uint256,uint256,uint256)":"2b5eceff","assetRecipient()":"3bfa67fe","assetSender()":"ee75d7d4","claimMint(bytes32[])":"4565e9ff","claimRedemption(bytes32[])":"244f5acf","collateral()":"d8dfeb45","decimalsMultiplier()":"bb13245f","depositIdToClaimableTimestamp(bytes32)":"8a07df1e","depositIdToDepositor(bytes32)":"5d591d68","feeRecipient()":"46904840","getRoleAdmin(bytes32)":"248a9ca3","getRoleMember(bytes32,uint256)":"9010d07c","getRoleMemberCount(bytes32)":"ca15c873","grantRole(bytes32,address)":"2f2ff15d","hasRole(bytes32,address)":"91d14854","minimumDepositAmount()":"080c279a","minimumOffChainRedemptionAmount()":"12589fb5","minimumRedemptionAmount()":"e0f486ef","mintFee()":"13966db5","offChainRedemptionPaused()":"dd45eef6","overwriteDepositor(bytes32,address,uint256,uint256)":"de6afa82","overwriteRedeemer(bytes32,address,uint256,uint256)":"258492cd","pauseOffChainRedemption()":"49cbbf2a","pauseRedemption()":"92bccb80","pauseSubscription()":"2056aa12","pricer()":"a6138ed9","redemptionFee()":"458f5815","redemptionIdToRedeemer(bytes32)":"38fed708","redemptionPaused()":"73a95ddd","redemptionRequestCounter()":"354181f3","renounceRole(bytes32,address)":"36568abe","requestRedemption(uint256)":"eeb3c910","requestRedemptionServicedOffchain(uint256,bytes32)":"f80a36d6","requestSubscription(uint256)":"d592d815","revokeRole(bytes32,address)":"d547741f","rwa()":"95e4b251","setAssetSender(address)":"525decd6","setClaimableTimestamp(uint256,bytes32[])":"d0c835ce","setFeeRecipient(address)":"e74b981b","setMinimumDepositAmount(uint256)":"aab483d6","setMinimumRedemptionAmount(uint256)":"4ef1ccd1","setMintFee(uint256)":"eddd0d9c","setOffChainRedemptionMinimum(uint256)":"e4107c97","setPriceIdForDeposits(bytes32[],uint256[])":"87e2d06e","setPriceIdForRedemptions(bytes32[],uint256[])":"aa85c1df","setPricer(address)":"29390370","setRedemptionFee(uint256)":"7dbc1df0","subscriptionPaused()":"cd4d0bcf","subscriptionRequestCounter()":"07bda1bb","supportsInterface(bytes4)":"01ffc9a7","unpauseOffChainRedemption()":"4dfe7af2","unpauseRedemption()":"8d044c06","unpauseSubscription()":"837018fa"}},"storageLayout":{"storage":[{"astId":2031,"contract":"contracts/abby/ABBYManager.sol:ABBYManager","label":"_status","offset":0,"slot":"0","type":"t_uint256"},{"astId":1513,"contract":"contracts/abby/ABBYManager.sol:ABBYManager","label":"_roles","offset":0,"slot":"1","type":"t_mapping(t_bytes32,t_struct(RoleData)1508_storage)"},{"astId":1816,"contract":"contracts/abby/ABBYManager.sol:ABBYManager","label":"_roleMembers","offset":0,"slot":"2","type":"t_mapping(t_bytes32,t_struct(AddressSet)3040_storage)"},{"astId":25,"contract":"contracts/abby/ABBYManager.sol:ABBYManager","label":"pricer","offset":0,"slot":"3","type":"t_contract(IPricerReader)3584"},{"astId":30,"contract":"contracts/abby/ABBYManager.sol:ABBYManager","label":"assetSender","offset":0,"slot":"4","type":"t_address"},{"astId":32,"contract":"contracts/abby/ABBYManager.sol:ABBYManager","label":"feeRecipient","offset":0,"slot":"5","type":"t_address"},{"astId":37,"contract":"contracts/abby/ABBYManager.sol:ABBYManager","label":"depositIdToDepositor","offset":0,"slot":"6","type":"t_mapping(t_bytes32,t_struct(Depositor)3593_storage)"},{"astId":42,"contract":"contracts/abby/ABBYManager.sol:ABBYManager","label":"redemptionIdToRedeemer","offset":0,"slot":"7","type":"t_mapping(t_bytes32,t_struct(Redeemer)3600_storage)"},{"astId":45,"contract":"contracts/abby/ABBYManager.sol:ABBYManager","label":"minimumDepositAmount","offset":0,"slot":"8","type":"t_uint256"},{"astId":47,"contract":"contracts/abby/ABBYManager.sol:ABBYManager","label":"minimumRedemptionAmount","offset":0,"slot":"9","type":"t_uint256"},{"astId":50,"contract":"contracts/abby/ABBYManager.sol:ABBYManager","label":"mintFee","offset":0,"slot":"10","type":"t_uint256"},{"astId":53,"contract":"contracts/abby/ABBYManager.sol:ABBYManager","label":"redemptionFee","offset":0,"slot":"11","type":"t_uint256"},{"astId":61,"contract":"contracts/abby/ABBYManager.sol:ABBYManager","label":"subscriptionRequestCounter","offset":0,"slot":"12","type":"t_uint256"},{"astId":64,"contract":"contracts/abby/ABBYManager.sol:ABBYManager","label":"redemptionRequestCounter","offset":0,"slot":"13","type":"t_uint256"},{"astId":69,"contract":"contracts/abby/ABBYManager.sol:ABBYManager","label":"redemptionPaused","offset":0,"slot":"14","type":"t_bool"},{"astId":71,"contract":"contracts/abby/ABBYManager.sol:ABBYManager","label":"subscriptionPaused","offset":1,"slot":"14","type":"t_bool"},{"astId":1205,"contract":"contracts/abby/ABBYManager.sol:ABBYManager","label":"offChainRedemptionPaused","offset":2,"slot":"14","type":"t_bool"},{"astId":1207,"contract":"contracts/abby/ABBYManager.sol:ABBYManager","label":"minimumOffChainRedemptionAmount","offset":0,"slot":"15","type":"t_uint256"},{"astId":1362,"contract":"contracts/abby/ABBYManager.sol:ABBYManager","label":"depositIdToClaimableTimestamp","offset":0,"slot":"16","type":"t_mapping(t_bytes32,t_uint256)"}],"types":{"t_address":{"encoding":"inplace","label":"address","numberOfBytes":"20"},"t_array(t_bytes32)dyn_storage":{"base":"t_bytes32","encoding":"dynamic_array","label":"bytes32[]","numberOfBytes":"32"},"t_bool":{"encoding":"inplace","label":"bool","numberOfBytes":"1"},"t_bytes32":{"encoding":"inplace","label":"bytes32","numberOfBytes":"32"},"t_contract(IPricerReader)3584":{"encoding":"inplace","label":"contract IPricerReader","numberOfBytes":"20"},"t_mapping(t_address,t_bool)":{"encoding":"mapping","key":"t_address","label":"mapping(address => bool)","numberOfBytes":"32","value":"t_bool"},"t_mapping(t_bytes32,t_struct(AddressSet)3040_storage)":{"encoding":"mapping","key":"t_bytes32","label":"mapping(bytes32 => struct EnumerableSet.AddressSet)","numberOfBytes":"32","value":"t_struct(AddressSet)3040_storage"},"t_mapping(t_bytes32,t_struct(Depositor)3593_storage)":{"encoding":"mapping","key":"t_bytes32","label":"mapping(bytes32 => struct IRWAHub.Depositor)","numberOfBytes":"32","value":"t_struct(Depositor)3593_storage"},"t_mapping(t_bytes32,t_struct(Redeemer)3600_storage)":{"encoding":"mapping","key":"t_bytes32","label":"mapping(bytes32 => struct IRWAHub.Redeemer)","numberOfBytes":"32","value":"t_struct(Redeemer)3600_storage"},"t_mapping(t_bytes32,t_struct(RoleData)1508_storage)":{"encoding":"mapping","key":"t_bytes32","label":"mapping(bytes32 => struct AccessControl.RoleData)","numberOfBytes":"32","value":"t_struct(RoleData)1508_storage"},"t_mapping(t_bytes32,t_uint256)":{"encoding":"mapping","key":"t_bytes32","label":"mapping(bytes32 => uint256)","numberOfBytes":"32","value":"t_uint256"},"t_struct(AddressSet)3040_storage":{"encoding":"inplace","label":"struct EnumerableSet.AddressSet","members":[{"astId":3039,"contract":"contracts/abby/ABBYManager.sol:ABBYManager","label":"_inner","offset":0,"slot":"0","type":"t_struct(Set)2739_storage"}],"numberOfBytes":"64"},"t_struct(Depositor)3593_storage":{"encoding":"inplace","label":"struct IRWAHub.Depositor","members":[{"astId":3588,"contract":"contracts/abby/ABBYManager.sol:ABBYManager","label":"user","offset":0,"slot":"0","type":"t_address"},{"astId":3590,"contract":"contracts/abby/ABBYManager.sol:ABBYManager","label":"amountDepositedMinusFees","offset":0,"slot":"1","type":"t_uint256"},{"astId":3592,"contract":"contracts/abby/ABBYManager.sol:ABBYManager","label":"priceId","offset":0,"slot":"2","type":"t_uint256"}],"numberOfBytes":"96"},"t_struct(Redeemer)3600_storage":{"encoding":"inplace","label":"struct IRWAHub.Redeemer","members":[{"astId":3595,"contract":"contracts/abby/ABBYManager.sol:ABBYManager","label":"user","offset":0,"slot":"0","type":"t_address"},{"astId":3597,"contract":"contracts/abby/ABBYManager.sol:ABBYManager","label":"amountRwaTokenBurned","offset":0,"slot":"1","type":"t_uint256"},{"astId":3599,"contract":"contracts/abby/ABBYManager.sol:ABBYManager","label":"priceId","offset":0,"slot":"2","type":"t_uint256"}],"numberOfBytes":"96"},"t_struct(RoleData)1508_storage":{"encoding":"inplace","label":"struct AccessControl.RoleData","members":[{"astId":1505,"contract":"contracts/abby/ABBYManager.sol:ABBYManager","label":"members","offset":0,"slot":"0","type":"t_mapping(t_address,t_bool)"},{"astId":1507,"contract":"contracts/abby/ABBYManager.sol:ABBYManager","label":"adminRole","offset":0,"slot":"1","type":"t_bytes32"}],"numberOfBytes":"64"},"t_struct(Set)2739_storage":{"encoding":"inplace","label":"struct EnumerableSet.Set","members":[{"astId":2734,"contract":"contracts/abby/ABBYManager.sol:ABBYManager","label":"_values","offset":0,"slot":"0","type":"t_array(t_bytes32)dyn_storage"},{"astId":2738,"contract":"contracts/abby/ABBYManager.sol:ABBYManager","label":"_indexes","offset":0,"slot":"1","type":"t_mapping(t_bytes32,t_uint256)"}],"numberOfBytes":"64"},"t_uint256":{"encoding":"inplace","label":"uint256","numberOfBytes":"32"}}},"userdoc":{"errors":{"MintNotYetClaimable()":[{"notice":"ERRORS ///"}],"PriceIdNotSet()":[{"notice":"ERRORS ///"}]},"events":{"AssetSenderSet(address,address)":{"notice":"Event emitted when the assetSender is changed"},"ClaimableTimestampSet(uint256,bytes32)":{"notice":"Event emitted when claimable timestamp is set"},"DepositProofAdded(bytes32,address,uint256,uint256,uint256)":{"notice":"Event emitted when deposit proof has been added"},"FeeRecipientSet(address,address)":{"notice":"Event emitted when fee recipient is set"},"MinimumDepositAmountSet(uint256,uint256)":{"notice":"Event emitted when minimum deposit amount is set"},"MinimumRedemptionAmountSet(uint256,uint256)":{"notice":"Event emitted when a new redeem minimum is set.         All units are in 1e18"},"MintCompleted(address,bytes32,uint256,uint256,uint256,uint256)":{"notice":"Event emitted when a Mint request is completed"},"MintFeeSet(uint256,uint256)":{"notice":"Event emitted when mint fee is set"},"MintRequested(address,bytes32,uint256,uint256,uint256)":{"notice":"Event emitted when a mint request is submitted"},"NewPricerSet(address,address)":{"notice":"Event emitted when a new Pricer contract is set"},"OffChainRedemptionMinimumSet(uint256,uint256)":{"notice":"Event emitted when the off chain redemption minimum is         updated"},"OffChainRedemptionPaused(address)":{"notice":"Event emitted when the off chain redemption feature is         paused"},"OffChainRedemptionUnpaused(address)":{"notice":"Event emitted when the off chain redemption feature is         unpaused"},"PriceIdSetForDeposit(bytes32,uint256)":{"notice":"Event emitted when a deposit has its corresponding priceId set"},"PriceIdSetForRedemption(bytes32,uint256)":{"notice":"Event Emitted when a redemption has its corresponding priceId set"},"RedemptionCompleted(address,bytes32,uint256,uint256,uint256)":{"notice":"Event emitted when a redemption request is completed"},"RedemptionFeeSet(uint256,uint256)":{"notice":"Event emitted when redeem fee is set"},"RedemptionPaused(address)":{"notice":"Event emitted when redemptions are paused"},"RedemptionRequested(address,bytes32,uint256)":{"notice":"Event emitted when redemption request is submitted"},"RedemptionRequestedServicedOffChain(address,bytes32,uint256,bytes32)":{"notice":"Event emitted when redemption request is submitted"},"RedemptionUnpaused(address)":{"notice":"Event emitted when redemptions are unpaused"},"SubscriptionPaused(address)":{"notice":"Event emitted when subscriptions are paused"},"SubscriptionUnpaused(address)":{"notice":"Event emitted when subscriptions are unpaused"}},"kind":"user","methods":{"addProof(bytes32,address,uint256,uint256,uint256)":{"notice":"Adds a deposit proof to the contract"},"claimMint(bytes32[])":{"notice":"Function used to claim tokens corresponding to a deposit request"},"claimRedemption(bytes32[])":{"notice":"Function to claim collateral corresponding to a redemption request"},"overwriteDepositor(bytes32,address,uint256,uint256)":{"notice":"Admin function to overwrite entries in the depoitIdToDepositor         mapping"},"overwriteRedeemer(bytes32,address,uint256,uint256)":{"notice":"Admin function to overwrite entries in the redemptionIdToRedeemer         mapping"},"pauseOffChainRedemption()":{"notice":"Function to pause off chain redemptoins"},"pauseRedemption()":{"notice":"Function to pause redemptions to RWAHub"},"pauseSubscription()":{"notice":"Function to pause subscription to RWAHub"},"requestRedemption(uint256)":{"notice":"Function used by users to request a redemption from the fund"},"requestRedemptionServicedOffchain(uint256,bytes32)":{"notice":"Request a redemption to be serviced off chain."},"requestSubscription(uint256)":{"notice":"Function used by users to request subscription to the fund"},"setAssetSender(address)":{"notice":"Admin function to set the address of `assetSender`"},"setClaimableTimestamp(uint256,bytes32[])":{"notice":"Set the claimable timestamp for a list of depositIds"},"setFeeRecipient(address)":{"notice":"Admin function to set the address of `feeRecipient`"},"setMinimumDepositAmount(uint256)":{"notice":"Admin function to set the minimum amount required for a deposit"},"setMinimumRedemptionAmount(uint256)":{"notice":"Admin function to set the minimum amount to redeem"},"setMintFee(uint256)":{"notice":"Admin function to set the mint fee"},"setOffChainRedemptionMinimum(uint256)":{"notice":"Admin Function to set the minimum off chain redemption amount"},"setPriceIdForDeposits(bytes32[],uint256[])":{"notice":"Admin function to associate a depositId with a given Price Id"},"setPriceIdForRedemptions(bytes32[],uint256[])":{"notice":"Admin function to associate redemptionId with a given priceId"},"setPricer(address)":{"notice":"Admin function to set the address of the Pricer contract"},"setRedemptionFee(uint256)":{"notice":"Admin function to set the redeem fee"},"unpauseOffChainRedemption()":{"notice":"Function to unpause off chain redemptoins"},"unpauseRedemption()":{"notice":"Function to unpause redemptions to RWAHub"},"unpauseSubscription()":{"notice":"Function to unpause subscriptions to RWAHub"}},"version":1}}}}