{
  "_format": "hh-sol-artifact-1",
  "contractName": "HYF",
  "sourceName": "contracts/abby/HYF.sol",
  "abi": [
    {
      "inputs": [],
      "stateMutability": "nonpayable",
      "type": "constructor"
    },
    {
      "inputs": [],
      "name": "AllowlistZeroAddress",
      "type": "error"
    },
    {
      "inputs": [],
      "name": "BlockedAccount",
      "type": "error"
    },
    {
      "inputs": [],
      "name": "BlocklistZeroAddress",
      "type": "error"
    },
    {
      "inputs": [],
      "name": "SanctionedAccount",
      "type": "error"
    },
    {
      "inputs": [],
      "name": "SanctionsListZeroAddress",
      "type": "error"
    },
    {
      "anonymous": false,
      "inputs": [
        {
          "indexed": false,
          "internalType": "address",
          "name": "oldAllowlist",
          "type": "address"
        },
        {
          "indexed": false,
          "internalType": "address",
          "name": "newAllowlist",
          "type": "address"
        }
      ],
      "name": "AllowlistSet",
      "type": "event"
    },
    {
      "anonymous": false,
      "inputs": [
        {
          "indexed": true,
          "internalType": "address",
          "name": "owner",
          "type": "address"
        },
        {
          "indexed": true,
          "internalType": "address",
          "name": "spender",
          "type": "address"
        },
        {
          "indexed": false,
          "internalType": "uint256",
          "name": "value",
          "type": "uint256"
        }
      ],
      "name": "Approval",
      "type": "event"
    },
    {
      "anonymous": false,
      "inputs": [
        {
          "indexed": false,
          "internalType": "address",
          "name": "oldBlocklist",
          "type": "address"
        },
        {
          "indexed": false,
          "internalType": "address",
          "name": "newBlocklist",
          "type": "address"
        }
      ],
      "name": "BlocklistSet",
      "type": "event"
    },
    {
      "anonymous": false,
      "inputs": [
        {
          "indexed": false,
          "internalType": "uint8",
          "name": "version",
          "type": "uint8"
        }
      ],
      "name": "Initialized",
      "type": "event"
    },
    {
      "anonymous": false,
      "inputs": [
        {
          "indexed": false,
          "internalType": "address",
          "name": "account",
          "type": "address"
        }
      ],
      "name": "Paused",
      "type": "event"
    },
    {
      "anonymous": false,
      "inputs": [
        {
          "indexed": true,
          "internalType": "bytes32",
          "name": "role",
          "type": "bytes32"
        },
        {
          "indexed": true,
          "internalType": "bytes32",
          "name": "previousAdminRole",
          "type": "bytes32"
        },
        {
          "indexed": true,
          "internalType": "bytes32",
          "name": "newAdminRole",
          "type": "bytes32"
        }
      ],
      "name": "RoleAdminChanged",
      "type": "event"
    },
    {
      "anonymous": false,
      "inputs": [
        {
          "indexed": true,
          "internalType": "bytes32",
          "name": "role",
          "type": "bytes32"
        },
        {
          "indexed": true,
          "internalType": "address",
          "name": "account",
          "type": "address"
        },
        {
          "indexed": true,
          "internalType": "address",
          "name": "sender",
          "type": "address"
        }
      ],
      "name": "RoleGranted",
      "type": "event"
    },
    {
      "anonymous": false,
      "inputs": [
        {
          "indexed": true,
          "internalType": "bytes32",
          "name": "role",
          "type": "bytes32"
        },
        {
          "indexed": true,
          "internalType": "address",
          "name": "account",
          "type": "address"
        },
        {
          "indexed": true,
          "internalType": "address",
          "name": "sender",
          "type": "address"
        }
      ],
      "name": "RoleRevoked",
      "type": "event"
    },
    {
      "anonymous": false,
      "inputs": [
        {
          "indexed": false,
          "internalType": "address",
          "name": "oldSanctionsList",
          "type": "address"
        },
        {
          "indexed": false,
          "internalType": "address",
          "name": "newSanctionsList",
          "type": "address"
        }
      ],
      "name": "SanctionsListSet",
      "type": "event"
    },
    {
      "anonymous": false,
      "inputs": [
        {
          "indexed": true,
          "internalType": "address",
          "name": "from",
          "type": "address"
        },
        {
          "indexed": true,
          "internalType": "address",
          "name": "to",
          "type": "address"
        },
        {
          "indexed": false,
          "internalType": "uint256",
          "name": "value",
          "type": "uint256"
        }
      ],
      "name": "Transfer",
      "type": "event"
    },
    {
      "anonymous": false,
      "inputs": [
        {
          "indexed": false,
          "internalType": "address",
          "name": "account",
          "type": "address"
        }
      ],
      "name": "Unpaused",
      "type": "event"
    },
    {
      "inputs": [],
      "name": "BURNER_ROLE",
      "outputs": [
        {
          "internalType": "bytes32",
          "name": "",
          "type": "bytes32"
        }
      ],
      "stateMutability": "view",
      "type": "function"
    },
    {
      "inputs": [],
      "name": "DEFAULT_ADMIN_ROLE",
      "outputs": [
        {
          "internalType": "bytes32",
          "name": "",
          "type": "bytes32"
        }
      ],
      "stateMutability": "view",
      "type": "function"
    },
    {
      "inputs": [],
      "name": "LIST_CONFIGURER_ROLE",
      "outputs": [
        {
          "internalType": "bytes32",
          "name": "",
          "type": "bytes32"
        }
      ],
      "stateMutability": "view",
      "type": "function"
    },
    {
      "inputs": [],
      "name": "MINTER_ROLE",
      "outputs": [
        {
          "internalType": "bytes32",
          "name": "",
          "type": "bytes32"
        }
      ],
      "stateMutability": "view",
      "type": "function"
    },
    {
      "inputs": [],
      "name": "PAUSER_ROLE",
      "outputs": [
        {
          "internalType": "bytes32",
          "name": "",
          "type": "bytes32"
        }
      ],
      "stateMutability": "view",
      "type": "function"
    },
    {
      "inputs": [
        {
          "internalType": "address",
          "name": "owner",
          "type": "address"
        },
        {
          "internalType": "address",
          "name": "spender",
          "type": "address"
        }
      ],
      "name": "allowance",
      "outputs": [
        {
          "internalType": "uint256",
          "name": "",
          "type": "uint256"
        }
      ],
      "stateMutability": "view",
      "type": "function"
    },
    {
      "inputs": [],
      "name": "allowlist",
      "outputs": [
        {
          "internalType": "contract IAllowlist",
          "name": "",
          "type": "address"
        }
      ],
      "stateMutability": "view",
      "type": "function"
    },
    {
      "inputs": [
        {
          "internalType": "address",
          "name": "spender",
          "type": "address"
        },
        {
          "internalType": "uint256",
          "name": "amount",
          "type": "uint256"
        }
      ],
      "name": "approve",
      "outputs": [
        {
          "internalType": "bool",
          "name": "",
          "type": "bool"
        }
      ],
      "stateMutability": "nonpayable",
      "type": "function"
    },
    {
      "inputs": [
        {
          "internalType": "address",
          "name": "account",
          "type": "address"
        }
      ],
      "name": "balanceOf",
      "outputs": [
        {
          "internalType": "uint256",
          "name": "",
          "type": "uint256"
        }
      ],
      "stateMutability": "view",
      "type": "function"
    },
    {
      "inputs": [],
      "name": "blocklist",
      "outputs": [
        {
          "internalType": "contract IBlocklist",
          "name": "",
          "type": "address"
        }
      ],
      "stateMutability": "view",
      "type": "function"
    },
    {
      "inputs": [
        {
          "internalType": "uint256",
          "name": "amount",
          "type": "uint256"
        }
      ],
      "name": "burn",
      "outputs": [],
      "stateMutability": "nonpayable",
      "type": "function"
    },
    {
      "inputs": [
        {
          "internalType": "address",
          "name": "from",
          "type": "address"
        },
        {
          "internalType": "uint256",
          "name": "amount",
          "type": "uint256"
        }
      ],
      "name": "burn",
      "outputs": [],
      "stateMutability": "nonpayable",
      "type": "function"
    },
    {
      "inputs": [
        {
          "internalType": "address",
          "name": "account",
          "type": "address"
        },
        {
          "internalType": "uint256",
          "name": "amount",
          "type": "uint256"
        }
      ],
      "name": "burnFrom",
      "outputs": [],
      "stateMutability": "nonpayable",
      "type": "function"
    },
    {
      "inputs": [],
      "name": "decimals",
      "outputs": [
        {
          "internalType": "uint8",
          "name": "",
          "type": "uint8"
        }
      ],
      "stateMutability": "view",
      "type": "function"
    },
    {
      "inputs": [
        {
          "internalType": "address",
          "name": "spender",
          "type": "address"
        },
        {
          "internalType": "uint256",
          "name": "subtractedValue",
          "type": "uint256"
        }
      ],
      "name": "decreaseAllowance",
      "outputs": [
        {
          "internalType": "bool",
          "name": "",
          "type": "bool"
        }
      ],
      "stateMutability": "nonpayable",
      "type": "function"
    },
    {
      "inputs": [
        {
          "internalType": "bytes32",
          "name": "role",
          "type": "bytes32"
        }
      ],
      "name": "getRoleAdmin",
      "outputs": [
        {
          "internalType": "bytes32",
          "name": "",
          "type": "bytes32"
        }
      ],
      "stateMutability": "view",
      "type": "function"
    },
    {
      "inputs": [
        {
          "internalType": "bytes32",
          "name": "role",
          "type": "bytes32"
        },
        {
          "internalType": "uint256",
          "name": "index",
          "type": "uint256"
        }
      ],
      "name": "getRoleMember",
      "outputs": [
        {
          "internalType": "address",
          "name": "",
          "type": "address"
        }
      ],
      "stateMutability": "view",
      "type": "function"
    },
    {
      "inputs": [
        {
          "internalType": "bytes32",
          "name": "role",
          "type": "bytes32"
        }
      ],
      "name": "getRoleMemberCount",
      "outputs": [
        {
          "internalType": "uint256",
          "name": "",
          "type": "uint256"
        }
      ],
      "stateMutability": "view",
      "type": "function"
    },
    {
      "inputs": [
        {
          "internalType": "bytes32",
          "name": "role",
          "type": "bytes32"
        },
        {
          "internalType": "address",
          "name": "account",
          "type": "address"
        }
      ],
      "name": "grantRole",
      "outputs": [],
      "stateMutability": "nonpayable",
      "type": "function"
    },
    {
      "inputs": [
        {
          "internalType": "bytes32",
          "name": "role",
          "type": "bytes32"
        },
        {
          "internalType": "address",
          "name": "account",
          "type": "address"
        }
      ],
      "name": "hasRole",
      "outputs": [
        {
          "internalType": "bool",
          "name": "",
          "type": "bool"
        }
      ],
      "stateMutability": "view",
      "type": "function"
    },
    {
      "inputs": [
        {
          "internalType": "address",
          "name": "spender",
          "type": "address"
        },
        {
          "internalType": "uint256",
          "name": "addedValue",
          "type": "uint256"
        }
      ],
      "name": "increaseAllowance",
      "outputs": [
        {
          "internalType": "bool",
          "name": "",
          "type": "bool"
        }
      ],
      "stateMutability": "nonpayable",
      "type": "function"
    },
    {
      "inputs": [
        {
          "internalType": "string",
          "name": "name",
          "type": "string"
        },
        {
          "internalType": "string",
          "name": "symbol",
          "type": "string"
        }
      ],
      "name": "initialize",
      "outputs": [],
      "stateMutability": "nonpayable",
      "type": "function"
    },
    {
      "inputs": [
        {
          "internalType": "string",
          "name": "name",
          "type": "string"
        },
        {
          "internalType": "string",
          "name": "symbol",
          "type": "string"
        },
        {
          "internalType": "address",
          "name": "blocklist",
          "type": "address"
        },
        {
          "internalType": "address",
          "name": "allowlist",
          "type": "address"
        }
      ],
      "name": "initialize",
      "outputs": [],
      "stateMutability": "nonpayable",
      "type": "function"
    },
    {
      "inputs": [
        {
          "internalType": "address",
          "name": "to",
          "type": "address"
        },
        {
          "internalType": "uint256",
          "name": "amount",
          "type": "uint256"
        }
      ],
      "name": "mint",
      "outputs": [],
      "stateMutability": "nonpayable",
      "type": "function"
    },
    {
      "inputs": [],
      "name": "name",
      "outputs": [
        {
          "internalType": "string",
          "name": "",
          "type": "string"
        }
      ],
      "stateMutability": "view",
      "type": "function"
    },
    {
      "inputs": [],
      "name": "pause",
      "outputs": [],
      "stateMutability": "nonpayable",
      "type": "function"
    },
    {
      "inputs": [],
      "name": "paused",
      "outputs": [
        {
          "internalType": "bool",
          "name": "",
          "type": "bool"
        }
      ],
      "stateMutability": "view",
      "type": "function"
    },
    {
      "inputs": [
        {
          "internalType": "bytes32",
          "name": "role",
          "type": "bytes32"
        },
        {
          "internalType": "address",
          "name": "account",
          "type": "address"
        }
      ],
      "name": "renounceRole",
      "outputs": [],
      "stateMutability": "nonpayable",
      "type": "function"
    },
    {
      "inputs": [
        {
          "internalType": "bytes32",
          "name": "role",
          "type": "bytes32"
        },
        {
          "internalType": "address",
          "name": "account",
          "type": "address"
        }
      ],
      "name": "revokeRole",
      "outputs": [],
      "stateMutability": "nonpayable",
      "type": "function"
    },
    {
      "inputs": [],
      "name": "sanctionsList",
      "outputs": [
        {
          "internalType": "contract ISanctionsList",
          "name": "",
          "type": "address"
        }
      ],
      "stateMutability": "view",
      "type": "function"
    },
    {
      "inputs": [
        {
          "internalType": "address",
          "name": "allowlist",
          "type": "address"
        }
      ],
      "name": "setAllowlist",
      "outputs": [],
      "stateMutability": "nonpayable",
      "type": "function"
    },
    {
      "inputs": [
        {
          "internalType": "address",
          "name": "blocklist",
          "type": "address"
        }
      ],
      "name": "setBlocklist",
      "outputs": [],
      "stateMutability": "nonpayable",
      "type": "function"
    },
    {
      "inputs": [
        {
          "internalType": "address",
          "name": "sanctionsList",
          "type": "address"
        }
      ],
      "name": "setSanctionsList",
      "outputs": [],
      "stateMutability": "nonpayable",
      "type": "function"
    },
    {
      "inputs": [
        {
          "internalType": "bytes4",
          "name": "interfaceId",
          "type": "bytes4"
        }
      ],
      "name": "supportsInterface",
      "outputs": [
        {
          "internalType": "bool",
          "name": "",
          "type": "bool"
        }
      ],
      "stateMutability": "view",
      "type": "function"
    },
    {
      "inputs": [],
      "name": "symbol",
      "outputs": [
        {
          "internalType": "string",
          "name": "",
          "type": "string"
        }
      ],
      "stateMutability": "view",
      "type": "function"
    },
    {
      "inputs": [],
      "name": "totalSupply",
      "outputs": [
        {
          "internalType": "uint256",
          "name": "",
          "type": "uint256"
        }
      ],
      "stateMutability": "view",
      "type": "function"
    },
    {
      "inputs": [
        {
          "internalType": "address",
          "name": "to",
          "type": "address"
        },
        {
          "internalType": "uint256",
          "name": "amount",
          "type": "uint256"
        }
      ],
      "name": "transfer",
      "outputs": [
        {
          "internalType": "bool",
          "name": "",
          "type": "bool"
        }
      ],
      "stateMutability": "nonpayable",
      "type": "function"
    },
    {
      "inputs": [
        {
          "internalType": "address",
          "name": "from",
          "type": "address"
        },
        {
          "internalType": "address",
          "name": "to",
          "type": "address"
        },
        {
          "internalType": "uint256",
          "name": "amount",
          "type": "uint256"
        }
      ],
      "name": "transferFrom",
      "outputs": [
        {
          "internalType": "bool",
          "name": "",
          "type": "bool"
        }
      ],
      "stateMutability": "nonpayable",
      "type": "function"
    },
    {
      "inputs": [],
      "name": "unpause",
      "outputs": [],
      "stateMutability": "nonpayable",
      "type": "function"
    }
  ],
  "bytecode": "0x608060405234801561001057600080fd5b5061001961001e565b6100de565b600054610100900460ff161561008a5760405162461bcd60e51b815260206004820152602760248201527f496e697469616c697a61626c653a20636f6e747261637420697320696e697469604482015266616c697a696e6760c81b606482015260840160405180910390fd5b60005460ff90811610156100dc576000805460ff191660ff9081179091556040519081527f7f26b83ff96e1f2b6a682f133852f6798a09c465da95921460cefb38474024989060200160405180910390a15b565b6124fb80620000ee6000396000f3fe608060405234801561001057600080fd5b506004361061022d5760003560e01c806370a082311161013b578063a9059cbb116100b8578063d547741f1161007c578063d547741f146104e5578063d64e5396146104f8578063dd62ed3e1461050c578063e63ab1e91461051f578063ec571c6a1461053457600080fd5b8063a9059cbb14610482578063aef18ae714610495578063bf1d5b8f146104a8578063ca15c873146104bd578063d5391393146104d057600080fd5b806391d14854116100ff57806391d148541461043957806395d89b411461044c5780639dc29fac14610454578063a217fddf14610467578063a457c2d71461046f57600080fd5b806370a08231146103cf57806379cc6790146103f85780638456cb591461040b5780638f15b414146104135780639010d07c1461042657600080fd5b8063313ce567116101c957806342966c681161018d57806342966c681461037757806349dc5e8d1461038a5780634cd88b761461039d57806358bf3c7f146103b05780635c975abb146103c357600080fd5b8063313ce5671461032757806336568abe1461033657806339509351146103495780633f4ba83a1461035c57806340c10f191461036457600080fd5b806301ffc9a71461023257806306fdde031461025a578063095ea7b31461026f57806318160ddd1461028257806323b872dd14610294578063248a9ca3146102a7578063282c51f3146102ca5780632b47da52146102f15780632f2ff15d14610312575b600080fd5b610245610240366004611dac565b610548565b60405190151581526020015b60405180910390f35b610262610573565b6040516102519190611dfa565b61024561027d366004611e49565b610605565b60cb545b604051908152602001610251565b6102456102a2366004611e73565b61061d565b6102866102b5366004611eaf565b60009081526065602052604090206001015490565b6102867f3c11d16cbaffd01df69ce1c404f6340ee057498f5f00246190ea54220576a84881565b6101f654610305906001600160a01b031681565b6040516102519190611ec8565b610325610320366004611edc565b610641565b005b60405160128152602001610251565b610325610344366004611edc565b61066b565b610245610357366004611e49565b6106ee565b610325610710565b610325610372366004611e49565b61078e565b610325610385366004611eaf565b610809565b610325610398366004611f08565b610816565b6103256103ab366004611fc6565b610837565b6103256103be366004611f08565b610904565b61012d5460ff16610245565b6102866103dd366004611f08565b6001600160a01b0316600090815260c9602052604090205490565b610325610406366004611e49565b610925565b61032561093a565b61032561042136600461202a565b6109b4565b6103056104343660046120af565b610a96565b610245610447366004611edc565b610ab5565b610262610ae0565b610325610462366004611e49565b610aef565b610286600081565b61024561047d366004611e49565b610b23565b610245610490366004611e49565b610b9e565b6103256104a3366004611f08565b610bac565b6102866000805160206124a683398151915281565b6102866104cb366004611eaf565b610bcd565b61028660008051602061246683398151915281565b6103256104f3366004611edc565b610be4565b6101c354610305906001600160a01b031681565b61028661051a3660046120d1565b610c09565b61028660008051602061244683398151915281565b61022954610305906001600160a01b031681565b60006001600160e01b03198216635a05180f60e01b148061056d575061056d82610c34565b92915050565b606060cc8054610582906120fb565b80601f01602080910402602001604051908101604052809291908181526020018280546105ae906120fb565b80156105fb5780601f106105d0576101008083540402835291602001916105fb565b820191906000526020600020905b8154815290600101906020018083116105de57829003601f168201915b5050505050905090565b600033610613818585610c69565b5060019392505050565b60003361062b858285610d8d565b610636858585610e07565b506001949350505050565b60008281526065602052604090206001015461065c81610fce565b6106668383610fd8565b505050565b6001600160a01b03811633146106e05760405162461bcd60e51b815260206004820152602f60248201527f416363657373436f6e74726f6c3a2063616e206f6e6c792072656e6f756e636560448201526e103937b632b9903337b91039b2b63360891b60648201526084015b60405180910390fd5b6106ea8282610ffa565b5050565b6000336106138185856107018383610c09565b61070b919061214b565b610c69565b61072860008051602061244683398151915233610ab5565b6107845760405162461bcd60e51b8152602060048201526039602482015260008051602061242683398151915260448201527876652070617573657220726f6c6520746f20756e706175736560381b60648201526084016106d7565b61078c61101c565b565b6107a660008051602061246683398151915233610ab5565b6107ff5760405162461bcd60e51b815260206004820152603660248201526000805160206124268339815191526044820152751d99481b5a5b9d195c881c9bdb19481d1bc81b5a5b9d60521b60648201526084016106d7565b6106ea8282611069565b6108133382611142565b50565b6000805160206124a683398151915261082e81610fce565b6106ea8261128a565b600054610100900460ff16158080156108575750600054600160ff909116105b806108715750303b158015610871575060005460ff166001145b61088d5760405162461bcd60e51b81526004016106d79061215e565b6000805460ff1916600117905580156108b0576000805461ff0019166101001790555b6108ba8383611311565b8015610666576000805461ff0019169055604051600181527f7f26b83ff96e1f2b6a682f133852f6798a09c465da95921460cefb38474024989060200160405180910390a1505050565b6000805160206124a683398151915261091c81610fce565b6106ea82611354565b610930823383610d8d565b6106ea8282611142565b61095260008051602061244683398151915233610ab5565b6109ac5760405162461bcd60e51b8152602060048201526037602482015260008051602061242683398151915260448201527676652070617573657220726f6c6520746f20706175736560481b60648201526084016106d7565b61078c6113cf565b600054610100900460ff16158080156109d45750600054600160ff909116105b806109ee5750303b1580156109ee575060005460ff166001145b610a0a5760405162461bcd60e51b81526004016106d79061215e565b6000805460ff191660011790558015610a2d576000805461ff0019166101001790555b610a378585611311565b610a408361140d565b610a498261143d565b8015610a8f576000805461ff0019169055604051600181527f7f26b83ff96e1f2b6a682f133852f6798a09c465da95921460cefb38474024989060200160405180910390a15b5050505050565b6000828152609760205260408120610aae908361146d565b9392505050565b60009182526065602090815260408084206001600160a01b0393909316845291905290205460ff1690565b606060cd8054610582906120fb565b7f3c11d16cbaffd01df69ce1c404f6340ee057498f5f00246190ea54220576a848610b1981610fce565b6106668383611142565b60003381610b318286610c09565b905083811015610b915760405162461bcd60e51b815260206004820152602560248201527f45524332303a2064656372656173656420616c6c6f77616e63652062656c6f77604482015264207a65726f60d81b60648201526084016106d7565b6106368286868403610c69565b600033610613818585610e07565b6000805160206124a6833981519152610bc481610fce565b6106ea82611479565b600081815260976020526040812061056d906114f4565b600082815260656020526040902060010154610bff81610fce565b6106668383610ffa565b6001600160a01b03918216600090815260ca6020908152604080832093909416825291909152205490565b60006001600160e01b03198216637965db0b60e01b148061056d57506301ffc9a760e01b6001600160e01b031983161461056d565b6001600160a01b038316610ccb5760405162461bcd60e51b8152602060048201526024808201527f45524332303a20617070726f76652066726f6d20746865207a65726f206164646044820152637265737360e01b60648201526084016106d7565b6001600160a01b038216610d2c5760405162461bcd60e51b815260206004820152602260248201527f45524332303a20617070726f766520746f20746865207a65726f206164647265604482015261737360f01b60648201526084016106d7565b6001600160a01b03838116600081815260ca602090815260408083209487168084529482529182902085905590518481527f8c5be1e5ebec7d5bd14f71427d1e84f3dd0314c0f7b2291e5b200ac8c7c3b925910160405180910390a3505050565b6000610d998484610c09565b90506000198114610e015781811015610df45760405162461bcd60e51b815260206004820152601d60248201527f45524332303a20696e73756666696369656e7420616c6c6f77616e636500000060448201526064016106d7565b610e018484848403610c69565b50505050565b6001600160a01b038316610e6b5760405162461bcd60e51b815260206004820152602560248201527f45524332303a207472616e736665722066726f6d20746865207a65726f206164604482015264647265737360d81b60648201526084016106d7565b6001600160a01b038216610ecd5760405162461bcd60e51b815260206004820152602360248201527f45524332303a207472616e7366657220746f20746865207a65726f206164647260448201526265737360e81b60648201526084016106d7565b610ed88383836114fe565b6001600160a01b038316600090815260c9602052604090205481811015610f505760405162461bcd60e51b815260206004820152602660248201527f45524332303a207472616e7366657220616d6f756e7420657863656564732062604482015265616c616e636560d01b60648201526084016106d7565b6001600160a01b03808516600090815260c96020526040808220858503905591851681529081208054849290610f8790849061214b565b92505081905550826001600160a01b0316846001600160a01b031660008051602061248683398151915284604051610fc191815260200190565b60405180910390a3610e01565b6108138133611673565b610fe282826116d7565b6000828152609760205260409020610666908261175d565b6110048282611772565b600082815260976020526040902061066690826117d9565b6110246117ee565b61012d805460ff191690557f5db9ee0a495bf2e6ff9c91a7834c1ba4fdd244a5e8aa4e537bd38aeae4b073aa335b60405161105f9190611ec8565b60405180910390a1565b6001600160a01b0382166110bf5760405162461bcd60e51b815260206004820152601f60248201527f45524332303a206d696e7420746f20746865207a65726f20616464726573730060448201526064016106d7565b6110cb600083836114fe565b8060cb60008282546110dd919061214b565b90915550506001600160a01b038216600090815260c960205260408120805483929061110a90849061214b565b90915550506040518181526001600160a01b038316906000906000805160206124868339815191529060200160405180910390a35050565b6001600160a01b0382166111a25760405162461bcd60e51b815260206004820152602160248201527f45524332303a206275726e2066726f6d20746865207a65726f206164647265736044820152607360f81b60648201526084016106d7565b6111ae826000836114fe565b6001600160a01b038216600090815260c96020526040902054818110156112225760405162461bcd60e51b815260206004820152602260248201527f45524332303a206275726e20616d6f756e7420657863656564732062616c616e604482015261636560f01b60648201526084016106d7565b6001600160a01b038316600090815260c960205260408120838303905560cb80548492906112519084906121ac565b90915550506040518281526000906001600160a01b038516906000805160206124868339815191529060200160405180910390a3505050565b6001600160a01b0381166112b1576040516310ce5abd60e21b815260040160405180910390fd5b61022980546001600160a01b038381166001600160a01b03198316179092556040519116907fa19fd4029e820c57308467576d8d0296f07717cfcb98941cf8988b25dcd700e39061130590839085906121bf565b60405180910390a15050565b600054610100900460ff166113385760405162461bcd60e51b81526004016106d7906121d9565b6113428282611838565b61134a611878565b6106ea82826118ac565b6001600160a01b03811661137b576040516314d7e06960e01b815260040160405180910390fd5b6101f680546001600160a01b038381166001600160a01b03198316179092556040519116907f451b0d3ada7fe0de9043f3de5fec87856a83f521b63c4a4c264c9a7d419bca489061130590839085906121bf565b6113d761190e565b61012d805460ff191660011790557f62e78cea01bee320cd4e420270b5ea74000d11b0c9f74754ebdbfc544b05a2586110523390565b600054610100900460ff166114345760405162461bcd60e51b81526004016106d7906121d9565b61081381611955565b600054610100900460ff166114645760405162461bcd60e51b81526004016106d7906121d9565b61081381611985565b6000610aae83836119b5565b6001600160a01b0381166114a057604051637e33865360e01b815260040160405180910390fd5b6101c380546001600160a01b038381166001600160a01b03198316179092556040519116907f7e053cdc9069fe4f629b6b3fa2a01bb53a9a8305ec11830b259d95e9e75b73049061130590839085906121bf565b600061056d825490565b6115098383836119df565b6001600160a01b038316331480159061152b57506001600160a01b0382163314155b1561159457611539336119ea565b6115945760405162461bcd60e51b815260206004820152602660248201527f4846593a202773656e646572272061646472657373206e6f74206f6e20616c6c6044820152651bdddb1a5cdd60d21b60648201526084016106d7565b6001600160a01b03831615611604576115ac836119ea565b6116045760405162461bcd60e51b8152602060048201526024808201527f4846593a202766726f6d272061646472657373206e6f74206f6e20616c6c6f776044820152631b1a5cdd60e21b60648201526084016106d7565b6001600160a01b038216156106665761161c826119ea565b6106665760405162461bcd60e51b815260206004820152602260248201527f4846593a2027746f272061646472657373206e6f74206f6e20616c6c6f776c696044820152611cdd60f21b60648201526084016106d7565b61167d8282610ab5565b6106ea57611695816001600160a01b03166014611a5d565b6116a0836020611a5d565b6040516020016116b1929190612224565b60408051601f198184030181529082905262461bcd60e51b82526106d791600401611dfa565b6116e18282610ab5565b6106ea5760008281526065602090815260408083206001600160a01b03851684529091529020805460ff191660011790556117193390565b6001600160a01b0316816001600160a01b0316837f2f8788117e7eff1d82e926ec794901d17c78024a50270940304540a733656f0d60405160405180910390a45050565b6000610aae836001600160a01b038416611bf9565b61177c8282610ab5565b156106ea5760008281526065602090815260408083206001600160a01b0385168085529252808320805460ff1916905551339285917ff6391f5c32d9c69d2a47ea670b442974b53935d1edc7fd64eb21e047a839171b9190a45050565b6000610aae836001600160a01b038416611c48565b61012d5460ff1661078c5760405162461bcd60e51b815260206004820152601460248201527314185d5cd8589b194e881b9bdd081c185d5cd95960621b60448201526064016106d7565b600054610100900460ff1661185f5760405162461bcd60e51b81526004016106d7906121d9565b60cc61186b83826122e1565b5060cd61066682826122e1565b600054610100900460ff1661189f5760405162461bcd60e51b81526004016106d7906121d9565b61012d805460ff19169055565b600054610100900460ff166118d35760405162461bcd60e51b81526004016106d7906121d9565b6118de600033611d3b565b6118f660008051602061246683398151915233611d3b565b6106ea60008051602061244683398151915233611d3b565b61012d5460ff161561078c5760405162461bcd60e51b815260206004820152601060248201526f14185d5cd8589b194e881c185d5cd95960821b60448201526064016106d7565b600054610100900460ff1661197c5760405162461bcd60e51b81526004016106d7906121d9565b61081381611479565b600054610100900460ff166119ac5760405162461bcd60e51b81526004016106d7906121d9565b61081381611354565b60008260000182815481106119cc576119cc6123a1565b9060005260206000200154905092915050565b610666838383611d45565b6101f65460405163babcc53960e01b81526000916001600160a01b03169063babcc53990611a1c908590600401611ec8565b602060405180830381865afa158015611a39573d6000803e3d6000fd5b505050506040513d601f19601f8201168201806040525081019061056d91906123b7565b60606000611a6c8360026123d9565b611a7790600261214b565b67ffffffffffffffff811115611a8f57611a8f611f23565b6040519080825280601f01601f191660200182016040528015611ab9576020820181803683370190505b509050600360fc1b81600081518110611ad457611ad46123a1565b60200101906001600160f81b031916908160001a905350600f60fb1b81600181518110611b0357611b036123a1565b60200101906001600160f81b031916908160001a9053506000611b278460026123d9565b611b3290600161214b565b90505b6001811115611baa576f181899199a1a9b1b9c1cb0b131b232b360811b85600f1660108110611b6657611b666123a1565b1a60f81b828281518110611b7c57611b7c6123a1565b60200101906001600160f81b031916908160001a90535060049490941c93611ba3816123f8565b9050611b35565b508315610aae5760405162461bcd60e51b815260206004820181905260248201527f537472696e67733a20686578206c656e67746820696e73756666696369656e7460448201526064016106d7565b6000818152600183016020526040812054611c405750815460018181018455600084815260208082209093018490558454848252828601909352604090209190915561056d565b50600061056d565b60008181526001830160205260408120548015611d31576000611c6c6001836121ac565b8554909150600090611c80906001906121ac565b9050818114611ce5576000866000018281548110611ca057611ca06123a1565b9060005260206000200154905080876000018481548110611cc357611cc36123a1565b6000918252602080832090910192909255918252600188019052604090208390555b8554869080611cf657611cf661240f565b60019003818190600052602060002001600090559055856001016000868152602001908152602001600020600090556001935050505061056d565b600091505061056d565b6106ea8282610fd8565b61012d5460ff16156106665760405162461bcd60e51b815260206004820152602a60248201527f45524332305061757361626c653a20746f6b656e207472616e736665722077686044820152691a5b19481c185d5cd95960b21b60648201526084016106d7565b600060208284031215611dbe57600080fd5b81356001600160e01b031981168114610aae57600080fd5b60005b83811015611df1578181015183820152602001611dd9565b50506000910152565b6020815260008251806020840152611e19816040850160208701611dd6565b601f01601f19169190910160400192915050565b80356001600160a01b0381168114611e4457600080fd5b919050565b60008060408385031215611e5c57600080fd5b611e6583611e2d565b946020939093013593505050565b600080600060608486031215611e8857600080fd5b611e9184611e2d565b9250611e9f60208501611e2d565b9150604084013590509250925092565b600060208284031215611ec157600080fd5b5035919050565b6001600160a01b0391909116815260200190565b60008060408385031215611eef57600080fd5b82359150611eff60208401611e2d565b90509250929050565b600060208284031215611f1a57600080fd5b610aae82611e2d565b634e487b7160e01b600052604160045260246000fd5b600082601f830112611f4a57600080fd5b813567ffffffffffffffff80821115611f6557611f65611f23565b604051601f8301601f19908116603f01168101908282118183101715611f8d57611f8d611f23565b81604052838152866020858801011115611fa657600080fd5b836020870160208301376000602085830101528094505050505092915050565b60008060408385031215611fd957600080fd5b823567ffffffffffffffff80821115611ff157600080fd5b611ffd86838701611f39565b9350602085013591508082111561201357600080fd5b5061202085828601611f39565b9150509250929050565b6000806000806080858703121561204057600080fd5b843567ffffffffffffffff8082111561205857600080fd5b61206488838901611f39565b9550602087013591508082111561207a57600080fd5b5061208787828801611f39565b93505061209660408601611e2d565b91506120a460608601611e2d565b905092959194509250565b600080604083850312156120c257600080fd5b50508035926020909101359150565b600080604083850312156120e457600080fd5b6120ed83611e2d565b9150611eff60208401611e2d565b600181811c9082168061210f57607f821691505b60208210810361212f57634e487b7160e01b600052602260045260246000fd5b50919050565b634e487b7160e01b600052601160045260246000fd5b8082018082111561056d5761056d612135565b6020808252602e908201527f496e697469616c697a61626c653a20636f6e747261637420697320616c72656160408201526d191e481a5b9a5d1a585b1a5e995960921b606082015260800190565b8181038181111561056d5761056d612135565b6001600160a01b0392831681529116602082015260400190565b6020808252602b908201527f496e697469616c697a61626c653a20636f6e7472616374206973206e6f74206960408201526a6e697469616c697a696e6760a81b606082015260800190565b76020b1b1b2b9b9a1b7b73a3937b61d1030b1b1b7bab73a1604d1b815260008351612256816017850160208801611dd6565b7001034b99036b4b9b9b4b733903937b6329607d1b6017918401918201528351612287816028840160208801611dd6565b01602801949350505050565b601f82111561066657600081815260208120601f850160051c810160208610156122ba5750805b601f850160051c820191505b818110156122d9578281556001016122c6565b505050505050565b815167ffffffffffffffff8111156122fb576122fb611f23565b61230f8161230984546120fb565b84612293565b602080601f831160018114612344576000841561232c5750858301515b600019600386901b1c1916600185901b1785556122d9565b600085815260208120601f198616915b8281101561237357888601518255948401946001909101908401612354565b50858210156123915787850151600019600388901b60f8161c191681555b5050505050600190811b01905550565b634e487b7160e01b600052603260045260246000fd5b6000602082840312156123c957600080fd5b81518015158114610aae57600080fd5b60008160001904831182151516156123f3576123f3612135565b500290565b60008161240757612407612135565b506000190190565b634e487b7160e01b600052603160045260246000fdfe45524332305072657365744d696e7465725061757365723a206d75737420686165d7a28e3265b37a6474929f336521b332c1681b933f6cb9f3376673440d862a9f2df0fed2c77648de5860a4cc508cd0818c85b8b8a1ab4ceeef8d981c8956a6ddf252ad1be2c89b69c2b068fc378daa952ba7f163c4a11628f55a4df523b3efa74faf88a584437bd0449f37007060732f2e252b1607e7286651c9b6c1a74cbaa2646970667358221220004545802af731f63c53c1114d1e8a21e532280427a8951be4e9066167230f7a64736f6c63430008100033",
  "linkReferences": {},
  "deployedLinkReferences": {}
}