{
  "address": "0x953e6Bdb0a226b606DAA5b00258f0AA05b9Bc160",
  "abi": [
    {
      "inputs": [
        {
          "internalType": "address",
          "name": "_collateral",
          "type": "address"
        },
        {
          "internalType": "address",
          "name": "_rwa",
          "type": "address"
        },
        {
          "internalType": "address",
          "name": "managerAdmin",
          "type": "address"
        },
        {
          "internalType": "address",
          "name": "pauser",
          "type": "address"
        },
        {
          "internalType": "address",
          "name": "_assetSender",
          "type": "address"
        },
        {
          "internalType": "address",
          "name": "_feeRecipient",
          "type": "address"
        },
        {
          "internalType": "uint256",
          "name": "_minimumDepositAmount",
          "type": "uint256"
        },
        {
          "internalType": "uint256",
          "name": "_minimumRedemptionAmount",
          "type": "uint256"
        },
        {
          "internalType": "address",
          "name": "blocklist",
          "type": "address"
        },
        {
          "internalType": "address",
          "name": "sanctionsList",
          "type": "address"
        }
      ],
      "stateMutability": "nonpayable",
      "type": "constructor"
    },
    {
      "inputs": [],
      "name": "AmountTooSmall",
      "type": "error"
    },
    {
      "inputs": [],
      "name": "ArraySizeMismatch",
      "type": "error"
    },
    {
      "inputs": [],
      "name": "AssetSenderCannotBeZero",
      "type": "error"
    },
    {
      "inputs": [],
      "name": "ClaimableTimestampInPast",
      "type": "error"
    },
    {
      "inputs": [],
      "name": "ClaimableTimestampNotSet",
      "type": "error"
    },
    {
      "inputs": [],
      "name": "CollateralCannotBeZero",
      "type": "error"
    },
    {
      "inputs": [],
      "name": "DepositProofAlreadyExists",
      "type": "error"
    },
    {
      "inputs": [],
      "name": "DepositTooSmall",
      "type": "error"
    },
    {
      "inputs": [],
      "name": "DepositorNull",
      "type": "error"
    },
    {
      "inputs": [],
      "name": "FeaturePaused",
      "type": "error"
    },
    {
      "inputs": [],
      "name": "FeeRecipientCannotBeZero",
      "type": "error"
    },
    {
      "inputs": [],
      "name": "FeeTooLarge",
      "type": "error"
    },
    {
      "inputs": [],
      "name": "MintNotYetClaimable",
      "type": "error"
    },
    {
      "inputs": [],
      "name": "PriceIdAlreadySet",
      "type": "error"
    },
    {
      "inputs": [],
      "name": "PriceIdNotSet",
      "type": "error"
    },
    {
      "inputs": [],
      "name": "RWACannotBeZero",
      "type": "error"
    },
    {
      "inputs": [],
      "name": "RedeemerNull",
      "type": "error"
    },
    {
      "inputs": [],
      "name": "RedemptionTooSmall",
      "type": "error"
    },
    {
      "inputs": [],
      "name": "TxnAlreadyValidated",
      "type": "error"
    },
    {
      "anonymous": false,
      "inputs": [
        {
          "indexed": false,
          "internalType": "address",
          "name": "oldAssetSender",
          "type": "address"
        },
        {
          "indexed": false,
          "internalType": "address",
          "name": "newAssetSender",
          "type": "address"
        }
      ],
      "name": "AssetSenderSet",
      "type": "event"
    },
    {
      "anonymous": false,
      "inputs": [
        {
          "indexed": true,
          "internalType": "uint256",
          "name": "claimTimestamp",
          "type": "uint256"
        },
        {
          "indexed": true,
          "internalType": "bytes32",
          "name": "depositId",
          "type": "bytes32"
        }
      ],
      "name": "ClaimableTimestampSet",
      "type": "event"
    },
    {
      "anonymous": false,
      "inputs": [
        {
          "indexed": true,
          "internalType": "bytes32",
          "name": "txHash",
          "type": "bytes32"
        },
        {
          "indexed": true,
          "internalType": "address",
          "name": "user",
          "type": "address"
        },
        {
          "indexed": false,
          "internalType": "uint256",
          "name": "depositAmountAfterFee",
          "type": "uint256"
        },
        {
          "indexed": false,
          "internalType": "uint256",
          "name": "feeAmount",
          "type": "uint256"
        },
        {
          "indexed": false,
          "internalType": "uint256",
          "name": "timestamp",
          "type": "uint256"
        }
      ],
      "name": "DepositProofAdded",
      "type": "event"
    },
    {
      "anonymous": false,
      "inputs": [
        {
          "indexed": true,
          "internalType": "bytes32",
          "name": "depositId",
          "type": "bytes32"
        },
        {
          "indexed": false,
          "internalType": "address",
          "name": "oldDepositor",
          "type": "address"
        },
        {
          "indexed": false,
          "internalType": "address",
          "name": "newDepositor",
          "type": "address"
        },
        {
          "indexed": false,
          "internalType": "uint256",
          "name": "oldPriceId",
          "type": "uint256"
        },
        {
          "indexed": false,
          "internalType": "uint256",
          "name": "newPriceId",
          "type": "uint256"
        },
        {
          "indexed": false,
          "internalType": "uint256",
          "name": "oldDepositAmount",
          "type": "uint256"
        },
        {
          "indexed": false,
          "internalType": "uint256",
          "name": "newDepositAmount",
          "type": "uint256"
        }
      ],
      "name": "DepositorOverwritten",
      "type": "event"
    },
    {
      "anonymous": false,
      "inputs": [
        {
          "indexed": false,
          "internalType": "address",
          "name": "oldFeeRecipient",
          "type": "address"
        },
        {
          "indexed": false,
          "internalType": "address",
          "name": "newFeeRecipient",
          "type": "address"
        }
      ],
      "name": "FeeRecipientSet",
      "type": "event"
    },
    {
      "anonymous": false,
      "inputs": [
        {
          "indexed": false,
          "internalType": "uint256",
          "name": "oldMinimum",
          "type": "uint256"
        },
        {
          "indexed": false,
          "internalType": "uint256",
          "name": "newMinimum",
          "type": "uint256"
        }
      ],
      "name": "MinimumDepositAmountSet",
      "type": "event"
    },
    {
      "anonymous": false,
      "inputs": [
        {
          "indexed": false,
          "internalType": "uint256",
          "name": "oldRedemptionMin",
          "type": "uint256"
        },
        {
          "indexed": false,
          "internalType": "uint256",
          "name": "newRedemptionMin",
          "type": "uint256"
        }
      ],
      "name": "MinimumRedemptionAmountSet",
      "type": "event"
    },
    {
      "anonymous": false,
      "inputs": [
        {
          "indexed": true,
          "internalType": "address",
          "name": "user",
          "type": "address"
        },
        {
          "indexed": true,
          "internalType": "bytes32",
          "name": "depositId",
          "type": "bytes32"
        },
        {
          "indexed": false,
          "internalType": "uint256",
          "name": "rwaAmountOut",
          "type": "uint256"
        },
        {
          "indexed": false,
          "internalType": "uint256",
          "name": "collateralAmountDeposited",
          "type": "uint256"
        },
        {
          "indexed": false,
          "internalType": "uint256",
          "name": "price",
          "type": "uint256"
        },
        {
          "indexed": false,
          "internalType": "uint256",
          "name": "priceId",
          "type": "uint256"
        }
      ],
      "name": "MintCompleted",
      "type": "event"
    },
    {
      "anonymous": false,
      "inputs": [
        {
          "indexed": false,
          "internalType": "uint256",
          "name": "oldFee",
          "type": "uint256"
        },
        {
          "indexed": false,
          "internalType": "uint256",
          "name": "newFee",
          "type": "uint256"
        }
      ],
      "name": "MintFeeSet",
      "type": "event"
    },
    {
      "anonymous": false,
      "inputs": [
        {
          "indexed": true,
          "internalType": "address",
          "name": "user",
          "type": "address"
        },
        {
          "indexed": true,
          "internalType": "bytes32",
          "name": "depositId",
          "type": "bytes32"
        },
        {
          "indexed": false,
          "internalType": "uint256",
          "name": "collateralAmountDeposited",
          "type": "uint256"
        },
        {
          "indexed": false,
          "internalType": "uint256",
          "name": "depositAmountAfterFee",
          "type": "uint256"
        },
        {
          "indexed": false,
          "internalType": "uint256",
          "name": "feeAmount",
          "type": "uint256"
        }
      ],
      "name": "MintRequested",
      "type": "event"
    },
    {
      "anonymous": false,
      "inputs": [
        {
          "indexed": false,
          "internalType": "address",
          "name": "oldPricer",
          "type": "address"
        },
        {
          "indexed": false,
          "internalType": "address",
          "name": "newPricer",
          "type": "address"
        }
      ],
      "name": "NewPricerSet",
      "type": "event"
    },
    {
      "anonymous": false,
      "inputs": [
        {
          "indexed": false,
          "internalType": "uint256",
          "name": "oldMinimum",
          "type": "uint256"
        },
        {
          "indexed": false,
          "internalType": "uint256",
          "name": "newMinimum",
          "type": "uint256"
        }
      ],
      "name": "OffChainRedemptionMinimumSet",
      "type": "event"
    },
    {
      "anonymous": false,
      "inputs": [
        {
          "indexed": false,
          "internalType": "address",
          "name": "caller",
          "type": "address"
        }
      ],
      "name": "OffChainRedemptionPaused",
      "type": "event"
    },
    {
      "anonymous": false,
      "inputs": [
        {
          "indexed": false,
          "internalType": "address",
          "name": "caller",
          "type": "address"
        }
      ],
      "name": "OffChainRedemptionUnpaused",
      "type": "event"
    },
    {
      "anonymous": false,
      "inputs": [
        {
          "indexed": true,
          "internalType": "bytes32",
          "name": "depositIdSet",
          "type": "bytes32"
        },
        {
          "indexed": true,
          "internalType": "uint256",
          "name": "priceIdSet",
          "type": "uint256"
        }
      ],
      "name": "PriceIdSetForDeposit",
      "type": "event"
    },
    {
      "anonymous": false,
      "inputs": [
        {
          "indexed": true,
          "internalType": "bytes32",
          "name": "redemptionIdSet",
          "type": "bytes32"
        },
        {
          "indexed": true,
          "internalType": "uint256",
          "name": "priceIdSet",
          "type": "uint256"
        }
      ],
      "name": "PriceIdSetForRedemption",
      "type": "event"
    },
    {
      "anonymous": false,
      "inputs": [
        {
          "indexed": true,
          "internalType": "bytes32",
          "name": "redemptionId",
          "type": "bytes32"
        },
        {
          "indexed": false,
          "internalType": "address",
          "name": "oldRedeemer",
          "type": "address"
        },
        {
          "indexed": false,
          "internalType": "address",
          "name": "newRedeemer",
          "type": "address"
        },
        {
          "indexed": false,
          "internalType": "uint256",
          "name": "oldPriceId",
          "type": "uint256"
        },
        {
          "indexed": false,
          "internalType": "uint256",
          "name": "newPriceId",
          "type": "uint256"
        },
        {
          "indexed": false,
          "internalType": "uint256",
          "name": "oldRWATokenAmountBurned",
          "type": "uint256"
        },
        {
          "indexed": false,
          "internalType": "uint256",
          "name": "newRWATokenAmountBurned",
          "type": "uint256"
        }
      ],
      "name": "RedeemerOverwritten",
      "type": "event"
    },
    {
      "anonymous": false,
      "inputs": [
        {
          "indexed": true,
          "internalType": "address",
          "name": "user",
          "type": "address"
        },
        {
          "indexed": true,
          "internalType": "bytes32",
          "name": "redemptionId",
          "type": "bytes32"
        },
        {
          "indexed": false,
          "internalType": "uint256",
          "name": "rwaAmountRequested",
          "type": "uint256"
        },
        {
          "indexed": false,
          "internalType": "uint256",
          "name": "collateralAmountReturned",
          "type": "uint256"
        },
        {
          "indexed": false,
          "internalType": "uint256",
          "name": "price",
          "type": "uint256"
        }
      ],
      "name": "RedemptionCompleted",
      "type": "event"
    },
    {
      "anonymous": false,
      "inputs": [
        {
          "indexed": false,
          "internalType": "uint256",
          "name": "oldFee",
          "type": "uint256"
        },
        {
          "indexed": false,
          "internalType": "uint256",
          "name": "newFee",
          "type": "uint256"
        }
      ],
      "name": "RedemptionFeeSet",
      "type": "event"
    },
    {
      "anonymous": false,
      "inputs": [
        {
          "indexed": false,
          "internalType": "address",
          "name": "caller",
          "type": "address"
        }
      ],
      "name": "RedemptionPaused",
      "type": "event"
    },
    {
      "anonymous": false,
      "inputs": [
        {
          "indexed": true,
          "internalType": "address",
          "name": "user",
          "type": "address"
        },
        {
          "indexed": true,
          "internalType": "bytes32",
          "name": "redemptionId",
          "type": "bytes32"
        },
        {
          "indexed": false,
          "internalType": "uint256",
          "name": "rwaAmountIn",
          "type": "uint256"
        }
      ],
      "name": "RedemptionRequested",
      "type": "event"
    },
    {
      "anonymous": false,
      "inputs": [
        {
          "indexed": true,
          "internalType": "address",
          "name": "user",
          "type": "address"
        },
        {
          "indexed": true,
          "internalType": "bytes32",
          "name": "redemptionId",
          "type": "bytes32"
        },
        {
          "indexed": false,
          "internalType": "uint256",
          "name": "rwaTokenAmountIn",
          "type": "uint256"
        },
        {
          "indexed": false,
          "internalType": "bytes32",
          "name": "offChainDestination",
          "type": "bytes32"
        }
      ],
      "name": "RedemptionRequestedServicedOffChain",
      "type": "event"
    },
    {
      "anonymous": false,
      "inputs": [
        {
          "indexed": false,
          "internalType": "address",
          "name": "caller",
          "type": "address"
        }
      ],
      "name": "RedemptionUnpaused",
      "type": "event"
    },
    {
      "anonymous": false,
      "inputs": [
        {
          "indexed": true,
          "internalType": "bytes32",
          "name": "role",
          "type": "bytes32"
        },
        {
          "indexed": true,
          "internalType": "bytes32",
          "name": "previousAdminRole",
          "type": "bytes32"
        },
        {
          "indexed": true,
          "internalType": "bytes32",
          "name": "newAdminRole",
          "type": "bytes32"
        }
      ],
      "name": "RoleAdminChanged",
      "type": "event"
    },
    {
      "anonymous": false,
      "inputs": [
        {
          "indexed": true,
          "internalType": "bytes32",
          "name": "role",
          "type": "bytes32"
        },
        {
          "indexed": true,
          "internalType": "address",
          "name": "account",
          "type": "address"
        },
        {
          "indexed": true,
          "internalType": "address",
          "name": "sender",
          "type": "address"
        }
      ],
      "name": "RoleGranted",
      "type": "event"
    },
    {
      "anonymous": false,
      "inputs": [
        {
          "indexed": true,
          "internalType": "bytes32",
          "name": "role",
          "type": "bytes32"
        },
        {
          "indexed": true,
          "internalType": "address",
          "name": "account",
          "type": "address"
        },
        {
          "indexed": true,
          "internalType": "address",
          "name": "sender",
          "type": "address"
        }
      ],
      "name": "RoleRevoked",
      "type": "event"
    },
    {
      "anonymous": false,
      "inputs": [
        {
          "indexed": false,
          "internalType": "address",
          "name": "caller",
          "type": "address"
        }
      ],
      "name": "SubscriptionPaused",
      "type": "event"
    },
    {
      "anonymous": false,
      "inputs": [
        {
          "indexed": false,
          "internalType": "address",
          "name": "caller",
          "type": "address"
        }
      ],
      "name": "SubscriptionUnpaused",
      "type": "event"
    },
    {
      "inputs": [],
      "name": "BPS_DENOMINATOR",
      "outputs": [
        {
          "internalType": "uint256",
          "name": "",
          "type": "uint256"
        }
      ],
      "stateMutability": "view",
      "type": "function"
    },
    {
      "inputs": [],
      "name": "DEFAULT_ADMIN_ROLE",
      "outputs": [
        {
          "internalType": "bytes32",
          "name": "",
          "type": "bytes32"
        }
      ],
      "stateMutability": "view",
      "type": "function"
    },
    {
      "inputs": [],
      "name": "MANAGER_ADMIN",
      "outputs": [
        {
          "internalType": "bytes32",
          "name": "",
          "type": "bytes32"
        }
      ],
      "stateMutability": "view",
      "type": "function"
    },
    {
      "inputs": [],
      "name": "PAUSER_ADMIN",
      "outputs": [
        {
          "internalType": "bytes32",
          "name": "",
          "type": "bytes32"
        }
      ],
      "stateMutability": "view",
      "type": "function"
    },
    {
      "inputs": [],
      "name": "PRICE_ID_SETTER_ROLE",
      "outputs": [
        {
          "internalType": "bytes32",
          "name": "",
          "type": "bytes32"
        }
      ],
      "stateMutability": "view",
      "type": "function"
    },
    {
      "inputs": [],
      "name": "RELAYER_ROLE",
      "outputs": [
        {
          "internalType": "bytes32",
          "name": "",
          "type": "bytes32"
        }
      ],
      "stateMutability": "view",
      "type": "function"
    },
    {
      "inputs": [],
      "name": "TIMESTAMP_SETTER_ROLE",
      "outputs": [
        {
          "internalType": "bytes32",
          "name": "",
          "type": "bytes32"
        }
      ],
      "stateMutability": "view",
      "type": "function"
    },
    {
      "inputs": [
        {
          "internalType": "bytes32",
          "name": "txHash",
          "type": "bytes32"
        },
        {
          "internalType": "address",
          "name": "user",
          "type": "address"
        },
        {
          "internalType": "uint256",
          "name": "depositAmountAfterFee",
          "type": "uint256"
        },
        {
          "internalType": "uint256",
          "name": "feeAmount",
          "type": "uint256"
        },
        {
          "internalType": "uint256",
          "name": "timestamp",
          "type": "uint256"
        }
      ],
      "name": "addProof",
      "outputs": [],
      "stateMutability": "nonpayable",
      "type": "function"
    },
    {
      "inputs": [],
      "name": "assetRecipient",
      "outputs": [
        {
          "internalType": "address",
          "name": "",
          "type": "address"
        }
      ],
      "stateMutability": "view",
      "type": "function"
    },
    {
      "inputs": [],
      "name": "assetSender",
      "outputs": [
        {
          "internalType": "address",
          "name": "",
          "type": "address"
        }
      ],
      "stateMutability": "view",
      "type": "function"
    },
    {
      "inputs": [
        {
          "internalType": "bytes32[]",
          "name": "depositIds",
          "type": "bytes32[]"
        }
      ],
      "name": "claimMint",
      "outputs": [],
      "stateMutability": "nonpayable",
      "type": "function"
    },
    {
      "inputs": [
        {
          "internalType": "bytes32[]",
          "name": "redemptionIds",
          "type": "bytes32[]"
        }
      ],
      "name": "claimRedemption",
      "outputs": [],
      "stateMutability": "nonpayable",
      "type": "function"
    },
    {
      "inputs": [],
      "name": "collateral",
      "outputs": [
        {
          "internalType": "contract IERC20",
          "name": "",
          "type": "address"
        }
      ],
      "stateMutability": "view",
      "type": "function"
    },
    {
      "inputs": [],
      "name": "decimalsMultiplier",
      "outputs": [
        {
          "internalType": "uint256",
          "name": "",
          "type": "uint256"
        }
      ],
      "stateMutability": "view",
      "type": "function"
    },
    {
      "inputs": [
        {
          "internalType": "bytes32",
          "name": "",
          "type": "bytes32"
        }
      ],
      "name": "depositIdToClaimableTimestamp",
      "outputs": [
        {
          "internalType": "uint256",
          "name": "",
          "type": "uint256"
        }
      ],
      "stateMutability": "view",
      "type": "function"
    },
    {
      "inputs": [
        {
          "internalType": "bytes32",
          "name": "",
          "type": "bytes32"
        }
      ],
      "name": "depositIdToDepositor",
      "outputs": [
        {
          "internalType": "address",
          "name": "user",
          "type": "address"
        },
        {
          "internalType": "uint256",
          "name": "amountDepositedMinusFees",
          "type": "uint256"
        },
        {
          "internalType": "uint256",
          "name": "priceId",
          "type": "uint256"
        }
      ],
      "stateMutability": "view",
      "type": "function"
    },
    {
      "inputs": [],
      "name": "feeRecipient",
      "outputs": [
        {
          "internalType": "address",
          "name": "",
          "type": "address"
        }
      ],
      "stateMutability": "view",
      "type": "function"
    },
    {
      "inputs": [
        {
          "internalType": "bytes32",
          "name": "role",
          "type": "bytes32"
        }
      ],
      "name": "getRoleAdmin",
      "outputs": [
        {
          "internalType": "bytes32",
          "name": "",
          "type": "bytes32"
        }
      ],
      "stateMutability": "view",
      "type": "function"
    },
    {
      "inputs": [
        {
          "internalType": "bytes32",
          "name": "role",
          "type": "bytes32"
        },
        {
          "internalType": "uint256",
          "name": "index",
          "type": "uint256"
        }
      ],
      "name": "getRoleMember",
      "outputs": [
        {
          "internalType": "address",
          "name": "",
          "type": "address"
        }
      ],
      "stateMutability": "view",
      "type": "function"
    },
    {
      "inputs": [
        {
          "internalType": "bytes32",
          "name": "role",
          "type": "bytes32"
        }
      ],
      "name": "getRoleMemberCount",
      "outputs": [
        {
          "internalType": "uint256",
          "name": "",
          "type": "uint256"
        }
      ],
      "stateMutability": "view",
      "type": "function"
    },
    {
      "inputs": [
        {
          "internalType": "bytes32",
          "name": "role",
          "type": "bytes32"
        },
        {
          "internalType": "address",
          "name": "account",
          "type": "address"
        }
      ],
      "name": "grantRole",
      "outputs": [],
      "stateMutability": "nonpayable",
      "type": "function"
    },
    {
      "inputs": [
        {
          "internalType": "bytes32",
          "name": "role",
          "type": "bytes32"
        },
        {
          "internalType": "address",
          "name": "account",
          "type": "address"
        }
      ],
      "name": "hasRole",
      "outputs": [
        {
          "internalType": "bool",
          "name": "",
          "type": "bool"
        }
      ],
      "stateMutability": "view",
      "type": "function"
    },
    {
      "inputs": [],
      "name": "minimumDepositAmount",
      "outputs": [
        {
          "internalType": "uint256",
          "name": "",
          "type": "uint256"
        }
      ],
      "stateMutability": "view",
      "type": "function"
    },
    {
      "inputs": [],
      "name": "minimumOffChainRedemptionAmount",
      "outputs": [
        {
          "internalType": "uint256",
          "name": "",
          "type": "uint256"
        }
      ],
      "stateMutability": "view",
      "type": "function"
    },
    {
      "inputs": [],
      "name": "minimumRedemptionAmount",
      "outputs": [
        {
          "internalType": "uint256",
          "name": "",
          "type": "uint256"
        }
      ],
      "stateMutability": "view",
      "type": "function"
    },
    {
      "inputs": [],
      "name": "mintFee",
      "outputs": [
        {
          "internalType": "uint256",
          "name": "",
          "type": "uint256"
        }
      ],
      "stateMutability": "view",
      "type": "function"
    },
    {
      "inputs": [],
      "name": "offChainRedemptionPaused",
      "outputs": [
        {
          "internalType": "bool",
          "name": "",
          "type": "bool"
        }
      ],
      "stateMutability": "view",
      "type": "function"
    },
    {
      "inputs": [
        {
          "internalType": "bytes32",
          "name": "depositIdToOverwrite",
          "type": "bytes32"
        },
        {
          "internalType": "address",
          "name": "user",
          "type": "address"
        },
        {
          "internalType": "uint256",
          "name": "depositAmountAfterFee",
          "type": "uint256"
        },
        {
          "internalType": "uint256",
          "name": "priceId",
          "type": "uint256"
        }
      ],
      "name": "overwriteDepositor",
      "outputs": [],
      "stateMutability": "nonpayable",
      "type": "function"
    },
    {
      "inputs": [
        {
          "internalType": "bytes32",
          "name": "redemptionIdToOverwrite",
          "type": "bytes32"
        },
        {
          "internalType": "address",
          "name": "user",
          "type": "address"
        },
        {
          "internalType": "uint256",
          "name": "rwaTokenAmountBurned",
          "type": "uint256"
        },
        {
          "internalType": "uint256",
          "name": "priceId",
          "type": "uint256"
        }
      ],
      "name": "overwriteRedeemer",
      "outputs": [],
      "stateMutability": "nonpayable",
      "type": "function"
    },
    {
      "inputs": [],
      "name": "pauseOffChainRedemption",
      "outputs": [],
      "stateMutability": "nonpayable",
      "type": "function"
    },
    {
      "inputs": [],
      "name": "pauseRedemption",
      "outputs": [],
      "stateMutability": "nonpayable",
      "type": "function"
    },
    {
      "inputs": [],
      "name": "pauseSubscription",
      "outputs": [],
      "stateMutability": "nonpayable",
      "type": "function"
    },
    {
      "inputs": [],
      "name": "pricer",
      "outputs": [
        {
          "internalType": "contract IPricerReader",
          "name": "",
          "type": "address"
        }
      ],
      "stateMutability": "view",
      "type": "function"
    },
    {
      "inputs": [],
      "name": "redemptionFee",
      "outputs": [
        {
          "internalType": "uint256",
          "name": "",
          "type": "uint256"
        }
      ],
      "stateMutability": "view",
      "type": "function"
    },
    {
      "inputs": [
        {
          "internalType": "bytes32",
          "name": "",
          "type": "bytes32"
        }
      ],
      "name": "redemptionIdToRedeemer",
      "outputs": [
        {
          "internalType": "address",
          "name": "user",
          "type": "address"
        },
        {
          "internalType": "uint256",
          "name": "amountRwaTokenBurned",
          "type": "uint256"
        },
        {
          "internalType": "uint256",
          "name": "priceId",
          "type": "uint256"
        }
      ],
      "stateMutability": "view",
      "type": "function"
    },
    {
      "inputs": [],
      "name": "redemptionPaused",
      "outputs": [
        {
          "internalType": "bool",
          "name": "",
          "type": "bool"
        }
      ],
      "stateMutability": "view",
      "type": "function"
    },
    {
      "inputs": [],
      "name": "redemptionRequestCounter",
      "outputs": [
        {
          "internalType": "uint256",
          "name": "",
          "type": "uint256"
        }
      ],
      "stateMutability": "view",
      "type": "function"
    },
    {
      "inputs": [
        {
          "internalType": "bytes32",
          "name": "role",
          "type": "bytes32"
        },
        {
          "internalType": "address",
          "name": "account",
          "type": "address"
        }
      ],
      "name": "renounceRole",
      "outputs": [],
      "stateMutability": "nonpayable",
      "type": "function"
    },
    {
      "inputs": [
        {
          "internalType": "uint256",
          "name": "amount",
          "type": "uint256"
        }
      ],
      "name": "requestRedemption",
      "outputs": [],
      "stateMutability": "nonpayable",
      "type": "function"
    },
    {
      "inputs": [
        {
          "internalType": "uint256",
          "name": "amountRWATokenToRedeem",
          "type": "uint256"
        },
        {
          "internalType": "bytes32",
          "name": "offChainDestination",
          "type": "bytes32"
        }
      ],
      "name": "requestRedemptionServicedOffchain",
      "outputs": [],
      "stateMutability": "nonpayable",
      "type": "function"
    },
    {
      "inputs": [
        {
          "internalType": "uint256",
          "name": "amount",
          "type": "uint256"
        }
      ],
      "name": "requestSubscription",
      "outputs": [],
      "stateMutability": "nonpayable",
      "type": "function"
    },
    {
      "inputs": [
        {
          "internalType": "bytes32",
          "name": "role",
          "type": "bytes32"
        },
        {
          "internalType": "address",
          "name": "account",
          "type": "address"
        }
      ],
      "name": "revokeRole",
      "outputs": [],
      "stateMutability": "nonpayable",
      "type": "function"
    },
    {
      "inputs": [],
      "name": "rwa",
      "outputs": [
        {
          "internalType": "contract IRWALike",
          "name": "",
          "type": "address"
        }
      ],
      "stateMutability": "view",
      "type": "function"
    },
    {
      "inputs": [
        {
          "internalType": "address",
          "name": "newAssetSender",
          "type": "address"
        }
      ],
      "name": "setAssetSender",
      "outputs": [],
      "stateMutability": "nonpayable",
      "type": "function"
    },
    {
      "inputs": [
        {
          "internalType": "uint256",
          "name": "claimTimestamp",
          "type": "uint256"
        },
        {
          "internalType": "bytes32[]",
          "name": "depositIds",
          "type": "bytes32[]"
        }
      ],
      "name": "setClaimableTimestamp",
      "outputs": [],
      "stateMutability": "nonpayable",
      "type": "function"
    },
    {
      "inputs": [
        {
          "internalType": "address",
          "name": "newFeeRecipient",
          "type": "address"
        }
      ],
      "name": "setFeeRecipient",
      "outputs": [],
      "stateMutability": "nonpayable",
      "type": "function"
    },
    {
      "inputs": [
        {
          "internalType": "uint256",
          "name": "minDepositAmount",
          "type": "uint256"
        }
      ],
      "name": "setMinimumDepositAmount",
      "outputs": [],
      "stateMutability": "nonpayable",
      "type": "function"
    },
    {
      "inputs": [
        {
          "internalType": "uint256",
          "name": "_minimumRedemptionAmount",
          "type": "uint256"
        }
      ],
      "name": "setMinimumRedemptionAmount",
      "outputs": [],
      "stateMutability": "nonpayable",
      "type": "function"
    },
    {
      "inputs": [
        {
          "internalType": "uint256",
          "name": "_mintFee",
          "type": "uint256"
        }
      ],
      "name": "setMintFee",
      "outputs": [],
      "stateMutability": "nonpayable",
      "type": "function"
    },
    {
      "inputs": [
        {
          "internalType": "uint256",
          "name": "_minimumOffChainRedemptionAmount",
          "type": "uint256"
        }
      ],
      "name": "setOffChainRedemptionMinimum",
      "outputs": [],
      "stateMutability": "nonpayable",
      "type": "function"
    },
    {
      "inputs": [
        {
          "internalType": "bytes32[]",
          "name": "depositIds",
          "type": "bytes32[]"
        },
        {
          "internalType": "uint256[]",
          "name": "priceIds",
          "type": "uint256[]"
        }
      ],
      "name": "setPriceIdForDeposits",
      "outputs": [],
      "stateMutability": "nonpayable",
      "type": "function"
    },
    {
      "inputs": [
        {
          "internalType": "bytes32[]",
          "name": "redemptionIds",
          "type": "bytes32[]"
        },
        {
          "internalType": "uint256[]",
          "name": "priceIds",
          "type": "uint256[]"
        }
      ],
      "name": "setPriceIdForRedemptions",
      "outputs": [],
      "stateMutability": "nonpayable",
      "type": "function"
    },
    {
      "inputs": [
        {
          "internalType": "address",
          "name": "newPricer",
          "type": "address"
        }
      ],
      "name": "setPricer",
      "outputs": [],
      "stateMutability": "nonpayable",
      "type": "function"
    },
    {
      "inputs": [
        {
          "internalType": "uint256",
          "name": "_redemptionFee",
          "type": "uint256"
        }
      ],
      "name": "setRedemptionFee",
      "outputs": [],
      "stateMutability": "nonpayable",
      "type": "function"
    },
    {
      "inputs": [],
      "name": "subscriptionPaused",
      "outputs": [
        {
          "internalType": "bool",
          "name": "",
          "type": "bool"
        }
      ],
      "stateMutability": "view",
      "type": "function"
    },
    {
      "inputs": [],
      "name": "subscriptionRequestCounter",
      "outputs": [
        {
          "internalType": "uint256",
          "name": "",
          "type": "uint256"
        }
      ],
      "stateMutability": "view",
      "type": "function"
    },
    {
      "inputs": [
        {
          "internalType": "bytes4",
          "name": "interfaceId",
          "type": "bytes4"
        }
      ],
      "name": "supportsInterface",
      "outputs": [
        {
          "internalType": "bool",
          "name": "",
          "type": "bool"
        }
      ],
      "stateMutability": "view",
      "type": "function"
    },
    {
      "inputs": [],
      "name": "unpauseOffChainRedemption",
      "outputs": [],
      "stateMutability": "nonpayable",
      "type": "function"
    },
    {
      "inputs": [],
      "name": "unpauseRedemption",
      "outputs": [],
      "stateMutability": "nonpayable",
      "type": "function"
    },
    {
      "inputs": [],
      "name": "unpauseSubscription",
      "outputs": [],
      "stateMutability": "nonpayable",
      "type": "function"
    }
  ],
  "transactionHash": "0xc766fd7ad31c5010100efdb71ccd9ba863e8594c3a2dfce18bd7dab3a1c002a8",
  "args": [
    "0x5aff2438F1FA58BCF18a1f54cAb98c0c7e512683",
    "0x9685D8572ae90eDe1F01c7C31A4dC7a76cfe2017",
    "0x18096586f4f475354f9AB7A9a38db6A075A25e18",
    "0x15fBe48b8d5C29Ac8EAD7E24486F2c88cabCba21",
    "0x7Dc1DDc069ef2786e891f335BEf3931a7dC56b9C",
    "0x60A66E0D499022fDC942F8A1D6b83ccE706AbA1F",
    "1000000000",
    "10000000000000000000",
    "0x8BF14722F2E90f50da6500Cb2f9c586124021662",
    "0x40c57923924b5c5c5455c48d93317139addac8fb"
  ],
  "solcInputHash": "5855a53555d0b692c677618bcb41c21f",
  "bytecode": "0x60e06040526000600a556000600b556001600c556001600d553480156200002557600080fd5b5060405162003762380380620037628339810160408190526200004891620004db565b6001600055898989898989898987878787878787876001600160a01b038816620000855760405163a1aeceb760e01b815260040160405180910390fd5b6001600160a01b038716620000ad5760405163071aeb1d60e01b815260040160405180910390fd5b6001600160a01b038416620000d557604051633b2b1d5560e01b815260040160405180910390fd5b6001600160a01b038316620000fd57604051634fdcfc5560e11b815260040160405180910390fd5b6200010a60008762000333565b62000125600080516020620037428339815191528762000333565b62000140600080516020620037228339815191528662000333565b6200016a600080516020620037228339815191526000805160206200374283398151915262000376565b620001a57f830a9081649e91840eb0274e99b47626a896cfa0f4dd591cb31cd5060e566c0d6000805160206200374283398151915262000376565b620001e07fe2b7fb3b832174769106daebcfd6d1970523240dda11281102db9363b83b0dc46000805160206200374283398151915262000376565b6001600160a01b0388811660a0819052888216608052600580546001600160a01b03199081168785161790915560048054909116928716929092178255600884905560098390556040805163313ce56760e01b81529051919263313ce5679282820192602092908290030181865afa15801562000261573d6000803e3d6000fd5b505050506040513d601f19601f8201168201806040525081019062000287919062000598565b876001600160a01b031663313ce5676040518163ffffffff1660e01b8152600401602060405180830381865afa158015620002c6573d6000803e3d6000fd5b505050506040513d601f19601f82011682018060405250810190620002ec919062000598565b620002f89190620005da565b6200030590600a620006f3565b60c08181525050505050505050505080600f8190555050505050505050505050505050505050505062000704565b6200034a8282620003c360201b62001eda1760201c565b60008281526002602090815260409091206200037191839062001f456200044c821b17901c565b505050565b6000828152600160208190526040808320909101805490849055905190918391839186917fbd79b86ffe0ab8e8776151514217cd7cacd52c909f66475c3af44e129f0b00ff9190a4505050565b60008281526001602090815260408083206001600160a01b038516845290915290205460ff16620004485760008281526001602081815260408084206001600160a01b0386168086529252808420805460ff19169093179092559051339285917f2f8788117e7eff1d82e926ec794901d17c78024a50270940304540a733656f0d9190a45b5050565b600062000463836001600160a01b0384166200046c565b90505b92915050565b6000818152600183016020526040812054620004b55750815460018181018455600084815260208082209093018490558454848252828601909352604090209190915562000466565b50600062000466565b80516001600160a01b0381168114620004d657600080fd5b919050565b6000806000806000806000806000806101408b8d031215620004fc57600080fd5b620005078b620004be565b99506200051760208c01620004be565b98506200052760408c01620004be565b97506200053760608c01620004be565b96506200054760808c01620004be565b95506200055760a08c01620004be565b945060c08b0151935060e08b01519250620005766101008c01620004be565b9150620005876101208c01620004be565b90509295989b9194979a5092959850565b600060208284031215620005ab57600080fd5b815160ff81168114620005bd57600080fd5b9392505050565b634e487b7160e01b600052601160045260246000fd5b60ff8281168282160390811115620004665762000466620005c4565b600181815b80851115620006375781600019048211156200061b576200061b620005c4565b808516156200062957918102915b93841c9390800290620005fb565b509250929050565b600082620006505750600162000466565b816200065f5750600062000466565b81600181146200067857600281146200068357620006a3565b600191505062000466565b60ff841115620006975762000697620005c4565b50506001821b62000466565b5060208310610133831016604e8410600b8410161715620006c8575081810a62000466565b620006d48383620005f6565b8060001904821115620006eb57620006eb620005c4565b029392505050565b60006200046360ff8416836200063f565b60805160a05160c051612faf620007736000396000818161069f01528181612377015261296c01526000818161073901528181610aab01528181610b73015281816118b101526118e901526000818161063701528181611cdd01528181611e29015261260a0152612faf6000f3fe608060405234801561001057600080fd5b50600436106103245760003560e01c80638a07df1e116101a9578063d0c835ce116100ef578063e1a452181161009d578063e1a452181461078a578063e4107c9714610793578063e74b981b146107a6578063eddd0d9c146107b9578063ee75d7d4146107cc578063eeb3c910146107df578063f4a20307146107f2578063f80a36d61461081957600080fd5b8063d0c835ce146106fb578063d547741f1461070e578063d592d81514610721578063d8dfeb4514610734578063dd45eef61461075b578063de6afa821461076e578063e0f486ef1461078157600080fd5b8063a217fddf11610157578063a217fddf14610659578063a6138ed914610661578063aa85c1df14610674578063aab483d614610687578063bb13245f1461069a578063bcc70283146106c1578063ca15c873146106d6578063cd4d0bcf146106e957600080fd5b80638a07df1e146105b55780638d044c06146105d55780639010d07c146105dd57806391d14854146105f0578063926d7d7f1461060357806392bccb801461062a57806395e4b2511461063257600080fd5b806338fed7081161026e5780634ef1ccd11161021c5780634ef1ccd114610506578063525decd6146105195780635d591d681461052c57806373a95ddd146105655780637dbc1df014610572578063837018fa1461058557806385c4e79e1461058d57806387e2d06e146105a257600080fd5b806338fed708146104415780633bfa67fe1461049f5780634565e9ff146104c7578063458f5815146104da57806346904840146104e357806349cbbf2a146104f65780634dfe7af2146104fe57600080fd5b8063244f5acf116102d6578063244f5acf146103a2578063248a9ca3146103b5578063258492cd146103d957806329390370146103ec5780632b5eceff146103ff5780632f2ff15d14610412578063354181f31461042557806336568abe1461042e57600080fd5b806301ffc9a714610329578063078a6be81461035157806307bda1bb14610374578063080c279a1461037d57806312589fb51461038657806313966db51461038f5780632056aa1214610398575b600080fd5b61033c6103373660046129ca565b61082c565b60405190151581526020015b60405180910390f35b610366600080516020612f5a83398151915281565b604051908152602001610348565b610366600c5481565b61036660085481565b610366600f5481565b610366600a5481565b6103a0610857565b005b6103a06103b0366004612a40565b6108ba565b6103666103c3366004612a82565b6000908152600160208190526040909120015490565b6103a06103e7366004612ab7565b610bac565b6103a06103fa366004612af2565b610cfb565b6103a061040d366004612b0d565b610d74565b6103a0610420366004612b53565b610e78565b610366600d5481565b6103a061043c366004612b53565b610ea4565b61047a61044f366004612a82565b6007602052600090815260409020805460018201546002909201546001600160a01b03909116919083565b604080516001600160a01b039094168452602084019290925290820152606001610348565b6104ba73bda73a0f13958ee444e0782e1768ab4b76edae2881565b6040516103489190612b7f565b6103a06104d5366004612a40565b610f22565b610366600b5481565b6005546104ba906001600160a01b031681565b6103a0610fb0565b6103a061100a565b6103a0610514366004612a82565b61105f565b6103a0610527366004612af2565b6110d9565b61047a61053a366004612a82565b6006602052600090815260409020805460018201546002909201546001600160a01b03909116919083565b600e5461033c9060ff1681565b6103a0610580366004612a82565b611145565b6103a06111bf565b610366600080516020612f1a83398151915281565b6103a06105b0366004612b93565b611213565b6103666105c3366004612a82565b60106020526000908152604090205481565b6103a06113c1565b6104ba6105eb366004612bff565b611414565b61033c6105fe366004612b53565b611433565b6103667fe2b7fb3b832174769106daebcfd6d1970523240dda11281102db9363b83b0dc481565b6103a061145e565b6104ba7f000000000000000000000000000000000000000000000000000000000000000081565b610366600081565b6003546104ba906001600160a01b031681565b6103a0610682366004612b93565b6114b4565b6103a0610695366004612a82565b611600565b6103667f000000000000000000000000000000000000000000000000000000000000000081565b610366600080516020612f3a83398151915281565b6103666106e4366004612a82565b61167a565b600e5461033c90610100900460ff1681565b6103a0610709366004612c21565b611691565b6103a061071c366004612b53565b611777565b6103a061072f366004612a82565b61179e565b6104ba7f000000000000000000000000000000000000000000000000000000000000000081565b600e5461033c9062010000900460ff1681565b6103a061077c366004612ab7565b611976565b61036660095481565b61036661271081565b6103a06107a1366004612a82565b611ab5565b6103a06107b4366004612af2565b611b0c565b6103a06107c7366004612a82565b611b77565b6004546104ba906001600160a01b031681565b6103a06107ed366004612a82565b611bf1565b6103667fced4eb9faeb19ab0e2e05a20ade58d82157e1035a3fbff4bc38dd5e609f22b9381565b6103a0610827366004612bff565b611d85565b60006001600160e01b03198216635a05180f60e01b1480610851575061085182611f5a565b92915050565b600080516020612f1a8339815191526108708133611f8f565b600e805461ff0019166101001790556040517fcd71257f2998474633e94cfffa045014068f6218ffdca256b6f4aa9d5f15fb89906108af903390612b7f565b60405180910390a150565b6002600054036108e55760405162461bcd60e51b81526004016108dc90612c6d565b60405180910390fd5b6002600055600e5460ff16801561090f5760405163aadfaddd60e01b815260040160405180910390fd5b600082815b81811015610b585760006007600088888581811061093457610934612ca4565b602090810292909201358352508181019290925260409081016000908120825160608101845281546001600160a01b0316815260018201549481019490945260020154918301829052919250900361099f57604051638718c77160e01b815260040160405180910390fd5b6003546040828101519051630e75722360e41b815260048101919091526000916001600160a01b03169063e757223090602401602060405180830381865afa1580156109ef573d6000803e3d6000fd5b505050506040513d601f19601f82011682018060405250810190610a139190612cba565b90506000610a25836020015183611ff3565b90506000610a3282612024565b90506000610a408284612ce9565b9050610a4c8289612cfc565b9750600760008c8c89818110610a6457610a64612ca4565b60209081029290920135835250810191909152604001600090812080546001600160a01b031916815560018101829055600201556004548551610ad6916001600160a01b037f000000000000000000000000000000000000000000000000000000000000000081169291169084612041565b8a8a87818110610ae857610ae8612ca4565b87516020898101516040805191825281830188905281018a905292029390930135926001600160a01b031691507f35908d59be205275271010c5ea7062a88a2b5fbafe268bb9070550276f0edadd9060600160405180910390a3505050505080610b5190612d0f565b9050610914565b508115610ba057600454600554610ba0916001600160a01b037f0000000000000000000000000000000000000000000000000000000000000000811692918116911685612041565b50506001600055505050565b600080516020612f5a833981519152610bc58133611f8f565b6000600760008781526020019081526020016000206040518060600160405290816000820160009054906101000a90046001600160a01b03166001600160a01b03166001600160a01b031681526020016001820154815260200160028201548152505090506040518060600160405280866001600160a01b03168152602001858152602001848152506007600088815260200190815260200160002060008201518160000160006101000a8154816001600160a01b0302191690836001600160a01b031602179055506020820151816001015560408201518160020155905050857f5a0c55c421ae3aac2379811eca16aaee32b6e64411322b624118d4219b9350a082600001518784604001518786602001518a604051610ceb96959493929190612d28565b60405180910390a2505050505050565b600080516020612f5a833981519152610d148133611f8f565b600380546001600160a01b038481166001600160a01b03198316179092556040519116907f801352e72ef9b80b3992ccbedf07ab0e133e7da7aaccf0024abf23f4f32eb99a90610d679083908690612d5e565b60405180910390a1505050565b7fe2b7fb3b832174769106daebcfd6d1970523240dda11281102db9363b83b0dc4610d9f8133611f8f565b6000868152600660205260409020546001600160a01b031615610dd557604051631aeecebf60e21b815260040160405180910390fd5b60408051606080820183526001600160a01b0388811680845260208085018a815260008688018181528e82526006845290889020965187546001600160a01b031916951694909417865551600186015591516002909401939093558351888152908101879052928301859052909188917fc985471d1cb1bb75da0d54fa5ab10f7171e952cefcc0bf4fc7c2546c19d1811f910160405180910390a3505050505050565b60008281526001602081905260409091200154610e958133611f8f565b610e9f83836120a1565b505050565b6001600160a01b0381163314610f145760405162461bcd60e51b815260206004820152602f60248201527f416363657373436f6e74726f6c3a2063616e206f6e6c792072656e6f756e636560448201526e103937b632b9903337b91039b2b63360891b60648201526084016108dc565b610f1e82826120c3565b5050565b600260005403610f445760405162461bcd60e51b81526004016108dc90612c6d565b6002600055600e54610100900460ff168015610f735760405163aadfaddd60e01b815260040160405180910390fd5b8160005b81811015610ba057610fa0858583818110610f9457610f94612ca4565b905060200201356120e5565b610fa981612d0f565b9050610f77565b600080516020612f1a833981519152610fc98133611f8f565b600e805462ff00001916620100001790556040517fdc41a92196ccc1ab8149c01bc68c2f506b10a7bb5cd2693c9516d176f5381ff4906108af903390612b7f565b600080516020612f5a8339815191526110238133611f8f565b600e805462ff0000191690556040517f53a8c40fc17c78d38e2c06aa8d2c550c1acbf7b30d087dbda289ab3dd41c235c906108af903390612b7f565b600080516020612f5a8339815191526110788133611f8f565b61271082101561109b5760405163617ab12d60e11b815260040160405180910390fd5b600980549083905560408051828152602081018590527ffdaf6ed728cef208e62328a008209556f8281f3062b14dd08aaaa90fa15942119101610d67565b600080516020612f5a8339815191526110f28133611f8f565b600480546001600160a01b038481166001600160a01b03198316179092556040519116907fb09f298b2812193d5ada18beaadd6cb8f12b3640926d99de46e2a65394df829d90610d679083908690612d5e565b600080516020612f5a83398151915261115e8133611f8f565b61271082111561118157604051637e2df70960e11b815260040160405180910390fd5b600b80549083905560408051828152602081018590527f2956acfe8584fb02384e06c675ee215bf10d55c3de1e6ff9b2f621e8a40c64709101610d67565b600080516020612f5a8339815191526111d88133611f8f565b600e805461ff00191690556040517f94482ee2b195c365dbbc2d689fd5a088d2b219abe44360ba8895525c9471d66f906108af903390612b7f565b600080516020612f3a83398151915261122c8133611f8f565b8382811461124d5760405163cc6e40b360e01b815260040160405180910390fd5b60005b818110156113b857600060068189898581811061126f5761126f612ca4565b60209081029290920135835250810191909152604001600020546001600160a01b0316036112b0576040516305a8a45b60e41b815260040160405180910390fd5b600660008888848181106112c6576112c6612ca4565b905060200201358152602001908152602001600020600201546000146112ff57604051631139f30960e31b815260040160405180910390fd5b84848281811061131157611311612ca4565b905060200201356006600089898581811061132e5761132e612ca4565b9050602002013581526020019081526020016000206002018190555084848281811061135c5761135c612ca4565b9050602002013587878381811061137557611375612ca4565b905060200201357fc2055184bbc2d10b90bf7df17a84f8bdda6b52377a976e41e0c1610fffafc0d760405160405180910390a36113b181612d0f565b9050611250565b50505050505050565b600080516020612f5a8339815191526113da8133611f8f565b600e805460ff191690556040517fc641b9c4afa539cedcbe2e5f3e47d9f092175b5d0b8ae72dffa634a3eb3e47e4906108af903390612b7f565b600082815260026020526040812061142c908361215c565b9392505050565b60009182526001602090815260408084206001600160a01b0393909316845291905290205460ff1690565b600080516020612f1a8339815191526114778133611f8f565b600e805460ff191660011790556040517f71e0406677c0570b2a66b1a4feeccf5c1cba2d6729435461e27a312b15410d04906108af903390612b7f565b600080516020612f3a8339815191526114cd8133611f8f565b838281146114ee5760405163cc6e40b360e01b815260040160405180910390fd5b60005b818110156113b8576007600088888481811061150f5761150f612ca4565b9050602002013581526020019081526020016000206002015460001461154857604051631139f30960e31b815260040160405180910390fd5b84848281811061155a5761155a612ca4565b905060200201356007600089898581811061157757611577612ca4565b905060200201358152602001908152602001600020600201819055508484828181106115a5576115a5612ca4565b905060200201358787838181106115be576115be612ca4565b905060200201357e05e86a70f400d1820ab5a0573a2be911d831ab28fe2e9448b34daab223b09c60405160405180910390a36115f981612d0f565b90506114f1565b600080516020612f5a8339815191526116198133611f8f565b61271082101561163c5760405163617ab12d60e11b815260040160405180910390fd5b600880549083905560408051828152602081018590527fe6e25add7363f8f8a40cbea9810d3115a33703b10972ef759104219b006574369101610d67565b600081815260026020526040812061085190612168565b7fced4eb9faeb19ab0e2e05a20ade58d82157e1035a3fbff4bc38dd5e609f22b936116bc8133611f8f565b428410156116dd5760405163209768a360e11b815260040160405180910390fd5b8160005b8181101561176f57856010600087878581811061170057611700612ca4565b9050602002013581526020019081526020016000208190555084848281811061172b5761172b612ca4565b90506020020135867f15d20a98e8d4b1247fc51e2f6817929874a0769087776e52268eb1b4c8bdb2dd60405160405180910390a361176881612d0f565b90506116e1565b505050505050565b600082815260016020819052604090912001546117948133611f8f565b610e9f83836120c3565b6002600054036117c05760405162461bcd60e51b81526004016108dc90612c6d565b6002600055600e54610100900460ff1680156117ef5760405163aadfaddd60e01b815260040160405180910390fd5b60085482101561181257604051636ba4a1c760e01b815260040160405180910390fd5b600061181d83612172565b9050600061182b8285612ce9565b600c8054919250600091908261184083612d0f565b909155506040805160608101825233815260208082018681526000838501818152868252600690935293909320915182546001600160a01b0319166001600160a01b03909116178255915160018201559051600290910155905082156118dc576005546118dc906001600160a01b037f000000000000000000000000000000000000000000000000000000000000000081169133911686612041565b6119256001600160a01b037f0000000000000000000000000000000000000000000000000000000000000000163373bda73a0f13958ee444e0782e1768ab4b76edae2885612041565b6040805186815260208101849052908101849052819033907f7cbce37c7b11d322316420484f40c29ce672ad3fa16752551a3dbe6ccfa04e149060600160405180910390a350506001600055505050565b600080516020612f5a83398151915261198f8133611f8f565b6000600660008781526020019081526020016000206040518060600160405290816000820160009054906101000a90046001600160a01b03166001600160a01b03166001600160a01b031681526020016001820154815260200160028201548152505090506040518060600160405280866001600160a01b03168152602001858152602001848152506006600088815260200190815260200160002060008201518160000160006101000a8154816001600160a01b0302191690836001600160a01b031602179055506020820151816001015560408201518160020155905050857f7e506b1f11218d4c947d5a59a97fd996c42afc2b024b6aeaec050930eb2b339982600001518784604001518786602001518a604051610ceb96959493929190612d28565b600080516020612f5a833981519152611ace8133611f8f565b600f80549083905560408051828152602081018590527f1071422bad736c3651d3d3b7a4eda70e84e9c85a08f21c955d79ded03bbf06bb9101610d67565b600080516020612f5a833981519152611b258133611f8f565b600580546001600160a01b038481166001600160a01b0319831681179093556040519116917f15d80a013f22151bc7246e3bc132e12828cde19de98870475e3fa7084015272191610d67918491612d5e565b600080516020612f5a833981519152611b908133611f8f565b612710821115611bb357604051637e2df70960e11b815260040160405180910390fd5b600a80549083905560408051828152602081018590527f387269377ae17304805d5f88cea4252e5ca47346783c279aeb9e8627335a49ac9101610d67565b600260005403611c135760405162461bcd60e51b81526004016108dc90612c6d565b6002600055600e5460ff168015611c3d5760405163aadfaddd60e01b815260040160405180910390fd5b600954821015611c605760405163595bd39f60e11b815260040160405180910390fd5b600d805460009182611c7183612d0f565b909155506040805160608101825233808252602080830188815260008486018181528782526007909352859020935184546001600160a01b0319166001600160a01b03918216178555905160018501559051600290930192909255915163079cc67960e41b81529293507f000000000000000000000000000000000000000000000000000000000000000016916379cc679091611d12918790600401612d78565b600060405180830381600087803b158015611d2c57600080fd5b505af1158015611d40573d6000803e3d6000fd5b50506040518581528392503391507f80ebb30e7c30052bf403a20da869bdd033841684e93930d97c4af74238529b4f9060200160405180910390a35050600160005550565b600260005403611da75760405162461bcd60e51b81526004016108dc90612c6d565b6002600055600e5462010000900460ff168015611dd75760405163aadfaddd60e01b815260040160405180910390fd5b600f54831015611dfa5760405163595bd39f60e11b815260040160405180910390fd5b600d805460009182611e0b83612d0f565b9091555060405163079cc67960e41b81529091506001600160a01b037f000000000000000000000000000000000000000000000000000000000000000016906379cc679090611e609033908890600401612d78565b600060405180830381600087803b158015611e7a57600080fd5b505af1158015611e8e573d6000803e3d6000fd5b505060408051878152602081018790528493503392507fad2102c6abc98f954bd5d61e6c0d19764db331f63019296309309a34f70e66a6910160405180910390a3505060016000555050565b611ee48282611433565b610f1e5760008281526001602081815260408084206001600160a01b0386168086529252808420805460ff19169093179092559051339285917f2f8788117e7eff1d82e926ec794901d17c78024a50270940304540a733656f0d9190a45050565b600061142c836001600160a01b038416612185565b60006001600160e01b03198216637965db0b60e01b148061085157506301ffc9a760e01b6001600160e01b0319831614610851565b611f998282611433565b610f1e57611fb1816001600160a01b031660146121d4565b611fbc8360206121d4565b604051602001611fcd929190612db5565b60408051601f198184030181529082905262461bcd60e51b82526108dc91600401612e24565b6000806120008385612e57565b905061201c612017670de0b6b3a764000083612e76565b612370565b949350505050565b6000612710600b54836120379190612e57565b6108519190612e76565b604080516001600160a01b0385811660248301528416604482015260648082018490528251808303909101815260849091019091526020810180516001600160e01b03166323b872dd60e01b17905261209b90859061239c565b50505050565b6120ab8282611eda565b6000828152600260205260409020610e9f9082611f45565b6120cd828261246e565b6000828152600260205260409020610e9f90826124d5565b600081815260106020526040812054900361211357604051630ad2496160e31b815260040160405180910390fd5b6000818152601060205260409020544210156121425760405163309b0bcf60e21b815260040160405180910390fd5b61214b816124ea565b600090815260106020526040812055565b600061142c83836126de565b6000610851825490565b6000612710600a54836120379190612e57565b60008181526001830160205260408120546121cc57508154600181810184556000848152602080822090930184905584548482528286019093526040902091909155610851565b506000610851565b606060006121e3836002612e57565b6121ee906002612cfc565b67ffffffffffffffff81111561220657612206612e98565b6040519080825280601f01601f191660200182016040528015612230576020820181803683370190505b509050600360fc1b8160008151811061224b5761224b612ca4565b60200101906001600160f81b031916908160001a905350600f60fb1b8160018151811061227a5761227a612ca4565b60200101906001600160f81b031916908160001a905350600061229e846002612e57565b6122a9906001612cfc565b90505b6001811115612321576f181899199a1a9b1b9c1cb0b131b232b360811b85600f16601081106122dd576122dd612ca4565b1a60f81b8282815181106122f3576122f3612ca4565b60200101906001600160f81b031916908160001a90535060049490941c9361231a81612eae565b90506122ac565b50831561142c5760405162461bcd60e51b815260206004820181905260248201527f537472696e67733a20686578206c656e67746820696e73756666696369656e7460448201526064016108dc565b60006108517f000000000000000000000000000000000000000000000000000000000000000083612e76565b60006123f1826040518060400160405280602081526020017f5361666545524332303a206c6f772d6c6576656c2063616c6c206661696c6564815250856001600160a01b03166127089092919063ffffffff16565b805190915015610e9f578080602001905181019061240f9190612ec5565b610e9f5760405162461bcd60e51b815260206004820152602a60248201527f5361666545524332303a204552433230206f7065726174696f6e20646964206e6044820152691bdd081cdd58d8d9595960b21b60648201526084016108dc565b6124788282611433565b15610f1e5760008281526001602090815260408083206001600160a01b0385168085529252808320805460ff1916905551339285917ff6391f5c32d9c69d2a47ea670b442974b53935d1edc7fd64eb21e047a839171b9190a45050565b600061142c836001600160a01b038416612717565b6000818152600660209081526040808320815160608101835281546001600160a01b031681526001820154938101939093526002015490820181905290910361254657604051638718c77160e01b815260040160405180910390fd5b6003546040828101519051630e75722360e41b815260048101919091526000916001600160a01b03169063e757223090602401602060405180830381865afa158015612596573d6000803e3d6000fd5b505050506040513d601f19601f820116820180604052508101906125ba9190612cba565b905060006125cc83602001518361280a565b60008581526006602052604080822080546001600160a01b03191681556001810183905560020191909155845190516340c10f1960e01b81529192507f00000000000000000000000000000000000000000000000000000000000000006001600160a01b0316916340c10f1991612647918590600401612d78565b600060405180830381600087803b15801561266157600080fd5b505af1158015612675573d6000803e3d6000fd5b50508451602080870151604080890151815188815293840192909252820187905260608201528793506001600160a01b0390911691507fdd602cc9cb236502fb74f091872b4025184011dd96eee41099caa260842f20249060800160405180910390a350505050565b60008260000182815481106126f5576126f5612ca4565b9060005260206000200154905092915050565b606061201c8484600085612834565b6000818152600183016020526040812054801561280057600061273b600183612ce9565b855490915060009061274f90600190612ce9565b90508181146127b457600086600001828154811061276f5761276f612ca4565b906000526020600020015490508087600001848154811061279257612792612ca4565b6000918252602080832090910192909255918252600188019052604090208390555b85548690806127c5576127c5612ee7565b600190038181906000526020600020016000905590558560010160008681526020019081526020016000206000905560019350505050610851565b6000915050610851565b60008061281684612965565b61282890670de0b6b3a7640000612e57565b905061201c8382612e76565b6060824710156128955760405162461bcd60e51b815260206004820152602660248201527f416464726573733a20696e73756666696369656e742062616c616e636520666f6044820152651c8818d85b1b60d21b60648201526084016108dc565b6001600160a01b0385163b6128ec5760405162461bcd60e51b815260206004820152601d60248201527f416464726573733a2063616c6c20746f206e6f6e2d636f6e747261637400000060448201526064016108dc565b600080866001600160a01b031685876040516129089190612efd565b60006040518083038185875af1925050503d8060008114612945576040519150601f19603f3d011682016040523d82523d6000602084013e61294a565b606091505b509150915061295a828286612991565b979650505050505050565b60006108517f000000000000000000000000000000000000000000000000000000000000000083612e57565b606083156129a057508161142c565b8251156129b05782518084602001fd5b8160405162461bcd60e51b81526004016108dc9190612e24565b6000602082840312156129dc57600080fd5b81356001600160e01b03198116811461142c57600080fd5b60008083601f840112612a0657600080fd5b50813567ffffffffffffffff811115612a1e57600080fd5b6020830191508360208260051b8501011115612a3957600080fd5b9250929050565b60008060208385031215612a5357600080fd5b823567ffffffffffffffff811115612a6a57600080fd5b612a76858286016129f4565b90969095509350505050565b600060208284031215612a9457600080fd5b5035919050565b80356001600160a01b0381168114612ab257600080fd5b919050565b60008060008060808587031215612acd57600080fd5b84359350612add60208601612a9b565b93969395505050506040820135916060013590565b600060208284031215612b0457600080fd5b61142c82612a9b565b600080600080600060a08688031215612b2557600080fd5b85359450612b3560208701612a9b565b94979496505050506040830135926060810135926080909101359150565b60008060408385031215612b6657600080fd5b82359150612b7660208401612a9b565b90509250929050565b6001600160a01b0391909116815260200190565b60008060008060408587031215612ba957600080fd5b843567ffffffffffffffff80821115612bc157600080fd5b612bcd888389016129f4565b90965094506020870135915080821115612be657600080fd5b50612bf3878288016129f4565b95989497509550505050565b60008060408385031215612c1257600080fd5b50508035926020909101359150565b600080600060408486031215612c3657600080fd5b83359250602084013567ffffffffffffffff811115612c5457600080fd5b612c60868287016129f4565b9497909650939450505050565b6020808252601f908201527f5265656e7472616e637947756172643a207265656e7472616e742063616c6c00604082015260600190565b634e487b7160e01b600052603260045260246000fd5b600060208284031215612ccc57600080fd5b5051919050565b634e487b7160e01b600052601160045260246000fd5b8181038181111561085157610851612cd3565b8082018082111561085157610851612cd3565b600060018201612d2157612d21612cd3565b5060010190565b6001600160a01b03968716815294909516602085015260408401929092526060830152608082015260a081019190915260c00190565b6001600160a01b0392831681529116602082015260400190565b6001600160a01b03929092168252602082015260400190565b60005b83811015612dac578181015183820152602001612d94565b50506000910152565b76020b1b1b2b9b9a1b7b73a3937b61d1030b1b1b7bab73a1604d1b815260008351612de7816017850160208801612d91565b7001034b99036b4b9b9b4b733903937b6329607d1b6017918401918201528351612e18816028840160208801612d91565b01602801949350505050565b6020815260008251806020840152612e43816040850160208701612d91565b601f01601f19169190910160400192915050565b6000816000190483118215151615612e7157612e71612cd3565b500290565b600082612e9357634e487b7160e01b600052601260045260246000fd5b500490565b634e487b7160e01b600052604160045260246000fd5b600081612ebd57612ebd612cd3565b506000190190565b600060208284031215612ed757600080fd5b8151801515811461142c57600080fd5b634e487b7160e01b600052603160045260246000fd5b60008251612f0f818460208701612d91565b919091019291505056fe9ac2c43e905fe4f0c030a0b0e4b805a284e79da32a5c9c71be1c68dd79bbb89d830a9081649e91840eb0274e99b47626a896cfa0f4dd591cb31cd5060e566c0d8c6dd8af24db306eb580672d47cf7dd23b8394bf74074f8ac14b948512ecdb03a2646970667358221220c52d4d56e4f3a236209ce888f79ccb7142fa27043ae2d114a01f024aed288a9e64736f6c634300081000339ac2c43e905fe4f0c030a0b0e4b805a284e79da32a5c9c71be1c68dd79bbb89d8c6dd8af24db306eb580672d47cf7dd23b8394bf74074f8ac14b948512ecdb03",
  "devdoc": {
    "kind": "dev",
    "methods": {
      "addProof(bytes32,address,uint256,uint256,uint256)": {
        "details": "txHash is used as the depositId in storageAll amounts are in decimals of `collateral`",
        "params": {
          "depositAmountAfterFee": "The amount of the deposit after fees",
          "feeAmount": "The amount of the fees taken",
          "timestamp": "The timestamp of the deposit",
          "txHash": "The transaction hash of the deposit",
          "user": "The address of the user who made the deposit"
        }
      },
      "claimMint(bytes32[])": {
        "details": "Implicitly does all transfer checks present in underlying `rwa`The priceId corresponding to a given depositId must be set prior to      claiming a mint",
        "params": {
          "depositIds": "An array containing the deposit Ids one wishes to claim"
        }
      },
      "claimRedemption(bytes32[])": {
        "details": "Implicitly does all checks present in underlying `rwa`The price Id corresponding to a redemptionId must be set prior to      claiming a redemption",
        "params": {
          "redemptionIds": "an Array of redemption Id's which ought to fulfilled"
        }
      },
      "getRoleAdmin(bytes32)": {
        "details": "Returns the admin role that controls `role`. See {grantRole} and {revokeRole}. To change a role's admin, use {_setRoleAdmin}."
      },
      "getRoleMember(bytes32,uint256)": {
        "details": "Returns one of the accounts that have `role`. `index` must be a value between 0 and {getRoleMemberCount}, non-inclusive. Role bearers are not sorted in any particular way, and their ordering may change at any point. WARNING: When using {getRoleMember} and {getRoleMemberCount}, make sure you perform all queries on the same block. See the following https://forum.openzeppelin.com/t/iterating-over-elements-on-enumerableset-in-openzeppelin-contracts/2296[forum post] for more information."
      },
      "getRoleMemberCount(bytes32)": {
        "details": "Returns the number of accounts that have `role`. Can be used together with {getRoleMember} to enumerate all bearers of a role."
      },
      "grantRole(bytes32,address)": {
        "details": "Grants `role` to `account`. If `account` had not been already granted `role`, emits a {RoleGranted} event. Requirements: - the caller must have ``role``'s admin role."
      },
      "hasRole(bytes32,address)": {
        "details": "Returns `true` if `account` has been granted `role`."
      },
      "overwriteDepositor(bytes32,address,uint256,uint256)": {
        "params": {
          "depositAmountAfterFee": "The deposit value for the new entry",
          "depositIdToOverwrite": "The depositId of the entry we wish to                              overwrite",
          "priceId": "The priceId to be associated with the new                              entry",
          "user": "The user for the new entry"
        }
      },
      "overwriteRedeemer(bytes32,address,uint256,uint256)": {
        "params": {
          "priceId": "The priceID to be associated with the new                                entry",
          "redemptionIdToOverwrite": "The redemptionId of the entry we wish to                                overwrite",
          "rwaTokenAmountBurned": "The burn amount for the new entry",
          "user": "The user for the new entry"
        }
      },
      "renounceRole(bytes32,address)": {
        "details": "Revokes `role` from the calling account. Roles are often managed via {grantRole} and {revokeRole}: this function's purpose is to provide a mechanism for accounts to lose their privileges if they are compromised (such as when a trusted device is misplaced). If the calling account had been revoked `role`, emits a {RoleRevoked} event. Requirements: - the caller must be `account`."
      },
      "requestRedemption(uint256)": {
        "params": {
          "amount": "The amount (in units of `rwa`) that a user wishes to redeem               from the fund"
        }
      },
      "requestRedemptionServicedOffchain(uint256,bytes32)": {
        "params": {
          "amountRWATokenToRedeem": "The requested redemption amount",
          "offChainDestination": "A hash of the destination to which                               the request should be serviced to."
        }
      },
      "requestSubscription(uint256)": {
        "params": {
          "amount": "The amount of collateral one wished to deposit"
        }
      },
      "revokeRole(bytes32,address)": {
        "details": "Revokes `role` from `account`. If `account` had been granted `role`, emits a {RoleRevoked} event. Requirements: - the caller must have ``role``'s admin role."
      },
      "setAssetSender(address)": {
        "params": {
          "newAssetSender": "The address of the new `assetSender`"
        }
      },
      "setClaimableTimestamp(uint256,bytes32[])": {
        "params": {
          "claimTimestamp": "The timestamp at which the deposit can be claimed",
          "depositIds": "The depositIds to set the claimable timestamp for"
        }
      },
      "setFeeRecipient(address)": {
        "params": {
          "newFeeRecipient": "The address of the new `feeRecipient`"
        }
      },
      "setMinimumDepositAmount(uint256)": {
        "params": {
          "minDepositAmount": "The minimum amount required to submit a deposit                         request"
        }
      },
      "setMinimumRedemptionAmount(uint256)": {
        "params": {
          "_minimumRedemptionAmount": "The minimum amount required to submit a                                 redemption request"
        }
      },
      "setMintFee(uint256)": {
        "details": "The maximum fee that can be set is 10_000 bps, or 100%",
        "params": {
          "_mintFee": "The new mint fee specified in basis points"
        }
      },
      "setOffChainRedemptionMinimum(uint256)": {
        "params": {
          "_minimumOffChainRedemptionAmount": "The new minimum off chain                                         redemption amount"
        }
      },
      "setPriceIdForDeposits(bytes32[],uint256[])": {
        "details": "Array size must match",
        "params": {
          "depositIds": "an Array of deposit Ids to be associated",
          "priceIds": "an Array of price Ids to be associated"
        }
      },
      "setPriceIdForRedemptions(bytes32[],uint256[])": {
        "params": {
          "priceIds": "an Array of priceIds to associate",
          "redemptionIds": "an Array of redemptionIds to associate"
        }
      },
      "setPricer(address)": {
        "params": {
          "newPricer": "The address of the new pricer contract"
        }
      },
      "setRedemptionFee(uint256)": {
        "details": "The maximum fee that can be set is 10_000 bps, or 100%",
        "params": {
          "_redemptionFee": "The new redeem fee specified in basis points"
        }
      },
      "supportsInterface(bytes4)": {
        "details": "See {IERC165-supportsInterface}."
      }
    },
    "version": 1
  },
  "userdoc": {
    "errors": {
      "MintNotYetClaimable()": [
        {
          "notice": "ERRORS ///"
        }
      ],
      "PriceIdNotSet()": [
        {
          "notice": "ERRORS ///"
        }
      ]
    },
    "events": {
      "AssetSenderSet(address,address)": {
        "notice": "Event emitted when the assetSender is changed"
      },
      "ClaimableTimestampSet(uint256,bytes32)": {
        "notice": "Event emitted when claimable timestamp is set"
      },
      "DepositProofAdded(bytes32,address,uint256,uint256,uint256)": {
        "notice": "Event emitted when deposit proof has been added"
      },
      "FeeRecipientSet(address,address)": {
        "notice": "Event emitted when fee recipient is set"
      },
      "MinimumDepositAmountSet(uint256,uint256)": {
        "notice": "Event emitted when minimum deposit amount is set"
      },
      "MinimumRedemptionAmountSet(uint256,uint256)": {
        "notice": "Event emitted when a new redeem minimum is set.         All units are in 1e18"
      },
      "MintCompleted(address,bytes32,uint256,uint256,uint256,uint256)": {
        "notice": "Event emitted when a Mint request is completed"
      },
      "MintFeeSet(uint256,uint256)": {
        "notice": "Event emitted when mint fee is set"
      },
      "MintRequested(address,bytes32,uint256,uint256,uint256)": {
        "notice": "Event emitted when a mint request is submitted"
      },
      "NewPricerSet(address,address)": {
        "notice": "Event emitted when a new Pricer contract is set"
      },
      "OffChainRedemptionMinimumSet(uint256,uint256)": {
        "notice": "Event emitted when the off chain redemption minimum is         updated"
      },
      "OffChainRedemptionPaused(address)": {
        "notice": "Event emitted when the off chain redemption feature is         paused"
      },
      "OffChainRedemptionUnpaused(address)": {
        "notice": "Event emitted when the off chain redemption feature is         unpaused"
      },
      "PriceIdSetForDeposit(bytes32,uint256)": {
        "notice": "Event emitted when a deposit has its corresponding priceId set"
      },
      "PriceIdSetForRedemption(bytes32,uint256)": {
        "notice": "Event Emitted when a redemption has its corresponding priceId set"
      },
      "RedemptionCompleted(address,bytes32,uint256,uint256,uint256)": {
        "notice": "Event emitted when a redemption request is completed"
      },
      "RedemptionFeeSet(uint256,uint256)": {
        "notice": "Event emitted when redeem fee is set"
      },
      "RedemptionPaused(address)": {
        "notice": "Event emitted when redemptions are paused"
      },
      "RedemptionRequested(address,bytes32,uint256)": {
        "notice": "Event emitted when redemption request is submitted"
      },
      "RedemptionRequestedServicedOffChain(address,bytes32,uint256,bytes32)": {
        "notice": "Event emitted when redemption request is submitted"
      },
      "RedemptionUnpaused(address)": {
        "notice": "Event emitted when redemptions are unpaused"
      },
      "SubscriptionPaused(address)": {
        "notice": "Event emitted when subscriptions are paused"
      },
      "SubscriptionUnpaused(address)": {
        "notice": "Event emitted when subscriptions are unpaused"
      }
    },
    "kind": "user",
    "methods": {
      "addProof(bytes32,address,uint256,uint256,uint256)": {
        "notice": "Adds a deposit proof to the contract"
      },
      "claimMint(bytes32[])": {
        "notice": "Function used to claim tokens corresponding to a deposit request"
      },
      "claimRedemption(bytes32[])": {
        "notice": "Function to claim collateral corresponding to a redemption request"
      },
      "overwriteDepositor(bytes32,address,uint256,uint256)": {
        "notice": "Admin function to overwrite entries in the depoitIdToDepositor         mapping"
      },
      "overwriteRedeemer(bytes32,address,uint256,uint256)": {
        "notice": "Admin function to overwrite entries in the redemptionIdToRedeemer         mapping"
      },
      "pauseOffChainRedemption()": {
        "notice": "Function to pause off chain redemptoins"
      },
      "pauseRedemption()": {
        "notice": "Function to pause redemptions to RWAHub"
      },
      "pauseSubscription()": {
        "notice": "Function to pause subscription to RWAHub"
      },
      "requestRedemption(uint256)": {
        "notice": "Function used by users to request a redemption from the fund"
      },
      "requestRedemptionServicedOffchain(uint256,bytes32)": {
        "notice": "Request a redemption to be serviced off chain."
      },
      "requestSubscription(uint256)": {
        "notice": "Function used by users to request subscription to the fund"
      },
      "setAssetSender(address)": {
        "notice": "Admin function to set the address of `assetSender`"
      },
      "setClaimableTimestamp(uint256,bytes32[])": {
        "notice": "Set the claimable timestamp for a list of depositIds"
      },
      "setFeeRecipient(address)": {
        "notice": "Admin function to set the address of `feeRecipient`"
      },
      "setMinimumDepositAmount(uint256)": {
        "notice": "Admin function to set the minimum amount required for a deposit"
      },
      "setMinimumRedemptionAmount(uint256)": {
        "notice": "Admin function to set the minimum amount to redeem"
      },
      "setMintFee(uint256)": {
        "notice": "Admin function to set the mint fee"
      },
      "setOffChainRedemptionMinimum(uint256)": {
        "notice": "Admin Function to set the minimum off chain redemption amount"
      },
      "setPriceIdForDeposits(bytes32[],uint256[])": {
        "notice": "Admin function to associate a depositId with a given Price Id"
      },
      "setPriceIdForRedemptions(bytes32[],uint256[])": {
        "notice": "Admin function to associate redemptionId with a given priceId"
      },
      "setPricer(address)": {
        "notice": "Admin function to set the address of the Pricer contract"
      },
      "setRedemptionFee(uint256)": {
        "notice": "Admin function to set the redeem fee"
      },
      "unpauseOffChainRedemption()": {
        "notice": "Function to unpause off chain redemptoins"
      },
      "unpauseRedemption()": {
        "notice": "Function to unpause redemptions to RWAHub"
      },
      "unpauseSubscription()": {
        "notice": "Function to unpause subscriptions to RWAHub"
      }
    },
    "version": 1
  },
  "storageLayout": {
    "storage": [
      {
        "astId": 9217,
        "contract": "contracts/usdy/USDYManager.sol:USDYManager",
        "label": "_status",
        "offset": 0,
        "slot": "0",
        "type": "t_uint256"
      },
      {
        "astId": 7676,
        "contract": "contracts/usdy/USDYManager.sol:USDYManager",
        "label": "_roles",
        "offset": 0,
        "slot": "1",
        "type": "t_mapping(t_bytes32,t_struct(RoleData)7671_storage)"
      },
      {
        "astId": 7979,
        "contract": "contracts/usdy/USDYManager.sol:USDYManager",
        "label": "_roleMembers",
        "offset": 0,
        "slot": "2",
        "type": "t_mapping(t_bytes32,t_struct(AddressSet)10888_storage)"
      },
      {
        "astId": 1228,
        "contract": "contracts/usdy/USDYManager.sol:USDYManager",
        "label": "pricer",
        "offset": 0,
        "slot": "3",
        "type": "t_contract(IPricerReader)12291"
      },
      {
        "astId": 1233,
        "contract": "contracts/usdy/USDYManager.sol:USDYManager",
        "label": "assetSender",
        "offset": 0,
        "slot": "4",
        "type": "t_address"
      },
      {
        "astId": 1235,
        "contract": "contracts/usdy/USDYManager.sol:USDYManager",
        "label": "feeRecipient",
        "offset": 0,
        "slot": "5",
        "type": "t_address"
      },
      {
        "astId": 1240,
        "contract": "contracts/usdy/USDYManager.sol:USDYManager",
        "label": "depositIdToDepositor",
        "offset": 0,
        "slot": "6",
        "type": "t_mapping(t_bytes32,t_struct(Depositor)12310_storage)"
      },
      {
        "astId": 1245,
        "contract": "contracts/usdy/USDYManager.sol:USDYManager",
        "label": "redemptionIdToRedeemer",
        "offset": 0,
        "slot": "7",
        "type": "t_mapping(t_bytes32,t_struct(Redeemer)12317_storage)"
      },
      {
        "astId": 1248,
        "contract": "contracts/usdy/USDYManager.sol:USDYManager",
        "label": "minimumDepositAmount",
        "offset": 0,
        "slot": "8",
        "type": "t_uint256"
      },
      {
        "astId": 1250,
        "contract": "contracts/usdy/USDYManager.sol:USDYManager",
        "label": "minimumRedemptionAmount",
        "offset": 0,
        "slot": "9",
        "type": "t_uint256"
      },
      {
        "astId": 1253,
        "contract": "contracts/usdy/USDYManager.sol:USDYManager",
        "label": "mintFee",
        "offset": 0,
        "slot": "10",
        "type": "t_uint256"
      },
      {
        "astId": 1256,
        "contract": "contracts/usdy/USDYManager.sol:USDYManager",
        "label": "redemptionFee",
        "offset": 0,
        "slot": "11",
        "type": "t_uint256"
      },
      {
        "astId": 1264,
        "contract": "contracts/usdy/USDYManager.sol:USDYManager",
        "label": "subscriptionRequestCounter",
        "offset": 0,
        "slot": "12",
        "type": "t_uint256"
      },
      {
        "astId": 1267,
        "contract": "contracts/usdy/USDYManager.sol:USDYManager",
        "label": "redemptionRequestCounter",
        "offset": 0,
        "slot": "13",
        "type": "t_uint256"
      },
      {
        "astId": 1272,
        "contract": "contracts/usdy/USDYManager.sol:USDYManager",
        "label": "redemptionPaused",
        "offset": 0,
        "slot": "14",
        "type": "t_bool"
      },
      {
        "astId": 1274,
        "contract": "contracts/usdy/USDYManager.sol:USDYManager",
        "label": "subscriptionPaused",
        "offset": 1,
        "slot": "14",
        "type": "t_bool"
      },
      {
        "astId": 2499,
        "contract": "contracts/usdy/USDYManager.sol:USDYManager",
        "label": "offChainRedemptionPaused",
        "offset": 2,
        "slot": "14",
        "type": "t_bool"
      },
      {
        "astId": 2501,
        "contract": "contracts/usdy/USDYManager.sol:USDYManager",
        "label": "minimumOffChainRedemptionAmount",
        "offset": 0,
        "slot": "15",
        "type": "t_uint256"
      },
      {
        "astId": 14442,
        "contract": "contracts/usdy/USDYManager.sol:USDYManager",
        "label": "depositIdToClaimableTimestamp",
        "offset": 0,
        "slot": "16",
        "type": "t_mapping(t_bytes32,t_uint256)"
      }
    ],
    "types": {
      "t_address": {
        "encoding": "inplace",
        "label": "address",
        "numberOfBytes": "20"
      },
      "t_array(t_bytes32)dyn_storage": {
        "base": "t_bytes32",
        "encoding": "dynamic_array",
        "label": "bytes32[]",
        "numberOfBytes": "32"
      },
      "t_bool": {
        "encoding": "inplace",
        "label": "bool",
        "numberOfBytes": "1"
      },
      "t_bytes32": {
        "encoding": "inplace",
        "label": "bytes32",
        "numberOfBytes": "32"
      },
      "t_contract(IPricerReader)12291": {
        "encoding": "inplace",
        "label": "contract IPricerReader",
        "numberOfBytes": "20"
      },
      "t_mapping(t_address,t_bool)": {
        "encoding": "mapping",
        "key": "t_address",
        "label": "mapping(address => bool)",
        "numberOfBytes": "32",
        "value": "t_bool"
      },
      "t_mapping(t_bytes32,t_struct(AddressSet)10888_storage)": {
        "encoding": "mapping",
        "key": "t_bytes32",
        "label": "mapping(bytes32 => struct EnumerableSet.AddressSet)",
        "numberOfBytes": "32",
        "value": "t_struct(AddressSet)10888_storage"
      },
      "t_mapping(t_bytes32,t_struct(Depositor)12310_storage)": {
        "encoding": "mapping",
        "key": "t_bytes32",
        "label": "mapping(bytes32 => struct IRWAHub.Depositor)",
        "numberOfBytes": "32",
        "value": "t_struct(Depositor)12310_storage"
      },
      "t_mapping(t_bytes32,t_struct(Redeemer)12317_storage)": {
        "encoding": "mapping",
        "key": "t_bytes32",
        "label": "mapping(bytes32 => struct IRWAHub.Redeemer)",
        "numberOfBytes": "32",
        "value": "t_struct(Redeemer)12317_storage"
      },
      "t_mapping(t_bytes32,t_struct(RoleData)7671_storage)": {
        "encoding": "mapping",
        "key": "t_bytes32",
        "label": "mapping(bytes32 => struct AccessControl.RoleData)",
        "numberOfBytes": "32",
        "value": "t_struct(RoleData)7671_storage"
      },
      "t_mapping(t_bytes32,t_uint256)": {
        "encoding": "mapping",
        "key": "t_bytes32",
        "label": "mapping(bytes32 => uint256)",
        "numberOfBytes": "32",
        "value": "t_uint256"
      },
      "t_struct(AddressSet)10888_storage": {
        "encoding": "inplace",
        "label": "struct EnumerableSet.AddressSet",
        "members": [
          {
            "astId": 10887,
            "contract": "contracts/usdy/USDYManager.sol:USDYManager",
            "label": "_inner",
            "offset": 0,
            "slot": "0",
            "type": "t_struct(Set)10587_storage"
          }
        ],
        "numberOfBytes": "64"
      },
      "t_struct(Depositor)12310_storage": {
        "encoding": "inplace",
        "label": "struct IRWAHub.Depositor",
        "members": [
          {
            "astId": 12305,
            "contract": "contracts/usdy/USDYManager.sol:USDYManager",
            "label": "user",
            "offset": 0,
            "slot": "0",
            "type": "t_address"
          },
          {
            "astId": 12307,
            "contract": "contracts/usdy/USDYManager.sol:USDYManager",
            "label": "amountDepositedMinusFees",
            "offset": 0,
            "slot": "1",
            "type": "t_uint256"
          },
          {
            "astId": 12309,
            "contract": "contracts/usdy/USDYManager.sol:USDYManager",
            "label": "priceId",
            "offset": 0,
            "slot": "2",
            "type": "t_uint256"
          }
        ],
        "numberOfBytes": "96"
      },
      "t_struct(Redeemer)12317_storage": {
        "encoding": "inplace",
        "label": "struct IRWAHub.Redeemer",
        "members": [
          {
            "astId": 12312,
            "contract": "contracts/usdy/USDYManager.sol:USDYManager",
            "label": "user",
            "offset": 0,
            "slot": "0",
            "type": "t_address"
          },
          {
            "astId": 12314,
            "contract": "contracts/usdy/USDYManager.sol:USDYManager",
            "label": "amountRwaTokenBurned",
            "offset": 0,
            "slot": "1",
            "type": "t_uint256"
          },
          {
            "astId": 12316,
            "contract": "contracts/usdy/USDYManager.sol:USDYManager",
            "label": "priceId",
            "offset": 0,
            "slot": "2",
            "type": "t_uint256"
          }
        ],
        "numberOfBytes": "96"
      },
      "t_struct(RoleData)7671_storage": {
        "encoding": "inplace",
        "label": "struct AccessControl.RoleData",
        "members": [
          {
            "astId": 7668,
            "contract": "contracts/usdy/USDYManager.sol:USDYManager",
            "label": "members",
            "offset": 0,
            "slot": "0",
            "type": "t_mapping(t_address,t_bool)"
          },
          {
            "astId": 7670,
            "contract": "contracts/usdy/USDYManager.sol:USDYManager",
            "label": "adminRole",
            "offset": 0,
            "slot": "1",
            "type": "t_bytes32"
          }
        ],
        "numberOfBytes": "64"
      },
      "t_struct(Set)10587_storage": {
        "encoding": "inplace",
        "label": "struct EnumerableSet.Set",
        "members": [
          {
            "astId": 10582,
            "contract": "contracts/usdy/USDYManager.sol:USDYManager",
            "label": "_values",
            "offset": 0,
            "slot": "0",
            "type": "t_array(t_bytes32)dyn_storage"
          },
          {
            "astId": 10586,
            "contract": "contracts/usdy/USDYManager.sol:USDYManager",
            "label": "_indexes",
            "offset": 0,
            "slot": "1",
            "type": "t_mapping(t_bytes32,t_uint256)"
          }
        ],
        "numberOfBytes": "64"
      },
      "t_uint256": {
        "encoding": "inplace",
        "label": "uint256",
        "numberOfBytes": "32"
      }
    }
  }
}