{
  "_format": "hh-sol-artifact-1",
  "contractName": "ERC20PresetMinterPauserUpgradeable",
  "sourceName": "contracts/external/openzeppelin/contracts-upgradeable/token/ERC20/ERC20PresetMinterPauserUpgradeable.sol",
  "abi": [
    {
      "anonymous": false,
      "inputs": [
        {
          "indexed": true,
          "internalType": "address",
          "name": "owner",
          "type": "address"
        },
        {
          "indexed": true,
          "internalType": "address",
          "name": "spender",
          "type": "address"
        },
        {
          "indexed": false,
          "internalType": "uint256",
          "name": "value",
          "type": "uint256"
        }
      ],
      "name": "Approval",
      "type": "event"
    },
    {
      "anonymous": false,
      "inputs": [
        {
          "indexed": false,
          "internalType": "uint8",
          "name": "version",
          "type": "uint8"
        }
      ],
      "name": "Initialized",
      "type": "event"
    },
    {
      "anonymous": false,
      "inputs": [
        {
          "indexed": false,
          "internalType": "address",
          "name": "account",
          "type": "address"
        }
      ],
      "name": "Paused",
      "type": "event"
    },
    {
      "anonymous": false,
      "inputs": [
        {
          "indexed": true,
          "internalType": "bytes32",
          "name": "role",
          "type": "bytes32"
        },
        {
          "indexed": true,
          "internalType": "bytes32",
          "name": "previousAdminRole",
          "type": "bytes32"
        },
        {
          "indexed": true,
          "internalType": "bytes32",
          "name": "newAdminRole",
          "type": "bytes32"
        }
      ],
      "name": "RoleAdminChanged",
      "type": "event"
    },
    {
      "anonymous": false,
      "inputs": [
        {
          "indexed": true,
          "internalType": "bytes32",
          "name": "role",
          "type": "bytes32"
        },
        {
          "indexed": true,
          "internalType": "address",
          "name": "account",
          "type": "address"
        },
        {
          "indexed": true,
          "internalType": "address",
          "name": "sender",
          "type": "address"
        }
      ],
      "name": "RoleGranted",
      "type": "event"
    },
    {
      "anonymous": false,
      "inputs": [
        {
          "indexed": true,
          "internalType": "bytes32",
          "name": "role",
          "type": "bytes32"
        },
        {
          "indexed": true,
          "internalType": "address",
          "name": "account",
          "type": "address"
        },
        {
          "indexed": true,
          "internalType": "address",
          "name": "sender",
          "type": "address"
        }
      ],
      "name": "RoleRevoked",
      "type": "event"
    },
    {
      "anonymous": false,
      "inputs": [
        {
          "indexed": true,
          "internalType": "address",
          "name": "from",
          "type": "address"
        },
        {
          "indexed": true,
          "internalType": "address",
          "name": "to",
          "type": "address"
        },
        {
          "indexed": false,
          "internalType": "uint256",
          "name": "value",
          "type": "uint256"
        }
      ],
      "name": "Transfer",
      "type": "event"
    },
    {
      "anonymous": false,
      "inputs": [
        {
          "indexed": false,
          "internalType": "address",
          "name": "account",
          "type": "address"
        }
      ],
      "name": "Unpaused",
      "type": "event"
    },
    {
      "inputs": [],
      "name": "DEFAULT_ADMIN_ROLE",
      "outputs": [
        {
          "internalType": "bytes32",
          "name": "",
          "type": "bytes32"
        }
      ],
      "stateMutability": "view",
      "type": "function"
    },
    {
      "inputs": [],
      "name": "MINTER_ROLE",
      "outputs": [
        {
          "internalType": "bytes32",
          "name": "",
          "type": "bytes32"
        }
      ],
      "stateMutability": "view",
      "type": "function"
    },
    {
      "inputs": [],
      "name": "PAUSER_ROLE",
      "outputs": [
        {
          "internalType": "bytes32",
          "name": "",
          "type": "bytes32"
        }
      ],
      "stateMutability": "view",
      "type": "function"
    },
    {
      "inputs": [
        {
          "internalType": "address",
          "name": "owner",
          "type": "address"
        },
        {
          "internalType": "address",
          "name": "spender",
          "type": "address"
        }
      ],
      "name": "allowance",
      "outputs": [
        {
          "internalType": "uint256",
          "name": "",
          "type": "uint256"
        }
      ],
      "stateMutability": "view",
      "type": "function"
    },
    {
      "inputs": [
        {
          "internalType": "address",
          "name": "spender",
          "type": "address"
        },
        {
          "internalType": "uint256",
          "name": "amount",
          "type": "uint256"
        }
      ],
      "name": "approve",
      "outputs": [
        {
          "internalType": "bool",
          "name": "",
          "type": "bool"
        }
      ],
      "stateMutability": "nonpayable",
      "type": "function"
    },
    {
      "inputs": [
        {
          "internalType": "address",
          "name": "account",
          "type": "address"
        }
      ],
      "name": "balanceOf",
      "outputs": [
        {
          "internalType": "uint256",
          "name": "",
          "type": "uint256"
        }
      ],
      "stateMutability": "view",
      "type": "function"
    },
    {
      "inputs": [
        {
          "internalType": "uint256",
          "name": "amount",
          "type": "uint256"
        }
      ],
      "name": "burn",
      "outputs": [],
      "stateMutability": "nonpayable",
      "type": "function"
    },
    {
      "inputs": [
        {
          "internalType": "address",
          "name": "account",
          "type": "address"
        },
        {
          "internalType": "uint256",
          "name": "amount",
          "type": "uint256"
        }
      ],
      "name": "burnFrom",
      "outputs": [],
      "stateMutability": "nonpayable",
      "type": "function"
    },
    {
      "inputs": [],
      "name": "decimals",
      "outputs": [
        {
          "internalType": "uint8",
          "name": "",
          "type": "uint8"
        }
      ],
      "stateMutability": "view",
      "type": "function"
    },
    {
      "inputs": [
        {
          "internalType": "address",
          "name": "spender",
          "type": "address"
        },
        {
          "internalType": "uint256",
          "name": "subtractedValue",
          "type": "uint256"
        }
      ],
      "name": "decreaseAllowance",
      "outputs": [
        {
          "internalType": "bool",
          "name": "",
          "type": "bool"
        }
      ],
      "stateMutability": "nonpayable",
      "type": "function"
    },
    {
      "inputs": [
        {
          "internalType": "bytes32",
          "name": "role",
          "type": "bytes32"
        }
      ],
      "name": "getRoleAdmin",
      "outputs": [
        {
          "internalType": "bytes32",
          "name": "",
          "type": "bytes32"
        }
      ],
      "stateMutability": "view",
      "type": "function"
    },
    {
      "inputs": [
        {
          "internalType": "bytes32",
          "name": "role",
          "type": "bytes32"
        },
        {
          "internalType": "uint256",
          "name": "index",
          "type": "uint256"
        }
      ],
      "name": "getRoleMember",
      "outputs": [
        {
          "internalType": "address",
          "name": "",
          "type": "address"
        }
      ],
      "stateMutability": "view",
      "type": "function"
    },
    {
      "inputs": [
        {
          "internalType": "bytes32",
          "name": "role",
          "type": "bytes32"
        }
      ],
      "name": "getRoleMemberCount",
      "outputs": [
        {
          "internalType": "uint256",
          "name": "",
          "type": "uint256"
        }
      ],
      "stateMutability": "view",
      "type": "function"
    },
    {
      "inputs": [
        {
          "internalType": "bytes32",
          "name": "role",
          "type": "bytes32"
        },
        {
          "internalType": "address",
          "name": "account",
          "type": "address"
        }
      ],
      "name": "grantRole",
      "outputs": [],
      "stateMutability": "nonpayable",
      "type": "function"
    },
    {
      "inputs": [
        {
          "internalType": "bytes32",
          "name": "role",
          "type": "bytes32"
        },
        {
          "internalType": "address",
          "name": "account",
          "type": "address"
        }
      ],
      "name": "hasRole",
      "outputs": [
        {
          "internalType": "bool",
          "name": "",
          "type": "bool"
        }
      ],
      "stateMutability": "view",
      "type": "function"
    },
    {
      "inputs": [
        {
          "internalType": "address",
          "name": "spender",
          "type": "address"
        },
        {
          "internalType": "uint256",
          "name": "addedValue",
          "type": "uint256"
        }
      ],
      "name": "increaseAllowance",
      "outputs": [
        {
          "internalType": "bool",
          "name": "",
          "type": "bool"
        }
      ],
      "stateMutability": "nonpayable",
      "type": "function"
    },
    {
      "inputs": [
        {
          "internalType": "string",
          "name": "name",
          "type": "string"
        },
        {
          "internalType": "string",
          "name": "symbol",
          "type": "string"
        }
      ],
      "name": "initialize",
      "outputs": [],
      "stateMutability": "nonpayable",
      "type": "function"
    },
    {
      "inputs": [
        {
          "internalType": "address",
          "name": "to",
          "type": "address"
        },
        {
          "internalType": "uint256",
          "name": "amount",
          "type": "uint256"
        }
      ],
      "name": "mint",
      "outputs": [],
      "stateMutability": "nonpayable",
      "type": "function"
    },
    {
      "inputs": [],
      "name": "name",
      "outputs": [
        {
          "internalType": "string",
          "name": "",
          "type": "string"
        }
      ],
      "stateMutability": "view",
      "type": "function"
    },
    {
      "inputs": [],
      "name": "pause",
      "outputs": [],
      "stateMutability": "nonpayable",
      "type": "function"
    },
    {
      "inputs": [],
      "name": "paused",
      "outputs": [
        {
          "internalType": "bool",
          "name": "",
          "type": "bool"
        }
      ],
      "stateMutability": "view",
      "type": "function"
    },
    {
      "inputs": [
        {
          "internalType": "bytes32",
          "name": "role",
          "type": "bytes32"
        },
        {
          "internalType": "address",
          "name": "account",
          "type": "address"
        }
      ],
      "name": "renounceRole",
      "outputs": [],
      "stateMutability": "nonpayable",
      "type": "function"
    },
    {
      "inputs": [
        {
          "internalType": "bytes32",
          "name": "role",
          "type": "bytes32"
        },
        {
          "internalType": "address",
          "name": "account",
          "type": "address"
        }
      ],
      "name": "revokeRole",
      "outputs": [],
      "stateMutability": "nonpayable",
      "type": "function"
    },
    {
      "inputs": [
        {
          "internalType": "bytes4",
          "name": "interfaceId",
          "type": "bytes4"
        }
      ],
      "name": "supportsInterface",
      "outputs": [
        {
          "internalType": "bool",
          "name": "",
          "type": "bool"
        }
      ],
      "stateMutability": "view",
      "type": "function"
    },
    {
      "inputs": [],
      "name": "symbol",
      "outputs": [
        {
          "internalType": "string",
          "name": "",
          "type": "string"
        }
      ],
      "stateMutability": "view",
      "type": "function"
    },
    {
      "inputs": [],
      "name": "totalSupply",
      "outputs": [
        {
          "internalType": "uint256",
          "name": "",
          "type": "uint256"
        }
      ],
      "stateMutability": "view",
      "type": "function"
    },
    {
      "inputs": [
        {
          "internalType": "address",
          "name": "to",
          "type": "address"
        },
        {
          "internalType": "uint256",
          "name": "amount",
          "type": "uint256"
        }
      ],
      "name": "transfer",
      "outputs": [
        {
          "internalType": "bool",
          "name": "",
          "type": "bool"
        }
      ],
      "stateMutability": "nonpayable",
      "type": "function"
    },
    {
      "inputs": [
        {
          "internalType": "address",
          "name": "from",
          "type": "address"
        },
        {
          "internalType": "address",
          "name": "to",
          "type": "address"
        },
        {
          "internalType": "uint256",
          "name": "amount",
          "type": "uint256"
        }
      ],
      "name": "transferFrom",
      "outputs": [
        {
          "internalType": "bool",
          "name": "",
          "type": "bool"
        }
      ],
      "stateMutability": "nonpayable",
      "type": "function"
    },
    {
      "inputs": [],
      "name": "unpause",
      "outputs": [],
      "stateMutability": "nonpayable",
      "type": "function"
    }
  ],
  "bytecode": "0x608060405234801561001057600080fd5b50611cfd806100206000396000f3fe608060405234801561001057600080fd5b506004361061018f5760003560e01c80635c975abb116100e4578063a217fddf11610092578063a217fddf1461034d578063a457c2d714610355578063a9059cbb14610368578063ca15c8731461037b578063d53913931461038e578063d547741f146103a3578063dd62ed3e146103b6578063e63ab1e9146103c957600080fd5b80635c975abb146102b757806370a08231146102c357806379cc6790146102ec5780638456cb59146102ff5780639010d07c1461030757806391d148541461033257806395d89b411461034557600080fd5b8063313ce56711610141578063313ce5671461024157806336568abe1461025057806339509351146102635780633f4ba83a1461027657806340c10f191461027e57806342966c68146102915780634cd88b76146102a457600080fd5b806301ffc9a71461019457806306fdde03146101bc578063095ea7b3146101d157806318160ddd146101e457806323b872dd146101f6578063248a9ca3146102095780632f2ff15d1461022c575b600080fd5b6101a76101a23660046116f1565b6103de565b60405190151581526020015b60405180910390f35b6101c4610409565b6040516101b3919061173f565b6101a76101df36600461178e565b61049b565b60cb545b6040519081526020016101b3565b6101a76102043660046117b8565b6104b3565b6101e86102173660046117f4565b60009081526065602052604090206001015490565b61023f61023a36600461180d565b6104d7565b005b604051601281526020016101b3565b61023f61025e36600461180d565b610501565b6101a761027136600461178e565b610584565b61023f6105a6565b61023f61028c36600461178e565b610624565b61023f61029f3660046117f4565b61069f565b61023f6102b23660046118dc565b6106ac565b61012d5460ff166101a7565b6101e86102d1366004611940565b6001600160a01b0316600090815260c9602052604090205490565b61023f6102fa36600461178e565b6107c0565b61023f6107d5565b61031a61031536600461195b565b61084f565b6040516001600160a01b0390911681526020016101b3565b6101a761034036600461180d565b61086e565b6101c4610899565b6101e8600081565b6101a761036336600461178e565b6108a8565b6101a761037636600461178e565b610923565b6101e86103893660046117f4565b610931565b6101e8600080516020611c8883398151915281565b61023f6103b136600461180d565b610948565b6101e86103c436600461197d565b61096d565b6101e8600080516020611c6883398151915281565b60006001600160e01b03198216635a05180f60e01b1480610403575061040382610998565b92915050565b606060cc8054610418906119a7565b80601f0160208091040260200160405190810160405280929190818152602001828054610444906119a7565b80156104915780601f1061046657610100808354040283529160200191610491565b820191906000526020600020905b81548152906001019060200180831161047457829003601f168201915b5050505050905090565b6000336104a98185856109cd565b5060019392505050565b6000336104c1858285610af1565b6104cc858585610b6b565b506001949350505050565b6000828152606560205260409020600101546104f281610d32565b6104fc8383610d3c565b505050565b6001600160a01b03811633146105765760405162461bcd60e51b815260206004820152602f60248201527f416363657373436f6e74726f6c3a2063616e206f6e6c792072656e6f756e636560448201526e103937b632b9903337b91039b2b63360891b60648201526084015b60405180910390fd5b6105808282610d5e565b5050565b6000336104a9818585610597838361096d565b6105a191906119f7565b6109cd565b6105be600080516020611c688339815191523361086e565b61061a5760405162461bcd60e51b81526020600482015260396024820152600080516020611c4883398151915260448201527876652070617573657220726f6c6520746f20756e706175736560381b606482015260840161056d565b610622610d80565b565b61063c600080516020611c888339815191523361086e565b6106955760405162461bcd60e51b81526020600482015260366024820152600080516020611c488339815191526044820152751d99481b5a5b9d195c881c9bdb19481d1bc81b5a5b9d60521b606482015260840161056d565b6105808282610dd3565b6106a93382610eac565b50565b600054610100900460ff16158080156106cc5750600054600160ff909116105b806106e65750303b1580156106e6575060005460ff166001145b6107495760405162461bcd60e51b815260206004820152602e60248201527f496e697469616c697a61626c653a20636f6e747261637420697320616c72656160448201526d191e481a5b9a5d1a585b1a5e995960921b606482015260840161056d565b6000805460ff19166001179055801561076c576000805461ff0019166101001790555b6107768383610ff4565b80156104fc576000805461ff0019169055604051600181527f7f26b83ff96e1f2b6a682f133852f6798a09c465da95921460cefb38474024989060200160405180910390a1505050565b6107cb823383610af1565b6105808282610eac565b6107ed600080516020611c688339815191523361086e565b6108475760405162461bcd60e51b81526020600482015260376024820152600080516020611c4883398151915260448201527676652070617573657220726f6c6520746f20706175736560481b606482015260840161056d565b610622611037565b60008281526097602052604081206108679083611075565b9392505050565b60009182526065602090815260408084206001600160a01b0393909316845291905290205460ff1690565b606060cd8054610418906119a7565b600033816108b6828661096d565b9050838110156109165760405162461bcd60e51b815260206004820152602560248201527f45524332303a2064656372656173656420616c6c6f77616e63652062656c6f77604482015264207a65726f60d81b606482015260840161056d565b6104cc82868684036109cd565b6000336104a9818585610b6b565b600081815260976020526040812061040390611081565b60008281526065602052604090206001015461096381610d32565b6104fc8383610d5e565b6001600160a01b03918216600090815260ca6020908152604080832093909416825291909152205490565b60006001600160e01b03198216637965db0b60e01b148061040357506301ffc9a760e01b6001600160e01b0319831614610403565b6001600160a01b038316610a2f5760405162461bcd60e51b8152602060048201526024808201527f45524332303a20617070726f76652066726f6d20746865207a65726f206164646044820152637265737360e01b606482015260840161056d565b6001600160a01b038216610a905760405162461bcd60e51b815260206004820152602260248201527f45524332303a20617070726f766520746f20746865207a65726f206164647265604482015261737360f01b606482015260840161056d565b6001600160a01b03838116600081815260ca602090815260408083209487168084529482529182902085905590518481527f8c5be1e5ebec7d5bd14f71427d1e84f3dd0314c0f7b2291e5b200ac8c7c3b925910160405180910390a3505050565b6000610afd848461096d565b90506000198114610b655781811015610b585760405162461bcd60e51b815260206004820152601d60248201527f45524332303a20696e73756666696369656e7420616c6c6f77616e6365000000604482015260640161056d565b610b6584848484036109cd565b50505050565b6001600160a01b038316610bcf5760405162461bcd60e51b815260206004820152602560248201527f45524332303a207472616e736665722066726f6d20746865207a65726f206164604482015264647265737360d81b606482015260840161056d565b6001600160a01b038216610c315760405162461bcd60e51b815260206004820152602360248201527f45524332303a207472616e7366657220746f20746865207a65726f206164647260448201526265737360e81b606482015260840161056d565b610c3c83838361108b565b6001600160a01b038316600090815260c9602052604090205481811015610cb45760405162461bcd60e51b815260206004820152602660248201527f45524332303a207472616e7366657220616d6f756e7420657863656564732062604482015265616c616e636560d01b606482015260840161056d565b6001600160a01b03808516600090815260c96020526040808220858503905591851681529081208054849290610ceb9084906119f7565b92505081905550826001600160a01b0316846001600160a01b0316600080516020611ca883398151915284604051610d2591815260200190565b60405180910390a3610b65565b6106a98133611096565b610d4682826110fa565b60008281526097602052604090206104fc9082611180565b610d688282611195565b60008281526097602052604090206104fc90826111fc565b610d88611211565b61012d805460ff191690557f5db9ee0a495bf2e6ff9c91a7834c1ba4fdd244a5e8aa4e537bd38aeae4b073aa335b6040516001600160a01b03909116815260200160405180910390a1565b6001600160a01b038216610e295760405162461bcd60e51b815260206004820152601f60248201527f45524332303a206d696e7420746f20746865207a65726f206164647265737300604482015260640161056d565b610e356000838361108b565b8060cb6000828254610e4791906119f7565b90915550506001600160a01b038216600090815260c9602052604081208054839290610e749084906119f7565b90915550506040518181526001600160a01b03831690600090600080516020611ca88339815191529060200160405180910390a35050565b6001600160a01b038216610f0c5760405162461bcd60e51b815260206004820152602160248201527f45524332303a206275726e2066726f6d20746865207a65726f206164647265736044820152607360f81b606482015260840161056d565b610f188260008361108b565b6001600160a01b038216600090815260c9602052604090205481811015610f8c5760405162461bcd60e51b815260206004820152602260248201527f45524332303a206275726e20616d6f756e7420657863656564732062616c616e604482015261636560f01b606482015260840161056d565b6001600160a01b038316600090815260c960205260408120838303905560cb8054849290610fbb908490611a0a565b90915550506040518281526000906001600160a01b03851690600080516020611ca88339815191529060200160405180910390a3505050565b600054610100900460ff1661101b5760405162461bcd60e51b815260040161056d90611a1d565b611025828261125b565b61102d61129b565b61058082826112cf565b61103f611331565b61012d805460ff191660011790557f62e78cea01bee320cd4e420270b5ea74000d11b0c9f74754ebdbfc544b05a258610db63390565b60006108678383611378565b6000610403825490565b6104fc8383836113a2565b6110a0828261086e565b610580576110b8816001600160a01b03166014611409565b6110c3836020611409565b6040516020016110d4929190611a68565b60408051601f198184030181529082905262461bcd60e51b825261056d9160040161173f565b611104828261086e565b6105805760008281526065602090815260408083206001600160a01b03851684529091529020805460ff1916600117905561113c3390565b6001600160a01b0316816001600160a01b0316837f2f8788117e7eff1d82e926ec794901d17c78024a50270940304540a733656f0d60405160405180910390a45050565b6000610867836001600160a01b0384166115a5565b61119f828261086e565b156105805760008281526065602090815260408083206001600160a01b0385168085529252808320805460ff1916905551339285917ff6391f5c32d9c69d2a47ea670b442974b53935d1edc7fd64eb21e047a839171b9190a45050565b6000610867836001600160a01b0384166115f4565b61012d5460ff166106225760405162461bcd60e51b815260206004820152601460248201527314185d5cd8589b194e881b9bdd081c185d5cd95960621b604482015260640161056d565b600054610100900460ff166112825760405162461bcd60e51b815260040161056d90611a1d565b60cc61128e8382611b25565b5060cd6104fc8282611b25565b600054610100900460ff166112c25760405162461bcd60e51b815260040161056d90611a1d565b61012d805460ff19169055565b600054610100900460ff166112f65760405162461bcd60e51b815260040161056d90611a1d565b6113016000336116e7565b611319600080516020611c88833981519152336116e7565b610580600080516020611c68833981519152336116e7565b61012d5460ff16156106225760405162461bcd60e51b815260206004820152601060248201526f14185d5cd8589b194e881c185d5cd95960821b604482015260640161056d565b600082600001828154811061138f5761138f611be5565b9060005260206000200154905092915050565b61012d5460ff16156104fc5760405162461bcd60e51b815260206004820152602a60248201527f45524332305061757361626c653a20746f6b656e207472616e736665722077686044820152691a5b19481c185d5cd95960b21b606482015260840161056d565b60606000611418836002611bfb565b6114239060026119f7565b67ffffffffffffffff81111561143b5761143b611839565b6040519080825280601f01601f191660200182016040528015611465576020820181803683370190505b509050600360fc1b8160008151811061148057611480611be5565b60200101906001600160f81b031916908160001a905350600f60fb1b816001815181106114af576114af611be5565b60200101906001600160f81b031916908160001a90535060006114d3846002611bfb565b6114de9060016119f7565b90505b6001811115611556576f181899199a1a9b1b9c1cb0b131b232b360811b85600f166010811061151257611512611be5565b1a60f81b82828151811061152857611528611be5565b60200101906001600160f81b031916908160001a90535060049490941c9361154f81611c1a565b90506114e1565b5083156108675760405162461bcd60e51b815260206004820181905260248201527f537472696e67733a20686578206c656e67746820696e73756666696369656e74604482015260640161056d565b60008181526001830160205260408120546115ec57508154600181810184556000848152602080822090930184905584548482528286019093526040902091909155610403565b506000610403565b600081815260018301602052604081205480156116dd576000611618600183611a0a565b855490915060009061162c90600190611a0a565b905081811461169157600086600001828154811061164c5761164c611be5565b906000526020600020015490508087600001848154811061166f5761166f611be5565b6000918252602080832090910192909255918252600188019052604090208390555b85548690806116a2576116a2611c31565b600190038181906000526020600020016000905590558560010160008681526020019081526020016000206000905560019350505050610403565b6000915050610403565b6105808282610d3c565b60006020828403121561170357600080fd5b81356001600160e01b03198116811461086757600080fd5b60005b8381101561173657818101518382015260200161171e565b50506000910152565b602081526000825180602084015261175e81604085016020870161171b565b601f01601f19169190910160400192915050565b80356001600160a01b038116811461178957600080fd5b919050565b600080604083850312156117a157600080fd5b6117aa83611772565b946020939093013593505050565b6000806000606084860312156117cd57600080fd5b6117d684611772565b92506117e460208501611772565b9150604084013590509250925092565b60006020828403121561180657600080fd5b5035919050565b6000806040838503121561182057600080fd5b8235915061183060208401611772565b90509250929050565b634e487b7160e01b600052604160045260246000fd5b600082601f83011261186057600080fd5b813567ffffffffffffffff8082111561187b5761187b611839565b604051601f8301601f19908116603f011681019082821181831017156118a3576118a3611839565b816040528381528660208588010111156118bc57600080fd5b836020870160208301376000602085830101528094505050505092915050565b600080604083850312156118ef57600080fd5b823567ffffffffffffffff8082111561190757600080fd5b6119138683870161184f565b9350602085013591508082111561192957600080fd5b506119368582860161184f565b9150509250929050565b60006020828403121561195257600080fd5b61086782611772565b6000806040838503121561196e57600080fd5b50508035926020909101359150565b6000806040838503121561199057600080fd5b61199983611772565b915061183060208401611772565b600181811c908216806119bb57607f821691505b6020821081036119db57634e487b7160e01b600052602260045260246000fd5b50919050565b634e487b7160e01b600052601160045260246000fd5b80820180821115610403576104036119e1565b81810381811115610403576104036119e1565b6020808252602b908201527f496e697469616c697a61626c653a20636f6e7472616374206973206e6f74206960408201526a6e697469616c697a696e6760a81b606082015260800190565b76020b1b1b2b9b9a1b7b73a3937b61d1030b1b1b7bab73a1604d1b815260008351611a9a81601785016020880161171b565b7001034b99036b4b9b9b4b733903937b6329607d1b6017918401918201528351611acb81602884016020880161171b565b01602801949350505050565b601f8211156104fc57600081815260208120601f850160051c81016020861015611afe5750805b601f850160051c820191505b81811015611b1d57828155600101611b0a565b505050505050565b815167ffffffffffffffff811115611b3f57611b3f611839565b611b5381611b4d84546119a7565b84611ad7565b602080601f831160018114611b885760008415611b705750858301515b600019600386901b1c1916600185901b178555611b1d565b600085815260208120601f198616915b82811015611bb757888601518255948401946001909101908401611b98565b5085821015611bd55787850151600019600388901b60f8161c191681555b5050505050600190811b01905550565b634e487b7160e01b600052603260045260246000fd5b6000816000190483118215151615611c1557611c156119e1565b500290565b600081611c2957611c296119e1565b506000190190565b634e487b7160e01b600052603160045260246000fdfe45524332305072657365744d696e7465725061757365723a206d75737420686165d7a28e3265b37a6474929f336521b332c1681b933f6cb9f3376673440d862a9f2df0fed2c77648de5860a4cc508cd0818c85b8b8a1ab4ceeef8d981c8956a6ddf252ad1be2c89b69c2b068fc378daa952ba7f163c4a11628f55a4df523b3efa26469706673582212208ffc66d1fbf4b6e94ff8fd6fbb9b86e6512bf9aed75a9889379e64bc2554f33464736f6c63430008100033",
  "linkReferences": {},
  "deployedLinkReferences": {}
}